{
	"MemberToken_flattened.sol": {
		"MemberToken": {
			"abi": [
				{
					"inputs": [
						{
							"internalType": "address",
							"name": "initialOwner",
							"type": "address"
						}
					],
					"stateMutability": "nonpayable",
					"type": "constructor"
				},
				{
					"inputs": [],
					"name": "ECDSAInvalidSignature",
					"type": "error"
				},
				{
					"inputs": [
						{
							"internalType": "uint256",
							"name": "length",
							"type": "uint256"
						}
					],
					"name": "ECDSAInvalidSignatureLength",
					"type": "error"
				},
				{
					"inputs": [
						{
							"internalType": "bytes32",
							"name": "s",
							"type": "bytes32"
						}
					],
					"name": "ECDSAInvalidSignatureS",
					"type": "error"
				},
				{
					"inputs": [
						{
							"internalType": "address",
							"name": "spender",
							"type": "address"
						},
						{
							"internalType": "uint256",
							"name": "allowance",
							"type": "uint256"
						},
						{
							"internalType": "uint256",
							"name": "needed",
							"type": "uint256"
						}
					],
					"name": "ERC20InsufficientAllowance",
					"type": "error"
				},
				{
					"inputs": [
						{
							"internalType": "address",
							"name": "sender",
							"type": "address"
						},
						{
							"internalType": "uint256",
							"name": "balance",
							"type": "uint256"
						},
						{
							"internalType": "uint256",
							"name": "needed",
							"type": "uint256"
						}
					],
					"name": "ERC20InsufficientBalance",
					"type": "error"
				},
				{
					"inputs": [
						{
							"internalType": "address",
							"name": "approver",
							"type": "address"
						}
					],
					"name": "ERC20InvalidApprover",
					"type": "error"
				},
				{
					"inputs": [
						{
							"internalType": "address",
							"name": "receiver",
							"type": "address"
						}
					],
					"name": "ERC20InvalidReceiver",
					"type": "error"
				},
				{
					"inputs": [
						{
							"internalType": "address",
							"name": "sender",
							"type": "address"
						}
					],
					"name": "ERC20InvalidSender",
					"type": "error"
				},
				{
					"inputs": [
						{
							"internalType": "address",
							"name": "spender",
							"type": "address"
						}
					],
					"name": "ERC20InvalidSpender",
					"type": "error"
				},
				{
					"inputs": [
						{
							"internalType": "uint256",
							"name": "deadline",
							"type": "uint256"
						}
					],
					"name": "ERC2612ExpiredSignature",
					"type": "error"
				},
				{
					"inputs": [
						{
							"internalType": "address",
							"name": "signer",
							"type": "address"
						},
						{
							"internalType": "address",
							"name": "owner",
							"type": "address"
						}
					],
					"name": "ERC2612InvalidSigner",
					"type": "error"
				},
				{
					"inputs": [
						{
							"internalType": "address",
							"name": "account",
							"type": "address"
						},
						{
							"internalType": "uint256",
							"name": "currentNonce",
							"type": "uint256"
						}
					],
					"name": "InvalidAccountNonce",
					"type": "error"
				},
				{
					"inputs": [],
					"name": "InvalidShortString",
					"type": "error"
				},
				{
					"inputs": [
						{
							"internalType": "address",
							"name": "owner",
							"type": "address"
						}
					],
					"name": "OwnableInvalidOwner",
					"type": "error"
				},
				{
					"inputs": [
						{
							"internalType": "address",
							"name": "account",
							"type": "address"
						}
					],
					"name": "OwnableUnauthorizedAccount",
					"type": "error"
				},
				{
					"inputs": [
						{
							"internalType": "string",
							"name": "str",
							"type": "string"
						}
					],
					"name": "StringTooLong",
					"type": "error"
				},
				{
					"anonymous": false,
					"inputs": [
						{
							"indexed": true,
							"internalType": "address",
							"name": "owner",
							"type": "address"
						},
						{
							"indexed": true,
							"internalType": "address",
							"name": "spender",
							"type": "address"
						},
						{
							"indexed": false,
							"internalType": "uint256",
							"name": "value",
							"type": "uint256"
						}
					],
					"name": "Approval",
					"type": "event"
				},
				{
					"anonymous": false,
					"inputs": [],
					"name": "EIP712DomainChanged",
					"type": "event"
				},
				{
					"anonymous": false,
					"inputs": [
						{
							"indexed": true,
							"internalType": "address",
							"name": "previousOwner",
							"type": "address"
						},
						{
							"indexed": true,
							"internalType": "address",
							"name": "newOwner",
							"type": "address"
						}
					],
					"name": "OwnershipTransferred",
					"type": "event"
				},
				{
					"anonymous": false,
					"inputs": [
						{
							"indexed": true,
							"internalType": "address",
							"name": "from",
							"type": "address"
						},
						{
							"indexed": true,
							"internalType": "address",
							"name": "to",
							"type": "address"
						},
						{
							"indexed": false,
							"internalType": "uint256",
							"name": "value",
							"type": "uint256"
						}
					],
					"name": "Transfer",
					"type": "event"
				},
				{
					"inputs": [],
					"name": "DOMAIN_SEPARATOR",
					"outputs": [
						{
							"internalType": "bytes32",
							"name": "",
							"type": "bytes32"
						}
					],
					"stateMutability": "view",
					"type": "function"
				},
				{
					"inputs": [
						{
							"internalType": "address",
							"name": "owner",
							"type": "address"
						},
						{
							"internalType": "address",
							"name": "spender",
							"type": "address"
						}
					],
					"name": "allowance",
					"outputs": [
						{
							"internalType": "uint256",
							"name": "",
							"type": "uint256"
						}
					],
					"stateMutability": "view",
					"type": "function"
				},
				{
					"inputs": [
						{
							"internalType": "address",
							"name": "spender",
							"type": "address"
						},
						{
							"internalType": "uint256",
							"name": "value",
							"type": "uint256"
						}
					],
					"name": "approve",
					"outputs": [
						{
							"internalType": "bool",
							"name": "",
							"type": "bool"
						}
					],
					"stateMutability": "nonpayable",
					"type": "function"
				},
				{
					"inputs": [
						{
							"internalType": "address",
							"name": "account",
							"type": "address"
						}
					],
					"name": "balanceOf",
					"outputs": [
						{
							"internalType": "uint256",
							"name": "",
							"type": "uint256"
						}
					],
					"stateMutability": "view",
					"type": "function"
				},
				{
					"inputs": [],
					"name": "decimals",
					"outputs": [
						{
							"internalType": "uint8",
							"name": "",
							"type": "uint8"
						}
					],
					"stateMutability": "view",
					"type": "function"
				},
				{
					"inputs": [],
					"name": "eip712Domain",
					"outputs": [
						{
							"internalType": "bytes1",
							"name": "fields",
							"type": "bytes1"
						},
						{
							"internalType": "string",
							"name": "name",
							"type": "string"
						},
						{
							"internalType": "string",
							"name": "version",
							"type": "string"
						},
						{
							"internalType": "uint256",
							"name": "chainId",
							"type": "uint256"
						},
						{
							"internalType": "address",
							"name": "verifyingContract",
							"type": "address"
						},
						{
							"internalType": "bytes32",
							"name": "salt",
							"type": "bytes32"
						},
						{
							"internalType": "uint256[]",
							"name": "extensions",
							"type": "uint256[]"
						}
					],
					"stateMutability": "view",
					"type": "function"
				},
				{
					"inputs": [
						{
							"internalType": "address",
							"name": "to",
							"type": "address"
						},
						{
							"internalType": "uint256",
							"name": "amount",
							"type": "uint256"
						}
					],
					"name": "mint",
					"outputs": [],
					"stateMutability": "nonpayable",
					"type": "function"
				},
				{
					"inputs": [],
					"name": "name",
					"outputs": [
						{
							"internalType": "string",
							"name": "",
							"type": "string"
						}
					],
					"stateMutability": "view",
					"type": "function"
				},
				{
					"inputs": [
						{
							"internalType": "address",
							"name": "owner",
							"type": "address"
						}
					],
					"name": "nonces",
					"outputs": [
						{
							"internalType": "uint256",
							"name": "",
							"type": "uint256"
						}
					],
					"stateMutability": "view",
					"type": "function"
				},
				{
					"inputs": [],
					"name": "owner",
					"outputs": [
						{
							"internalType": "address",
							"name": "",
							"type": "address"
						}
					],
					"stateMutability": "view",
					"type": "function"
				},
				{
					"inputs": [
						{
							"internalType": "address",
							"name": "owner",
							"type": "address"
						},
						{
							"internalType": "address",
							"name": "spender",
							"type": "address"
						},
						{
							"internalType": "uint256",
							"name": "value",
							"type": "uint256"
						},
						{
							"internalType": "uint256",
							"name": "deadline",
							"type": "uint256"
						},
						{
							"internalType": "uint8",
							"name": "v",
							"type": "uint8"
						},
						{
							"internalType": "bytes32",
							"name": "r",
							"type": "bytes32"
						},
						{
							"internalType": "bytes32",
							"name": "s",
							"type": "bytes32"
						}
					],
					"name": "permit",
					"outputs": [],
					"stateMutability": "nonpayable",
					"type": "function"
				},
				{
					"inputs": [],
					"name": "renounceOwnership",
					"outputs": [],
					"stateMutability": "nonpayable",
					"type": "function"
				},
				{
					"inputs": [],
					"name": "symbol",
					"outputs": [
						{
							"internalType": "string",
							"name": "",
							"type": "string"
						}
					],
					"stateMutability": "view",
					"type": "function"
				},
				{
					"inputs": [],
					"name": "totalSupply",
					"outputs": [
						{
							"internalType": "uint256",
							"name": "",
							"type": "uint256"
						}
					],
					"stateMutability": "view",
					"type": "function"
				},
				{
					"inputs": [
						{
							"internalType": "address",
							"name": "to",
							"type": "address"
						},
						{
							"internalType": "uint256",
							"name": "value",
							"type": "uint256"
						}
					],
					"name": "transfer",
					"outputs": [
						{
							"internalType": "bool",
							"name": "",
							"type": "bool"
						}
					],
					"stateMutability": "nonpayable",
					"type": "function"
				},
				{
					"inputs": [
						{
							"internalType": "address",
							"name": "from",
							"type": "address"
						},
						{
							"internalType": "address",
							"name": "to",
							"type": "address"
						},
						{
							"internalType": "uint256",
							"name": "value",
							"type": "uint256"
						}
					],
					"name": "transferFrom",
					"outputs": [
						{
							"internalType": "bool",
							"name": "",
							"type": "bool"
						}
					],
					"stateMutability": "nonpayable",
					"type": "function"
				},
				{
					"inputs": [
						{
							"internalType": "address",
							"name": "newOwner",
							"type": "address"
						}
					],
					"name": "transferOwnership",
					"outputs": [],
					"stateMutability": "nonpayable",
					"type": "function"
				}
			],
			"devdoc": {
				"errors": {
					"ECDSAInvalidSignature()": [
						{
							"details": "The signature derives the `address(0)`."
						}
					],
					"ECDSAInvalidSignatureLength(uint256)": [
						{
							"details": "The signature has an invalid length."
						}
					],
					"ECDSAInvalidSignatureS(bytes32)": [
						{
							"details": "The signature has an S value that is in the upper half order."
						}
					],
					"ERC20InsufficientAllowance(address,uint256,uint256)": [
						{
							"details": "Indicates a failure with the `spender`’s `allowance`. Used in transfers.",
							"params": {
								"allowance": "Amount of tokens a `spender` is allowed to operate with.",
								"needed": "Minimum amount required to perform a transfer.",
								"spender": "Address that may be allowed to operate on tokens without being their owner."
							}
						}
					],
					"ERC20InsufficientBalance(address,uint256,uint256)": [
						{
							"details": "Indicates an error related to the current `balance` of a `sender`. Used in transfers.",
							"params": {
								"balance": "Current balance for the interacting account.",
								"needed": "Minimum amount required to perform a transfer.",
								"sender": "Address whose tokens are being transferred."
							}
						}
					],
					"ERC20InvalidApprover(address)": [
						{
							"details": "Indicates a failure with the `approver` of a token to be approved. Used in approvals.",
							"params": {
								"approver": "Address initiating an approval operation."
							}
						}
					],
					"ERC20InvalidReceiver(address)": [
						{
							"details": "Indicates a failure with the token `receiver`. Used in transfers.",
							"params": {
								"receiver": "Address to which tokens are being transferred."
							}
						}
					],
					"ERC20InvalidSender(address)": [
						{
							"details": "Indicates a failure with the token `sender`. Used in transfers.",
							"params": {
								"sender": "Address whose tokens are being transferred."
							}
						}
					],
					"ERC20InvalidSpender(address)": [
						{
							"details": "Indicates a failure with the `spender` to be approved. Used in approvals.",
							"params": {
								"spender": "Address that may be allowed to operate on tokens without being their owner."
							}
						}
					],
					"ERC2612ExpiredSignature(uint256)": [
						{
							"details": "Permit deadline has expired."
						}
					],
					"ERC2612InvalidSigner(address,address)": [
						{
							"details": "Mismatched signature."
						}
					],
					"InvalidAccountNonce(address,uint256)": [
						{
							"details": "The nonce used for an `account` is not the expected current nonce."
						}
					],
					"OwnableInvalidOwner(address)": [
						{
							"details": "The owner is not a valid owner account. (eg. `address(0)`)"
						}
					],
					"OwnableUnauthorizedAccount(address)": [
						{
							"details": "The caller account is not authorized to perform an operation."
						}
					]
				},
				"events": {
					"Approval(address,address,uint256)": {
						"details": "Emitted when the allowance of a `spender` for an `owner` is set by a call to {approve}. `value` is the new allowance."
					},
					"EIP712DomainChanged()": {
						"details": "MAY be emitted to signal that the domain could have changed."
					},
					"Transfer(address,address,uint256)": {
						"details": "Emitted when `value` tokens are moved from one account (`from`) to another (`to`). Note that `value` may be zero."
					}
				},
				"kind": "dev",
				"methods": {
					"DOMAIN_SEPARATOR()": {
						"details": "Returns the domain separator used in the encoding of the signature for {permit}, as defined by {EIP712}."
					},
					"allowance(address,address)": {
						"details": "See {IERC20-allowance}."
					},
					"approve(address,uint256)": {
						"details": "See {IERC20-approve}. NOTE: If `value` is the maximum `uint256`, the allowance is not updated on `transferFrom`. This is semantically equivalent to an infinite approval. Requirements: - `spender` cannot be the zero address."
					},
					"balanceOf(address)": {
						"details": "See {IERC20-balanceOf}."
					},
					"decimals()": {
						"details": "Returns the number of decimals used to get its user representation. For example, if `decimals` equals `2`, a balance of `505` tokens should be displayed to a user as `5.05` (`505 / 10 ** 2`). Tokens usually opt for a value of 18, imitating the relationship between Ether and Wei. This is the default value returned by this function, unless it's overridden. NOTE: This information is only used for _display_ purposes: it in no way affects any of the arithmetic of the contract, including {IERC20-balanceOf} and {IERC20-transfer}."
					},
					"eip712Domain()": {
						"details": "See {IERC-5267}."
					},
					"name()": {
						"details": "Returns the name of the token."
					},
					"nonces(address)": {
						"details": "Returns the current nonce for `owner`. This value must be included whenever a signature is generated for {permit}. Every successful call to {permit} increases ``owner``'s nonce by one. This prevents a signature from being used multiple times."
					},
					"owner()": {
						"details": "Returns the address of the current owner."
					},
					"permit(address,address,uint256,uint256,uint8,bytes32,bytes32)": {
						"details": "Sets `value` as the allowance of `spender` over ``owner``'s tokens, given ``owner``'s signed approval. IMPORTANT: The same issues {IERC20-approve} has related to transaction ordering also apply here. Emits an {Approval} event. Requirements: - `spender` cannot be the zero address. - `deadline` must be a timestamp in the future. - `v`, `r` and `s` must be a valid `secp256k1` signature from `owner` over the EIP712-formatted function arguments. - the signature must use ``owner``'s current nonce (see {nonces}). For more information on the signature format, see the https://eips.ethereum.org/EIPS/eip-2612#specification[relevant EIP section]. CAUTION: See Security Considerations above."
					},
					"renounceOwnership()": {
						"details": "Leaves the contract without owner. It will not be possible to call `onlyOwner` functions. Can only be called by the current owner. NOTE: Renouncing ownership will leave the contract without an owner, thereby disabling any functionality that is only available to the owner."
					},
					"symbol()": {
						"details": "Returns the symbol of the token, usually a shorter version of the name."
					},
					"totalSupply()": {
						"details": "See {IERC20-totalSupply}."
					},
					"transfer(address,uint256)": {
						"details": "See {IERC20-transfer}. Requirements: - `to` cannot be the zero address. - the caller must have a balance of at least `value`."
					},
					"transferFrom(address,address,uint256)": {
						"details": "See {IERC20-transferFrom}. Emits an {Approval} event indicating the updated allowance. This is not required by the EIP. See the note at the beginning of {ERC20}. NOTE: Does not update the allowance if the current allowance is the maximum `uint256`. Requirements: - `from` and `to` cannot be the zero address. - `from` must have a balance of at least `value`. - the caller must have allowance for ``from``'s tokens of at least `value`."
					},
					"transferOwnership(address)": {
						"details": "Transfers ownership of the contract to a new account (`newOwner`). Can only be called by the current owner."
					}
				},
				"version": 1
			},
			"evm": {
				"assembly": "    /* \"MemberToken_flattened.sol\":79691:80023  contract MemberToken is ERC20, Ownable, ERC20Permit {... */\n  mstore(0x40, 0x0160)\n    /* \"MemberToken_flattened.sol\":79749:79892  constructor(address initialOwner)... */\n  callvalue\n  dup1\n  iszero\n  tag_1\n  jumpi\n  0x00\n  dup1\n  revert\ntag_1:\n  pop\n  mload(0x40)\n  sub(codesize, bytecodeSize)\n  dup1\n  bytecodeSize\n  dup4\n  codecopy\n  dup2\n  dup2\n  add\n  0x40\n  mstore\n  dup2\n  add\n  swap1\n  tag_2\n  swap2\n  swap1\n  tag_3\n  jump\t// in\ntag_2:\n    /* \"MemberToken_flattened.sol\":78388:78440  constructor(string memory name) EIP712(name, \"1\") {} */\n  mload(0x40)\n  dup1\n  0x40\n  add\n  0x40\n  mstore\n  dup1\n  0x0b\n  dup2\n  mstore\n  0x20\n  add\n  0x4d656d626572546f6b656e000000000000000000000000000000000000000000\n  dup2\n  mstore\n  pop\n    /* \"MemberToken_flattened.sol\":78427:78431  name */\n  dup1\n    /* \"MemberToken_flattened.sol\":36997:37428  constructor(string memory name, string memory version) {... */\n  mload(0x40)\n  dup1\n  0x40\n  add\n  0x40\n  mstore\n  dup1\n  0x01\n  dup2\n  mstore\n  0x20\n  add\n  0x3100000000000000000000000000000000000000000000000000000000000000\n  dup2\n  mstore\n  pop\n    /* \"MemberToken_flattened.sol\":79837:79849  initialOwner */\n  dup4\n    /* \"MemberToken_flattened.sol\":67775:67888  constructor(string memory name_, string memory symbol_) {... */\n  mload(0x40)\n  dup1\n  0x40\n  add\n  0x40\n  mstore\n  dup1\n  0x0b\n  dup2\n  mstore\n  0x20\n  add\n  0x4d656d626572546f6b656e000000000000000000000000000000000000000000\n  dup2\n  mstore\n  pop\n  mload(0x40)\n  dup1\n  0x40\n  add\n  0x40\n  mstore\n  dup1\n  0x05\n  dup2\n  mstore\n  0x20\n  add\n  0x4d544b3130000000000000000000000000000000000000000000000000000000\n  dup2\n  mstore\n  pop\n    /* \"MemberToken_flattened.sol\":67849:67854  name_ */\n  dup2\n    /* \"MemberToken_flattened.sol\":67841:67846  _name */\n  0x03\n    /* \"MemberToken_flattened.sol\":67841:67854  _name = name_ */\n  swap1\n  dup2\n  tag_10\n  swap2\n  swap1\n  tag_11\n  jump\t// in\ntag_10:\n  pop\n    /* \"MemberToken_flattened.sol\":67874:67881  symbol_ */\n  dup1\n    /* \"MemberToken_flattened.sol\":67864:67871  _symbol */\n  0x04\n    /* \"MemberToken_flattened.sol\":67864:67881  _symbol = symbol_ */\n  swap1\n  dup2\n  tag_12\n  swap2\n  swap1\n  tag_11\n  jump\t// in\ntag_12:\n  pop\n    /* \"MemberToken_flattened.sol\":67775:67888  constructor(string memory name_, string memory symbol_) {... */\n  pop\n  pop\n    /* \"MemberToken_flattened.sol\":60746:60747  0 */\n  0x00\n    /* \"MemberToken_flattened.sol\":60722:60748  initialOwner == address(0) */\n  0xffffffffffffffffffffffffffffffffffffffff\n  and\n    /* \"MemberToken_flattened.sol\":60722:60734  initialOwner */\n  dup2\n    /* \"MemberToken_flattened.sol\":60722:60748  initialOwner == address(0) */\n  0xffffffffffffffffffffffffffffffffffffffff\n  and\n  sub\n    /* \"MemberToken_flattened.sol\":60718:60813  if (initialOwner == address(0)) {... */\n  tag_14\n  jumpi\n    /* \"MemberToken_flattened.sol\":60799:60800  0 */\n  0x00\n    /* \"MemberToken_flattened.sol\":60771:60802  OwnableInvalidOwner(address(0)) */\n  mload(0x40)\n  0x1e4fbdf700000000000000000000000000000000000000000000000000000000\n  dup2\n  mstore\n  0x04\n  add\n  tag_15\n  swap2\n  swap1\n  tag_16\n  jump\t// in\ntag_15:\n  mload(0x40)\n  dup1\n  swap2\n  sub\n  swap1\n  revert\n    /* \"MemberToken_flattened.sol\":60718:60813  if (initialOwner == address(0)) {... */\ntag_14:\n    /* \"MemberToken_flattened.sol\":60822:60854  _transferOwnership(initialOwner) */\n  tag_17\n    /* \"MemberToken_flattened.sol\":60841:60853  initialOwner */\n  dup2\n    /* \"MemberToken_flattened.sol\":60822:60840  _transferOwnership */\n  shl(0x20, tag_18)\n    /* \"MemberToken_flattened.sol\":60822:60854  _transferOwnership(initialOwner) */\n  0x20\n  shr\n  jump\t// in\ntag_17:\n    /* \"MemberToken_flattened.sol\":60674:60861  constructor(address initialOwner) {... */\n  pop\n    /* \"MemberToken_flattened.sol\":37070:37115  name.toShortStringWithFallback(_nameFallback) */\n  tag_20\n    /* \"MemberToken_flattened.sol\":37101:37114  _nameFallback */\n  0x06\n    /* \"MemberToken_flattened.sol\":37070:37074  name */\n  dup4\n    /* \"MemberToken_flattened.sol\":37070:37100  name.toShortStringWithFallback */\n  shl(0x20, tag_21)\n  swap1\n    /* \"MemberToken_flattened.sol\":37070:37115  name.toShortStringWithFallback(_nameFallback) */\n  swap2\n  swap1\n  0x20\n  shr\n  jump\t// in\ntag_20:\n    /* \"MemberToken_flattened.sol\":37062:37115  _name = name.toShortStringWithFallback(_nameFallback) */\n  0x0120\n  dup2\n  dup2\n  mstore\n  pop\n  pop\n    /* \"MemberToken_flattened.sol\":37136:37187  version.toShortStringWithFallback(_versionFallback) */\n  tag_22\n    /* \"MemberToken_flattened.sol\":37170:37186  _versionFallback */\n  0x07\n    /* \"MemberToken_flattened.sol\":37136:37143  version */\n  dup3\n    /* \"MemberToken_flattened.sol\":37136:37169  version.toShortStringWithFallback */\n  shl(0x20, tag_21)\n  swap1\n    /* \"MemberToken_flattened.sol\":37136:37187  version.toShortStringWithFallback(_versionFallback) */\n  swap2\n  swap1\n  0x20\n  shr\n  jump\t// in\ntag_22:\n    /* \"MemberToken_flattened.sol\":37125:37187  _version = version.toShortStringWithFallback(_versionFallback) */\n  0x0140\n  dup2\n  dup2\n  mstore\n  pop\n  pop\n    /* \"MemberToken_flattened.sol\":37227:37231  name */\n  dup2\n    /* \"MemberToken_flattened.sol\":37211:37233  keccak256(bytes(name)) */\n  dup1\n  mload\n  swap1\n  0x20\n  add\n  keccak256\n    /* \"MemberToken_flattened.sol\":37197:37233  _hashedName = keccak256(bytes(name)) */\n  0xe0\n  dup2\n  dup2\n  mstore\n  pop\n  pop\n    /* \"MemberToken_flattened.sol\":37276:37283  version */\n  dup1\n    /* \"MemberToken_flattened.sol\":37260:37285  keccak256(bytes(version)) */\n  dup1\n  mload\n  swap1\n  0x20\n  add\n  keccak256\n    /* \"MemberToken_flattened.sol\":37243:37285  _hashedVersion = keccak256(bytes(version)) */\n  0x0100\n  dup2\n  dup2\n  mstore\n  pop\n  pop\n    /* \"MemberToken_flattened.sol\":37313:37326  block.chainid */\n  chainid\n    /* \"MemberToken_flattened.sol\":37296:37326  _cachedChainId = block.chainid */\n  0xa0\n  dup2\n  dup2\n  mstore\n  pop\n  pop\n    /* \"MemberToken_flattened.sol\":37361:37384  _buildDomainSeparator() */\n  tag_23\n    /* \"MemberToken_flattened.sol\":37361:37382  _buildDomainSeparator */\n  shl(0x20, tag_24)\n    /* \"MemberToken_flattened.sol\":37361:37384  _buildDomainSeparator() */\n  0x20\n  shr\n  jump\t// in\ntag_23:\n    /* \"MemberToken_flattened.sol\":37336:37384  _cachedDomainSeparator = _buildDomainSeparator() */\n  0x80\n  dup2\n  dup2\n  mstore\n  pop\n  pop\n    /* \"MemberToken_flattened.sol\":37416:37420  this */\n  address\n    /* \"MemberToken_flattened.sol\":37394:37421  _cachedThis = address(this) */\n  0xffffffffffffffffffffffffffffffffffffffff\n  and\n  0xc0\n  dup2\n  0xffffffffffffffffffffffffffffffffffffffff\n  and\n  dup2\n  mstore\n  pop\n  pop\n    /* \"MemberToken_flattened.sol\":36997:37428  constructor(string memory name, string memory version) {... */\n  pop\n  pop\n    /* \"MemberToken_flattened.sol\":78388:78440  constructor(string memory name) EIP712(name, \"1\") {} */\n  pop\n    /* \"MemberToken_flattened.sol\":79749:79892  constructor(address initialOwner)... */\n  pop\n    /* \"MemberToken_flattened.sol\":79691:80023  contract MemberToken is ERC20, Ownable, ERC20Permit {... */\n  jump(tag_27)\n    /* \"MemberToken_flattened.sol\":62361:62548  function _transferOwnership(address newOwner) internal virtual {... */\ntag_18:\n    /* \"MemberToken_flattened.sol\":62434:62450  address oldOwner */\n  0x00\n    /* \"MemberToken_flattened.sol\":62453:62459  _owner */\n  0x05\n  0x00\n  swap1\n  sload\n  swap1\n  0x0100\n  exp\n  swap1\n  div\n  0xffffffffffffffffffffffffffffffffffffffff\n  and\n    /* \"MemberToken_flattened.sol\":62434:62459  address oldOwner = _owner */\n  swap1\n  pop\n    /* \"MemberToken_flattened.sol\":62478:62486  newOwner */\n  dup2\n    /* \"MemberToken_flattened.sol\":62469:62475  _owner */\n  0x05\n  0x00\n    /* \"MemberToken_flattened.sol\":62469:62486  _owner = newOwner */\n  0x0100\n  exp\n  dup2\n  sload\n  dup2\n  0xffffffffffffffffffffffffffffffffffffffff\n  mul\n  not\n  and\n  swap1\n  dup4\n  0xffffffffffffffffffffffffffffffffffffffff\n  and\n  mul\n  or\n  swap1\n  sstore\n  pop\n    /* \"MemberToken_flattened.sol\":62532:62540  newOwner */\n  dup2\n    /* \"MemberToken_flattened.sol\":62501:62541  OwnershipTransferred(oldOwner, newOwner) */\n  0xffffffffffffffffffffffffffffffffffffffff\n  and\n    /* \"MemberToken_flattened.sol\":62522:62530  oldOwner */\n  dup2\n    /* \"MemberToken_flattened.sol\":62501:62541  OwnershipTransferred(oldOwner, newOwner) */\n  0xffffffffffffffffffffffffffffffffffffffff\n  and\n  0x8be0079c531659141344cd1fd0a4f28419497f9722a3daafe3b4186f6b6457e0\n  mload(0x40)\n  mload(0x40)\n  dup1\n  swap2\n  sub\n  swap1\n  log3\n    /* \"MemberToken_flattened.sol\":62424:62548  {... */\n  pop\n    /* \"MemberToken_flattened.sol\":62361:62548  function _transferOwnership(address newOwner) internal virtual {... */\n  pop\n  jump\t// out\n    /* \"MemberToken_flattened.sol\":9153:9493  function toShortStringWithFallback(string memory value, string storage store) internal returns (ShortString) {... */\ntag_21:\n    /* \"MemberToken_flattened.sol\":9249:9260  ShortString */\n  0x00\n    /* \"MemberToken_flattened.sol\":9298:9300  32 */\n  0x20\n    /* \"MemberToken_flattened.sol\":9282:9287  value */\n  dup4\n    /* \"MemberToken_flattened.sol\":9276:9295  bytes(value).length */\n  mload\n    /* \"MemberToken_flattened.sol\":9276:9300  bytes(value).length < 32 */\n  lt\n    /* \"MemberToken_flattened.sol\":9272:9487  if (bytes(value).length < 32) {... */\n  iszero\n  tag_30\n  jumpi\n    /* \"MemberToken_flattened.sol\":9323:9343  toShortString(value) */\n  tag_31\n    /* \"MemberToken_flattened.sol\":9337:9342  value */\n  dup4\n    /* \"MemberToken_flattened.sol\":9323:9336  toShortString */\n  shl(0x20, tag_32)\n    /* \"MemberToken_flattened.sol\":9323:9343  toShortString(value) */\n  0x20\n  shr\n  jump\t// in\ntag_31:\n    /* \"MemberToken_flattened.sol\":9316:9343  return toShortString(value) */\n  swap1\n  pop\n  jump(tag_29)\n    /* \"MemberToken_flattened.sol\":9272:9487  if (bytes(value).length < 32) {... */\ntag_30:\n    /* \"MemberToken_flattened.sol\":9415:9420  value */\n  dup3\n    /* \"MemberToken_flattened.sol\":9374:9406  StorageSlot.getStringSlot(store) */\n  tag_34\n    /* \"MemberToken_flattened.sol\":9400:9405  store */\n  dup4\n    /* \"MemberToken_flattened.sol\":9374:9399  StorageSlot.getStringSlot */\n  shl(0x20, tag_35)\n    /* \"MemberToken_flattened.sol\":9374:9406  StorageSlot.getStringSlot(store) */\n  0x20\n  shr\n  jump\t// in\ntag_34:\n    /* \"MemberToken_flattened.sol\":9374:9412  StorageSlot.getStringSlot(store).value */\n  0x00\n  add\n    /* \"MemberToken_flattened.sol\":9374:9420  StorageSlot.getStringSlot(store).value = value */\n  swap1\n  dup2\n  tag_36\n  swap2\n  swap1\n  tag_11\n  jump\t// in\ntag_36:\n  pop\n    /* \"MemberToken_flattened.sol\":7629:7695  0x00000000000000000000000000000000000000000000000000000000000000FF */\n  0xff\n    /* \"MemberToken_flattened.sol\":9458:9475  FALLBACK_SENTINEL */\n  0x00\n  shl\n    /* \"MemberToken_flattened.sol\":9434:9476  return ShortString.wrap(FALLBACK_SENTINEL) */\n  swap1\n  pop\n    /* \"MemberToken_flattened.sol\":9153:9493  function toShortStringWithFallback(string memory value, string storage store) internal returns (ShortString) {... */\ntag_29:\n  swap3\n  swap2\n  pop\n  pop\n  jump\t// out\n    /* \"MemberToken_flattened.sol\":37782:37961  function _buildDomainSeparator() private view returns (bytes32) {... */\ntag_24:\n    /* \"MemberToken_flattened.sol\":37837:37844  bytes32 */\n  0x00\n    /* \"MemberToken_flattened.sol\":35748:35843  keccak256(\"EIP712Domain(string name,string version,uint256 chainId,address verifyingContract)\") */\n  0x8b73c3c69bb8fe3d512ecc4cf759cc79239f7b179b0ffacaa9a75d522b39400f\n    /* \"MemberToken_flattened.sol\":37895:37906  _hashedName */\n  mload(0xe0)\n    /* \"MemberToken_flattened.sol\":37908:37922  _hashedVersion */\n  mload(0x0100)\n    /* \"MemberToken_flattened.sol\":37924:37937  block.chainid */\n  chainid\n    /* \"MemberToken_flattened.sol\":37947:37951  this */\n  address\n    /* \"MemberToken_flattened.sol\":37873:37953  abi.encode(TYPE_HASH, _hashedName, _hashedVersion, block.chainid, address(this)) */\n  add(0x20, mload(0x40))\n  tag_38\n  swap6\n  swap5\n  swap4\n  swap3\n  swap2\n  swap1\n  tag_39\n  jump\t// in\ntag_38:\n  mload(0x40)\n  0x20\n  dup2\n  dup4\n  sub\n  sub\n  dup2\n  mstore\n  swap1\n  0x40\n  mstore\n    /* \"MemberToken_flattened.sol\":37863:37954  keccak256(abi.encode(TYPE_HASH, _hashedName, _hashedVersion, block.chainid, address(this))) */\n  dup1\n  mload\n  swap1\n  0x20\n  add\n  keccak256\n    /* \"MemberToken_flattened.sol\":37856:37954  return keccak256(abi.encode(TYPE_HASH, _hashedName, _hashedVersion, block.chainid, address(this))) */\n  swap1\n  pop\n    /* \"MemberToken_flattened.sol\":37782:37961  function _buildDomainSeparator() private view returns (bytes32) {... */\n  swap1\n  jump\t// out\n    /* \"MemberToken_flattened.sol\":7947:8233  function toShortString(string memory str) internal pure returns (ShortString) {... */\ntag_32:\n    /* \"MemberToken_flattened.sol\":8012:8023  ShortString */\n  0x00\n    /* \"MemberToken_flattened.sol\":8035:8052  bytes memory bstr */\n  dup1\n    /* \"MemberToken_flattened.sol\":8061:8064  str */\n  dup3\n    /* \"MemberToken_flattened.sol\":8035:8065  bytes memory bstr = bytes(str) */\n  swap1\n  pop\n    /* \"MemberToken_flattened.sol\":8093:8095  31 */\n  0x1f\n    /* \"MemberToken_flattened.sol\":8079:8083  bstr */\n  dup2\n    /* \"MemberToken_flattened.sol\":8079:8090  bstr.length */\n  mload\n    /* \"MemberToken_flattened.sol\":8079:8095  bstr.length > 31 */\n  gt\n    /* \"MemberToken_flattened.sol\":8075:8147  if (bstr.length > 31) {... */\n  iszero\n  tag_41\n  jumpi\n    /* \"MemberToken_flattened.sol\":8132:8135  str */\n  dup3\n    /* \"MemberToken_flattened.sol\":8118:8136  StringTooLong(str) */\n  mload(0x40)\n  0x305a27a900000000000000000000000000000000000000000000000000000000\n  dup2\n  mstore\n  0x04\n  add\n  tag_42\n  swap2\n  swap1\n  tag_43\n  jump\t// in\ntag_42:\n  mload(0x40)\n  dup1\n  swap2\n  sub\n  swap1\n  revert\n    /* \"MemberToken_flattened.sol\":8075:8147  if (bstr.length > 31) {... */\ntag_41:\n    /* \"MemberToken_flattened.sol\":8213:8217  bstr */\n  dup1\n    /* \"MemberToken_flattened.sol\":8213:8224  bstr.length */\n  mload\n    /* \"MemberToken_flattened.sol\":8204:8208  bstr */\n  dup2\n    /* \"MemberToken_flattened.sol\":8196:8209  bytes32(bstr) */\n  tag_44\n  swap1\n  tag_45\n  jump\t// in\ntag_44:\n    /* \"MemberToken_flattened.sol\":8188:8210  uint256(bytes32(bstr)) */\n  0x00\n  shr\n    /* \"MemberToken_flattened.sol\":8188:8224  uint256(bytes32(bstr)) | bstr.length */\n  or\n    /* \"MemberToken_flattened.sol\":8180:8225  bytes32(uint256(bytes32(bstr)) | bstr.length) */\n  0x00\n  shl\n    /* \"MemberToken_flattened.sol\":8156:8226  return ShortString.wrap(bytes32(uint256(bytes32(bstr)) | bstr.length)) */\n  swap2\n  pop\n  pop\n    /* \"MemberToken_flattened.sol\":7947:8233  function toShortString(string memory str) internal pure returns (ShortString) {... */\n  swap2\n  swap1\n  pop\n  jump\t// out\n    /* \"MemberToken_flattened.sol\":5457:5659  function getStringSlot(string storage store) internal pure returns (StringSlot storage r) {... */\ntag_35:\n    /* \"MemberToken_flattened.sol\":5525:5545  StringSlot storage r */\n  0x00\n    /* \"MemberToken_flattened.sol\":5633:5643  store.slot */\n  dup2\n    /* \"MemberToken_flattened.sol\":5623:5643  r.slot := store.slot */\n  swap1\n  pop\n    /* \"MemberToken_flattened.sol\":5457:5659  function getStringSlot(string storage store) internal pure returns (StringSlot storage r) {... */\n  swap2\n  swap1\n  pop\n  jump\t// out\n    /* \"#utility.yul\":88:205   */\ntag_48:\n    /* \"#utility.yul\":197:198   */\n  0x00\n    /* \"#utility.yul\":194:195   */\n  dup1\n    /* \"#utility.yul\":187:199   */\n  revert\n    /* \"#utility.yul\":334:460   */\ntag_50:\n    /* \"#utility.yul\":371:378   */\n  0x00\n    /* \"#utility.yul\":411:453   */\n  0xffffffffffffffffffffffffffffffffffffffff\n    /* \"#utility.yul\":404:409   */\n  dup3\n    /* \"#utility.yul\":400:454   */\n  and\n    /* \"#utility.yul\":389:454   */\n  swap1\n  pop\n    /* \"#utility.yul\":334:460   */\n  swap2\n  swap1\n  pop\n  jump\t// out\n    /* \"#utility.yul\":466:562   */\ntag_51:\n    /* \"#utility.yul\":503:510   */\n  0x00\n    /* \"#utility.yul\":532:556   */\n  tag_91\n    /* \"#utility.yul\":550:555   */\n  dup3\n    /* \"#utility.yul\":532:556   */\n  tag_50\n  jump\t// in\ntag_91:\n    /* \"#utility.yul\":521:556   */\n  swap1\n  pop\n    /* \"#utility.yul\":466:562   */\n  swap2\n  swap1\n  pop\n  jump\t// out\n    /* \"#utility.yul\":568:690   */\ntag_52:\n    /* \"#utility.yul\":641:665   */\n  tag_93\n    /* \"#utility.yul\":659:664   */\n  dup2\n    /* \"#utility.yul\":641:665   */\n  tag_51\n  jump\t// in\ntag_93:\n    /* \"#utility.yul\":634:639   */\n  dup2\n    /* \"#utility.yul\":631:666   */\n  eq\n    /* \"#utility.yul\":621:684   */\n  tag_94\n  jumpi\n    /* \"#utility.yul\":680:681   */\n  0x00\n    /* \"#utility.yul\":677:678   */\n  dup1\n    /* \"#utility.yul\":670:682   */\n  revert\n    /* \"#utility.yul\":621:684   */\ntag_94:\n    /* \"#utility.yul\":568:690   */\n  pop\n  jump\t// out\n    /* \"#utility.yul\":696:839   */\ntag_53:\n    /* \"#utility.yul\":753:758   */\n  0x00\n    /* \"#utility.yul\":784:790   */\n  dup2\n    /* \"#utility.yul\":778:791   */\n  mload\n    /* \"#utility.yul\":769:791   */\n  swap1\n  pop\n    /* \"#utility.yul\":800:833   */\n  tag_96\n    /* \"#utility.yul\":827:832   */\n  dup2\n    /* \"#utility.yul\":800:833   */\n  tag_52\n  jump\t// in\ntag_96:\n    /* \"#utility.yul\":696:839   */\n  swap3\n  swap2\n  pop\n  pop\n  jump\t// out\n    /* \"#utility.yul\":845:1196   */\ntag_3:\n    /* \"#utility.yul\":915:921   */\n  0x00\n    /* \"#utility.yul\":964:966   */\n  0x20\n    /* \"#utility.yul\":952:961   */\n  dup3\n    /* \"#utility.yul\":943:950   */\n  dup5\n    /* \"#utility.yul\":939:962   */\n  sub\n    /* \"#utility.yul\":935:967   */\n  slt\n    /* \"#utility.yul\":932:1051   */\n  iszero\n  tag_98\n  jumpi\n    /* \"#utility.yul\":970:1049   */\n  tag_99\n  tag_48\n  jump\t// in\ntag_99:\n    /* \"#utility.yul\":932:1051   */\ntag_98:\n    /* \"#utility.yul\":1090:1091   */\n  0x00\n    /* \"#utility.yul\":1115:1179   */\n  tag_100\n    /* \"#utility.yul\":1171:1178   */\n  dup5\n    /* \"#utility.yul\":1162:1168   */\n  dup3\n    /* \"#utility.yul\":1151:1160   */\n  dup6\n    /* \"#utility.yul\":1147:1169   */\n  add\n    /* \"#utility.yul\":1115:1179   */\n  tag_53\n  jump\t// in\ntag_100:\n    /* \"#utility.yul\":1105:1179   */\n  swap2\n  pop\n    /* \"#utility.yul\":1061:1189   */\n  pop\n    /* \"#utility.yul\":845:1196   */\n  swap3\n  swap2\n  pop\n  pop\n  jump\t// out\n    /* \"#utility.yul\":1202:1301   */\ntag_54:\n    /* \"#utility.yul\":1254:1260   */\n  0x00\n    /* \"#utility.yul\":1288:1293   */\n  dup2\n    /* \"#utility.yul\":1282:1294   */\n  mload\n    /* \"#utility.yul\":1272:1294   */\n  swap1\n  pop\n    /* \"#utility.yul\":1202:1301   */\n  swap2\n  swap1\n  pop\n  jump\t// out\n    /* \"#utility.yul\":1307:1487   */\ntag_55:\n    /* \"#utility.yul\":1355:1432   */\n  0x4e487b7100000000000000000000000000000000000000000000000000000000\n    /* \"#utility.yul\":1352:1353   */\n  0x00\n    /* \"#utility.yul\":1345:1433   */\n  mstore\n    /* \"#utility.yul\":1452:1456   */\n  0x41\n    /* \"#utility.yul\":1449:1450   */\n  0x04\n    /* \"#utility.yul\":1442:1457   */\n  mstore\n    /* \"#utility.yul\":1476:1480   */\n  0x24\n    /* \"#utility.yul\":1473:1474   */\n  0x00\n    /* \"#utility.yul\":1466:1481   */\n  revert\n    /* \"#utility.yul\":1493:1673   */\ntag_56:\n    /* \"#utility.yul\":1541:1618   */\n  0x4e487b7100000000000000000000000000000000000000000000000000000000\n    /* \"#utility.yul\":1538:1539   */\n  0x00\n    /* \"#utility.yul\":1531:1619   */\n  mstore\n    /* \"#utility.yul\":1638:1642   */\n  0x22\n    /* \"#utility.yul\":1635:1636   */\n  0x04\n    /* \"#utility.yul\":1628:1643   */\n  mstore\n    /* \"#utility.yul\":1662:1666   */\n  0x24\n    /* \"#utility.yul\":1659:1660   */\n  0x00\n    /* \"#utility.yul\":1652:1667   */\n  revert\n    /* \"#utility.yul\":1679:1999   */\ntag_57:\n    /* \"#utility.yul\":1723:1729   */\n  0x00\n    /* \"#utility.yul\":1760:1761   */\n  0x02\n    /* \"#utility.yul\":1754:1758   */\n  dup3\n    /* \"#utility.yul\":1750:1762   */\n  div\n    /* \"#utility.yul\":1740:1762   */\n  swap1\n  pop\n    /* \"#utility.yul\":1807:1808   */\n  0x01\n    /* \"#utility.yul\":1801:1805   */\n  dup3\n    /* \"#utility.yul\":1797:1809   */\n  and\n    /* \"#utility.yul\":1828:1846   */\n  dup1\n    /* \"#utility.yul\":1818:1899   */\n  tag_105\n  jumpi\n    /* \"#utility.yul\":1884:1888   */\n  0x7f\n    /* \"#utility.yul\":1876:1882   */\n  dup3\n    /* \"#utility.yul\":1872:1889   */\n  and\n    /* \"#utility.yul\":1862:1889   */\n  swap2\n  pop\n    /* \"#utility.yul\":1818:1899   */\ntag_105:\n    /* \"#utility.yul\":1946:1948   */\n  0x20\n    /* \"#utility.yul\":1938:1944   */\n  dup3\n    /* \"#utility.yul\":1935:1949   */\n  lt\n    /* \"#utility.yul\":1915:1933   */\n  dup2\n    /* \"#utility.yul\":1912:1950   */\n  sub\n    /* \"#utility.yul\":1909:1993   */\n  tag_106\n  jumpi\n    /* \"#utility.yul\":1965:1983   */\n  tag_107\n  tag_56\n  jump\t// in\ntag_107:\n    /* \"#utility.yul\":1909:1993   */\ntag_106:\n    /* \"#utility.yul\":1730:1999   */\n  pop\n    /* \"#utility.yul\":1679:1999   */\n  swap2\n  swap1\n  pop\n  jump\t// out\n    /* \"#utility.yul\":2005:2146   */\ntag_58:\n    /* \"#utility.yul\":2054:2058   */\n  0x00\n    /* \"#utility.yul\":2077:2080   */\n  dup2\n    /* \"#utility.yul\":2069:2080   */\n  swap1\n  pop\n    /* \"#utility.yul\":2100:2103   */\n  dup2\n    /* \"#utility.yul\":2097:2098   */\n  0x00\n    /* \"#utility.yul\":2090:2104   */\n  mstore\n    /* \"#utility.yul\":2134:2138   */\n  0x20\n    /* \"#utility.yul\":2131:2132   */\n  0x00\n    /* \"#utility.yul\":2121:2139   */\n  keccak256\n    /* \"#utility.yul\":2113:2139   */\n  swap1\n  pop\n    /* \"#utility.yul\":2005:2146   */\n  swap2\n  swap1\n  pop\n  jump\t// out\n    /* \"#utility.yul\":2152:2245   */\ntag_59:\n    /* \"#utility.yul\":2189:2195   */\n  0x00\n    /* \"#utility.yul\":2236:2238   */\n  0x20\n    /* \"#utility.yul\":2231:2233   */\n  0x1f\n    /* \"#utility.yul\":2224:2229   */\n  dup4\n    /* \"#utility.yul\":2220:2234   */\n  add\n    /* \"#utility.yul\":2216:2239   */\n  div\n    /* \"#utility.yul\":2206:2239   */\n  swap1\n  pop\n    /* \"#utility.yul\":2152:2245   */\n  swap2\n  swap1\n  pop\n  jump\t// out\n    /* \"#utility.yul\":2251:2358   */\ntag_60:\n    /* \"#utility.yul\":2295:2303   */\n  0x00\n    /* \"#utility.yul\":2345:2350   */\n  dup3\n    /* \"#utility.yul\":2339:2343   */\n  dup3\n    /* \"#utility.yul\":2335:2351   */\n  shl\n    /* \"#utility.yul\":2314:2351   */\n  swap1\n  pop\n    /* \"#utility.yul\":2251:2358   */\n  swap3\n  swap2\n  pop\n  pop\n  jump\t// out\n    /* \"#utility.yul\":2364:2757   */\ntag_61:\n    /* \"#utility.yul\":2433:2439   */\n  0x00\n    /* \"#utility.yul\":2483:2484   */\n  0x08\n    /* \"#utility.yul\":2471:2481   */\n  dup4\n    /* \"#utility.yul\":2467:2485   */\n  mul\n    /* \"#utility.yul\":2506:2603   */\n  tag_112\n    /* \"#utility.yul\":2536:2602   */\n  0xffffffffffffffffffffffffffffffffffffffffffffffffffffffffffffffff\n    /* \"#utility.yul\":2525:2534   */\n  dup3\n    /* \"#utility.yul\":2506:2603   */\n  tag_60\n  jump\t// in\ntag_112:\n    /* \"#utility.yul\":2624:2663   */\n  tag_113\n    /* \"#utility.yul\":2654:2662   */\n  dup7\n    /* \"#utility.yul\":2643:2652   */\n  dup4\n    /* \"#utility.yul\":2624:2663   */\n  tag_60\n  jump\t// in\ntag_113:\n    /* \"#utility.yul\":2612:2663   */\n  swap6\n  pop\n    /* \"#utility.yul\":2696:2700   */\n  dup1\n    /* \"#utility.yul\":2692:2701   */\n  not\n    /* \"#utility.yul\":2685:2690   */\n  dup5\n    /* \"#utility.yul\":2681:2702   */\n  and\n    /* \"#utility.yul\":2672:2702   */\n  swap4\n  pop\n    /* \"#utility.yul\":2745:2749   */\n  dup1\n    /* \"#utility.yul\":2735:2743   */\n  dup7\n    /* \"#utility.yul\":2731:2750   */\n  and\n    /* \"#utility.yul\":2724:2729   */\n  dup5\n    /* \"#utility.yul\":2721:2751   */\n  or\n    /* \"#utility.yul\":2711:2751   */\n  swap3\n  pop\n    /* \"#utility.yul\":2440:2757   */\n  pop\n  pop\n    /* \"#utility.yul\":2364:2757   */\n  swap4\n  swap3\n  pop\n  pop\n  pop\n  jump\t// out\n    /* \"#utility.yul\":2763:2840   */\ntag_62:\n    /* \"#utility.yul\":2800:2807   */\n  0x00\n    /* \"#utility.yul\":2829:2834   */\n  dup2\n    /* \"#utility.yul\":2818:2834   */\n  swap1\n  pop\n    /* \"#utility.yul\":2763:2840   */\n  swap2\n  swap1\n  pop\n  jump\t// out\n    /* \"#utility.yul\":2846:2906   */\ntag_63:\n    /* \"#utility.yul\":2874:2877   */\n  0x00\n    /* \"#utility.yul\":2895:2900   */\n  dup2\n    /* \"#utility.yul\":2888:2900   */\n  swap1\n  pop\n    /* \"#utility.yul\":2846:2906   */\n  swap2\n  swap1\n  pop\n  jump\t// out\n    /* \"#utility.yul\":2912:3054   */\ntag_64:\n    /* \"#utility.yul\":2962:2971   */\n  0x00\n    /* \"#utility.yul\":2995:3048   */\n  tag_117\n    /* \"#utility.yul\":3013:3047   */\n  tag_118\n    /* \"#utility.yul\":3022:3046   */\n  tag_119\n    /* \"#utility.yul\":3040:3045   */\n  dup5\n    /* \"#utility.yul\":3022:3046   */\n  tag_62\n  jump\t// in\ntag_119:\n    /* \"#utility.yul\":3013:3047   */\n  tag_63\n  jump\t// in\ntag_118:\n    /* \"#utility.yul\":2995:3048   */\n  tag_62\n  jump\t// in\ntag_117:\n    /* \"#utility.yul\":2982:3048   */\n  swap1\n  pop\n    /* \"#utility.yul\":2912:3054   */\n  swap2\n  swap1\n  pop\n  jump\t// out\n    /* \"#utility.yul\":3060:3135   */\ntag_65:\n    /* \"#utility.yul\":3103:3106   */\n  0x00\n    /* \"#utility.yul\":3124:3129   */\n  dup2\n    /* \"#utility.yul\":3117:3129   */\n  swap1\n  pop\n    /* \"#utility.yul\":3060:3135   */\n  swap2\n  swap1\n  pop\n  jump\t// out\n    /* \"#utility.yul\":3141:3410   */\ntag_66:\n    /* \"#utility.yul\":3251:3290   */\n  tag_122\n    /* \"#utility.yul\":3282:3289   */\n  dup4\n    /* \"#utility.yul\":3251:3290   */\n  tag_64\n  jump\t// in\ntag_122:\n    /* \"#utility.yul\":3312:3403   */\n  tag_123\n    /* \"#utility.yul\":3361:3402   */\n  tag_124\n    /* \"#utility.yul\":3385:3401   */\n  dup3\n    /* \"#utility.yul\":3361:3402   */\n  tag_65\n  jump\t// in\ntag_124:\n    /* \"#utility.yul\":3353:3359   */\n  dup5\n    /* \"#utility.yul\":3346:3350   */\n  dup5\n    /* \"#utility.yul\":3340:3351   */\n  sload\n    /* \"#utility.yul\":3312:3403   */\n  tag_61\n  jump\t// in\ntag_123:\n    /* \"#utility.yul\":3306:3310   */\n  dup3\n    /* \"#utility.yul\":3299:3404   */\n  sstore\n    /* \"#utility.yul\":3217:3410   */\n  pop\n    /* \"#utility.yul\":3141:3410   */\n  pop\n  pop\n  pop\n  jump\t// out\n    /* \"#utility.yul\":3416:3489   */\ntag_67:\n    /* \"#utility.yul\":3461:3464   */\n  0x00\n    /* \"#utility.yul\":3416:3489   */\n  swap1\n  jump\t// out\n    /* \"#utility.yul\":3495:3684   */\ntag_68:\n    /* \"#utility.yul\":3572:3604   */\n  tag_127\n  tag_67\n  jump\t// in\ntag_127:\n    /* \"#utility.yul\":3613:3678   */\n  tag_128\n    /* \"#utility.yul\":3671:3677   */\n  dup2\n    /* \"#utility.yul\":3663:3669   */\n  dup5\n    /* \"#utility.yul\":3657:3661   */\n  dup5\n    /* \"#utility.yul\":3613:3678   */\n  tag_66\n  jump\t// in\ntag_128:\n    /* \"#utility.yul\":3548:3684   */\n  pop\n    /* \"#utility.yul\":3495:3684   */\n  pop\n  pop\n  jump\t// out\n    /* \"#utility.yul\":3690:3876   */\ntag_69:\n    /* \"#utility.yul\":3750:3870   */\ntag_130:\n    /* \"#utility.yul\":3767:3770   */\n  dup2\n    /* \"#utility.yul\":3760:3765   */\n  dup2\n    /* \"#utility.yul\":3757:3771   */\n  lt\n    /* \"#utility.yul\":3750:3870   */\n  iszero\n  tag_132\n  jumpi\n    /* \"#utility.yul\":3821:3860   */\n  tag_133\n    /* \"#utility.yul\":3858:3859   */\n  0x00\n    /* \"#utility.yul\":3851:3856   */\n  dup3\n    /* \"#utility.yul\":3821:3860   */\n  tag_68\n  jump\t// in\ntag_133:\n    /* \"#utility.yul\":3794:3795   */\n  0x01\n    /* \"#utility.yul\":3787:3792   */\n  dup2\n    /* \"#utility.yul\":3783:3796   */\n  add\n    /* \"#utility.yul\":3774:3796   */\n  swap1\n  pop\n    /* \"#utility.yul\":3750:3870   */\n  jump(tag_130)\ntag_132:\n    /* \"#utility.yul\":3690:3876   */\n  pop\n  pop\n  jump\t// out\n    /* \"#utility.yul\":3882:4425   */\ntag_70:\n    /* \"#utility.yul\":3983:3985   */\n  0x1f\n    /* \"#utility.yul\":3978:3981   */\n  dup3\n    /* \"#utility.yul\":3975:3986   */\n  gt\n    /* \"#utility.yul\":3972:4418   */\n  iszero\n  tag_135\n  jumpi\n    /* \"#utility.yul\":4017:4055   */\n  tag_136\n    /* \"#utility.yul\":4049:4054   */\n  dup2\n    /* \"#utility.yul\":4017:4055   */\n  tag_58\n  jump\t// in\ntag_136:\n    /* \"#utility.yul\":4101:4130   */\n  tag_137\n    /* \"#utility.yul\":4119:4129   */\n  dup5\n    /* \"#utility.yul\":4101:4130   */\n  tag_59\n  jump\t// in\ntag_137:\n    /* \"#utility.yul\":4091:4099   */\n  dup2\n    /* \"#utility.yul\":4087:4131   */\n  add\n    /* \"#utility.yul\":4284:4286   */\n  0x20\n    /* \"#utility.yul\":4272:4282   */\n  dup6\n    /* \"#utility.yul\":4269:4287   */\n  lt\n    /* \"#utility.yul\":4266:4315   */\n  iszero\n  tag_138\n  jumpi\n    /* \"#utility.yul\":4305:4313   */\n  dup2\n    /* \"#utility.yul\":4290:4313   */\n  swap1\n  pop\n    /* \"#utility.yul\":4266:4315   */\ntag_138:\n    /* \"#utility.yul\":4328:4408   */\n  tag_139\n    /* \"#utility.yul\":4384:4406   */\n  tag_140\n    /* \"#utility.yul\":4402:4405   */\n  dup6\n    /* \"#utility.yul\":4384:4406   */\n  tag_59\n  jump\t// in\ntag_140:\n    /* \"#utility.yul\":4374:4382   */\n  dup4\n    /* \"#utility.yul\":4370:4407   */\n  add\n    /* \"#utility.yul\":4357:4368   */\n  dup3\n    /* \"#utility.yul\":4328:4408   */\n  tag_69\n  jump\t// in\ntag_139:\n    /* \"#utility.yul\":3987:4418   */\n  pop\n  pop\n    /* \"#utility.yul\":3972:4418   */\ntag_135:\n    /* \"#utility.yul\":3882:4425   */\n  pop\n  pop\n  pop\n  jump\t// out\n    /* \"#utility.yul\":4431:4548   */\ntag_71:\n    /* \"#utility.yul\":4485:4493   */\n  0x00\n    /* \"#utility.yul\":4535:4540   */\n  dup3\n    /* \"#utility.yul\":4529:4533   */\n  dup3\n    /* \"#utility.yul\":4525:4541   */\n  shr\n    /* \"#utility.yul\":4504:4541   */\n  swap1\n  pop\n    /* \"#utility.yul\":4431:4548   */\n  swap3\n  swap2\n  pop\n  pop\n  jump\t// out\n    /* \"#utility.yul\":4554:4723   */\ntag_72:\n    /* \"#utility.yul\":4598:4604   */\n  0x00\n    /* \"#utility.yul\":4631:4682   */\n  tag_143\n    /* \"#utility.yul\":4679:4680   */\n  0x00\n    /* \"#utility.yul\":4675:4681   */\n  not\n    /* \"#utility.yul\":4667:4672   */\n  dup5\n    /* \"#utility.yul\":4664:4665   */\n  0x08\n    /* \"#utility.yul\":4660:4673   */\n  mul\n    /* \"#utility.yul\":4631:4682   */\n  tag_71\n  jump\t// in\ntag_143:\n    /* \"#utility.yul\":4627:4683   */\n  not\n    /* \"#utility.yul\":4712:4716   */\n  dup1\n    /* \"#utility.yul\":4706:4710   */\n  dup4\n    /* \"#utility.yul\":4702:4717   */\n  and\n    /* \"#utility.yul\":4692:4717   */\n  swap2\n  pop\n    /* \"#utility.yul\":4605:4723   */\n  pop\n    /* \"#utility.yul\":4554:4723   */\n  swap3\n  swap2\n  pop\n  pop\n  jump\t// out\n    /* \"#utility.yul\":4728:5023   */\ntag_73:\n    /* \"#utility.yul\":4804:4808   */\n  0x00\n    /* \"#utility.yul\":4950:4979   */\n  tag_145\n    /* \"#utility.yul\":4975:4978   */\n  dup4\n    /* \"#utility.yul\":4969:4973   */\n  dup4\n    /* \"#utility.yul\":4950:4979   */\n  tag_72\n  jump\t// in\ntag_145:\n    /* \"#utility.yul\":4942:4979   */\n  swap2\n  pop\n    /* \"#utility.yul\":5012:5015   */\n  dup3\n    /* \"#utility.yul\":5009:5010   */\n  0x02\n    /* \"#utility.yul\":5005:5016   */\n  mul\n    /* \"#utility.yul\":4999:5003   */\n  dup3\n    /* \"#utility.yul\":4996:5017   */\n  or\n    /* \"#utility.yul\":4988:5017   */\n  swap1\n  pop\n    /* \"#utility.yul\":4728:5023   */\n  swap3\n  swap2\n  pop\n  pop\n  jump\t// out\n    /* \"#utility.yul\":5028:6423   */\ntag_11:\n    /* \"#utility.yul\":5145:5182   */\n  tag_147\n    /* \"#utility.yul\":5178:5181   */\n  dup3\n    /* \"#utility.yul\":5145:5182   */\n  tag_54\n  jump\t// in\ntag_147:\n    /* \"#utility.yul\":5247:5265   */\n  0xffffffffffffffff\n    /* \"#utility.yul\":5239:5245   */\n  dup2\n    /* \"#utility.yul\":5236:5266   */\n  gt\n    /* \"#utility.yul\":5233:5289   */\n  iszero\n  tag_148\n  jumpi\n    /* \"#utility.yul\":5269:5287   */\n  tag_149\n  tag_55\n  jump\t// in\ntag_149:\n    /* \"#utility.yul\":5233:5289   */\ntag_148:\n    /* \"#utility.yul\":5313:5351   */\n  tag_150\n    /* \"#utility.yul\":5345:5349   */\n  dup3\n    /* \"#utility.yul\":5339:5350   */\n  sload\n    /* \"#utility.yul\":5313:5351   */\n  tag_57\n  jump\t// in\ntag_150:\n    /* \"#utility.yul\":5398:5465   */\n  tag_151\n    /* \"#utility.yul\":5458:5464   */\n  dup3\n    /* \"#utility.yul\":5450:5456   */\n  dup3\n    /* \"#utility.yul\":5444:5448   */\n  dup6\n    /* \"#utility.yul\":5398:5465   */\n  tag_70\n  jump\t// in\ntag_151:\n    /* \"#utility.yul\":5492:5493   */\n  0x00\n    /* \"#utility.yul\":5516:5520   */\n  0x20\n    /* \"#utility.yul\":5503:5520   */\n  swap1\n  pop\n    /* \"#utility.yul\":5548:5550   */\n  0x1f\n    /* \"#utility.yul\":5540:5546   */\n  dup4\n    /* \"#utility.yul\":5537:5551   */\n  gt\n    /* \"#utility.yul\":5565:5566   */\n  0x01\n    /* \"#utility.yul\":5560:6178   */\n  dup2\n  eq\n  tag_153\n  jumpi\n    /* \"#utility.yul\":6222:6223   */\n  0x00\n    /* \"#utility.yul\":6239:6245   */\n  dup5\n    /* \"#utility.yul\":6236:6313   */\n  iszero\n  tag_154\n  jumpi\n    /* \"#utility.yul\":6288:6297   */\n  dup3\n    /* \"#utility.yul\":6283:6286   */\n  dup8\n    /* \"#utility.yul\":6279:6298   */\n  add\n    /* \"#utility.yul\":6273:6299   */\n  mload\n    /* \"#utility.yul\":6264:6299   */\n  swap1\n  pop\n    /* \"#utility.yul\":6236:6313   */\ntag_154:\n    /* \"#utility.yul\":6339:6406   */\n  tag_155\n    /* \"#utility.yul\":6399:6405   */\n  dup6\n    /* \"#utility.yul\":6392:6397   */\n  dup3\n    /* \"#utility.yul\":6339:6406   */\n  tag_73\n  jump\t// in\ntag_155:\n    /* \"#utility.yul\":6333:6337   */\n  dup7\n    /* \"#utility.yul\":6326:6407   */\n  sstore\n    /* \"#utility.yul\":6195:6417   */\n  pop\n    /* \"#utility.yul\":5530:6417   */\n  jump(tag_152)\n    /* \"#utility.yul\":5560:6178   */\ntag_153:\n    /* \"#utility.yul\":5612:5616   */\n  0x1f\n    /* \"#utility.yul\":5608:5617   */\n  not\n    /* \"#utility.yul\":5600:5606   */\n  dup5\n    /* \"#utility.yul\":5596:5618   */\n  and\n    /* \"#utility.yul\":5646:5683   */\n  tag_156\n    /* \"#utility.yul\":5678:5682   */\n  dup7\n    /* \"#utility.yul\":5646:5683   */\n  tag_58\n  jump\t// in\ntag_156:\n    /* \"#utility.yul\":5705:5706   */\n  0x00\n    /* \"#utility.yul\":5719:5927   */\ntag_157:\n    /* \"#utility.yul\":5733:5740   */\n  dup3\n    /* \"#utility.yul\":5730:5731   */\n  dup2\n    /* \"#utility.yul\":5727:5741   */\n  lt\n    /* \"#utility.yul\":5719:5927   */\n  iszero\n  tag_159\n  jumpi\n    /* \"#utility.yul\":5812:5821   */\n  dup5\n    /* \"#utility.yul\":5807:5810   */\n  dup10\n    /* \"#utility.yul\":5803:5822   */\n  add\n    /* \"#utility.yul\":5797:5823   */\n  mload\n    /* \"#utility.yul\":5789:5795   */\n  dup3\n    /* \"#utility.yul\":5782:5824   */\n  sstore\n    /* \"#utility.yul\":5863:5864   */\n  0x01\n    /* \"#utility.yul\":5855:5861   */\n  dup3\n    /* \"#utility.yul\":5851:5865   */\n  add\n    /* \"#utility.yul\":5841:5865   */\n  swap2\n  pop\n    /* \"#utility.yul\":5910:5912   */\n  0x20\n    /* \"#utility.yul\":5899:5908   */\n  dup6\n    /* \"#utility.yul\":5895:5913   */\n  add\n    /* \"#utility.yul\":5882:5913   */\n  swap5\n  pop\n    /* \"#utility.yul\":5756:5760   */\n  0x20\n    /* \"#utility.yul\":5753:5754   */\n  dup2\n    /* \"#utility.yul\":5749:5761   */\n  add\n    /* \"#utility.yul\":5744:5761   */\n  swap1\n  pop\n    /* \"#utility.yul\":5719:5927   */\n  jump(tag_157)\ntag_159:\n    /* \"#utility.yul\":5955:5961   */\n  dup7\n    /* \"#utility.yul\":5946:5953   */\n  dup4\n    /* \"#utility.yul\":5943:5962   */\n  lt\n    /* \"#utility.yul\":5940:6119   */\n  iszero\n  tag_160\n  jumpi\n    /* \"#utility.yul\":6013:6022   */\n  dup5\n    /* \"#utility.yul\":6008:6011   */\n  dup10\n    /* \"#utility.yul\":6004:6023   */\n  add\n    /* \"#utility.yul\":5998:6024   */\n  mload\n    /* \"#utility.yul\":6056:6104   */\n  tag_161\n    /* \"#utility.yul\":6098:6102   */\n  0x1f\n    /* \"#utility.yul\":6090:6096   */\n  dup10\n    /* \"#utility.yul\":6086:6103   */\n  and\n    /* \"#utility.yul\":6075:6084   */\n  dup3\n    /* \"#utility.yul\":6056:6104   */\n  tag_72\n  jump\t// in\ntag_161:\n    /* \"#utility.yul\":6048:6054   */\n  dup4\n    /* \"#utility.yul\":6041:6105   */\n  sstore\n    /* \"#utility.yul\":5963:6119   */\n  pop\n    /* \"#utility.yul\":5940:6119   */\ntag_160:\n    /* \"#utility.yul\":6165:6166   */\n  0x01\n    /* \"#utility.yul\":6161:6162   */\n  0x02\n    /* \"#utility.yul\":6153:6159   */\n  dup9\n    /* \"#utility.yul\":6149:6163   */\n  mul\n    /* \"#utility.yul\":6145:6167   */\n  add\n    /* \"#utility.yul\":6139:6143   */\n  dup9\n    /* \"#utility.yul\":6132:6168   */\n  sstore\n    /* \"#utility.yul\":5567:6178   */\n  pop\n  pop\n  pop\n    /* \"#utility.yul\":5530:6417   */\ntag_152:\n  pop\n    /* \"#utility.yul\":5120:6423   */\n  pop\n  pop\n  pop\n    /* \"#utility.yul\":5028:6423   */\n  pop\n  pop\n  jump\t// out\n    /* \"#utility.yul\":6429:6547   */\ntag_74:\n    /* \"#utility.yul\":6516:6540   */\n  tag_163\n    /* \"#utility.yul\":6534:6539   */\n  dup2\n    /* \"#utility.yul\":6516:6540   */\n  tag_51\n  jump\t// in\ntag_163:\n    /* \"#utility.yul\":6511:6514   */\n  dup3\n    /* \"#utility.yul\":6504:6541   */\n  mstore\n    /* \"#utility.yul\":6429:6547   */\n  pop\n  pop\n  jump\t// out\n    /* \"#utility.yul\":6553:6775   */\ntag_16:\n    /* \"#utility.yul\":6646:6650   */\n  0x00\n    /* \"#utility.yul\":6684:6686   */\n  0x20\n    /* \"#utility.yul\":6673:6682   */\n  dup3\n    /* \"#utility.yul\":6669:6687   */\n  add\n    /* \"#utility.yul\":6661:6687   */\n  swap1\n  pop\n    /* \"#utility.yul\":6697:6768   */\n  tag_165\n    /* \"#utility.yul\":6765:6766   */\n  0x00\n    /* \"#utility.yul\":6754:6763   */\n  dup4\n    /* \"#utility.yul\":6750:6767   */\n  add\n    /* \"#utility.yul\":6741:6747   */\n  dup5\n    /* \"#utility.yul\":6697:6768   */\n  tag_74\n  jump\t// in\ntag_165:\n    /* \"#utility.yul\":6553:6775   */\n  swap3\n  swap2\n  pop\n  pop\n  jump\t// out\n    /* \"#utility.yul\":6781:6858   */\ntag_75:\n    /* \"#utility.yul\":6818:6825   */\n  0x00\n    /* \"#utility.yul\":6847:6852   */\n  dup2\n    /* \"#utility.yul\":6836:6852   */\n  swap1\n  pop\n    /* \"#utility.yul\":6781:6858   */\n  swap2\n  swap1\n  pop\n  jump\t// out\n    /* \"#utility.yul\":6864:6982   */\ntag_76:\n    /* \"#utility.yul\":6951:6975   */\n  tag_168\n    /* \"#utility.yul\":6969:6974   */\n  dup2\n    /* \"#utility.yul\":6951:6975   */\n  tag_75\n  jump\t// in\ntag_168:\n    /* \"#utility.yul\":6946:6949   */\n  dup3\n    /* \"#utility.yul\":6939:6976   */\n  mstore\n    /* \"#utility.yul\":6864:6982   */\n  pop\n  pop\n  jump\t// out\n    /* \"#utility.yul\":6988:7106   */\ntag_77:\n    /* \"#utility.yul\":7075:7099   */\n  tag_170\n    /* \"#utility.yul\":7093:7098   */\n  dup2\n    /* \"#utility.yul\":7075:7099   */\n  tag_62\n  jump\t// in\ntag_170:\n    /* \"#utility.yul\":7070:7073   */\n  dup3\n    /* \"#utility.yul\":7063:7100   */\n  mstore\n    /* \"#utility.yul\":6988:7106   */\n  pop\n  pop\n  jump\t// out\n    /* \"#utility.yul\":7112:7776   */\ntag_39:\n    /* \"#utility.yul\":7317:7321   */\n  0x00\n    /* \"#utility.yul\":7355:7358   */\n  0xa0\n    /* \"#utility.yul\":7344:7353   */\n  dup3\n    /* \"#utility.yul\":7340:7359   */\n  add\n    /* \"#utility.yul\":7332:7359   */\n  swap1\n  pop\n    /* \"#utility.yul\":7369:7440   */\n  tag_172\n    /* \"#utility.yul\":7437:7438   */\n  0x00\n    /* \"#utility.yul\":7426:7435   */\n  dup4\n    /* \"#utility.yul\":7422:7439   */\n  add\n    /* \"#utility.yul\":7413:7419   */\n  dup9\n    /* \"#utility.yul\":7369:7440   */\n  tag_76\n  jump\t// in\ntag_172:\n    /* \"#utility.yul\":7450:7522   */\n  tag_173\n    /* \"#utility.yul\":7518:7520   */\n  0x20\n    /* \"#utility.yul\":7507:7516   */\n  dup4\n    /* \"#utility.yul\":7503:7521   */\n  add\n    /* \"#utility.yul\":7494:7500   */\n  dup8\n    /* \"#utility.yul\":7450:7522   */\n  tag_76\n  jump\t// in\ntag_173:\n    /* \"#utility.yul\":7532:7604   */\n  tag_174\n    /* \"#utility.yul\":7600:7602   */\n  0x40\n    /* \"#utility.yul\":7589:7598   */\n  dup4\n    /* \"#utility.yul\":7585:7603   */\n  add\n    /* \"#utility.yul\":7576:7582   */\n  dup7\n    /* \"#utility.yul\":7532:7604   */\n  tag_76\n  jump\t// in\ntag_174:\n    /* \"#utility.yul\":7614:7686   */\n  tag_175\n    /* \"#utility.yul\":7682:7684   */\n  0x60\n    /* \"#utility.yul\":7671:7680   */\n  dup4\n    /* \"#utility.yul\":7667:7685   */\n  add\n    /* \"#utility.yul\":7658:7664   */\n  dup6\n    /* \"#utility.yul\":7614:7686   */\n  tag_77\n  jump\t// in\ntag_175:\n    /* \"#utility.yul\":7696:7769   */\n  tag_176\n    /* \"#utility.yul\":7764:7767   */\n  0x80\n    /* \"#utility.yul\":7753:7762   */\n  dup4\n    /* \"#utility.yul\":7749:7768   */\n  add\n    /* \"#utility.yul\":7740:7746   */\n  dup5\n    /* \"#utility.yul\":7696:7769   */\n  tag_74\n  jump\t// in\ntag_176:\n    /* \"#utility.yul\":7112:7776   */\n  swap7\n  swap6\n  pop\n  pop\n  pop\n  pop\n  pop\n  pop\n  jump\t// out\n    /* \"#utility.yul\":7782:7951   */\ntag_78:\n    /* \"#utility.yul\":7866:7877   */\n  0x00\n    /* \"#utility.yul\":7900:7906   */\n  dup3\n    /* \"#utility.yul\":7895:7898   */\n  dup3\n    /* \"#utility.yul\":7888:7907   */\n  mstore\n    /* \"#utility.yul\":7940:7944   */\n  0x20\n    /* \"#utility.yul\":7935:7938   */\n  dup3\n    /* \"#utility.yul\":7931:7945   */\n  add\n    /* \"#utility.yul\":7916:7945   */\n  swap1\n  pop\n    /* \"#utility.yul\":7782:7951   */\n  swap3\n  swap2\n  pop\n  pop\n  jump\t// out\n    /* \"#utility.yul\":7957:8203   */\ntag_79:\n    /* \"#utility.yul\":8038:8039   */\n  0x00\n    /* \"#utility.yul\":8048:8161   */\ntag_179:\n    /* \"#utility.yul\":8062:8068   */\n  dup4\n    /* \"#utility.yul\":8059:8060   */\n  dup2\n    /* \"#utility.yul\":8056:8069   */\n  lt\n    /* \"#utility.yul\":8048:8161   */\n  iszero\n  tag_181\n  jumpi\n    /* \"#utility.yul\":8147:8148   */\n  dup1\n    /* \"#utility.yul\":8142:8145   */\n  dup3\n    /* \"#utility.yul\":8138:8149   */\n  add\n    /* \"#utility.yul\":8132:8150   */\n  mload\n    /* \"#utility.yul\":8128:8129   */\n  dup2\n    /* \"#utility.yul\":8123:8126   */\n  dup5\n    /* \"#utility.yul\":8119:8130   */\n  add\n    /* \"#utility.yul\":8112:8151   */\n  mstore\n    /* \"#utility.yul\":8084:8086   */\n  0x20\n    /* \"#utility.yul\":8081:8082   */\n  dup2\n    /* \"#utility.yul\":8077:8087   */\n  add\n    /* \"#utility.yul\":8072:8087   */\n  swap1\n  pop\n    /* \"#utility.yul\":8048:8161   */\n  jump(tag_179)\ntag_181:\n    /* \"#utility.yul\":8195:8196   */\n  0x00\n    /* \"#utility.yul\":8186:8192   */\n  dup5\n    /* \"#utility.yul\":8181:8184   */\n  dup5\n    /* \"#utility.yul\":8177:8193   */\n  add\n    /* \"#utility.yul\":8170:8197   */\n  mstore\n    /* \"#utility.yul\":8019:8203   */\n  pop\n    /* \"#utility.yul\":7957:8203   */\n  pop\n  pop\n  pop\n  jump\t// out\n    /* \"#utility.yul\":8209:8311   */\ntag_80:\n    /* \"#utility.yul\":8250:8256   */\n  0x00\n    /* \"#utility.yul\":8301:8303   */\n  0x1f\n    /* \"#utility.yul\":8297:8304   */\n  not\n    /* \"#utility.yul\":8292:8294   */\n  0x1f\n    /* \"#utility.yul\":8285:8290   */\n  dup4\n    /* \"#utility.yul\":8281:8295   */\n  add\n    /* \"#utility.yul\":8277:8305   */\n  and\n    /* \"#utility.yul\":8267:8305   */\n  swap1\n  pop\n    /* \"#utility.yul\":8209:8311   */\n  swap2\n  swap1\n  pop\n  jump\t// out\n    /* \"#utility.yul\":8317:8694   */\ntag_81:\n    /* \"#utility.yul\":8405:8408   */\n  0x00\n    /* \"#utility.yul\":8433:8472   */\n  tag_184\n    /* \"#utility.yul\":8466:8471   */\n  dup3\n    /* \"#utility.yul\":8433:8472   */\n  tag_54\n  jump\t// in\ntag_184:\n    /* \"#utility.yul\":8488:8559   */\n  tag_185\n    /* \"#utility.yul\":8552:8558   */\n  dup2\n    /* \"#utility.yul\":8547:8550   */\n  dup6\n    /* \"#utility.yul\":8488:8559   */\n  tag_78\n  jump\t// in\ntag_185:\n    /* \"#utility.yul\":8481:8559   */\n  swap4\n  pop\n    /* \"#utility.yul\":8568:8633   */\n  tag_186\n    /* \"#utility.yul\":8626:8632   */\n  dup2\n    /* \"#utility.yul\":8621:8624   */\n  dup6\n    /* \"#utility.yul\":8614:8618   */\n  0x20\n    /* \"#utility.yul\":8607:8612   */\n  dup7\n    /* \"#utility.yul\":8603:8619   */\n  add\n    /* \"#utility.yul\":8568:8633   */\n  tag_79\n  jump\t// in\ntag_186:\n    /* \"#utility.yul\":8658:8687   */\n  tag_187\n    /* \"#utility.yul\":8680:8686   */\n  dup2\n    /* \"#utility.yul\":8658:8687   */\n  tag_80\n  jump\t// in\ntag_187:\n    /* \"#utility.yul\":8653:8656   */\n  dup5\n    /* \"#utility.yul\":8649:8688   */\n  add\n    /* \"#utility.yul\":8642:8688   */\n  swap2\n  pop\n    /* \"#utility.yul\":8409:8694   */\n  pop\n    /* \"#utility.yul\":8317:8694   */\n  swap3\n  swap2\n  pop\n  pop\n  jump\t// out\n    /* \"#utility.yul\":8700:9013   */\ntag_43:\n    /* \"#utility.yul\":8813:8817   */\n  0x00\n    /* \"#utility.yul\":8851:8853   */\n  0x20\n    /* \"#utility.yul\":8840:8849   */\n  dup3\n    /* \"#utility.yul\":8836:8854   */\n  add\n    /* \"#utility.yul\":8828:8854   */\n  swap1\n  pop\n    /* \"#utility.yul\":8900:8909   */\n  dup2\n    /* \"#utility.yul\":8894:8898   */\n  dup2\n    /* \"#utility.yul\":8890:8910   */\n  sub\n    /* \"#utility.yul\":8886:8887   */\n  0x00\n    /* \"#utility.yul\":8875:8884   */\n  dup4\n    /* \"#utility.yul\":8871:8888   */\n  add\n    /* \"#utility.yul\":8864:8911   */\n  mstore\n    /* \"#utility.yul\":8928:9006   */\n  tag_189\n    /* \"#utility.yul\":9001:9005   */\n  dup2\n    /* \"#utility.yul\":8992:8998   */\n  dup5\n    /* \"#utility.yul\":8928:9006   */\n  tag_81\n  jump\t// in\ntag_189:\n    /* \"#utility.yul\":8920:9006   */\n  swap1\n  pop\n    /* \"#utility.yul\":8700:9013   */\n  swap3\n  swap2\n  pop\n  pop\n  jump\t// out\n    /* \"#utility.yul\":9019:9117   */\ntag_82:\n    /* \"#utility.yul\":9070:9076   */\n  0x00\n    /* \"#utility.yul\":9104:9109   */\n  dup2\n    /* \"#utility.yul\":9098:9110   */\n  mload\n    /* \"#utility.yul\":9088:9110   */\n  swap1\n  pop\n    /* \"#utility.yul\":9019:9117   */\n  swap2\n  swap1\n  pop\n  jump\t// out\n    /* \"#utility.yul\":9123:9239   */\ntag_83:\n    /* \"#utility.yul\":9174:9178   */\n  0x00\n    /* \"#utility.yul\":9197:9200   */\n  dup2\n    /* \"#utility.yul\":9189:9200   */\n  swap1\n  pop\n    /* \"#utility.yul\":9227:9231   */\n  0x20\n    /* \"#utility.yul\":9222:9225   */\n  dup3\n    /* \"#utility.yul\":9218:9232   */\n  add\n    /* \"#utility.yul\":9210:9232   */\n  swap1\n  pop\n    /* \"#utility.yul\":9123:9239   */\n  swap2\n  swap1\n  pop\n  jump\t// out\n    /* \"#utility.yul\":9245:9399   */\ntag_84:\n    /* \"#utility.yul\":9288:9299   */\n  0x00\n    /* \"#utility.yul\":9324:9353   */\n  tag_193\n    /* \"#utility.yul\":9348:9351   */\n  dup3\n    /* \"#utility.yul\":9342:9352   */\n  mload\n    /* \"#utility.yul\":9324:9353   */\n  tag_75\n  jump\t// in\ntag_193:\n    /* \"#utility.yul\":9387:9392   */\n  dup1\n    /* \"#utility.yul\":9363:9392   */\n  swap2\n  pop\n    /* \"#utility.yul\":9300:9399   */\n  pop\n    /* \"#utility.yul\":9245:9399   */\n  swap2\n  swap1\n  pop\n  jump\t// out\n    /* \"#utility.yul\":9405:9999   */\ntag_45:\n    /* \"#utility.yul\":9489:9494   */\n  0x00\n    /* \"#utility.yul\":9520:9558   */\n  tag_195\n    /* \"#utility.yul\":9552:9557   */\n  dup3\n    /* \"#utility.yul\":9520:9558   */\n  tag_82\n  jump\t// in\ntag_195:\n    /* \"#utility.yul\":9583:9588   */\n  dup3\n    /* \"#utility.yul\":9610:9650   */\n  tag_196\n    /* \"#utility.yul\":9644:9649   */\n  dup5\n    /* \"#utility.yul\":9610:9650   */\n  tag_83\n  jump\t// in\ntag_196:\n    /* \"#utility.yul\":9598:9650   */\n  swap1\n  pop\n    /* \"#utility.yul\":9669:9704   */\n  tag_197\n    /* \"#utility.yul\":9695:9703   */\n  dup2\n    /* \"#utility.yul\":9669:9704   */\n  tag_84\n  jump\t// in\ntag_197:\n    /* \"#utility.yul\":9660:9704   */\n  swap3\n  pop\n    /* \"#utility.yul\":9728:9730   */\n  0x20\n    /* \"#utility.yul\":9720:9726   */\n  dup3\n    /* \"#utility.yul\":9717:9731   */\n  lt\n    /* \"#utility.yul\":9714:9992   */\n  iszero\n  tag_198\n  jumpi\n    /* \"#utility.yul\":9799:9968   */\n  tag_199\n    /* \"#utility.yul\":9884:9950   */\n  0xffffffffffffffffffffffffffffffffffffffffffffffffffffffffffffffff\n    /* \"#utility.yul\":9854:9860   */\n  dup4\n    /* \"#utility.yul\":9850:9852   */\n  0x20\n    /* \"#utility.yul\":9846:9861   */\n  sub\n    /* \"#utility.yul\":9843:9844   */\n  0x08\n    /* \"#utility.yul\":9839:9862   */\n  mul\n    /* \"#utility.yul\":9799:9968   */\n  tag_60\n  jump\t// in\ntag_199:\n    /* \"#utility.yul\":9776:9781   */\n  dup4\n    /* \"#utility.yul\":9755:9982   */\n  and\n    /* \"#utility.yul\":9746:9982   */\n  swap3\n  pop\n    /* \"#utility.yul\":9714:9992   */\ntag_198:\n    /* \"#utility.yul\":9495:9999   */\n  pop\n  pop\n    /* \"#utility.yul\":9405:9999   */\n  swap2\n  swap1\n  pop\n  jump\t// out\n    /* \"MemberToken_flattened.sol\":79691:80023  contract MemberToken is ERC20, Ownable, ERC20Permit {... */\ntag_27:\n  mload(0x80)\n  mload(0xa0)\n  mload(0xc0)\n  mload(0xe0)\n  mload(0x0100)\n  mload(0x0120)\n  mload(0x0140)\n  codecopy(0x00, dataOffset(sub_0), dataSize(sub_0))\n  0x00\n  assignImmutable(\"0x2afe76337b531113eeb6984869209602297c0be432194d84882749ead3021a37\")\n  0x00\n  assignImmutable(\"0xa7cd0fec000bc9bc829eee3f19124c6d92f9bf03bc5604d586b7a9d0b7293aeb\")\n  0x00\n  assignImmutable(\"0x5444bf99e2aaa84d0c0adba4902ca441e981a14d987060ddd53a6e4272e74bca\")\n  0x00\n  assignImmutable(\"0xf9ba965def30954c13b9f17655d4bfcf079e819f9cc42b75928cd97e2c9f9020\")\n  0x00\n  assignImmutable(\"0xf2aed5d52b85e7b229d9a0bb201e12bdcbbc5fc133feb54c1cb531c3f7cf58ed\")\n  0x00\n  assignImmutable(\"0x89dda32db2afb3470ad3a855ff08175ef365ece0147067a2a9b89c9351412201\")\n  0x00\n  assignImmutable(\"0x3f9e555adc0bedaea160f26d13d68ea1bde6a5a9af64af415bccce823c8f9ad8\")\n  return(0x00, dataSize(sub_0))\nstop\n\nsub_0: assembly {\n        /* \"MemberToken_flattened.sol\":79691:80023  contract MemberToken is ERC20, Ownable, ERC20Permit {... */\n      mstore(0x40, 0x80)\n      callvalue\n      dup1\n      iszero\n      tag_1\n      jumpi\n      0x00\n      dup1\n      revert\n    tag_1:\n      pop\n      jumpi(tag_2, lt(calldatasize, 0x04))\n      shr(0xe0, calldataload(0x00))\n      dup1\n      0x715018a6\n      gt\n      tag_20\n      jumpi\n      dup1\n      0x95d89b41\n      gt\n      tag_21\n      jumpi\n      dup1\n      0x95d89b41\n      eq\n      tag_15\n      jumpi\n      dup1\n      0xa9059cbb\n      eq\n      tag_16\n      jumpi\n      dup1\n      0xd505accf\n      eq\n      tag_17\n      jumpi\n      dup1\n      0xdd62ed3e\n      eq\n      tag_18\n      jumpi\n      dup1\n      0xf2fde38b\n      eq\n      tag_19\n      jumpi\n      jump(tag_2)\n    tag_21:\n      dup1\n      0x715018a6\n      eq\n      tag_11\n      jumpi\n      dup1\n      0x7ecebe00\n      eq\n      tag_12\n      jumpi\n      dup1\n      0x84b0196e\n      eq\n      tag_13\n      jumpi\n      dup1\n      0x8da5cb5b\n      eq\n      tag_14\n      jumpi\n      jump(tag_2)\n    tag_20:\n      dup1\n      0x313ce567\n      gt\n      tag_22\n      jumpi\n      dup1\n      0x313ce567\n      eq\n      tag_7\n      jumpi\n      dup1\n      0x3644e515\n      eq\n      tag_8\n      jumpi\n      dup1\n      0x40c10f19\n      eq\n      tag_9\n      jumpi\n      dup1\n      0x70a08231\n      eq\n      tag_10\n      jumpi\n      jump(tag_2)\n    tag_22:\n      dup1\n      0x06fdde03\n      eq\n      tag_3\n      jumpi\n      dup1\n      0x095ea7b3\n      eq\n      tag_4\n      jumpi\n      dup1\n      0x18160ddd\n      eq\n      tag_5\n      jumpi\n      dup1\n      0x23b872dd\n      eq\n      tag_6\n      jumpi\n    tag_2:\n      0x00\n      dup1\n      revert\n        /* \"MemberToken_flattened.sol\":67953:68042  function name() public view virtual returns (string memory) {... */\n    tag_3:\n      tag_23\n      tag_24\n      jump\t// in\n    tag_23:\n      mload(0x40)\n      tag_25\n      swap2\n      swap1\n      tag_26\n      jump\t// in\n    tag_25:\n      mload(0x40)\n      dup1\n      swap2\n      sub\n      swap1\n      return\n        /* \"MemberToken_flattened.sol\":70172:70358  function approve(address spender, uint256 value) public virtual returns (bool) {... */\n    tag_4:\n      tag_27\n      0x04\n      dup1\n      calldatasize\n      sub\n      dup2\n      add\n      swap1\n      tag_28\n      swap2\n      swap1\n      tag_29\n      jump\t// in\n    tag_28:\n      tag_30\n      jump\t// in\n    tag_27:\n      mload(0x40)\n      tag_31\n      swap2\n      swap1\n      tag_32\n      jump\t// in\n    tag_31:\n      mload(0x40)\n      dup1\n      swap2\n      sub\n      swap1\n      return\n        /* \"MemberToken_flattened.sol\":69023:69120  function totalSupply() public view virtual returns (uint256) {... */\n    tag_5:\n      tag_33\n      tag_34\n      jump\t// in\n    tag_33:\n      mload(0x40)\n      tag_35\n      swap2\n      swap1\n      tag_36\n      jump\t// in\n    tag_35:\n      mload(0x40)\n      dup1\n      swap2\n      sub\n      swap1\n      return\n        /* \"MemberToken_flattened.sol\":70918:71162  function transferFrom(address from, address to, uint256 value) public virtual returns (bool) {... */\n    tag_6:\n      tag_37\n      0x04\n      dup1\n      calldatasize\n      sub\n      dup2\n      add\n      swap1\n      tag_38\n      swap2\n      swap1\n      tag_39\n      jump\t// in\n    tag_38:\n      tag_40\n      jump\t// in\n    tag_37:\n      mload(0x40)\n      tag_41\n      swap2\n      swap1\n      tag_32\n      jump\t// in\n    tag_41:\n      mload(0x40)\n      dup1\n      swap2\n      sub\n      swap1\n      return\n        /* \"MemberToken_flattened.sol\":68881:68963  function decimals() public view virtual returns (uint8) {... */\n    tag_7:\n      tag_42\n      tag_43\n      jump\t// in\n    tag_42:\n      mload(0x40)\n      tag_44\n      swap2\n      swap1\n      tag_45\n      jump\t// in\n    tag_44:\n      mload(0x40)\n      dup1\n      swap2\n      sub\n      swap1\n      return\n        /* \"MemberToken_flattened.sol\":79470:79582  function DOMAIN_SEPARATOR() external view virtual returns (bytes32) {... */\n    tag_8:\n      tag_46\n      tag_47\n      jump\t// in\n    tag_46:\n      mload(0x40)\n      tag_48\n      swap2\n      swap1\n      tag_49\n      jump\t// in\n    tag_48:\n      mload(0x40)\n      dup1\n      swap2\n      sub\n      swap1\n      return\n        /* \"MemberToken_flattened.sol\":79898:80021  function mint(address to, uint256 amount) public onlyOwner {... */\n    tag_9:\n      tag_50\n      0x04\n      dup1\n      calldatasize\n      sub\n      dup2\n      add\n      swap1\n      tag_51\n      swap2\n      swap1\n      tag_29\n      jump\t// in\n    tag_51:\n      tag_52\n      jump\t// in\n    tag_50:\n      stop\n        /* \"MemberToken_flattened.sol\":69178:69294  function balanceOf(address account) public view virtual returns (uint256) {... */\n    tag_10:\n      tag_53\n      0x04\n      dup1\n      calldatasize\n      sub\n      dup2\n      add\n      swap1\n      tag_54\n      swap2\n      swap1\n      tag_55\n      jump\t// in\n    tag_54:\n      tag_56\n      jump\t// in\n    tag_53:\n      mload(0x40)\n      tag_57\n      swap2\n      swap1\n      tag_36\n      jump\t// in\n    tag_57:\n      mload(0x40)\n      dup1\n      swap2\n      sub\n      swap1\n      return\n        /* \"MemberToken_flattened.sol\":61742:61843  function renounceOwnership() public virtual onlyOwner {... */\n    tag_11:\n      tag_58\n      tag_59\n      jump\t// in\n    tag_58:\n      stop\n        /* \"MemberToken_flattened.sol\":79220:79363  function nonces(address owner) public view virtual override(IERC20Permit, Nonces) returns (uint256) {... */\n    tag_12:\n      tag_60\n      0x04\n      dup1\n      calldatasize\n      sub\n      dup2\n      add\n      swap1\n      tag_61\n      swap2\n      swap1\n      tag_55\n      jump\t// in\n    tag_61:\n      tag_62\n      jump\t// in\n    tag_60:\n      mload(0x40)\n      tag_63\n      swap2\n      swap1\n      tag_36\n      jump\t// in\n    tag_63:\n      mload(0x40)\n      dup1\n      swap2\n      sub\n      swap1\n      return\n        /* \"MemberToken_flattened.sol\":38813:39370  function eip712Domain()... */\n    tag_13:\n      tag_64\n      tag_65\n      jump\t// in\n    tag_64:\n      mload(0x40)\n      tag_66\n      swap8\n      swap7\n      swap6\n      swap5\n      swap4\n      swap3\n      swap2\n      swap1\n      tag_67\n      jump\t// in\n    tag_66:\n      mload(0x40)\n      dup1\n      swap2\n      sub\n      swap1\n      return\n        /* \"MemberToken_flattened.sol\":61087:61172  function owner() public view virtual returns (address) {... */\n    tag_14:\n      tag_68\n      tag_69\n      jump\t// in\n    tag_68:\n      mload(0x40)\n      tag_70\n      swap2\n      swap1\n      tag_71\n      jump\t// in\n    tag_70:\n      mload(0x40)\n      dup1\n      swap2\n      sub\n      swap1\n      return\n        /* \"MemberToken_flattened.sol\":68155:68248  function symbol() public view virtual returns (string memory) {... */\n    tag_15:\n      tag_72\n      tag_73\n      jump\t// in\n    tag_72:\n      mload(0x40)\n      tag_74\n      swap2\n      swap1\n      tag_26\n      jump\t// in\n    tag_74:\n      mload(0x40)\n      dup1\n      swap2\n      sub\n      swap1\n      return\n        /* \"MemberToken_flattened.sol\":69489:69667  function transfer(address to, uint256 value) public virtual returns (bool) {... */\n    tag_16:\n      tag_75\n      0x04\n      dup1\n      calldatasize\n      sub\n      dup2\n      add\n      swap1\n      tag_76\n      swap2\n      swap1\n      tag_29\n      jump\t// in\n    tag_76:\n      tag_77\n      jump\t// in\n    tag_75:\n      mload(0x40)\n      tag_78\n      swap2\n      swap1\n      tag_32\n      jump\t// in\n    tag_78:\n      mload(0x40)\n      dup1\n      swap2\n      sub\n      swap1\n      return\n        /* \"MemberToken_flattened.sol\":78494:79166  function permit(... */\n    tag_17:\n      tag_79\n      0x04\n      dup1\n      calldatasize\n      sub\n      dup2\n      add\n      swap1\n      tag_80\n      swap2\n      swap1\n      tag_81\n      jump\t// in\n    tag_80:\n      tag_82\n      jump\t// in\n    tag_79:\n      stop\n        /* \"MemberToken_flattened.sol\":69725:69865  function allowance(address owner, address spender) public view virtual returns (uint256) {... */\n    tag_18:\n      tag_83\n      0x04\n      dup1\n      calldatasize\n      sub\n      dup2\n      add\n      swap1\n      tag_84\n      swap2\n      swap1\n      tag_85\n      jump\t// in\n    tag_84:\n      tag_86\n      jump\t// in\n    tag_83:\n      mload(0x40)\n      tag_87\n      swap2\n      swap1\n      tag_36\n      jump\t// in\n    tag_87:\n      mload(0x40)\n      dup1\n      swap2\n      sub\n      swap1\n      return\n        /* \"MemberToken_flattened.sol\":61992:62207  function transferOwnership(address newOwner) public virtual onlyOwner {... */\n    tag_19:\n      tag_88\n      0x04\n      dup1\n      calldatasize\n      sub\n      dup2\n      add\n      swap1\n      tag_89\n      swap2\n      swap1\n      tag_55\n      jump\t// in\n    tag_89:\n      tag_90\n      jump\t// in\n    tag_88:\n      stop\n        /* \"MemberToken_flattened.sol\":67953:68042  function name() public view virtual returns (string memory) {... */\n    tag_24:\n        /* \"MemberToken_flattened.sol\":67998:68011  string memory */\n      0x60\n        /* \"MemberToken_flattened.sol\":68030:68035  _name */\n      0x03\n        /* \"MemberToken_flattened.sol\":68023:68035  return _name */\n      dup1\n      sload\n      tag_92\n      swap1\n      tag_93\n      jump\t// in\n    tag_92:\n      dup1\n      0x1f\n      add\n      0x20\n      dup1\n      swap2\n      div\n      mul\n      0x20\n      add\n      mload(0x40)\n      swap1\n      dup2\n      add\n      0x40\n      mstore\n      dup1\n      swap3\n      swap2\n      swap1\n      dup2\n      dup2\n      mstore\n      0x20\n      add\n      dup3\n      dup1\n      sload\n      tag_94\n      swap1\n      tag_93\n      jump\t// in\n    tag_94:\n      dup1\n      iszero\n      tag_95\n      jumpi\n      dup1\n      0x1f\n      lt\n      tag_96\n      jumpi\n      0x0100\n      dup1\n      dup4\n      sload\n      div\n      mul\n      dup4\n      mstore\n      swap2\n      0x20\n      add\n      swap2\n      jump(tag_95)\n    tag_96:\n      dup3\n      add\n      swap2\n      swap1\n      0x00\n      mstore\n      keccak256(0x00, 0x20)\n      swap1\n    tag_97:\n      dup2\n      sload\n      dup2\n      mstore\n      swap1\n      0x01\n      add\n      swap1\n      0x20\n      add\n      dup1\n      dup4\n      gt\n      tag_97\n      jumpi\n      dup3\n      swap1\n      sub\n      0x1f\n      and\n      dup3\n      add\n      swap2\n    tag_95:\n      pop\n      pop\n      pop\n      pop\n      pop\n      swap1\n      pop\n        /* \"MemberToken_flattened.sol\":67953:68042  function name() public view virtual returns (string memory) {... */\n      swap1\n      jump\t// out\n        /* \"MemberToken_flattened.sol\":70172:70358  function approve(address spender, uint256 value) public virtual returns (bool) {... */\n    tag_30:\n        /* \"MemberToken_flattened.sol\":70245:70249  bool */\n      0x00\n        /* \"MemberToken_flattened.sol\":70261:70274  address owner */\n      dup1\n        /* \"MemberToken_flattened.sol\":70277:70289  _msgSender() */\n      tag_99\n        /* \"MemberToken_flattened.sol\":70277:70287  _msgSender */\n      tag_100\n        /* \"MemberToken_flattened.sol\":70277:70289  _msgSender() */\n      jump\t// in\n    tag_99:\n        /* \"MemberToken_flattened.sol\":70261:70289  address owner = _msgSender() */\n      swap1\n      pop\n        /* \"MemberToken_flattened.sol\":70299:70330  _approve(owner, spender, value) */\n      tag_101\n        /* \"MemberToken_flattened.sol\":70308:70313  owner */\n      dup2\n        /* \"MemberToken_flattened.sol\":70315:70322  spender */\n      dup6\n        /* \"MemberToken_flattened.sol\":70324:70329  value */\n      dup6\n        /* \"MemberToken_flattened.sol\":70299:70307  _approve */\n      tag_102\n        /* \"MemberToken_flattened.sol\":70299:70330  _approve(owner, spender, value) */\n      jump\t// in\n    tag_101:\n        /* \"MemberToken_flattened.sol\":70347:70351  true */\n      0x01\n        /* \"MemberToken_flattened.sol\":70340:70351  return true */\n      swap2\n      pop\n      pop\n        /* \"MemberToken_flattened.sol\":70172:70358  function approve(address spender, uint256 value) public virtual returns (bool) {... */\n      swap3\n      swap2\n      pop\n      pop\n      jump\t// out\n        /* \"MemberToken_flattened.sol\":69023:69120  function totalSupply() public view virtual returns (uint256) {... */\n    tag_34:\n        /* \"MemberToken_flattened.sol\":69075:69082  uint256 */\n      0x00\n        /* \"MemberToken_flattened.sol\":69101:69113  _totalSupply */\n      sload(0x02)\n        /* \"MemberToken_flattened.sol\":69094:69113  return _totalSupply */\n      swap1\n      pop\n        /* \"MemberToken_flattened.sol\":69023:69120  function totalSupply() public view virtual returns (uint256) {... */\n      swap1\n      jump\t// out\n        /* \"MemberToken_flattened.sol\":70918:71162  function transferFrom(address from, address to, uint256 value) public virtual returns (bool) {... */\n    tag_40:\n        /* \"MemberToken_flattened.sol\":71005:71009  bool */\n      0x00\n        /* \"MemberToken_flattened.sol\":71021:71036  address spender */\n      dup1\n        /* \"MemberToken_flattened.sol\":71039:71051  _msgSender() */\n      tag_105\n        /* \"MemberToken_flattened.sol\":71039:71049  _msgSender */\n      tag_100\n        /* \"MemberToken_flattened.sol\":71039:71051  _msgSender() */\n      jump\t// in\n    tag_105:\n        /* \"MemberToken_flattened.sol\":71021:71051  address spender = _msgSender() */\n      swap1\n      pop\n        /* \"MemberToken_flattened.sol\":71061:71098  _spendAllowance(from, spender, value) */\n      tag_106\n        /* \"MemberToken_flattened.sol\":71077:71081  from */\n      dup6\n        /* \"MemberToken_flattened.sol\":71083:71090  spender */\n      dup3\n        /* \"MemberToken_flattened.sol\":71092:71097  value */\n      dup6\n        /* \"MemberToken_flattened.sol\":71061:71076  _spendAllowance */\n      tag_107\n        /* \"MemberToken_flattened.sol\":71061:71098  _spendAllowance(from, spender, value) */\n      jump\t// in\n    tag_106:\n        /* \"MemberToken_flattened.sol\":71108:71134  _transfer(from, to, value) */\n      tag_108\n        /* \"MemberToken_flattened.sol\":71118:71122  from */\n      dup6\n        /* \"MemberToken_flattened.sol\":71124:71126  to */\n      dup6\n        /* \"MemberToken_flattened.sol\":71128:71133  value */\n      dup6\n        /* \"MemberToken_flattened.sol\":71108:71117  _transfer */\n      tag_109\n        /* \"MemberToken_flattened.sol\":71108:71134  _transfer(from, to, value) */\n      jump\t// in\n    tag_108:\n        /* \"MemberToken_flattened.sol\":71151:71155  true */\n      0x01\n        /* \"MemberToken_flattened.sol\":71144:71155  return true */\n      swap2\n      pop\n      pop\n        /* \"MemberToken_flattened.sol\":70918:71162  function transferFrom(address from, address to, uint256 value) public virtual returns (bool) {... */\n      swap4\n      swap3\n      pop\n      pop\n      pop\n      jump\t// out\n        /* \"MemberToken_flattened.sol\":68881:68963  function decimals() public view virtual returns (uint8) {... */\n    tag_43:\n        /* \"MemberToken_flattened.sol\":68930:68935  uint8 */\n      0x00\n        /* \"MemberToken_flattened.sol\":68954:68956  18 */\n      0x12\n        /* \"MemberToken_flattened.sol\":68947:68956  return 18 */\n      swap1\n      pop\n        /* \"MemberToken_flattened.sol\":68881:68963  function decimals() public view virtual returns (uint8) {... */\n      swap1\n      jump\t// out\n        /* \"MemberToken_flattened.sol\":79470:79582  function DOMAIN_SEPARATOR() external view virtual returns (bytes32) {... */\n    tag_47:\n        /* \"MemberToken_flattened.sol\":79529:79536  bytes32 */\n      0x00\n        /* \"MemberToken_flattened.sol\":79555:79575  _domainSeparatorV4() */\n      tag_112\n        /* \"MemberToken_flattened.sol\":79555:79573  _domainSeparatorV4 */\n      tag_113\n        /* \"MemberToken_flattened.sol\":79555:79575  _domainSeparatorV4() */\n      jump\t// in\n    tag_112:\n        /* \"MemberToken_flattened.sol\":79548:79575  return _domainSeparatorV4() */\n      swap1\n      pop\n        /* \"MemberToken_flattened.sol\":79470:79582  function DOMAIN_SEPARATOR() external view virtual returns (bytes32) {... */\n      swap1\n      jump\t// out\n        /* \"MemberToken_flattened.sol\":79898:80021  function mint(address to, uint256 amount) public onlyOwner {... */\n    tag_52:\n        /* \"MemberToken_flattened.sol\":60980:60993  _checkOwner() */\n      tag_115\n        /* \"MemberToken_flattened.sol\":60980:60991  _checkOwner */\n      tag_116\n        /* \"MemberToken_flattened.sol\":60980:60993  _checkOwner() */\n      jump\t// in\n    tag_115:\n        /* \"MemberToken_flattened.sol\":79967:80014  _mint(to, amount * (10 ** uint256(decimals()))) */\n      tag_118\n        /* \"MemberToken_flattened.sol\":79973:79975  to */\n      dup3\n        /* \"MemberToken_flattened.sol\":80001:80011  decimals() */\n      tag_119\n        /* \"MemberToken_flattened.sol\":80001:80009  decimals */\n      tag_43\n        /* \"MemberToken_flattened.sol\":80001:80011  decimals() */\n      jump\t// in\n    tag_119:\n        /* \"MemberToken_flattened.sol\":79993:80012  uint256(decimals()) */\n      0xff\n      and\n        /* \"MemberToken_flattened.sol\":79987:79989  10 */\n      0x0a\n        /* \"MemberToken_flattened.sol\":79987:80012  10 ** uint256(decimals()) */\n      tag_120\n      swap2\n      swap1\n      tag_121\n      jump\t// in\n    tag_120:\n        /* \"MemberToken_flattened.sol\":79977:79983  amount */\n      dup4\n        /* \"MemberToken_flattened.sol\":79977:80013  amount * (10 ** uint256(decimals())) */\n      tag_122\n      swap2\n      swap1\n      tag_123\n      jump\t// in\n    tag_122:\n        /* \"MemberToken_flattened.sol\":79967:79972  _mint */\n      tag_124\n        /* \"MemberToken_flattened.sol\":79967:80014  _mint(to, amount * (10 ** uint256(decimals()))) */\n      jump\t// in\n    tag_118:\n        /* \"MemberToken_flattened.sol\":79898:80021  function mint(address to, uint256 amount) public onlyOwner {... */\n      pop\n      pop\n      jump\t// out\n        /* \"MemberToken_flattened.sol\":69178:69294  function balanceOf(address account) public view virtual returns (uint256) {... */\n    tag_56:\n        /* \"MemberToken_flattened.sol\":69243:69250  uint256 */\n      0x00\n        /* \"MemberToken_flattened.sol\":69269:69278  _balances */\n      dup1\n        /* \"MemberToken_flattened.sol\":69269:69287  _balances[account] */\n      0x00\n        /* \"MemberToken_flattened.sol\":69279:69286  account */\n      dup4\n        /* \"MemberToken_flattened.sol\":69269:69287  _balances[account] */\n      0xffffffffffffffffffffffffffffffffffffffff\n      and\n      0xffffffffffffffffffffffffffffffffffffffff\n      and\n      dup2\n      mstore\n      0x20\n      add\n      swap1\n      dup2\n      mstore\n      0x20\n      add\n      0x00\n      keccak256\n      sload\n        /* \"MemberToken_flattened.sol\":69262:69287  return _balances[account] */\n      swap1\n      pop\n        /* \"MemberToken_flattened.sol\":69178:69294  function balanceOf(address account) public view virtual returns (uint256) {... */\n      swap2\n      swap1\n      pop\n      jump\t// out\n        /* \"MemberToken_flattened.sol\":61742:61843  function renounceOwnership() public virtual onlyOwner {... */\n    tag_59:\n        /* \"MemberToken_flattened.sol\":60980:60993  _checkOwner() */\n      tag_127\n        /* \"MemberToken_flattened.sol\":60980:60991  _checkOwner */\n      tag_116\n        /* \"MemberToken_flattened.sol\":60980:60993  _checkOwner() */\n      jump\t// in\n    tag_127:\n        /* \"MemberToken_flattened.sol\":61806:61836  _transferOwnership(address(0)) */\n      tag_129\n        /* \"MemberToken_flattened.sol\":61833:61834  0 */\n      0x00\n        /* \"MemberToken_flattened.sol\":61806:61824  _transferOwnership */\n      tag_130\n        /* \"MemberToken_flattened.sol\":61806:61836  _transferOwnership(address(0)) */\n      jump\t// in\n    tag_129:\n        /* \"MemberToken_flattened.sol\":61742:61843  function renounceOwnership() public virtual onlyOwner {... */\n      jump\t// out\n        /* \"MemberToken_flattened.sol\":79220:79363  function nonces(address owner) public view virtual override(IERC20Permit, Nonces) returns (uint256) {... */\n    tag_62:\n        /* \"MemberToken_flattened.sol\":79311:79318  uint256 */\n      0x00\n        /* \"MemberToken_flattened.sol\":79337:79356  super.nonces(owner) */\n      tag_132\n        /* \"MemberToken_flattened.sol\":79350:79355  owner */\n      dup3\n        /* \"MemberToken_flattened.sol\":79337:79349  super.nonces */\n      tag_133\n        /* \"MemberToken_flattened.sol\":79337:79356  super.nonces(owner) */\n      jump\t// in\n    tag_132:\n        /* \"MemberToken_flattened.sol\":79330:79356  return super.nonces(owner) */\n      swap1\n      pop\n        /* \"MemberToken_flattened.sol\":79220:79363  function nonces(address owner) public view virtual override(IERC20Permit, Nonces) returns (uint256) {... */\n      swap2\n      swap1\n      pop\n      jump\t// out\n        /* \"MemberToken_flattened.sol\":38813:39370  function eip712Domain()... */\n    tag_65:\n        /* \"MemberToken_flattened.sol\":38911:38924  bytes1 fields */\n      0x00\n        /* \"MemberToken_flattened.sol\":38938:38956  string memory name */\n      0x60\n        /* \"MemberToken_flattened.sol\":38970:38991  string memory version */\n      dup1\n        /* \"MemberToken_flattened.sol\":39005:39020  uint256 chainId */\n      0x00\n        /* \"MemberToken_flattened.sol\":39034:39059  address verifyingContract */\n      dup1\n        /* \"MemberToken_flattened.sol\":39073:39085  bytes32 salt */\n      0x00\n        /* \"MemberToken_flattened.sol\":39099:39126  uint256[] memory extensions */\n      0x60\n        /* \"MemberToken_flattened.sol\":39202:39215  _EIP712Name() */\n      tag_135\n        /* \"MemberToken_flattened.sol\":39202:39213  _EIP712Name */\n      tag_136\n        /* \"MemberToken_flattened.sol\":39202:39215  _EIP712Name() */\n      jump\t// in\n    tag_135:\n        /* \"MemberToken_flattened.sol\":39229:39245  _EIP712Version() */\n      tag_137\n        /* \"MemberToken_flattened.sol\":39229:39243  _EIP712Version */\n      tag_138\n        /* \"MemberToken_flattened.sol\":39229:39245  _EIP712Version() */\n      jump\t// in\n    tag_137:\n        /* \"MemberToken_flattened.sol\":39259:39272  block.chainid */\n      chainid\n        /* \"MemberToken_flattened.sol\":39294:39298  this */\n      address\n        /* \"MemberToken_flattened.sol\":39321:39322  0 */\n      0x00\n        /* \"MemberToken_flattened.sol\":39313:39323  bytes32(0) */\n      dup1\n      shl\n        /* \"MemberToken_flattened.sol\":39351:39352  0 */\n      0x00\n        /* \"MemberToken_flattened.sol\":39337:39353  new uint256[](0) */\n      0xffffffffffffffff\n      dup2\n      gt\n      iszero\n      tag_139\n      jumpi\n      tag_140\n      tag_141\n      jump\t// in\n    tag_140:\n    tag_139:\n      mload(0x40)\n      swap1\n      dup1\n      dup3\n      mstore\n      dup1\n      0x20\n      mul\n      0x20\n      add\n      dup3\n      add\n      0x40\n      mstore\n      dup1\n      iszero\n      tag_142\n      jumpi\n      dup2\n      0x20\n      add\n      0x20\n      dup3\n      mul\n      dup1\n      calldatasize\n      dup4\n      calldatacopy\n      dup1\n      dup3\n      add\n      swap2\n      pop\n      pop\n      swap1\n      pop\n    tag_142:\n      pop\n        /* \"MemberToken_flattened.sol\":39151:39363  return (... */\n      0x0f00000000000000000000000000000000000000000000000000000000000000\n      swap6\n      swap5\n      swap4\n      swap3\n      swap2\n      swap1\n      swap7\n      pop\n      swap7\n      pop\n      swap7\n      pop\n      swap7\n      pop\n      swap7\n      pop\n      swap7\n      pop\n      swap7\n      pop\n        /* \"MemberToken_flattened.sol\":38813:39370  function eip712Domain()... */\n      swap1\n      swap2\n      swap3\n      swap4\n      swap5\n      swap6\n      swap7\n      jump\t// out\n        /* \"MemberToken_flattened.sol\":61087:61172  function owner() public view virtual returns (address) {... */\n    tag_69:\n        /* \"MemberToken_flattened.sol\":61133:61140  address */\n      0x00\n        /* \"MemberToken_flattened.sol\":61159:61165  _owner */\n      0x05\n      0x00\n      swap1\n      sload\n      swap1\n      0x0100\n      exp\n      swap1\n      div\n      0xffffffffffffffffffffffffffffffffffffffff\n      and\n        /* \"MemberToken_flattened.sol\":61152:61165  return _owner */\n      swap1\n      pop\n        /* \"MemberToken_flattened.sol\":61087:61172  function owner() public view virtual returns (address) {... */\n      swap1\n      jump\t// out\n        /* \"MemberToken_flattened.sol\":68155:68248  function symbol() public view virtual returns (string memory) {... */\n    tag_73:\n        /* \"MemberToken_flattened.sol\":68202:68215  string memory */\n      0x60\n        /* \"MemberToken_flattened.sol\":68234:68241  _symbol */\n      0x04\n        /* \"MemberToken_flattened.sol\":68227:68241  return _symbol */\n      dup1\n      sload\n      tag_145\n      swap1\n      tag_93\n      jump\t// in\n    tag_145:\n      dup1\n      0x1f\n      add\n      0x20\n      dup1\n      swap2\n      div\n      mul\n      0x20\n      add\n      mload(0x40)\n      swap1\n      dup2\n      add\n      0x40\n      mstore\n      dup1\n      swap3\n      swap2\n      swap1\n      dup2\n      dup2\n      mstore\n      0x20\n      add\n      dup3\n      dup1\n      sload\n      tag_146\n      swap1\n      tag_93\n      jump\t// in\n    tag_146:\n      dup1\n      iszero\n      tag_147\n      jumpi\n      dup1\n      0x1f\n      lt\n      tag_148\n      jumpi\n      0x0100\n      dup1\n      dup4\n      sload\n      div\n      mul\n      dup4\n      mstore\n      swap2\n      0x20\n      add\n      swap2\n      jump(tag_147)\n    tag_148:\n      dup3\n      add\n      swap2\n      swap1\n      0x00\n      mstore\n      keccak256(0x00, 0x20)\n      swap1\n    tag_149:\n      dup2\n      sload\n      dup2\n      mstore\n      swap1\n      0x01\n      add\n      swap1\n      0x20\n      add\n      dup1\n      dup4\n      gt\n      tag_149\n      jumpi\n      dup3\n      swap1\n      sub\n      0x1f\n      and\n      dup3\n      add\n      swap2\n    tag_147:\n      pop\n      pop\n      pop\n      pop\n      pop\n      swap1\n      pop\n        /* \"MemberToken_flattened.sol\":68155:68248  function symbol() public view virtual returns (string memory) {... */\n      swap1\n      jump\t// out\n        /* \"MemberToken_flattened.sol\":69489:69667  function transfer(address to, uint256 value) public virtual returns (bool) {... */\n    tag_77:\n        /* \"MemberToken_flattened.sol\":69558:69562  bool */\n      0x00\n        /* \"MemberToken_flattened.sol\":69574:69587  address owner */\n      dup1\n        /* \"MemberToken_flattened.sol\":69590:69602  _msgSender() */\n      tag_151\n        /* \"MemberToken_flattened.sol\":69590:69600  _msgSender */\n      tag_100\n        /* \"MemberToken_flattened.sol\":69590:69602  _msgSender() */\n      jump\t// in\n    tag_151:\n        /* \"MemberToken_flattened.sol\":69574:69602  address owner = _msgSender() */\n      swap1\n      pop\n        /* \"MemberToken_flattened.sol\":69612:69639  _transfer(owner, to, value) */\n      tag_152\n        /* \"MemberToken_flattened.sol\":69622:69627  owner */\n      dup2\n        /* \"MemberToken_flattened.sol\":69629:69631  to */\n      dup6\n        /* \"MemberToken_flattened.sol\":69633:69638  value */\n      dup6\n        /* \"MemberToken_flattened.sol\":69612:69621  _transfer */\n      tag_109\n        /* \"MemberToken_flattened.sol\":69612:69639  _transfer(owner, to, value) */\n      jump\t// in\n    tag_152:\n        /* \"MemberToken_flattened.sol\":69656:69660  true */\n      0x01\n        /* \"MemberToken_flattened.sol\":69649:69660  return true */\n      swap2\n      pop\n      pop\n        /* \"MemberToken_flattened.sol\":69489:69667  function transfer(address to, uint256 value) public virtual returns (bool) {... */\n      swap3\n      swap2\n      pop\n      pop\n      jump\t// out\n        /* \"MemberToken_flattened.sol\":78494:79166  function permit(... */\n    tag_82:\n        /* \"MemberToken_flattened.sol\":78715:78723  deadline */\n      dup4\n        /* \"MemberToken_flattened.sol\":78697:78712  block.timestamp */\n      timestamp\n        /* \"MemberToken_flattened.sol\":78697:78723  block.timestamp > deadline */\n      gt\n        /* \"MemberToken_flattened.sol\":78693:78790  if (block.timestamp > deadline) {... */\n      iszero\n      tag_154\n      jumpi\n        /* \"MemberToken_flattened.sol\":78770:78778  deadline */\n      dup4\n        /* \"MemberToken_flattened.sol\":78746:78779  ERC2612ExpiredSignature(deadline) */\n      mload(0x40)\n      0x6279130200000000000000000000000000000000000000000000000000000000\n      dup2\n      mstore\n      0x04\n      add\n      tag_155\n      swap2\n      swap1\n      tag_36\n      jump\t// in\n    tag_155:\n      mload(0x40)\n      dup1\n      swap2\n      sub\n      swap1\n      revert\n        /* \"MemberToken_flattened.sol\":78693:78790  if (block.timestamp > deadline) {... */\n    tag_154:\n        /* \"MemberToken_flattened.sol\":78800:78818  bytes32 structHash */\n      0x00\n        /* \"MemberToken_flattened.sol\":77836:77931  keccak256(\"Permit(address owner,address spender,uint256 value,uint256 nonce,uint256 deadline)\") */\n      0x6e71edae12b1b97f4d1f60370fef10105fa2faae0126114a169c64845d6126c9\n        /* \"MemberToken_flattened.sol\":78859:78864  owner */\n      dup9\n        /* \"MemberToken_flattened.sol\":78866:78873  spender */\n      dup9\n        /* \"MemberToken_flattened.sol\":78875:78880  value */\n      dup9\n        /* \"MemberToken_flattened.sol\":78882:78898  _useNonce(owner) */\n      tag_156\n        /* \"MemberToken_flattened.sol\":78892:78897  owner */\n      dup13\n        /* \"MemberToken_flattened.sol\":78882:78891  _useNonce */\n      tag_157\n        /* \"MemberToken_flattened.sol\":78882:78898  _useNonce(owner) */\n      jump\t// in\n    tag_156:\n        /* \"MemberToken_flattened.sol\":78900:78908  deadline */\n      dup10\n        /* \"MemberToken_flattened.sol\":78831:78909  abi.encode(PERMIT_TYPEHASH, owner, spender, value, _useNonce(owner), deadline) */\n      add(0x20, mload(0x40))\n      tag_158\n      swap7\n      swap6\n      swap5\n      swap4\n      swap3\n      swap2\n      swap1\n      tag_159\n      jump\t// in\n    tag_158:\n      mload(0x40)\n      0x20\n      dup2\n      dup4\n      sub\n      sub\n      dup2\n      mstore\n      swap1\n      0x40\n      mstore\n        /* \"MemberToken_flattened.sol\":78821:78910  keccak256(abi.encode(PERMIT_TYPEHASH, owner, spender, value, _useNonce(owner), deadline)) */\n      dup1\n      mload\n      swap1\n      0x20\n      add\n      keccak256\n        /* \"MemberToken_flattened.sol\":78800:78910  bytes32 structHash = keccak256(abi.encode(PERMIT_TYPEHASH, owner, spender, value, _useNonce(owner), deadline)) */\n      swap1\n      pop\n        /* \"MemberToken_flattened.sol\":78921:78933  bytes32 hash */\n      0x00\n        /* \"MemberToken_flattened.sol\":78936:78964  _hashTypedDataV4(structHash) */\n      tag_160\n        /* \"MemberToken_flattened.sol\":78953:78963  structHash */\n      dup3\n        /* \"MemberToken_flattened.sol\":78936:78952  _hashTypedDataV4 */\n      tag_161\n        /* \"MemberToken_flattened.sol\":78936:78964  _hashTypedDataV4(structHash) */\n      jump\t// in\n    tag_160:\n        /* \"MemberToken_flattened.sol\":78921:78964  bytes32 hash = _hashTypedDataV4(structHash) */\n      swap1\n      pop\n        /* \"MemberToken_flattened.sol\":78975:78989  address signer */\n      0x00\n        /* \"MemberToken_flattened.sol\":78992:79020  ECDSA.recover(hash, v, r, s) */\n      tag_162\n        /* \"MemberToken_flattened.sol\":79006:79010  hash */\n      dup3\n        /* \"MemberToken_flattened.sol\":79012:79013  v */\n      dup8\n        /* \"MemberToken_flattened.sol\":79015:79016  r */\n      dup8\n        /* \"MemberToken_flattened.sol\":79018:79019  s */\n      dup8\n        /* \"MemberToken_flattened.sol\":78992:79005  ECDSA.recover */\n      tag_163\n        /* \"MemberToken_flattened.sol\":78992:79020  ECDSA.recover(hash, v, r, s) */\n      jump\t// in\n    tag_162:\n        /* \"MemberToken_flattened.sol\":78975:79020  address signer = ECDSA.recover(hash, v, r, s) */\n      swap1\n      pop\n        /* \"MemberToken_flattened.sol\":79044:79049  owner */\n      dup10\n        /* \"MemberToken_flattened.sol\":79034:79049  signer != owner */\n      0xffffffffffffffffffffffffffffffffffffffff\n      and\n        /* \"MemberToken_flattened.sol\":79034:79040  signer */\n      dup2\n        /* \"MemberToken_flattened.sol\":79034:79049  signer != owner */\n      0xffffffffffffffffffffffffffffffffffffffff\n      and\n      eq\n        /* \"MemberToken_flattened.sol\":79030:79118  if (signer != owner) {... */\n      tag_164\n      jumpi\n        /* \"MemberToken_flattened.sol\":79093:79099  signer */\n      dup1\n        /* \"MemberToken_flattened.sol\":79101:79106  owner */\n      dup11\n        /* \"MemberToken_flattened.sol\":79072:79107  ERC2612InvalidSigner(signer, owner) */\n      mload(0x40)\n      0x4b800e4600000000000000000000000000000000000000000000000000000000\n      dup2\n      mstore\n      0x04\n      add\n      tag_165\n      swap3\n      swap2\n      swap1\n      tag_166\n      jump\t// in\n    tag_165:\n      mload(0x40)\n      dup1\n      swap2\n      sub\n      swap1\n      revert\n        /* \"MemberToken_flattened.sol\":79030:79118  if (signer != owner) {... */\n    tag_164:\n        /* \"MemberToken_flattened.sol\":79128:79159  _approve(owner, spender, value) */\n      tag_167\n        /* \"MemberToken_flattened.sol\":79137:79142  owner */\n      dup11\n        /* \"MemberToken_flattened.sol\":79144:79151  spender */\n      dup11\n        /* \"MemberToken_flattened.sol\":79153:79158  value */\n      dup11\n        /* \"MemberToken_flattened.sol\":79128:79136  _approve */\n      tag_102\n        /* \"MemberToken_flattened.sol\":79128:79159  _approve(owner, spender, value) */\n      jump\t// in\n    tag_167:\n        /* \"MemberToken_flattened.sol\":78683:79166  {... */\n      pop\n      pop\n      pop\n        /* \"MemberToken_flattened.sol\":78494:79166  function permit(... */\n      pop\n      pop\n      pop\n      pop\n      pop\n      pop\n      pop\n      jump\t// out\n        /* \"MemberToken_flattened.sol\":69725:69865  function allowance(address owner, address spender) public view virtual returns (uint256) {... */\n    tag_86:\n        /* \"MemberToken_flattened.sol\":69805:69812  uint256 */\n      0x00\n        /* \"MemberToken_flattened.sol\":69831:69842  _allowances */\n      0x01\n        /* \"MemberToken_flattened.sol\":69831:69849  _allowances[owner] */\n      0x00\n        /* \"MemberToken_flattened.sol\":69843:69848  owner */\n      dup5\n        /* \"MemberToken_flattened.sol\":69831:69849  _allowances[owner] */\n      0xffffffffffffffffffffffffffffffffffffffff\n      and\n      0xffffffffffffffffffffffffffffffffffffffff\n      and\n      dup2\n      mstore\n      0x20\n      add\n      swap1\n      dup2\n      mstore\n      0x20\n      add\n      0x00\n      keccak256\n        /* \"MemberToken_flattened.sol\":69831:69858  _allowances[owner][spender] */\n      0x00\n        /* \"MemberToken_flattened.sol\":69850:69857  spender */\n      dup4\n        /* \"MemberToken_flattened.sol\":69831:69858  _allowances[owner][spender] */\n      0xffffffffffffffffffffffffffffffffffffffff\n      and\n      0xffffffffffffffffffffffffffffffffffffffff\n      and\n      dup2\n      mstore\n      0x20\n      add\n      swap1\n      dup2\n      mstore\n      0x20\n      add\n      0x00\n      keccak256\n      sload\n        /* \"MemberToken_flattened.sol\":69824:69858  return _allowances[owner][spender] */\n      swap1\n      pop\n        /* \"MemberToken_flattened.sol\":69725:69865  function allowance(address owner, address spender) public view virtual returns (uint256) {... */\n      swap3\n      swap2\n      pop\n      pop\n      jump\t// out\n        /* \"MemberToken_flattened.sol\":61992:62207  function transferOwnership(address newOwner) public virtual onlyOwner {... */\n    tag_90:\n        /* \"MemberToken_flattened.sol\":60980:60993  _checkOwner() */\n      tag_170\n        /* \"MemberToken_flattened.sol\":60980:60991  _checkOwner */\n      tag_116\n        /* \"MemberToken_flattened.sol\":60980:60993  _checkOwner() */\n      jump\t// in\n    tag_170:\n        /* \"MemberToken_flattened.sol\":62096:62097  0 */\n      0x00\n        /* \"MemberToken_flattened.sol\":62076:62098  newOwner == address(0) */\n      0xffffffffffffffffffffffffffffffffffffffff\n      and\n        /* \"MemberToken_flattened.sol\":62076:62084  newOwner */\n      dup2\n        /* \"MemberToken_flattened.sol\":62076:62098  newOwner == address(0) */\n      0xffffffffffffffffffffffffffffffffffffffff\n      and\n      sub\n        /* \"MemberToken_flattened.sol\":62072:62163  if (newOwner == address(0)) {... */\n      tag_172\n      jumpi\n        /* \"MemberToken_flattened.sol\":62149:62150  0 */\n      0x00\n        /* \"MemberToken_flattened.sol\":62121:62152  OwnableInvalidOwner(address(0)) */\n      mload(0x40)\n      0x1e4fbdf700000000000000000000000000000000000000000000000000000000\n      dup2\n      mstore\n      0x04\n      add\n      tag_173\n      swap2\n      swap1\n      tag_71\n      jump\t// in\n    tag_173:\n      mload(0x40)\n      dup1\n      swap2\n      sub\n      swap1\n      revert\n        /* \"MemberToken_flattened.sol\":62072:62163  if (newOwner == address(0)) {... */\n    tag_172:\n        /* \"MemberToken_flattened.sol\":62172:62200  _transferOwnership(newOwner) */\n      tag_174\n        /* \"MemberToken_flattened.sol\":62191:62199  newOwner */\n      dup2\n        /* \"MemberToken_flattened.sol\":62172:62190  _transferOwnership */\n      tag_130\n        /* \"MemberToken_flattened.sol\":62172:62200  _transferOwnership(newOwner) */\n      jump\t// in\n    tag_174:\n        /* \"MemberToken_flattened.sol\":61992:62207  function transferOwnership(address newOwner) public virtual onlyOwner {... */\n      pop\n      jump\t// out\n        /* \"MemberToken_flattened.sol\":59159:59255  function _msgSender() internal view virtual returns (address) {... */\n    tag_100:\n        /* \"MemberToken_flattened.sol\":59212:59219  address */\n      0x00\n        /* \"MemberToken_flattened.sol\":59238:59248  msg.sender */\n      caller\n        /* \"MemberToken_flattened.sol\":59231:59248  return msg.sender */\n      swap1\n      pop\n        /* \"MemberToken_flattened.sol\":59159:59255  function _msgSender() internal view virtual returns (address) {... */\n      swap1\n      jump\t// out\n        /* \"MemberToken_flattened.sol\":74868:74996  function _approve(address owner, address spender, uint256 value) internal {... */\n    tag_102:\n        /* \"MemberToken_flattened.sol\":74952:74989  _approve(owner, spender, value, true) */\n      tag_177\n        /* \"MemberToken_flattened.sol\":74961:74966  owner */\n      dup4\n        /* \"MemberToken_flattened.sol\":74968:74975  spender */\n      dup4\n        /* \"MemberToken_flattened.sol\":74977:74982  value */\n      dup4\n        /* \"MemberToken_flattened.sol\":74984:74988  true */\n      0x01\n        /* \"MemberToken_flattened.sol\":74952:74960  _approve */\n      tag_178\n        /* \"MemberToken_flattened.sol\":74952:74989  _approve(owner, spender, value, true) */\n      jump\t// in\n    tag_177:\n        /* \"MemberToken_flattened.sol\":74868:74996  function _approve(address owner, address spender, uint256 value) internal {... */\n      pop\n      pop\n      pop\n      jump\t// out\n        /* \"MemberToken_flattened.sol\":76542:77017  function _spendAllowance(address owner, address spender, uint256 value) internal virtual {... */\n    tag_107:\n        /* \"MemberToken_flattened.sol\":76641:76665  uint256 currentAllowance */\n      0x00\n        /* \"MemberToken_flattened.sol\":76668:76693  allowance(owner, spender) */\n      tag_180\n        /* \"MemberToken_flattened.sol\":76678:76683  owner */\n      dup5\n        /* \"MemberToken_flattened.sol\":76685:76692  spender */\n      dup5\n        /* \"MemberToken_flattened.sol\":76668:76677  allowance */\n      tag_86\n        /* \"MemberToken_flattened.sol\":76668:76693  allowance(owner, spender) */\n      jump\t// in\n    tag_180:\n        /* \"MemberToken_flattened.sol\":76641:76693  uint256 currentAllowance = allowance(owner, spender) */\n      swap1\n      pop\n        /* \"MemberToken_flattened.sol\":76727:76744  type(uint256).max */\n      0xffffffffffffffffffffffffffffffffffffffffffffffffffffffffffffffff\n        /* \"MemberToken_flattened.sol\":76707:76723  currentAllowance */\n      dup2\n        /* \"MemberToken_flattened.sol\":76707:76744  currentAllowance != type(uint256).max */\n      eq\n        /* \"MemberToken_flattened.sol\":76703:77011  if (currentAllowance != type(uint256).max) {... */\n      tag_181\n      jumpi\n        /* \"MemberToken_flattened.sol\":76783:76788  value */\n      dup2\n        /* \"MemberToken_flattened.sol\":76764:76780  currentAllowance */\n      dup2\n        /* \"MemberToken_flattened.sol\":76764:76788  currentAllowance < value */\n      lt\n        /* \"MemberToken_flattened.sol\":76760:76888  if (currentAllowance < value) {... */\n      iszero\n      tag_182\n      jumpi\n        /* \"MemberToken_flattened.sol\":76842:76847  owner */\n      dup4\n        /* \"MemberToken_flattened.sol\":76849:76865  currentAllowance */\n      dup2\n        /* \"MemberToken_flattened.sol\":76867:76872  value */\n      dup4\n        /* \"MemberToken_flattened.sol\":76815:76873  ERC20InsufficientAllowance(owner, currentAllowance, value) */\n      mload(0x40)\n      0xfb8f41b200000000000000000000000000000000000000000000000000000000\n      dup2\n      mstore\n      0x04\n      add\n      tag_183\n      swap4\n      swap3\n      swap2\n      swap1\n      tag_184\n      jump\t// in\n    tag_183:\n      mload(0x40)\n      dup1\n      swap2\n      sub\n      swap1\n      revert\n        /* \"MemberToken_flattened.sol\":76760:76888  if (currentAllowance < value) {... */\n    tag_182:\n        /* \"MemberToken_flattened.sol\":76929:76986  _approve(owner, spender, currentAllowance - value, false) */\n      tag_185\n        /* \"MemberToken_flattened.sol\":76938:76943  owner */\n      dup5\n        /* \"MemberToken_flattened.sol\":76945:76952  spender */\n      dup5\n        /* \"MemberToken_flattened.sol\":76973:76978  value */\n      dup5\n        /* \"MemberToken_flattened.sol\":76954:76970  currentAllowance */\n      dup5\n        /* \"MemberToken_flattened.sol\":76954:76978  currentAllowance - value */\n      sub\n        /* \"MemberToken_flattened.sol\":76980:76985  false */\n      0x00\n        /* \"MemberToken_flattened.sol\":76929:76937  _approve */\n      tag_178\n        /* \"MemberToken_flattened.sol\":76929:76986  _approve(owner, spender, currentAllowance - value, false) */\n      jump\t// in\n    tag_185:\n        /* \"MemberToken_flattened.sol\":76703:77011  if (currentAllowance != type(uint256).max) {... */\n    tag_181:\n        /* \"MemberToken_flattened.sol\":76631:77017  {... */\n      pop\n        /* \"MemberToken_flattened.sol\":76542:77017  function _spendAllowance(address owner, address spender, uint256 value) internal virtual {... */\n      pop\n      pop\n      pop\n      jump\t// out\n        /* \"MemberToken_flattened.sol\":71535:71835  function _transfer(address from, address to, uint256 value) internal {... */\n    tag_109:\n        /* \"MemberToken_flattened.sol\":71634:71635  0 */\n      0x00\n        /* \"MemberToken_flattened.sol\":71618:71636  from == address(0) */\n      0xffffffffffffffffffffffffffffffffffffffff\n      and\n        /* \"MemberToken_flattened.sol\":71618:71622  from */\n      dup4\n        /* \"MemberToken_flattened.sol\":71618:71636  from == address(0) */\n      0xffffffffffffffffffffffffffffffffffffffff\n      and\n      sub\n        /* \"MemberToken_flattened.sol\":71614:71700  if (from == address(0)) {... */\n      tag_187\n      jumpi\n        /* \"MemberToken_flattened.sol\":71686:71687  0 */\n      0x00\n        /* \"MemberToken_flattened.sol\":71659:71689  ERC20InvalidSender(address(0)) */\n      mload(0x40)\n      0x96c6fd1e00000000000000000000000000000000000000000000000000000000\n      dup2\n      mstore\n      0x04\n      add\n      tag_188\n      swap2\n      swap1\n      tag_71\n      jump\t// in\n    tag_188:\n      mload(0x40)\n      dup1\n      swap2\n      sub\n      swap1\n      revert\n        /* \"MemberToken_flattened.sol\":71614:71700  if (from == address(0)) {... */\n    tag_187:\n        /* \"MemberToken_flattened.sol\":71727:71728  0 */\n      0x00\n        /* \"MemberToken_flattened.sol\":71713:71729  to == address(0) */\n      0xffffffffffffffffffffffffffffffffffffffff\n      and\n        /* \"MemberToken_flattened.sol\":71713:71715  to */\n      dup3\n        /* \"MemberToken_flattened.sol\":71713:71729  to == address(0) */\n      0xffffffffffffffffffffffffffffffffffffffff\n      and\n      sub\n        /* \"MemberToken_flattened.sol\":71709:71795  if (to == address(0)) {... */\n      tag_189\n      jumpi\n        /* \"MemberToken_flattened.sol\":71781:71782  0 */\n      0x00\n        /* \"MemberToken_flattened.sol\":71752:71784  ERC20InvalidReceiver(address(0)) */\n      mload(0x40)\n      0xec442f0500000000000000000000000000000000000000000000000000000000\n      dup2\n      mstore\n      0x04\n      add\n      tag_190\n      swap2\n      swap1\n      tag_71\n      jump\t// in\n    tag_190:\n      mload(0x40)\n      dup1\n      swap2\n      sub\n      swap1\n      revert\n        /* \"MemberToken_flattened.sol\":71709:71795  if (to == address(0)) {... */\n    tag_189:\n        /* \"MemberToken_flattened.sol\":71804:71828  _update(from, to, value) */\n      tag_191\n        /* \"MemberToken_flattened.sol\":71812:71816  from */\n      dup4\n        /* \"MemberToken_flattened.sol\":71818:71820  to */\n      dup4\n        /* \"MemberToken_flattened.sol\":71822:71827  value */\n      dup4\n        /* \"MemberToken_flattened.sol\":71804:71811  _update */\n      tag_192\n        /* \"MemberToken_flattened.sol\":71804:71828  _update(from, to, value) */\n      jump\t// in\n    tag_191:\n        /* \"MemberToken_flattened.sol\":71535:71835  function _transfer(address from, address to, uint256 value) internal {... */\n      pop\n      pop\n      pop\n      jump\t// out\n        /* \"MemberToken_flattened.sol\":37514:37776  function _domainSeparatorV4() internal view returns (bytes32) {... */\n    tag_113:\n        /* \"MemberToken_flattened.sol\":37567:37574  bytes32 */\n      0x00\n        /* \"MemberToken_flattened.sol\":37607:37618  _cachedThis */\n      immutable(\"0xf2aed5d52b85e7b229d9a0bb201e12bdcbbc5fc133feb54c1cb531c3f7cf58ed\")\n        /* \"MemberToken_flattened.sol\":37590:37618  address(this) == _cachedThis */\n      0xffffffffffffffffffffffffffffffffffffffff\n      and\n        /* \"MemberToken_flattened.sol\":37598:37602  this */\n      address\n        /* \"MemberToken_flattened.sol\":37590:37618  address(this) == _cachedThis */\n      0xffffffffffffffffffffffffffffffffffffffff\n      and\n      eq\n        /* \"MemberToken_flattened.sol\":37590:37653  address(this) == _cachedThis && block.chainid == _cachedChainId */\n      dup1\n      iszero\n      tag_194\n      jumpi\n      pop\n        /* \"MemberToken_flattened.sol\":37639:37653  _cachedChainId */\n      immutable(\"0x89dda32db2afb3470ad3a855ff08175ef365ece0147067a2a9b89c9351412201\")\n        /* \"MemberToken_flattened.sol\":37622:37635  block.chainid */\n      chainid\n        /* \"MemberToken_flattened.sol\":37622:37653  block.chainid == _cachedChainId */\n      eq\n        /* \"MemberToken_flattened.sol\":37590:37653  address(this) == _cachedThis && block.chainid == _cachedChainId */\n    tag_194:\n        /* \"MemberToken_flattened.sol\":37586:37770  if (address(this) == _cachedThis && block.chainid == _cachedChainId) {... */\n      iszero\n      tag_195\n      jumpi\n        /* \"MemberToken_flattened.sol\":37676:37698  _cachedDomainSeparator */\n      immutable(\"0x3f9e555adc0bedaea160f26d13d68ea1bde6a5a9af64af415bccce823c8f9ad8\")\n        /* \"MemberToken_flattened.sol\":37669:37698  return _cachedDomainSeparator */\n      swap1\n      pop\n      jump(tag_193)\n        /* \"MemberToken_flattened.sol\":37586:37770  if (address(this) == _cachedThis && block.chainid == _cachedChainId) {... */\n    tag_195:\n        /* \"MemberToken_flattened.sol\":37736:37759  _buildDomainSeparator() */\n      tag_197\n        /* \"MemberToken_flattened.sol\":37736:37757  _buildDomainSeparator */\n      tag_198\n        /* \"MemberToken_flattened.sol\":37736:37759  _buildDomainSeparator() */\n      jump\t// in\n    tag_197:\n        /* \"MemberToken_flattened.sol\":37729:37759  return _buildDomainSeparator() */\n      swap1\n      pop\n        /* \"MemberToken_flattened.sol\":37514:37776  function _domainSeparatorV4() internal view returns (bytes32) {... */\n    tag_193:\n      swap1\n      jump\t// out\n        /* \"MemberToken_flattened.sol\":61245:61407  function _checkOwner() internal view virtual {... */\n    tag_116:\n        /* \"MemberToken_flattened.sol\":61315:61327  _msgSender() */\n      tag_200\n        /* \"MemberToken_flattened.sol\":61315:61325  _msgSender */\n      tag_100\n        /* \"MemberToken_flattened.sol\":61315:61327  _msgSender() */\n      jump\t// in\n    tag_200:\n        /* \"MemberToken_flattened.sol\":61304:61327  owner() != _msgSender() */\n      0xffffffffffffffffffffffffffffffffffffffff\n      and\n        /* \"MemberToken_flattened.sol\":61304:61311  owner() */\n      tag_201\n        /* \"MemberToken_flattened.sol\":61304:61309  owner */\n      tag_69\n        /* \"MemberToken_flattened.sol\":61304:61311  owner() */\n      jump\t// in\n    tag_201:\n        /* \"MemberToken_flattened.sol\":61304:61327  owner() != _msgSender() */\n      0xffffffffffffffffffffffffffffffffffffffff\n      and\n      eq\n        /* \"MemberToken_flattened.sol\":61300:61401  if (owner() != _msgSender()) {... */\n      tag_202\n      jumpi\n        /* \"MemberToken_flattened.sol\":61377:61389  _msgSender() */\n      tag_203\n        /* \"MemberToken_flattened.sol\":61377:61387  _msgSender */\n      tag_100\n        /* \"MemberToken_flattened.sol\":61377:61389  _msgSender() */\n      jump\t// in\n    tag_203:\n        /* \"MemberToken_flattened.sol\":61350:61390  OwnableUnauthorizedAccount(_msgSender()) */\n      mload(0x40)\n      0x118cdaa700000000000000000000000000000000000000000000000000000000\n      dup2\n      mstore\n      0x04\n      add\n      tag_204\n      swap2\n      swap1\n      tag_71\n      jump\t// in\n    tag_204:\n      mload(0x40)\n      dup1\n      swap2\n      sub\n      swap1\n      revert\n        /* \"MemberToken_flattened.sol\":61300:61401  if (owner() != _msgSender()) {... */\n    tag_202:\n        /* \"MemberToken_flattened.sol\":61245:61407  function _checkOwner() internal view virtual {... */\n      jump\t// out\n        /* \"MemberToken_flattened.sol\":73600:73808  function _mint(address account, uint256 value) internal {... */\n    tag_124:\n        /* \"MemberToken_flattened.sol\":73689:73690  0 */\n      0x00\n        /* \"MemberToken_flattened.sol\":73670:73691  account == address(0) */\n      0xffffffffffffffffffffffffffffffffffffffff\n      and\n        /* \"MemberToken_flattened.sol\":73670:73677  account */\n      dup3\n        /* \"MemberToken_flattened.sol\":73670:73691  account == address(0) */\n      0xffffffffffffffffffffffffffffffffffffffff\n      and\n      sub\n        /* \"MemberToken_flattened.sol\":73666:73757  if (account == address(0)) {... */\n      tag_206\n      jumpi\n        /* \"MemberToken_flattened.sol\":73743:73744  0 */\n      0x00\n        /* \"MemberToken_flattened.sol\":73714:73746  ERC20InvalidReceiver(address(0)) */\n      mload(0x40)\n      0xec442f0500000000000000000000000000000000000000000000000000000000\n      dup2\n      mstore\n      0x04\n      add\n      tag_207\n      swap2\n      swap1\n      tag_71\n      jump\t// in\n    tag_207:\n      mload(0x40)\n      dup1\n      swap2\n      sub\n      swap1\n      revert\n        /* \"MemberToken_flattened.sol\":73666:73757  if (account == address(0)) {... */\n    tag_206:\n        /* \"MemberToken_flattened.sol\":73766:73801  _update(address(0), account, value) */\n      tag_208\n        /* \"MemberToken_flattened.sol\":73782:73783  0 */\n      0x00\n        /* \"MemberToken_flattened.sol\":73786:73793  account */\n      dup4\n        /* \"MemberToken_flattened.sol\":73795:73800  value */\n      dup4\n        /* \"MemberToken_flattened.sol\":73766:73773  _update */\n      tag_192\n        /* \"MemberToken_flattened.sol\":73766:73801  _update(address(0), account, value) */\n      jump\t// in\n    tag_208:\n        /* \"MemberToken_flattened.sol\":73600:73808  function _mint(address account, uint256 value) internal {... */\n      pop\n      pop\n      jump\t// out\n        /* \"MemberToken_flattened.sol\":62361:62548  function _transferOwnership(address newOwner) internal virtual {... */\n    tag_130:\n        /* \"MemberToken_flattened.sol\":62434:62450  address oldOwner */\n      0x00\n        /* \"MemberToken_flattened.sol\":62453:62459  _owner */\n      0x05\n      0x00\n      swap1\n      sload\n      swap1\n      0x0100\n      exp\n      swap1\n      div\n      0xffffffffffffffffffffffffffffffffffffffff\n      and\n        /* \"MemberToken_flattened.sol\":62434:62459  address oldOwner = _owner */\n      swap1\n      pop\n        /* \"MemberToken_flattened.sol\":62478:62486  newOwner */\n      dup2\n        /* \"MemberToken_flattened.sol\":62469:62475  _owner */\n      0x05\n      0x00\n        /* \"MemberToken_flattened.sol\":62469:62486  _owner = newOwner */\n      0x0100\n      exp\n      dup2\n      sload\n      dup2\n      0xffffffffffffffffffffffffffffffffffffffff\n      mul\n      not\n      and\n      swap1\n      dup4\n      0xffffffffffffffffffffffffffffffffffffffff\n      and\n      mul\n      or\n      swap1\n      sstore\n      pop\n        /* \"MemberToken_flattened.sol\":62532:62540  newOwner */\n      dup2\n        /* \"MemberToken_flattened.sol\":62501:62541  OwnershipTransferred(oldOwner, newOwner) */\n      0xffffffffffffffffffffffffffffffffffffffff\n      and\n        /* \"MemberToken_flattened.sol\":62522:62530  oldOwner */\n      dup2\n        /* \"MemberToken_flattened.sol\":62501:62541  OwnershipTransferred(oldOwner, newOwner) */\n      0xffffffffffffffffffffffffffffffffffffffff\n      and\n      0x8be0079c531659141344cd1fd0a4f28419497f9722a3daafe3b4186f6b6457e0\n      mload(0x40)\n      mload(0x40)\n      dup1\n      swap2\n      sub\n      swap1\n      log3\n        /* \"MemberToken_flattened.sol\":62424:62548  {... */\n      pop\n        /* \"MemberToken_flattened.sol\":62361:62548  function _transferOwnership(address newOwner) internal virtual {... */\n      pop\n      jump\t// out\n        /* \"MemberToken_flattened.sol\":565:672  function nonces(address owner) public view virtual returns (uint256) {... */\n    tag_133:\n        /* \"MemberToken_flattened.sol\":625:632  uint256 */\n      0x00\n        /* \"MemberToken_flattened.sol\":651:658  _nonces */\n      0x08\n        /* \"MemberToken_flattened.sol\":651:665  _nonces[owner] */\n      0x00\n        /* \"MemberToken_flattened.sol\":659:664  owner */\n      dup4\n        /* \"MemberToken_flattened.sol\":651:665  _nonces[owner] */\n      0xffffffffffffffffffffffffffffffffffffffff\n      and\n      0xffffffffffffffffffffffffffffffffffffffff\n      and\n      dup2\n      mstore\n      0x20\n      add\n      swap1\n      dup2\n      mstore\n      0x20\n      add\n      0x00\n      keccak256\n      sload\n        /* \"MemberToken_flattened.sol\":644:665  return _nonces[owner] */\n      swap1\n      pop\n        /* \"MemberToken_flattened.sol\":565:672  function nonces(address owner) public view virtual returns (uint256) {... */\n      swap2\n      swap1\n      pop\n      jump\t// out\n        /* \"MemberToken_flattened.sol\":39690:39816  function _EIP712Name() internal view returns (string memory) {... */\n    tag_136:\n        /* \"MemberToken_flattened.sol\":39736:39749  string memory */\n      0x60\n        /* \"MemberToken_flattened.sol\":39768:39809  _name.toStringWithFallback(_nameFallback) */\n      tag_212\n        /* \"MemberToken_flattened.sol\":39795:39808  _nameFallback */\n      0x06\n        /* \"MemberToken_flattened.sol\":39768:39773  _name */\n      immutable(\"0xa7cd0fec000bc9bc829eee3f19124c6d92f9bf03bc5604d586b7a9d0b7293aeb\")\n        /* \"MemberToken_flattened.sol\":39768:39794  _name.toStringWithFallback */\n      tag_213\n      swap1\n        /* \"MemberToken_flattened.sol\":39768:39809  _name.toStringWithFallback(_nameFallback) */\n      swap2\n      swap1\n      0xffffffff\n      and\n      jump\t// in\n    tag_212:\n        /* \"MemberToken_flattened.sol\":39761:39809  return _name.toStringWithFallback(_nameFallback) */\n      swap1\n      pop\n        /* \"MemberToken_flattened.sol\":39690:39816  function _EIP712Name() internal view returns (string memory) {... */\n      swap1\n      jump\t// out\n        /* \"MemberToken_flattened.sol\":40142:40277  function _EIP712Version() internal view returns (string memory) {... */\n    tag_138:\n        /* \"MemberToken_flattened.sol\":40191:40204  string memory */\n      0x60\n        /* \"MemberToken_flattened.sol\":40223:40270  _version.toStringWithFallback(_versionFallback) */\n      tag_215\n        /* \"MemberToken_flattened.sol\":40253:40269  _versionFallback */\n      0x07\n        /* \"MemberToken_flattened.sol\":40223:40231  _version */\n      immutable(\"0x2afe76337b531113eeb6984869209602297c0be432194d84882749ead3021a37\")\n        /* \"MemberToken_flattened.sol\":40223:40252  _version.toStringWithFallback */\n      tag_213\n      swap1\n        /* \"MemberToken_flattened.sol\":40223:40270  _version.toStringWithFallback(_versionFallback) */\n      swap2\n      swap1\n      0xffffffff\n      and\n      jump\t// in\n    tag_215:\n        /* \"MemberToken_flattened.sol\":40216:40270  return _version.toStringWithFallback(_versionFallback) */\n      swap1\n      pop\n        /* \"MemberToken_flattened.sol\":40142:40277  function _EIP712Version() internal view returns (string memory) {... */\n      swap1\n      jump\t// out\n        /* \"MemberToken_flattened.sol\":786:1181  function _useNonce(address owner) internal virtual returns (uint256) {... */\n    tag_157:\n        /* \"MemberToken_flattened.sol\":846:853  uint256 */\n      0x00\n        /* \"MemberToken_flattened.sol\":1148:1155  _nonces */\n      0x08\n        /* \"MemberToken_flattened.sol\":1148:1162  _nonces[owner] */\n      0x00\n        /* \"MemberToken_flattened.sol\":1156:1161  owner */\n      dup4\n        /* \"MemberToken_flattened.sol\":1148:1162  _nonces[owner] */\n      0xffffffffffffffffffffffffffffffffffffffff\n      and\n      0xffffffffffffffffffffffffffffffffffffffff\n      and\n      dup2\n      mstore\n      0x20\n      add\n      swap1\n      dup2\n      mstore\n      0x20\n      add\n      0x00\n      keccak256\n      0x00\n        /* \"MemberToken_flattened.sol\":1148:1164  _nonces[owner]++ */\n      dup2\n      sload\n      dup1\n      swap3\n      swap2\n      swap1\n      0x01\n      add\n      swap2\n      swap1\n      pop\n      sstore\n        /* \"MemberToken_flattened.sol\":1141:1164  return _nonces[owner]++ */\n      swap1\n      pop\n        /* \"MemberToken_flattened.sol\":786:1181  function _useNonce(address owner) internal virtual returns (uint256) {... */\n      swap2\n      swap1\n      pop\n      jump\t// out\n        /* \"MemberToken_flattened.sol\":38586:38762  function _hashTypedDataV4(bytes32 structHash) internal view virtual returns (bytes32) {... */\n    tag_161:\n        /* \"MemberToken_flattened.sol\":38663:38670  bytes32 */\n      0x00\n        /* \"MemberToken_flattened.sol\":38689:38755  MessageHashUtils.toTypedDataHash(_domainSeparatorV4(), structHash) */\n      tag_218\n        /* \"MemberToken_flattened.sol\":38722:38742  _domainSeparatorV4() */\n      tag_219\n        /* \"MemberToken_flattened.sol\":38722:38740  _domainSeparatorV4 */\n      tag_113\n        /* \"MemberToken_flattened.sol\":38722:38742  _domainSeparatorV4() */\n      jump\t// in\n    tag_219:\n        /* \"MemberToken_flattened.sol\":38744:38754  structHash */\n      dup4\n        /* \"MemberToken_flattened.sol\":38689:38721  MessageHashUtils.toTypedDataHash */\n      tag_220\n        /* \"MemberToken_flattened.sol\":38689:38755  MessageHashUtils.toTypedDataHash(_domainSeparatorV4(), structHash) */\n      jump\t// in\n    tag_218:\n        /* \"MemberToken_flattened.sol\":38682:38755  return MessageHashUtils.toTypedDataHash(_domainSeparatorV4(), structHash) */\n      swap1\n      pop\n        /* \"MemberToken_flattened.sol\":38586:38762  function _hashTypedDataV4(bytes32 structHash) internal view virtual returns (bytes32) {... */\n      swap2\n      swap1\n      pop\n      jump\t// out\n        /* \"MemberToken_flattened.sol\":47122:47382  function recover(bytes32 hash, uint8 v, bytes32 r, bytes32 s) internal pure returns (address) {... */\n    tag_163:\n        /* \"MemberToken_flattened.sol\":47207:47214  address */\n      0x00\n        /* \"MemberToken_flattened.sol\":47227:47244  address recovered */\n      dup1\n        /* \"MemberToken_flattened.sol\":47246:47264  RecoverError error */\n      0x00\n        /* \"MemberToken_flattened.sol\":47266:47282  bytes32 errorArg */\n      dup1\n        /* \"MemberToken_flattened.sol\":47286:47311  tryRecover(hash, v, r, s) */\n      tag_222\n        /* \"MemberToken_flattened.sol\":47297:47301  hash */\n      dup9\n        /* \"MemberToken_flattened.sol\":47303:47304  v */\n      dup9\n        /* \"MemberToken_flattened.sol\":47306:47307  r */\n      dup9\n        /* \"MemberToken_flattened.sol\":47309:47310  s */\n      dup9\n        /* \"MemberToken_flattened.sol\":47286:47296  tryRecover */\n      tag_223\n        /* \"MemberToken_flattened.sol\":47286:47311  tryRecover(hash, v, r, s) */\n      jump\t// in\n    tag_222:\n        /* \"MemberToken_flattened.sol\":47226:47311  (address recovered, RecoverError error, bytes32 errorArg) = tryRecover(hash, v, r, s) */\n      swap3\n      pop\n      swap3\n      pop\n      swap3\n      pop\n        /* \"MemberToken_flattened.sol\":47321:47349  _throwError(error, errorArg) */\n      tag_224\n        /* \"MemberToken_flattened.sol\":47333:47338  error */\n      dup3\n        /* \"MemberToken_flattened.sol\":47340:47348  errorArg */\n      dup3\n        /* \"MemberToken_flattened.sol\":47321:47332  _throwError */\n      tag_225\n        /* \"MemberToken_flattened.sol\":47321:47349  _throwError(error, errorArg) */\n      jump\t// in\n    tag_224:\n        /* \"MemberToken_flattened.sol\":47366:47375  recovered */\n      dup3\n        /* \"MemberToken_flattened.sol\":47359:47375  return recovered */\n      swap4\n      pop\n      pop\n      pop\n      pop\n        /* \"MemberToken_flattened.sol\":47122:47382  function recover(bytes32 hash, uint8 v, bytes32 r, bytes32 s) internal pure returns (address) {... */\n      swap5\n      swap4\n      pop\n      pop\n      pop\n      pop\n      jump\t// out\n        /* \"MemberToken_flattened.sol\":75828:76260  function _approve(address owner, address spender, uint256 value, bool emitEvent) internal virtual {... */\n    tag_178:\n        /* \"MemberToken_flattened.sol\":75957:75958  0 */\n      0x00\n        /* \"MemberToken_flattened.sol\":75940:75959  owner == address(0) */\n      0xffffffffffffffffffffffffffffffffffffffff\n      and\n        /* \"MemberToken_flattened.sol\":75940:75945  owner */\n      dup5\n        /* \"MemberToken_flattened.sol\":75940:75959  owner == address(0) */\n      0xffffffffffffffffffffffffffffffffffffffff\n      and\n      sub\n        /* \"MemberToken_flattened.sol\":75936:76025  if (owner == address(0)) {... */\n      tag_227\n      jumpi\n        /* \"MemberToken_flattened.sol\":76011:76012  0 */\n      0x00\n        /* \"MemberToken_flattened.sol\":75982:76014  ERC20InvalidApprover(address(0)) */\n      mload(0x40)\n      0xe602df0500000000000000000000000000000000000000000000000000000000\n      dup2\n      mstore\n      0x04\n      add\n      tag_228\n      swap2\n      swap1\n      tag_71\n      jump\t// in\n    tag_228:\n      mload(0x40)\n      dup1\n      swap2\n      sub\n      swap1\n      revert\n        /* \"MemberToken_flattened.sol\":75936:76025  if (owner == address(0)) {... */\n    tag_227:\n        /* \"MemberToken_flattened.sol\":76057:76058  0 */\n      0x00\n        /* \"MemberToken_flattened.sol\":76038:76059  spender == address(0) */\n      0xffffffffffffffffffffffffffffffffffffffff\n      and\n        /* \"MemberToken_flattened.sol\":76038:76045  spender */\n      dup4\n        /* \"MemberToken_flattened.sol\":76038:76059  spender == address(0) */\n      0xffffffffffffffffffffffffffffffffffffffff\n      and\n      sub\n        /* \"MemberToken_flattened.sol\":76034:76124  if (spender == address(0)) {... */\n      tag_229\n      jumpi\n        /* \"MemberToken_flattened.sol\":76110:76111  0 */\n      0x00\n        /* \"MemberToken_flattened.sol\":76082:76113  ERC20InvalidSpender(address(0)) */\n      mload(0x40)\n      0x94280d6200000000000000000000000000000000000000000000000000000000\n      dup2\n      mstore\n      0x04\n      add\n      tag_230\n      swap2\n      swap1\n      tag_71\n      jump\t// in\n    tag_230:\n      mload(0x40)\n      dup1\n      swap2\n      sub\n      swap1\n      revert\n        /* \"MemberToken_flattened.sol\":76034:76124  if (spender == address(0)) {... */\n    tag_229:\n        /* \"MemberToken_flattened.sol\":76163:76168  value */\n      dup2\n        /* \"MemberToken_flattened.sol\":76133:76144  _allowances */\n      0x01\n        /* \"MemberToken_flattened.sol\":76133:76151  _allowances[owner] */\n      0x00\n        /* \"MemberToken_flattened.sol\":76145:76150  owner */\n      dup7\n        /* \"MemberToken_flattened.sol\":76133:76151  _allowances[owner] */\n      0xffffffffffffffffffffffffffffffffffffffff\n      and\n      0xffffffffffffffffffffffffffffffffffffffff\n      and\n      dup2\n      mstore\n      0x20\n      add\n      swap1\n      dup2\n      mstore\n      0x20\n      add\n      0x00\n      keccak256\n        /* \"MemberToken_flattened.sol\":76133:76160  _allowances[owner][spender] */\n      0x00\n        /* \"MemberToken_flattened.sol\":76152:76159  spender */\n      dup6\n        /* \"MemberToken_flattened.sol\":76133:76160  _allowances[owner][spender] */\n      0xffffffffffffffffffffffffffffffffffffffff\n      and\n      0xffffffffffffffffffffffffffffffffffffffff\n      and\n      dup2\n      mstore\n      0x20\n      add\n      swap1\n      dup2\n      mstore\n      0x20\n      add\n      0x00\n      keccak256\n        /* \"MemberToken_flattened.sol\":76133:76168  _allowances[owner][spender] = value */\n      dup2\n      swap1\n      sstore\n      pop\n        /* \"MemberToken_flattened.sol\":76182:76191  emitEvent */\n      dup1\n        /* \"MemberToken_flattened.sol\":76178:76254  if (emitEvent) {... */\n      iszero\n      tag_231\n      jumpi\n        /* \"MemberToken_flattened.sol\":76228:76235  spender */\n      dup3\n        /* \"MemberToken_flattened.sol\":76212:76243  Approval(owner, spender, value) */\n      0xffffffffffffffffffffffffffffffffffffffff\n      and\n        /* \"MemberToken_flattened.sol\":76221:76226  owner */\n      dup5\n        /* \"MemberToken_flattened.sol\":76212:76243  Approval(owner, spender, value) */\n      0xffffffffffffffffffffffffffffffffffffffff\n      and\n      0x8c5be1e5ebec7d5bd14f71427d1e84f3dd0314c0f7b2291e5b200ac8c7c3b925\n        /* \"MemberToken_flattened.sol\":76237:76242  value */\n      dup5\n        /* \"MemberToken_flattened.sol\":76212:76243  Approval(owner, spender, value) */\n      mload(0x40)\n      tag_232\n      swap2\n      swap1\n      tag_36\n      jump\t// in\n    tag_232:\n      mload(0x40)\n      dup1\n      swap2\n      sub\n      swap1\n      log3\n        /* \"MemberToken_flattened.sol\":76178:76254  if (emitEvent) {... */\n    tag_231:\n        /* \"MemberToken_flattened.sol\":75828:76260  function _approve(address owner, address spender, uint256 value, bool emitEvent) internal virtual {... */\n      pop\n      pop\n      pop\n      pop\n      jump\t// out\n        /* \"MemberToken_flattened.sol\":72150:73257  function _update(address from, address to, uint256 value) internal virtual {... */\n    tag_192:\n        /* \"MemberToken_flattened.sol\":72255:72256  0 */\n      0x00\n        /* \"MemberToken_flattened.sol\":72239:72257  from == address(0) */\n      0xffffffffffffffffffffffffffffffffffffffff\n      and\n        /* \"MemberToken_flattened.sol\":72239:72243  from */\n      dup4\n        /* \"MemberToken_flattened.sol\":72239:72257  from == address(0) */\n      0xffffffffffffffffffffffffffffffffffffffff\n      and\n      sub\n        /* \"MemberToken_flattened.sol\":72235:72775  if (from == address(0)) {... */\n      tag_234\n      jumpi\n        /* \"MemberToken_flattened.sol\":72391:72396  value */\n      dup1\n        /* \"MemberToken_flattened.sol\":72375:72387  _totalSupply */\n      0x02\n      0x00\n        /* \"MemberToken_flattened.sol\":72375:72396  _totalSupply += value */\n      dup3\n      dup3\n      sload\n      tag_235\n      swap2\n      swap1\n      tag_236\n      jump\t// in\n    tag_235:\n      swap3\n      pop\n      pop\n      dup2\n      swap1\n      sstore\n      pop\n        /* \"MemberToken_flattened.sol\":72235:72775  if (from == address(0)) {... */\n      jump(tag_237)\n    tag_234:\n        /* \"MemberToken_flattened.sol\":72427:72446  uint256 fromBalance */\n      0x00\n        /* \"MemberToken_flattened.sol\":72449:72458  _balances */\n      dup1\n        /* \"MemberToken_flattened.sol\":72449:72464  _balances[from] */\n      0x00\n        /* \"MemberToken_flattened.sol\":72459:72463  from */\n      dup6\n        /* \"MemberToken_flattened.sol\":72449:72464  _balances[from] */\n      0xffffffffffffffffffffffffffffffffffffffff\n      and\n      0xffffffffffffffffffffffffffffffffffffffff\n      and\n      dup2\n      mstore\n      0x20\n      add\n      swap1\n      dup2\n      mstore\n      0x20\n      add\n      0x00\n      keccak256\n      sload\n        /* \"MemberToken_flattened.sol\":72427:72464  uint256 fromBalance = _balances[from] */\n      swap1\n      pop\n        /* \"MemberToken_flattened.sol\":72496:72501  value */\n      dup2\n        /* \"MemberToken_flattened.sol\":72482:72493  fromBalance */\n      dup2\n        /* \"MemberToken_flattened.sol\":72482:72501  fromBalance < value */\n      lt\n        /* \"MemberToken_flattened.sol\":72478:72593  if (fromBalance < value) {... */\n      iszero\n      tag_238\n      jumpi\n        /* \"MemberToken_flattened.sol\":72553:72557  from */\n      dup4\n        /* \"MemberToken_flattened.sol\":72559:72570  fromBalance */\n      dup2\n        /* \"MemberToken_flattened.sol\":72572:72577  value */\n      dup4\n        /* \"MemberToken_flattened.sol\":72528:72578  ERC20InsufficientBalance(from, fromBalance, value) */\n      mload(0x40)\n      0xe450d38c00000000000000000000000000000000000000000000000000000000\n      dup2\n      mstore\n      0x04\n      add\n      tag_239\n      swap4\n      swap3\n      swap2\n      swap1\n      tag_184\n      jump\t// in\n    tag_239:\n      mload(0x40)\n      dup1\n      swap2\n      sub\n      swap1\n      revert\n        /* \"MemberToken_flattened.sol\":72478:72593  if (fromBalance < value) {... */\n    tag_238:\n        /* \"MemberToken_flattened.sol\":72745:72750  value */\n      dup2\n        /* \"MemberToken_flattened.sol\":72731:72742  fromBalance */\n      dup2\n        /* \"MemberToken_flattened.sol\":72731:72750  fromBalance - value */\n      sub\n        /* \"MemberToken_flattened.sol\":72713:72722  _balances */\n      0x00\n        /* \"MemberToken_flattened.sol\":72713:72728  _balances[from] */\n      dup1\n        /* \"MemberToken_flattened.sol\":72723:72727  from */\n      dup7\n        /* \"MemberToken_flattened.sol\":72713:72728  _balances[from] */\n      0xffffffffffffffffffffffffffffffffffffffff\n      and\n      0xffffffffffffffffffffffffffffffffffffffff\n      and\n      dup2\n      mstore\n      0x20\n      add\n      swap1\n      dup2\n      mstore\n      0x20\n      add\n      0x00\n      keccak256\n        /* \"MemberToken_flattened.sol\":72713:72750  _balances[from] = fromBalance - value */\n      dup2\n      swap1\n      sstore\n      pop\n        /* \"MemberToken_flattened.sol\":72413:72775  {... */\n      pop\n        /* \"MemberToken_flattened.sol\":72235:72775  if (from == address(0)) {... */\n    tag_237:\n        /* \"MemberToken_flattened.sol\":72803:72804  0 */\n      0x00\n        /* \"MemberToken_flattened.sol\":72789:72805  to == address(0) */\n      0xffffffffffffffffffffffffffffffffffffffff\n      and\n        /* \"MemberToken_flattened.sol\":72789:72791  to */\n      dup3\n        /* \"MemberToken_flattened.sol\":72789:72805  to == address(0) */\n      0xffffffffffffffffffffffffffffffffffffffff\n      and\n      sub\n        /* \"MemberToken_flattened.sol\":72785:73210  if (to == address(0)) {... */\n      tag_240\n      jumpi\n        /* \"MemberToken_flattened.sol\":72968:72973  value */\n      dup1\n        /* \"MemberToken_flattened.sol\":72952:72964  _totalSupply */\n      0x02\n      0x00\n        /* \"MemberToken_flattened.sol\":72952:72973  _totalSupply -= value */\n      dup3\n      dup3\n      sload\n      sub\n      swap3\n      pop\n      pop\n      dup2\n      swap1\n      sstore\n      pop\n        /* \"MemberToken_flattened.sol\":72785:73210  if (to == address(0)) {... */\n      jump(tag_241)\n    tag_240:\n        /* \"MemberToken_flattened.sol\":73180:73185  value */\n      dup1\n        /* \"MemberToken_flattened.sol\":73163:73172  _balances */\n      0x00\n        /* \"MemberToken_flattened.sol\":73163:73176  _balances[to] */\n      dup1\n        /* \"MemberToken_flattened.sol\":73173:73175  to */\n      dup5\n        /* \"MemberToken_flattened.sol\":73163:73176  _balances[to] */\n      0xffffffffffffffffffffffffffffffffffffffff\n      and\n      0xffffffffffffffffffffffffffffffffffffffff\n      and\n      dup2\n      mstore\n      0x20\n      add\n      swap1\n      dup2\n      mstore\n      0x20\n      add\n      0x00\n      keccak256\n      0x00\n        /* \"MemberToken_flattened.sol\":73163:73185  _balances[to] += value */\n      dup3\n      dup3\n      sload\n      add\n      swap3\n      pop\n      pop\n      dup2\n      swap1\n      sstore\n      pop\n        /* \"MemberToken_flattened.sol\":72785:73210  if (to == address(0)) {... */\n    tag_241:\n        /* \"MemberToken_flattened.sol\":73240:73242  to */\n      dup2\n        /* \"MemberToken_flattened.sol\":73225:73250  Transfer(from, to, value) */\n      0xffffffffffffffffffffffffffffffffffffffff\n      and\n        /* \"MemberToken_flattened.sol\":73234:73238  from */\n      dup4\n        /* \"MemberToken_flattened.sol\":73225:73250  Transfer(from, to, value) */\n      0xffffffffffffffffffffffffffffffffffffffff\n      and\n      0xddf252ad1be2c89b69c2b068fc378daa952ba7f163c4a11628f55a4df523b3ef\n        /* \"MemberToken_flattened.sol\":73244:73249  value */\n      dup4\n        /* \"MemberToken_flattened.sol\":73225:73250  Transfer(from, to, value) */\n      mload(0x40)\n      tag_242\n      swap2\n      swap1\n      tag_36\n      jump\t// in\n    tag_242:\n      mload(0x40)\n      dup1\n      swap2\n      sub\n      swap1\n      log3\n        /* \"MemberToken_flattened.sol\":72150:73257  function _update(address from, address to, uint256 value) internal virtual {... */\n      pop\n      pop\n      pop\n      jump\t// out\n        /* \"MemberToken_flattened.sol\":37782:37961  function _buildDomainSeparator() private view returns (bytes32) {... */\n    tag_198:\n        /* \"MemberToken_flattened.sol\":37837:37844  bytes32 */\n      0x00\n        /* \"MemberToken_flattened.sol\":35748:35843  keccak256(\"EIP712Domain(string name,string version,uint256 chainId,address verifyingContract)\") */\n      0x8b73c3c69bb8fe3d512ecc4cf759cc79239f7b179b0ffacaa9a75d522b39400f\n        /* \"MemberToken_flattened.sol\":37895:37906  _hashedName */\n      immutable(\"0xf9ba965def30954c13b9f17655d4bfcf079e819f9cc42b75928cd97e2c9f9020\")\n        /* \"MemberToken_flattened.sol\":37908:37922  _hashedVersion */\n      immutable(\"0x5444bf99e2aaa84d0c0adba4902ca441e981a14d987060ddd53a6e4272e74bca\")\n        /* \"MemberToken_flattened.sol\":37924:37937  block.chainid */\n      chainid\n        /* \"MemberToken_flattened.sol\":37947:37951  this */\n      address\n        /* \"MemberToken_flattened.sol\":37873:37953  abi.encode(TYPE_HASH, _hashedName, _hashedVersion, block.chainid, address(this)) */\n      add(0x20, mload(0x40))\n      tag_244\n      swap6\n      swap5\n      swap4\n      swap3\n      swap2\n      swap1\n      tag_245\n      jump\t// in\n    tag_244:\n      mload(0x40)\n      0x20\n      dup2\n      dup4\n      sub\n      sub\n      dup2\n      mstore\n      swap1\n      0x40\n      mstore\n        /* \"MemberToken_flattened.sol\":37863:37954  keccak256(abi.encode(TYPE_HASH, _hashedName, _hashedVersion, block.chainid, address(this))) */\n      dup1\n      mload\n      swap1\n      0x20\n      add\n      keccak256\n        /* \"MemberToken_flattened.sol\":37856:37954  return keccak256(abi.encode(TYPE_HASH, _hashedName, _hashedVersion, block.chainid, address(this))) */\n      swap1\n      pop\n        /* \"MemberToken_flattened.sol\":37782:37961  function _buildDomainSeparator() private view returns (bytes32) {... */\n      swap1\n      jump\t// out\n        /* \"MemberToken_flattened.sol\":9624:9891  function toStringWithFallback(ShortString value, string storage store) internal pure returns (string memory) {... */\n    tag_213:\n        /* \"MemberToken_flattened.sol\":9718:9731  string memory */\n      0x60\n        /* \"MemberToken_flattened.sol\":7629:7695  0x00000000000000000000000000000000000000000000000000000000000000FF */\n      0xff\n        /* \"MemberToken_flattened.sol\":9776:9793  FALLBACK_SENTINEL */\n      0x00\n      shl\n        /* \"MemberToken_flattened.sol\":9766:9771  value */\n      dup4\n        /* \"MemberToken_flattened.sol\":9747:9793  ShortString.unwrap(value) != FALLBACK_SENTINEL */\n      eq\n        /* \"MemberToken_flattened.sol\":9743:9885  if (ShortString.unwrap(value) != FALLBACK_SENTINEL) {... */\n      tag_247\n      jumpi\n        /* \"MemberToken_flattened.sol\":9816:9831  toString(value) */\n      tag_248\n        /* \"MemberToken_flattened.sol\":9825:9830  value */\n      dup4\n        /* \"MemberToken_flattened.sol\":9816:9824  toString */\n      tag_249\n        /* \"MemberToken_flattened.sol\":9816:9831  toString(value) */\n      jump\t// in\n    tag_248:\n        /* \"MemberToken_flattened.sol\":9809:9831  return toString(value) */\n      swap1\n      pop\n      jump(tag_246)\n        /* \"MemberToken_flattened.sol\":9743:9885  if (ShortString.unwrap(value) != FALLBACK_SENTINEL) {... */\n    tag_247:\n        /* \"MemberToken_flattened.sol\":9869:9874  store */\n      dup2\n        /* \"MemberToken_flattened.sol\":9862:9874  return store */\n      dup1\n      sload\n      tag_251\n      swap1\n      tag_93\n      jump\t// in\n    tag_251:\n      dup1\n      0x1f\n      add\n      0x20\n      dup1\n      swap2\n      div\n      mul\n      0x20\n      add\n      mload(0x40)\n      swap1\n      dup2\n      add\n      0x40\n      mstore\n      dup1\n      swap3\n      swap2\n      swap1\n      dup2\n      dup2\n      mstore\n      0x20\n      add\n      dup3\n      dup1\n      sload\n      tag_252\n      swap1\n      tag_93\n      jump\t// in\n    tag_252:\n      dup1\n      iszero\n      tag_253\n      jumpi\n      dup1\n      0x1f\n      lt\n      tag_254\n      jumpi\n      0x0100\n      dup1\n      dup4\n      sload\n      div\n      mul\n      dup4\n      mstore\n      swap2\n      0x20\n      add\n      swap2\n      jump(tag_253)\n    tag_254:\n      dup3\n      add\n      swap2\n      swap1\n      0x00\n      mstore\n      keccak256(0x00, 0x20)\n      swap1\n    tag_255:\n      dup2\n      sload\n      dup2\n      mstore\n      swap1\n      0x01\n      add\n      swap1\n      0x20\n      add\n      dup1\n      dup4\n      gt\n      tag_255\n      jumpi\n      dup3\n      swap1\n      sub\n      0x1f\n      and\n      dup3\n      add\n      swap2\n    tag_253:\n      pop\n      pop\n      pop\n      pop\n      pop\n      swap1\n      pop\n        /* \"MemberToken_flattened.sol\":9624:9891  function toStringWithFallback(ShortString value, string storage store) internal pure returns (string memory) {... */\n    tag_246:\n      swap3\n      swap2\n      pop\n      pop\n      jump\t// out\n        /* \"MemberToken_flattened.sol\":33399:33800  function toTypedDataHash(bytes32 domainSeparator, bytes32 structHash) internal pure returns (bytes32 digest) {... */\n    tag_220:\n        /* \"MemberToken_flattened.sol\":33492:33506  bytes32 digest */\n      0x00\n        /* \"MemberToken_flattened.sol\":33601:33605  0x40 */\n      0x40\n        /* \"MemberToken_flattened.sol\":33595:33606  mload(0x40) */\n      mload\n        /* \"MemberToken_flattened.sol\":33631:33641  hex\"19_01\" */\n      0x1901000000000000000000000000000000000000000000000000000000000000\n        /* \"MemberToken_flattened.sol\":33626:33629  ptr */\n      dup2\n        /* \"MemberToken_flattened.sol\":33619:33642  mstore(ptr, hex\"19_01\") */\n      mstore\n        /* \"MemberToken_flattened.sol\":33678:33693  domainSeparator */\n      dup4\n        /* \"MemberToken_flattened.sol\":33671:33675  0x02 */\n      0x02\n        /* \"MemberToken_flattened.sol\":33666:33669  ptr */\n      dup3\n        /* \"MemberToken_flattened.sol\":33662:33676  add(ptr, 0x02) */\n      add\n        /* \"MemberToken_flattened.sol\":33655:33694  mstore(add(ptr, 0x02), domainSeparator) */\n      mstore\n        /* \"MemberToken_flattened.sol\":33730:33740  structHash */\n      dup3\n        /* \"MemberToken_flattened.sol\":33723:33727  0x22 */\n      0x22\n        /* \"MemberToken_flattened.sol\":33718:33721  ptr */\n      dup3\n        /* \"MemberToken_flattened.sol\":33714:33728  add(ptr, 0x22) */\n      add\n        /* \"MemberToken_flattened.sol\":33707:33741  mstore(add(ptr, 0x22), structHash) */\n      mstore\n        /* \"MemberToken_flattened.sol\":33779:33783  0x42 */\n      0x42\n        /* \"MemberToken_flattened.sol\":33774:33777  ptr */\n      dup2\n        /* \"MemberToken_flattened.sol\":33764:33784  keccak256(ptr, 0x42) */\n      keccak256\n        /* \"MemberToken_flattened.sol\":33754:33784  digest := keccak256(ptr, 0x42) */\n      swap2\n      pop\n        /* \"MemberToken_flattened.sol\":33570:33794  {... */\n      pop\n        /* \"MemberToken_flattened.sol\":33399:33800  function toTypedDataHash(bytes32 domainSeparator, bytes32 structHash) internal pure returns (bytes32 digest) {... */\n      swap3\n      swap2\n      pop\n      pop\n      jump\t// out\n        /* \"MemberToken_flattened.sol\":45459:46989  function tryRecover(... */\n    tag_223:\n        /* \"MemberToken_flattened.sol\":45585:45592  address */\n      0x00\n        /* \"MemberToken_flattened.sol\":45594:45606  RecoverError */\n      dup1\n        /* \"MemberToken_flattened.sol\":45608:45615  bytes32 */\n      0x00\n        /* \"MemberToken_flattened.sol\":46518:46584  0x7FFFFFFFFFFFFFFFFFFFFFFFFFFFFFFF5D576E7357A4501DDFE92F46681B20A0 */\n      0x7fffffffffffffffffffffffffffffff5d576e7357a4501ddfe92f46681b20a0\n        /* \"MemberToken_flattened.sol\":46513:46514  s */\n      dup5\n        /* \"MemberToken_flattened.sol\":46505:46515  uint256(s) */\n      0x00\n      shr\n        /* \"MemberToken_flattened.sol\":46505:46584  uint256(s) > 0x7FFFFFFFFFFFFFFFFFFFFFFFFFFFFFFF5D576E7357A4501DDFE92F46681B20A0 */\n      gt\n        /* \"MemberToken_flattened.sol\":46501:46665  if (uint256(s) > 0x7FFFFFFFFFFFFFFFFFFFFFFFFFFFFFFF5D576E7357A4501DDFE92F46681B20A0) {... */\n      iszero\n      tag_258\n      jumpi\n        /* \"MemberToken_flattened.sol\":46616:46617  0 */\n      0x00\n        /* \"MemberToken_flattened.sol\":46620:46650  RecoverError.InvalidSignatureS */\n      0x03\n        /* \"MemberToken_flattened.sol\":46652:46653  s */\n      dup6\n        /* \"MemberToken_flattened.sol\":46600:46654  return (address(0), RecoverError.InvalidSignatureS, s) */\n      swap3\n      pop\n      swap3\n      pop\n      swap3\n      pop\n      jump(tag_257)\n        /* \"MemberToken_flattened.sol\":46501:46665  if (uint256(s) > 0x7FFFFFFFFFFFFFFFFFFFFFFFFFFFFFFF5D576E7357A4501DDFE92F46681B20A0) {... */\n    tag_258:\n        /* \"MemberToken_flattened.sol\":46759:46773  address signer */\n      0x00\n        /* \"MemberToken_flattened.sol\":46776:46800  ecrecover(hash, v, r, s) */\n      0x01\n        /* \"MemberToken_flattened.sol\":46786:46790  hash */\n      dup9\n        /* \"MemberToken_flattened.sol\":46792:46793  v */\n      dup9\n        /* \"MemberToken_flattened.sol\":46795:46796  r */\n      dup9\n        /* \"MemberToken_flattened.sol\":46798:46799  s */\n      dup9\n        /* \"MemberToken_flattened.sol\":46776:46800  ecrecover(hash, v, r, s) */\n      mload(0x40)\n      0x00\n      dup2\n      mstore\n      0x20\n      add\n      0x40\n      mstore\n      mload(0x40)\n      tag_259\n      swap5\n      swap4\n      swap3\n      swap2\n      swap1\n      tag_260\n      jump\t// in\n    tag_259:\n      0x20\n      mload(0x40)\n      0x20\n      dup2\n      sub\n      swap1\n      dup1\n      dup5\n      sub\n      swap1\n      dup6\n      gas\n      staticcall\n      iszero\n      dup1\n      iszero\n      tag_262\n      jumpi\n      returndatasize\n      0x00\n      dup1\n      returndatacopy\n      revert(0x00, returndatasize)\n    tag_262:\n      pop\n      pop\n      pop\n      mload(sub(mload(0x40), 0x20))\n        /* \"MemberToken_flattened.sol\":46759:46800  address signer = ecrecover(hash, v, r, s) */\n      swap1\n      pop\n        /* \"MemberToken_flattened.sol\":46832:46833  0 */\n      0x00\n        /* \"MemberToken_flattened.sol\":46814:46834  signer == address(0) */\n      0xffffffffffffffffffffffffffffffffffffffff\n      and\n        /* \"MemberToken_flattened.sol\":46814:46820  signer */\n      dup2\n        /* \"MemberToken_flattened.sol\":46814:46834  signer == address(0) */\n      0xffffffffffffffffffffffffffffffffffffffff\n      and\n      sub\n        /* \"MemberToken_flattened.sol\":46810:46923  if (signer == address(0)) {... */\n      tag_263\n      jumpi\n        /* \"MemberToken_flattened.sol\":46866:46867  0 */\n      0x00\n        /* \"MemberToken_flattened.sol\":46870:46899  RecoverError.InvalidSignature */\n      0x01\n        /* \"MemberToken_flattened.sol\":46909:46910  0 */\n      0x00\n        /* \"MemberToken_flattened.sol\":46901:46911  bytes32(0) */\n      dup1\n      shl\n        /* \"MemberToken_flattened.sol\":46850:46912  return (address(0), RecoverError.InvalidSignature, bytes32(0)) */\n      swap4\n      pop\n      swap4\n      pop\n      swap4\n      pop\n      pop\n      jump(tag_257)\n        /* \"MemberToken_flattened.sol\":46810:46923  if (signer == address(0)) {... */\n    tag_263:\n        /* \"MemberToken_flattened.sol\":46941:46947  signer */\n      dup1\n        /* \"MemberToken_flattened.sol\":46949:46969  RecoverError.NoError */\n      0x00\n        /* \"MemberToken_flattened.sol\":46979:46980  0 */\n      dup1\n        /* \"MemberToken_flattened.sol\":46971:46981  bytes32(0) */\n      0x00\n      shl\n        /* \"MemberToken_flattened.sol\":46933:46982  return (signer, RecoverError.NoError, bytes32(0)) */\n      swap4\n      pop\n      swap4\n      pop\n      swap4\n      pop\n      pop\n        /* \"MemberToken_flattened.sol\":45459:46989  function tryRecover(... */\n    tag_257:\n      swap5\n      pop\n      swap5\n      pop\n      swap5\n      swap2\n      pop\n      pop\n      jump\t// out\n        /* \"MemberToken_flattened.sol\":47515:48047  function _throwError(RecoverError error, bytes32 errorArg) private pure {... */\n    tag_225:\n        /* \"MemberToken_flattened.sol\":47610:47630  RecoverError.NoError */\n      0x00\n        /* \"MemberToken_flattened.sol\":47601:47630  error == RecoverError.NoError */\n      0x03\n      dup2\n      gt\n      iszero\n      tag_265\n      jumpi\n      tag_266\n      tag_267\n      jump\t// in\n    tag_266:\n    tag_265:\n        /* \"MemberToken_flattened.sol\":47601:47606  error */\n      dup3\n        /* \"MemberToken_flattened.sol\":47601:47630  error == RecoverError.NoError */\n      0x03\n      dup2\n      gt\n      iszero\n      tag_268\n      jumpi\n      tag_269\n      tag_267\n      jump\t// in\n    tag_269:\n    tag_268:\n      sub\n        /* \"MemberToken_flattened.sol\":47597:48041  if (error == RecoverError.NoError) {... */\n      iszero\n        /* \"MemberToken_flattened.sol\":47646:47653  return; */\n      tag_264\n        /* \"MemberToken_flattened.sol\":47597:48041  if (error == RecoverError.NoError) {... */\n      jumpi\n        /* \"MemberToken_flattened.sol\":47706:47735  RecoverError.InvalidSignature */\n      0x01\n        /* \"MemberToken_flattened.sol\":47697:47735  error == RecoverError.InvalidSignature */\n      0x03\n      dup2\n      gt\n      iszero\n      tag_272\n      jumpi\n      tag_273\n      tag_267\n      jump\t// in\n    tag_273:\n    tag_272:\n        /* \"MemberToken_flattened.sol\":47697:47702  error */\n      dup3\n        /* \"MemberToken_flattened.sol\":47697:47735  error == RecoverError.InvalidSignature */\n      0x03\n      dup2\n      gt\n      iszero\n      tag_274\n      jumpi\n      tag_275\n      tag_267\n      jump\t// in\n    tag_275:\n    tag_274:\n      sub\n        /* \"MemberToken_flattened.sol\":47693:48041  if (error == RecoverError.InvalidSignature) {... */\n      tag_276\n      jumpi\n        /* \"MemberToken_flattened.sol\":47758:47781  ECDSAInvalidSignature() */\n      mload(0x40)\n      0xf645eedf00000000000000000000000000000000000000000000000000000000\n      dup2\n      mstore\n      0x04\n      add\n      mload(0x40)\n      dup1\n      swap2\n      sub\n      swap1\n      revert\n        /* \"MemberToken_flattened.sol\":47693:48041  if (error == RecoverError.InvalidSignature) {... */\n    tag_276:\n        /* \"MemberToken_flattened.sol\":47811:47846  RecoverError.InvalidSignatureLength */\n      0x02\n        /* \"MemberToken_flattened.sol\":47802:47846  error == RecoverError.InvalidSignatureLength */\n      0x03\n      dup2\n      gt\n      iszero\n      tag_278\n      jumpi\n      tag_279\n      tag_267\n      jump\t// in\n    tag_279:\n    tag_278:\n        /* \"MemberToken_flattened.sol\":47802:47807  error */\n      dup3\n        /* \"MemberToken_flattened.sol\":47802:47846  error == RecoverError.InvalidSignatureLength */\n      0x03\n      dup2\n      gt\n      iszero\n      tag_280\n      jumpi\n      tag_281\n      tag_267\n      jump\t// in\n    tag_281:\n    tag_280:\n      sub\n        /* \"MemberToken_flattened.sol\":47798:48041  if (error == RecoverError.InvalidSignatureLength) {... */\n      tag_282\n      jumpi\n        /* \"MemberToken_flattened.sol\":47905:47913  errorArg */\n      dup1\n        /* \"MemberToken_flattened.sol\":47897:47914  uint256(errorArg) */\n      0x00\n      shr\n        /* \"MemberToken_flattened.sol\":47869:47915  ECDSAInvalidSignatureLength(uint256(errorArg)) */\n      mload(0x40)\n      0xfce698f700000000000000000000000000000000000000000000000000000000\n      dup2\n      mstore\n      0x04\n      add\n      tag_283\n      swap2\n      swap1\n      tag_36\n      jump\t// in\n    tag_283:\n      mload(0x40)\n      dup1\n      swap2\n      sub\n      swap1\n      revert\n        /* \"MemberToken_flattened.sol\":47798:48041  if (error == RecoverError.InvalidSignatureLength) {... */\n    tag_282:\n        /* \"MemberToken_flattened.sol\":47945:47975  RecoverError.InvalidSignatureS */\n      0x03\n        /* \"MemberToken_flattened.sol\":47936:47975  error == RecoverError.InvalidSignatureS */\n      dup1\n      dup2\n      gt\n      iszero\n      tag_285\n      jumpi\n      tag_286\n      tag_267\n      jump\t// in\n    tag_286:\n    tag_285:\n        /* \"MemberToken_flattened.sol\":47936:47941  error */\n      dup3\n        /* \"MemberToken_flattened.sol\":47936:47975  error == RecoverError.InvalidSignatureS */\n      0x03\n      dup2\n      gt\n      iszero\n      tag_287\n      jumpi\n      tag_288\n      tag_267\n      jump\t// in\n    tag_288:\n    tag_287:\n      sub\n        /* \"MemberToken_flattened.sol\":47932:48041  if (error == RecoverError.InvalidSignatureS) {... */\n      tag_289\n      jumpi\n        /* \"MemberToken_flattened.sol\":48021:48029  errorArg */\n      dup1\n        /* \"MemberToken_flattened.sol\":47998:48030  ECDSAInvalidSignatureS(errorArg) */\n      mload(0x40)\n      0xd78bce0c00000000000000000000000000000000000000000000000000000000\n      dup2\n      mstore\n      0x04\n      add\n      tag_290\n      swap2\n      swap1\n      tag_49\n      jump\t// in\n    tag_290:\n      mload(0x40)\n      dup1\n      swap2\n      sub\n      swap1\n      revert\n        /* \"MemberToken_flattened.sol\":47932:48041  if (error == RecoverError.InvalidSignatureS) {... */\n    tag_289:\n        /* \"MemberToken_flattened.sol\":47515:48047  function _throwError(RecoverError error, bytes32 errorArg) private pure {... */\n    tag_264:\n      pop\n      pop\n      jump\t// out\n        /* \"MemberToken_flattened.sol\":8317:8722  function toString(ShortString sstr) internal pure returns (string memory) {... */\n    tag_249:\n        /* \"MemberToken_flattened.sol\":8376:8389  string memory */\n      0x60\n        /* \"MemberToken_flattened.sol\":8401:8412  uint256 len */\n      0x00\n        /* \"MemberToken_flattened.sol\":8415:8431  byteLength(sstr) */\n      tag_292\n        /* \"MemberToken_flattened.sol\":8426:8430  sstr */\n      dup4\n        /* \"MemberToken_flattened.sol\":8415:8425  byteLength */\n      tag_293\n        /* \"MemberToken_flattened.sol\":8415:8431  byteLength(sstr) */\n      jump\t// in\n    tag_292:\n        /* \"MemberToken_flattened.sol\":8401:8431  uint256 len = byteLength(sstr) */\n      swap1\n      pop\n        /* \"MemberToken_flattened.sol\":8519:8536  string memory str */\n      0x00\n        /* \"MemberToken_flattened.sol\":8550:8552  32 */\n      0x20\n        /* \"MemberToken_flattened.sol\":8539:8553  new string(32) */\n      0xffffffffffffffff\n      dup2\n      gt\n      iszero\n      tag_294\n      jumpi\n      tag_295\n      tag_141\n      jump\t// in\n    tag_295:\n    tag_294:\n      mload(0x40)\n      swap1\n      dup1\n      dup3\n      mstore\n      dup1\n      0x1f\n      add\n      not(0x1f)\n      and\n      0x20\n      add\n      dup3\n      add\n      0x40\n      mstore\n      dup1\n      iszero\n      tag_296\n      jumpi\n      dup2\n      0x20\n      add\n      0x01\n      dup3\n      mul\n      dup1\n      calldatasize\n      dup4\n      calldatacopy\n      dup1\n      dup3\n      add\n      swap2\n      pop\n      pop\n      swap1\n      pop\n    tag_296:\n      pop\n        /* \"MemberToken_flattened.sol\":8519:8553  string memory str = new string(32) */\n      swap1\n      pop\n        /* \"MemberToken_flattened.sol\":8641:8644  len */\n      dup2\n        /* \"MemberToken_flattened.sol\":8636:8639  str */\n      dup2\n        /* \"MemberToken_flattened.sol\":8629:8645  mstore(str, len) */\n      mstore\n        /* \"MemberToken_flattened.sol\":8681:8685  sstr */\n      dup4\n        /* \"MemberToken_flattened.sol\":8674:8678  0x20 */\n      0x20\n        /* \"MemberToken_flattened.sol\":8669:8672  str */\n      dup3\n        /* \"MemberToken_flattened.sol\":8665:8679  add(str, 0x20) */\n      add\n        /* \"MemberToken_flattened.sol\":8658:8686  mstore(add(str, 0x20), sstr) */\n      mstore\n        /* \"MemberToken_flattened.sol\":8712:8715  str */\n      dup1\n        /* \"MemberToken_flattened.sol\":8705:8715  return str */\n      swap3\n      pop\n      pop\n      pop\n        /* \"MemberToken_flattened.sol\":8317:8722  function toString(ShortString sstr) internal pure returns (string memory) {... */\n      swap2\n      swap1\n      pop\n      jump\t// out\n        /* \"MemberToken_flattened.sol\":8794:9039  function byteLength(ShortString sstr) internal pure returns (uint256) {... */\n    tag_293:\n        /* \"MemberToken_flattened.sol\":8855:8862  uint256 */\n      0x00\n        /* \"MemberToken_flattened.sol\":8874:8888  uint256 result */\n      dup1\n        /* \"MemberToken_flattened.sol\":8927:8931  0xFF */\n      0xff\n        /* \"MemberToken_flattened.sol\":8918:8922  sstr */\n      dup4\n        /* \"MemberToken_flattened.sol\":8891:8924  uint256(ShortString.unwrap(sstr)) */\n      0x00\n      shr\n        /* \"MemberToken_flattened.sol\":8891:8931  uint256(ShortString.unwrap(sstr)) & 0xFF */\n      and\n        /* \"MemberToken_flattened.sol\":8874:8931  uint256 result = uint256(ShortString.unwrap(sstr)) & 0xFF */\n      swap1\n      pop\n        /* \"MemberToken_flattened.sol\":8954:8956  31 */\n      0x1f\n        /* \"MemberToken_flattened.sol\":8945:8951  result */\n      dup2\n        /* \"MemberToken_flattened.sol\":8945:8956  result > 31 */\n      gt\n        /* \"MemberToken_flattened.sol\":8941:9010  if (result > 31) {... */\n      iszero\n      tag_298\n      jumpi\n        /* \"MemberToken_flattened.sol\":8979:8999  InvalidShortString() */\n      mload(0x40)\n      0xb3512b0c00000000000000000000000000000000000000000000000000000000\n      dup2\n      mstore\n      0x04\n      add\n      mload(0x40)\n      dup1\n      swap2\n      sub\n      swap1\n      revert\n        /* \"MemberToken_flattened.sol\":8941:9010  if (result > 31) {... */\n    tag_298:\n        /* \"MemberToken_flattened.sol\":9026:9032  result */\n      dup1\n        /* \"MemberToken_flattened.sol\":9019:9032  return result */\n      swap2\n      pop\n      pop\n        /* \"MemberToken_flattened.sol\":8794:9039  function byteLength(ShortString sstr) internal pure returns (uint256) {... */\n      swap2\n      swap1\n      pop\n      jump\t// out\n        /* \"#utility.yul\":7:106   */\n    tag_299:\n        /* \"#utility.yul\":59:65   */\n      0x00\n        /* \"#utility.yul\":93:98   */\n      dup2\n        /* \"#utility.yul\":87:99   */\n      mload\n        /* \"#utility.yul\":77:99   */\n      swap1\n      pop\n        /* \"#utility.yul\":7:106   */\n      swap2\n      swap1\n      pop\n      jump\t// out\n        /* \"#utility.yul\":112:281   */\n    tag_300:\n        /* \"#utility.yul\":196:207   */\n      0x00\n        /* \"#utility.yul\":230:236   */\n      dup3\n        /* \"#utility.yul\":225:228   */\n      dup3\n        /* \"#utility.yul\":218:237   */\n      mstore\n        /* \"#utility.yul\":270:274   */\n      0x20\n        /* \"#utility.yul\":265:268   */\n      dup3\n        /* \"#utility.yul\":261:275   */\n      add\n        /* \"#utility.yul\":246:275   */\n      swap1\n      pop\n        /* \"#utility.yul\":112:281   */\n      swap3\n      swap2\n      pop\n      pop\n      jump\t// out\n        /* \"#utility.yul\":287:533   */\n    tag_301:\n        /* \"#utility.yul\":368:369   */\n      0x00\n        /* \"#utility.yul\":378:491   */\n    tag_344:\n        /* \"#utility.yul\":392:398   */\n      dup4\n        /* \"#utility.yul\":389:390   */\n      dup2\n        /* \"#utility.yul\":386:399   */\n      lt\n        /* \"#utility.yul\":378:491   */\n      iszero\n      tag_346\n      jumpi\n        /* \"#utility.yul\":477:478   */\n      dup1\n        /* \"#utility.yul\":472:475   */\n      dup3\n        /* \"#utility.yul\":468:479   */\n      add\n        /* \"#utility.yul\":462:480   */\n      mload\n        /* \"#utility.yul\":458:459   */\n      dup2\n        /* \"#utility.yul\":453:456   */\n      dup5\n        /* \"#utility.yul\":449:460   */\n      add\n        /* \"#utility.yul\":442:481   */\n      mstore\n        /* \"#utility.yul\":414:416   */\n      0x20\n        /* \"#utility.yul\":411:412   */\n      dup2\n        /* \"#utility.yul\":407:417   */\n      add\n        /* \"#utility.yul\":402:417   */\n      swap1\n      pop\n        /* \"#utility.yul\":378:491   */\n      jump(tag_344)\n    tag_346:\n        /* \"#utility.yul\":525:526   */\n      0x00\n        /* \"#utility.yul\":516:522   */\n      dup5\n        /* \"#utility.yul\":511:514   */\n      dup5\n        /* \"#utility.yul\":507:523   */\n      add\n        /* \"#utility.yul\":500:527   */\n      mstore\n        /* \"#utility.yul\":349:533   */\n      pop\n        /* \"#utility.yul\":287:533   */\n      pop\n      pop\n      pop\n      jump\t// out\n        /* \"#utility.yul\":539:641   */\n    tag_302:\n        /* \"#utility.yul\":580:586   */\n      0x00\n        /* \"#utility.yul\":631:633   */\n      0x1f\n        /* \"#utility.yul\":627:634   */\n      not\n        /* \"#utility.yul\":622:624   */\n      0x1f\n        /* \"#utility.yul\":615:620   */\n      dup4\n        /* \"#utility.yul\":611:625   */\n      add\n        /* \"#utility.yul\":607:635   */\n      and\n        /* \"#utility.yul\":597:635   */\n      swap1\n      pop\n        /* \"#utility.yul\":539:641   */\n      swap2\n      swap1\n      pop\n      jump\t// out\n        /* \"#utility.yul\":647:1024   */\n    tag_303:\n        /* \"#utility.yul\":735:738   */\n      0x00\n        /* \"#utility.yul\":763:802   */\n      tag_349\n        /* \"#utility.yul\":796:801   */\n      dup3\n        /* \"#utility.yul\":763:802   */\n      tag_299\n      jump\t// in\n    tag_349:\n        /* \"#utility.yul\":818:889   */\n      tag_350\n        /* \"#utility.yul\":882:888   */\n      dup2\n        /* \"#utility.yul\":877:880   */\n      dup6\n        /* \"#utility.yul\":818:889   */\n      tag_300\n      jump\t// in\n    tag_350:\n        /* \"#utility.yul\":811:889   */\n      swap4\n      pop\n        /* \"#utility.yul\":898:963   */\n      tag_351\n        /* \"#utility.yul\":956:962   */\n      dup2\n        /* \"#utility.yul\":951:954   */\n      dup6\n        /* \"#utility.yul\":944:948   */\n      0x20\n        /* \"#utility.yul\":937:942   */\n      dup7\n        /* \"#utility.yul\":933:949   */\n      add\n        /* \"#utility.yul\":898:963   */\n      tag_301\n      jump\t// in\n    tag_351:\n        /* \"#utility.yul\":988:1017   */\n      tag_352\n        /* \"#utility.yul\":1010:1016   */\n      dup2\n        /* \"#utility.yul\":988:1017   */\n      tag_302\n      jump\t// in\n    tag_352:\n        /* \"#utility.yul\":983:986   */\n      dup5\n        /* \"#utility.yul\":979:1018   */\n      add\n        /* \"#utility.yul\":972:1018   */\n      swap2\n      pop\n        /* \"#utility.yul\":739:1024   */\n      pop\n        /* \"#utility.yul\":647:1024   */\n      swap3\n      swap2\n      pop\n      pop\n      jump\t// out\n        /* \"#utility.yul\":1030:1343   */\n    tag_26:\n        /* \"#utility.yul\":1143:1147   */\n      0x00\n        /* \"#utility.yul\":1181:1183   */\n      0x20\n        /* \"#utility.yul\":1170:1179   */\n      dup3\n        /* \"#utility.yul\":1166:1184   */\n      add\n        /* \"#utility.yul\":1158:1184   */\n      swap1\n      pop\n        /* \"#utility.yul\":1230:1239   */\n      dup2\n        /* \"#utility.yul\":1224:1228   */\n      dup2\n        /* \"#utility.yul\":1220:1240   */\n      sub\n        /* \"#utility.yul\":1216:1217   */\n      0x00\n        /* \"#utility.yul\":1205:1214   */\n      dup4\n        /* \"#utility.yul\":1201:1218   */\n      add\n        /* \"#utility.yul\":1194:1241   */\n      mstore\n        /* \"#utility.yul\":1258:1336   */\n      tag_354\n        /* \"#utility.yul\":1331:1335   */\n      dup2\n        /* \"#utility.yul\":1322:1328   */\n      dup5\n        /* \"#utility.yul\":1258:1336   */\n      tag_303\n      jump\t// in\n    tag_354:\n        /* \"#utility.yul\":1250:1336   */\n      swap1\n      pop\n        /* \"#utility.yul\":1030:1343   */\n      swap3\n      swap2\n      pop\n      pop\n      jump\t// out\n        /* \"#utility.yul\":1430:1547   */\n    tag_305:\n        /* \"#utility.yul\":1539:1540   */\n      0x00\n        /* \"#utility.yul\":1536:1537   */\n      dup1\n        /* \"#utility.yul\":1529:1541   */\n      revert\n        /* \"#utility.yul\":1676:1802   */\n    tag_307:\n        /* \"#utility.yul\":1713:1720   */\n      0x00\n        /* \"#utility.yul\":1753:1795   */\n      0xffffffffffffffffffffffffffffffffffffffff\n        /* \"#utility.yul\":1746:1751   */\n      dup3\n        /* \"#utility.yul\":1742:1796   */\n      and\n        /* \"#utility.yul\":1731:1796   */\n      swap1\n      pop\n        /* \"#utility.yul\":1676:1802   */\n      swap2\n      swap1\n      pop\n      jump\t// out\n        /* \"#utility.yul\":1808:1904   */\n    tag_308:\n        /* \"#utility.yul\":1845:1852   */\n      0x00\n        /* \"#utility.yul\":1874:1898   */\n      tag_360\n        /* \"#utility.yul\":1892:1897   */\n      dup3\n        /* \"#utility.yul\":1874:1898   */\n      tag_307\n      jump\t// in\n    tag_360:\n        /* \"#utility.yul\":1863:1898   */\n      swap1\n      pop\n        /* \"#utility.yul\":1808:1904   */\n      swap2\n      swap1\n      pop\n      jump\t// out\n        /* \"#utility.yul\":1910:2032   */\n    tag_309:\n        /* \"#utility.yul\":1983:2007   */\n      tag_362\n        /* \"#utility.yul\":2001:2006   */\n      dup2\n        /* \"#utility.yul\":1983:2007   */\n      tag_308\n      jump\t// in\n    tag_362:\n        /* \"#utility.yul\":1976:1981   */\n      dup2\n        /* \"#utility.yul\":1973:2008   */\n      eq\n        /* \"#utility.yul\":1963:2026   */\n      tag_363\n      jumpi\n        /* \"#utility.yul\":2022:2023   */\n      0x00\n        /* \"#utility.yul\":2019:2020   */\n      dup1\n        /* \"#utility.yul\":2012:2024   */\n      revert\n        /* \"#utility.yul\":1963:2026   */\n    tag_363:\n        /* \"#utility.yul\":1910:2032   */\n      pop\n      jump\t// out\n        /* \"#utility.yul\":2038:2177   */\n    tag_310:\n        /* \"#utility.yul\":2084:2089   */\n      0x00\n        /* \"#utility.yul\":2122:2128   */\n      dup2\n        /* \"#utility.yul\":2109:2129   */\n      calldataload\n        /* \"#utility.yul\":2100:2129   */\n      swap1\n      pop\n        /* \"#utility.yul\":2138:2171   */\n      tag_365\n        /* \"#utility.yul\":2165:2170   */\n      dup2\n        /* \"#utility.yul\":2138:2171   */\n      tag_309\n      jump\t// in\n    tag_365:\n        /* \"#utility.yul\":2038:2177   */\n      swap3\n      swap2\n      pop\n      pop\n      jump\t// out\n        /* \"#utility.yul\":2183:2260   */\n    tag_311:\n        /* \"#utility.yul\":2220:2227   */\n      0x00\n        /* \"#utility.yul\":2249:2254   */\n      dup2\n        /* \"#utility.yul\":2238:2254   */\n      swap1\n      pop\n        /* \"#utility.yul\":2183:2260   */\n      swap2\n      swap1\n      pop\n      jump\t// out\n        /* \"#utility.yul\":2266:2388   */\n    tag_312:\n        /* \"#utility.yul\":2339:2363   */\n      tag_368\n        /* \"#utility.yul\":2357:2362   */\n      dup2\n        /* \"#utility.yul\":2339:2363   */\n      tag_311\n      jump\t// in\n    tag_368:\n        /* \"#utility.yul\":2332:2337   */\n      dup2\n        /* \"#utility.yul\":2329:2364   */\n      eq\n        /* \"#utility.yul\":2319:2382   */\n      tag_369\n      jumpi\n        /* \"#utility.yul\":2378:2379   */\n      0x00\n        /* \"#utility.yul\":2375:2376   */\n      dup1\n        /* \"#utility.yul\":2368:2380   */\n      revert\n        /* \"#utility.yul\":2319:2382   */\n    tag_369:\n        /* \"#utility.yul\":2266:2388   */\n      pop\n      jump\t// out\n        /* \"#utility.yul\":2394:2533   */\n    tag_313:\n        /* \"#utility.yul\":2440:2445   */\n      0x00\n        /* \"#utility.yul\":2478:2484   */\n      dup2\n        /* \"#utility.yul\":2465:2485   */\n      calldataload\n        /* \"#utility.yul\":2456:2485   */\n      swap1\n      pop\n        /* \"#utility.yul\":2494:2527   */\n      tag_371\n        /* \"#utility.yul\":2521:2526   */\n      dup2\n        /* \"#utility.yul\":2494:2527   */\n      tag_312\n      jump\t// in\n    tag_371:\n        /* \"#utility.yul\":2394:2533   */\n      swap3\n      swap2\n      pop\n      pop\n      jump\t// out\n        /* \"#utility.yul\":2539:3013   */\n    tag_29:\n        /* \"#utility.yul\":2607:2613   */\n      0x00\n        /* \"#utility.yul\":2615:2621   */\n      dup1\n        /* \"#utility.yul\":2664:2666   */\n      0x40\n        /* \"#utility.yul\":2652:2661   */\n      dup4\n        /* \"#utility.yul\":2643:2650   */\n      dup6\n        /* \"#utility.yul\":2639:2662   */\n      sub\n        /* \"#utility.yul\":2635:2667   */\n      slt\n        /* \"#utility.yul\":2632:2751   */\n      iszero\n      tag_373\n      jumpi\n        /* \"#utility.yul\":2670:2749   */\n      tag_374\n      tag_305\n      jump\t// in\n    tag_374:\n        /* \"#utility.yul\":2632:2751   */\n    tag_373:\n        /* \"#utility.yul\":2790:2791   */\n      0x00\n        /* \"#utility.yul\":2815:2868   */\n      tag_375\n        /* \"#utility.yul\":2860:2867   */\n      dup6\n        /* \"#utility.yul\":2851:2857   */\n      dup3\n        /* \"#utility.yul\":2840:2849   */\n      dup7\n        /* \"#utility.yul\":2836:2858   */\n      add\n        /* \"#utility.yul\":2815:2868   */\n      tag_310\n      jump\t// in\n    tag_375:\n        /* \"#utility.yul\":2805:2868   */\n      swap3\n      pop\n        /* \"#utility.yul\":2761:2878   */\n      pop\n        /* \"#utility.yul\":2917:2919   */\n      0x20\n        /* \"#utility.yul\":2943:2996   */\n      tag_376\n        /* \"#utility.yul\":2988:2995   */\n      dup6\n        /* \"#utility.yul\":2979:2985   */\n      dup3\n        /* \"#utility.yul\":2968:2977   */\n      dup7\n        /* \"#utility.yul\":2964:2986   */\n      add\n        /* \"#utility.yul\":2943:2996   */\n      tag_313\n      jump\t// in\n    tag_376:\n        /* \"#utility.yul\":2933:2996   */\n      swap2\n      pop\n        /* \"#utility.yul\":2888:3006   */\n      pop\n        /* \"#utility.yul\":2539:3013   */\n      swap3\n      pop\n      swap3\n      swap1\n      pop\n      jump\t// out\n        /* \"#utility.yul\":3019:3109   */\n    tag_314:\n        /* \"#utility.yul\":3053:3060   */\n      0x00\n        /* \"#utility.yul\":3096:3101   */\n      dup2\n        /* \"#utility.yul\":3089:3102   */\n      iszero\n        /* \"#utility.yul\":3082:3103   */\n      iszero\n        /* \"#utility.yul\":3071:3103   */\n      swap1\n      pop\n        /* \"#utility.yul\":3019:3109   */\n      swap2\n      swap1\n      pop\n      jump\t// out\n        /* \"#utility.yul\":3115:3224   */\n    tag_315:\n        /* \"#utility.yul\":3196:3217   */\n      tag_379\n        /* \"#utility.yul\":3211:3216   */\n      dup2\n        /* \"#utility.yul\":3196:3217   */\n      tag_314\n      jump\t// in\n    tag_379:\n        /* \"#utility.yul\":3191:3194   */\n      dup3\n        /* \"#utility.yul\":3184:3218   */\n      mstore\n        /* \"#utility.yul\":3115:3224   */\n      pop\n      pop\n      jump\t// out\n        /* \"#utility.yul\":3230:3440   */\n    tag_32:\n        /* \"#utility.yul\":3317:3321   */\n      0x00\n        /* \"#utility.yul\":3355:3357   */\n      0x20\n        /* \"#utility.yul\":3344:3353   */\n      dup3\n        /* \"#utility.yul\":3340:3358   */\n      add\n        /* \"#utility.yul\":3332:3358   */\n      swap1\n      pop\n        /* \"#utility.yul\":3368:3433   */\n      tag_381\n        /* \"#utility.yul\":3430:3431   */\n      0x00\n        /* \"#utility.yul\":3419:3428   */\n      dup4\n        /* \"#utility.yul\":3415:3432   */\n      add\n        /* \"#utility.yul\":3406:3412   */\n      dup5\n        /* \"#utility.yul\":3368:3433   */\n      tag_315\n      jump\t// in\n    tag_381:\n        /* \"#utility.yul\":3230:3440   */\n      swap3\n      swap2\n      pop\n      pop\n      jump\t// out\n        /* \"#utility.yul\":3446:3564   */\n    tag_316:\n        /* \"#utility.yul\":3533:3557   */\n      tag_383\n        /* \"#utility.yul\":3551:3556   */\n      dup2\n        /* \"#utility.yul\":3533:3557   */\n      tag_311\n      jump\t// in\n    tag_383:\n        /* \"#utility.yul\":3528:3531   */\n      dup3\n        /* \"#utility.yul\":3521:3558   */\n      mstore\n        /* \"#utility.yul\":3446:3564   */\n      pop\n      pop\n      jump\t// out\n        /* \"#utility.yul\":3570:3792   */\n    tag_36:\n        /* \"#utility.yul\":3663:3667   */\n      0x00\n        /* \"#utility.yul\":3701:3703   */\n      0x20\n        /* \"#utility.yul\":3690:3699   */\n      dup3\n        /* \"#utility.yul\":3686:3704   */\n      add\n        /* \"#utility.yul\":3678:3704   */\n      swap1\n      pop\n        /* \"#utility.yul\":3714:3785   */\n      tag_385\n        /* \"#utility.yul\":3782:3783   */\n      0x00\n        /* \"#utility.yul\":3771:3780   */\n      dup4\n        /* \"#utility.yul\":3767:3784   */\n      add\n        /* \"#utility.yul\":3758:3764   */\n      dup5\n        /* \"#utility.yul\":3714:3785   */\n      tag_316\n      jump\t// in\n    tag_385:\n        /* \"#utility.yul\":3570:3792   */\n      swap3\n      swap2\n      pop\n      pop\n      jump\t// out\n        /* \"#utility.yul\":3798:4417   */\n    tag_39:\n        /* \"#utility.yul\":3875:3881   */\n      0x00\n        /* \"#utility.yul\":3883:3889   */\n      dup1\n        /* \"#utility.yul\":3891:3897   */\n      0x00\n        /* \"#utility.yul\":3940:3942   */\n      0x60\n        /* \"#utility.yul\":3928:3937   */\n      dup5\n        /* \"#utility.yul\":3919:3926   */\n      dup7\n        /* \"#utility.yul\":3915:3938   */\n      sub\n        /* \"#utility.yul\":3911:3943   */\n      slt\n        /* \"#utility.yul\":3908:4027   */\n      iszero\n      tag_387\n      jumpi\n        /* \"#utility.yul\":3946:4025   */\n      tag_388\n      tag_305\n      jump\t// in\n    tag_388:\n        /* \"#utility.yul\":3908:4027   */\n    tag_387:\n        /* \"#utility.yul\":4066:4067   */\n      0x00\n        /* \"#utility.yul\":4091:4144   */\n      tag_389\n        /* \"#utility.yul\":4136:4143   */\n      dup7\n        /* \"#utility.yul\":4127:4133   */\n      dup3\n        /* \"#utility.yul\":4116:4125   */\n      dup8\n        /* \"#utility.yul\":4112:4134   */\n      add\n        /* \"#utility.yul\":4091:4144   */\n      tag_310\n      jump\t// in\n    tag_389:\n        /* \"#utility.yul\":4081:4144   */\n      swap4\n      pop\n        /* \"#utility.yul\":4037:4154   */\n      pop\n        /* \"#utility.yul\":4193:4195   */\n      0x20\n        /* \"#utility.yul\":4219:4272   */\n      tag_390\n        /* \"#utility.yul\":4264:4271   */\n      dup7\n        /* \"#utility.yul\":4255:4261   */\n      dup3\n        /* \"#utility.yul\":4244:4253   */\n      dup8\n        /* \"#utility.yul\":4240:4262   */\n      add\n        /* \"#utility.yul\":4219:4272   */\n      tag_310\n      jump\t// in\n    tag_390:\n        /* \"#utility.yul\":4209:4272   */\n      swap3\n      pop\n        /* \"#utility.yul\":4164:4282   */\n      pop\n        /* \"#utility.yul\":4321:4323   */\n      0x40\n        /* \"#utility.yul\":4347:4400   */\n      tag_391\n        /* \"#utility.yul\":4392:4399   */\n      dup7\n        /* \"#utility.yul\":4383:4389   */\n      dup3\n        /* \"#utility.yul\":4372:4381   */\n      dup8\n        /* \"#utility.yul\":4368:4390   */\n      add\n        /* \"#utility.yul\":4347:4400   */\n      tag_313\n      jump\t// in\n    tag_391:\n        /* \"#utility.yul\":4337:4400   */\n      swap2\n      pop\n        /* \"#utility.yul\":4292:4410   */\n      pop\n        /* \"#utility.yul\":3798:4417   */\n      swap3\n      pop\n      swap3\n      pop\n      swap3\n      jump\t// out\n        /* \"#utility.yul\":4423:4509   */\n    tag_317:\n        /* \"#utility.yul\":4458:4465   */\n      0x00\n        /* \"#utility.yul\":4498:4502   */\n      0xff\n        /* \"#utility.yul\":4491:4496   */\n      dup3\n        /* \"#utility.yul\":4487:4503   */\n      and\n        /* \"#utility.yul\":4476:4503   */\n      swap1\n      pop\n        /* \"#utility.yul\":4423:4509   */\n      swap2\n      swap1\n      pop\n      jump\t// out\n        /* \"#utility.yul\":4515:4627   */\n    tag_318:\n        /* \"#utility.yul\":4598:4620   */\n      tag_394\n        /* \"#utility.yul\":4614:4619   */\n      dup2\n        /* \"#utility.yul\":4598:4620   */\n      tag_317\n      jump\t// in\n    tag_394:\n        /* \"#utility.yul\":4593:4596   */\n      dup3\n        /* \"#utility.yul\":4586:4621   */\n      mstore\n        /* \"#utility.yul\":4515:4627   */\n      pop\n      pop\n      jump\t// out\n        /* \"#utility.yul\":4633:4847   */\n    tag_45:\n        /* \"#utility.yul\":4722:4726   */\n      0x00\n        /* \"#utility.yul\":4760:4762   */\n      0x20\n        /* \"#utility.yul\":4749:4758   */\n      dup3\n        /* \"#utility.yul\":4745:4763   */\n      add\n        /* \"#utility.yul\":4737:4763   */\n      swap1\n      pop\n        /* \"#utility.yul\":4773:4840   */\n      tag_396\n        /* \"#utility.yul\":4837:4838   */\n      0x00\n        /* \"#utility.yul\":4826:4835   */\n      dup4\n        /* \"#utility.yul\":4822:4839   */\n      add\n        /* \"#utility.yul\":4813:4819   */\n      dup5\n        /* \"#utility.yul\":4773:4840   */\n      tag_318\n      jump\t// in\n    tag_396:\n        /* \"#utility.yul\":4633:4847   */\n      swap3\n      swap2\n      pop\n      pop\n      jump\t// out\n        /* \"#utility.yul\":4853:4930   */\n    tag_319:\n        /* \"#utility.yul\":4890:4897   */\n      0x00\n        /* \"#utility.yul\":4919:4924   */\n      dup2\n        /* \"#utility.yul\":4908:4924   */\n      swap1\n      pop\n        /* \"#utility.yul\":4853:4930   */\n      swap2\n      swap1\n      pop\n      jump\t// out\n        /* \"#utility.yul\":4936:5054   */\n    tag_320:\n        /* \"#utility.yul\":5023:5047   */\n      tag_399\n        /* \"#utility.yul\":5041:5046   */\n      dup2\n        /* \"#utility.yul\":5023:5047   */\n      tag_319\n      jump\t// in\n    tag_399:\n        /* \"#utility.yul\":5018:5021   */\n      dup3\n        /* \"#utility.yul\":5011:5048   */\n      mstore\n        /* \"#utility.yul\":4936:5054   */\n      pop\n      pop\n      jump\t// out\n        /* \"#utility.yul\":5060:5282   */\n    tag_49:\n        /* \"#utility.yul\":5153:5157   */\n      0x00\n        /* \"#utility.yul\":5191:5193   */\n      0x20\n        /* \"#utility.yul\":5180:5189   */\n      dup3\n        /* \"#utility.yul\":5176:5194   */\n      add\n        /* \"#utility.yul\":5168:5194   */\n      swap1\n      pop\n        /* \"#utility.yul\":5204:5275   */\n      tag_401\n        /* \"#utility.yul\":5272:5273   */\n      0x00\n        /* \"#utility.yul\":5261:5270   */\n      dup4\n        /* \"#utility.yul\":5257:5274   */\n      add\n        /* \"#utility.yul\":5248:5254   */\n      dup5\n        /* \"#utility.yul\":5204:5275   */\n      tag_320\n      jump\t// in\n    tag_401:\n        /* \"#utility.yul\":5060:5282   */\n      swap3\n      swap2\n      pop\n      pop\n      jump\t// out\n        /* \"#utility.yul\":5288:5617   */\n    tag_55:\n        /* \"#utility.yul\":5347:5353   */\n      0x00\n        /* \"#utility.yul\":5396:5398   */\n      0x20\n        /* \"#utility.yul\":5384:5393   */\n      dup3\n        /* \"#utility.yul\":5375:5382   */\n      dup5\n        /* \"#utility.yul\":5371:5394   */\n      sub\n        /* \"#utility.yul\":5367:5399   */\n      slt\n        /* \"#utility.yul\":5364:5483   */\n      iszero\n      tag_403\n      jumpi\n        /* \"#utility.yul\":5402:5481   */\n      tag_404\n      tag_305\n      jump\t// in\n    tag_404:\n        /* \"#utility.yul\":5364:5483   */\n    tag_403:\n        /* \"#utility.yul\":5522:5523   */\n      0x00\n        /* \"#utility.yul\":5547:5600   */\n      tag_405\n        /* \"#utility.yul\":5592:5599   */\n      dup5\n        /* \"#utility.yul\":5583:5589   */\n      dup3\n        /* \"#utility.yul\":5572:5581   */\n      dup6\n        /* \"#utility.yul\":5568:5590   */\n      add\n        /* \"#utility.yul\":5547:5600   */\n      tag_310\n      jump\t// in\n    tag_405:\n        /* \"#utility.yul\":5537:5600   */\n      swap2\n      pop\n        /* \"#utility.yul\":5493:5610   */\n      pop\n        /* \"#utility.yul\":5288:5617   */\n      swap3\n      swap2\n      pop\n      pop\n      jump\t// out\n        /* \"#utility.yul\":5623:5772   */\n    tag_321:\n        /* \"#utility.yul\":5659:5666   */\n      0x00\n        /* \"#utility.yul\":5699:5765   */\n      0xff00000000000000000000000000000000000000000000000000000000000000\n        /* \"#utility.yul\":5692:5697   */\n      dup3\n        /* \"#utility.yul\":5688:5766   */\n      and\n        /* \"#utility.yul\":5677:5766   */\n      swap1\n      pop\n        /* \"#utility.yul\":5623:5772   */\n      swap2\n      swap1\n      pop\n      jump\t// out\n        /* \"#utility.yul\":5778:5893   */\n    tag_322:\n        /* \"#utility.yul\":5863:5886   */\n      tag_408\n        /* \"#utility.yul\":5880:5885   */\n      dup2\n        /* \"#utility.yul\":5863:5886   */\n      tag_321\n      jump\t// in\n    tag_408:\n        /* \"#utility.yul\":5858:5861   */\n      dup3\n        /* \"#utility.yul\":5851:5887   */\n      mstore\n        /* \"#utility.yul\":5778:5893   */\n      pop\n      pop\n      jump\t// out\n        /* \"#utility.yul\":5899:6017   */\n    tag_323:\n        /* \"#utility.yul\":5986:6010   */\n      tag_410\n        /* \"#utility.yul\":6004:6009   */\n      dup2\n        /* \"#utility.yul\":5986:6010   */\n      tag_308\n      jump\t// in\n    tag_410:\n        /* \"#utility.yul\":5981:5984   */\n      dup3\n        /* \"#utility.yul\":5974:6011   */\n      mstore\n        /* \"#utility.yul\":5899:6017   */\n      pop\n      pop\n      jump\t// out\n        /* \"#utility.yul\":6023:6137   */\n    tag_324:\n        /* \"#utility.yul\":6090:6096   */\n      0x00\n        /* \"#utility.yul\":6124:6129   */\n      dup2\n        /* \"#utility.yul\":6118:6130   */\n      mload\n        /* \"#utility.yul\":6108:6130   */\n      swap1\n      pop\n        /* \"#utility.yul\":6023:6137   */\n      swap2\n      swap1\n      pop\n      jump\t// out\n        /* \"#utility.yul\":6143:6327   */\n    tag_325:\n        /* \"#utility.yul\":6242:6253   */\n      0x00\n        /* \"#utility.yul\":6276:6282   */\n      dup3\n        /* \"#utility.yul\":6271:6274   */\n      dup3\n        /* \"#utility.yul\":6264:6283   */\n      mstore\n        /* \"#utility.yul\":6316:6320   */\n      0x20\n        /* \"#utility.yul\":6311:6314   */\n      dup3\n        /* \"#utility.yul\":6307:6321   */\n      add\n        /* \"#utility.yul\":6292:6321   */\n      swap1\n      pop\n        /* \"#utility.yul\":6143:6327   */\n      swap3\n      swap2\n      pop\n      pop\n      jump\t// out\n        /* \"#utility.yul\":6333:6465   */\n    tag_326:\n        /* \"#utility.yul\":6400:6404   */\n      0x00\n        /* \"#utility.yul\":6423:6426   */\n      dup2\n        /* \"#utility.yul\":6415:6426   */\n      swap1\n      pop\n        /* \"#utility.yul\":6453:6457   */\n      0x20\n        /* \"#utility.yul\":6448:6451   */\n      dup3\n        /* \"#utility.yul\":6444:6458   */\n      add\n        /* \"#utility.yul\":6436:6458   */\n      swap1\n      pop\n        /* \"#utility.yul\":6333:6465   */\n      swap2\n      swap1\n      pop\n      jump\t// out\n        /* \"#utility.yul\":6471:6579   */\n    tag_327:\n        /* \"#utility.yul\":6548:6572   */\n      tag_415\n        /* \"#utility.yul\":6566:6571   */\n      dup2\n        /* \"#utility.yul\":6548:6572   */\n      tag_311\n      jump\t// in\n    tag_415:\n        /* \"#utility.yul\":6543:6546   */\n      dup3\n        /* \"#utility.yul\":6536:6573   */\n      mstore\n        /* \"#utility.yul\":6471:6579   */\n      pop\n      pop\n      jump\t// out\n        /* \"#utility.yul\":6585:6764   */\n    tag_328:\n        /* \"#utility.yul\":6654:6664   */\n      0x00\n        /* \"#utility.yul\":6675:6721   */\n      tag_417\n        /* \"#utility.yul\":6717:6720   */\n      dup4\n        /* \"#utility.yul\":6709:6715   */\n      dup4\n        /* \"#utility.yul\":6675:6721   */\n      tag_327\n      jump\t// in\n    tag_417:\n        /* \"#utility.yul\":6753:6757   */\n      0x20\n        /* \"#utility.yul\":6748:6751   */\n      dup4\n        /* \"#utility.yul\":6744:6758   */\n      add\n        /* \"#utility.yul\":6730:6758   */\n      swap1\n      pop\n        /* \"#utility.yul\":6585:6764   */\n      swap3\n      swap2\n      pop\n      pop\n      jump\t// out\n        /* \"#utility.yul\":6770:6883   */\n    tag_329:\n        /* \"#utility.yul\":6840:6844   */\n      0x00\n        /* \"#utility.yul\":6872:6876   */\n      0x20\n        /* \"#utility.yul\":6867:6870   */\n      dup3\n        /* \"#utility.yul\":6863:6877   */\n      add\n        /* \"#utility.yul\":6855:6877   */\n      swap1\n      pop\n        /* \"#utility.yul\":6770:6883   */\n      swap2\n      swap1\n      pop\n      jump\t// out\n        /* \"#utility.yul\":6919:7651   */\n    tag_330:\n        /* \"#utility.yul\":7038:7041   */\n      0x00\n        /* \"#utility.yul\":7067:7121   */\n      tag_420\n        /* \"#utility.yul\":7115:7120   */\n      dup3\n        /* \"#utility.yul\":7067:7121   */\n      tag_324\n      jump\t// in\n    tag_420:\n        /* \"#utility.yul\":7137:7223   */\n      tag_421\n        /* \"#utility.yul\":7216:7222   */\n      dup2\n        /* \"#utility.yul\":7211:7214   */\n      dup6\n        /* \"#utility.yul\":7137:7223   */\n      tag_325\n      jump\t// in\n    tag_421:\n        /* \"#utility.yul\":7130:7223   */\n      swap4\n      pop\n        /* \"#utility.yul\":7247:7303   */\n      tag_422\n        /* \"#utility.yul\":7297:7302   */\n      dup4\n        /* \"#utility.yul\":7247:7303   */\n      tag_326\n      jump\t// in\n    tag_422:\n        /* \"#utility.yul\":7326:7333   */\n      dup1\n        /* \"#utility.yul\":7357:7358   */\n      0x00\n        /* \"#utility.yul\":7342:7626   */\n    tag_423:\n        /* \"#utility.yul\":7367:7373   */\n      dup4\n        /* \"#utility.yul\":7364:7365   */\n      dup2\n        /* \"#utility.yul\":7361:7374   */\n      lt\n        /* \"#utility.yul\":7342:7626   */\n      iszero\n      tag_425\n      jumpi\n        /* \"#utility.yul\":7443:7449   */\n      dup2\n        /* \"#utility.yul\":7437:7450   */\n      mload\n        /* \"#utility.yul\":7470:7533   */\n      tag_426\n        /* \"#utility.yul\":7529:7532   */\n      dup9\n        /* \"#utility.yul\":7514:7527   */\n      dup3\n        /* \"#utility.yul\":7470:7533   */\n      tag_328\n      jump\t// in\n    tag_426:\n        /* \"#utility.yul\":7463:7533   */\n      swap8\n      pop\n        /* \"#utility.yul\":7556:7616   */\n      tag_427\n        /* \"#utility.yul\":7609:7615   */\n      dup4\n        /* \"#utility.yul\":7556:7616   */\n      tag_329\n      jump\t// in\n    tag_427:\n        /* \"#utility.yul\":7546:7616   */\n      swap3\n      pop\n        /* \"#utility.yul\":7402:7626   */\n      pop\n        /* \"#utility.yul\":7389:7390   */\n      0x01\n        /* \"#utility.yul\":7386:7387   */\n      dup2\n        /* \"#utility.yul\":7382:7391   */\n      add\n        /* \"#utility.yul\":7377:7391   */\n      swap1\n      pop\n        /* \"#utility.yul\":7342:7626   */\n      jump(tag_423)\n    tag_425:\n        /* \"#utility.yul\":7346:7360   */\n      pop\n        /* \"#utility.yul\":7642:7645   */\n      dup6\n        /* \"#utility.yul\":7635:7645   */\n      swap4\n      pop\n        /* \"#utility.yul\":7043:7651   */\n      pop\n      pop\n      pop\n        /* \"#utility.yul\":6919:7651   */\n      swap3\n      swap2\n      pop\n      pop\n      jump\t// out\n        /* \"#utility.yul\":7657:8872   */\n    tag_67:\n        /* \"#utility.yul\":8006:8010   */\n      0x00\n        /* \"#utility.yul\":8044:8047   */\n      0xe0\n        /* \"#utility.yul\":8033:8042   */\n      dup3\n        /* \"#utility.yul\":8029:8048   */\n      add\n        /* \"#utility.yul\":8021:8048   */\n      swap1\n      pop\n        /* \"#utility.yul\":8058:8127   */\n      tag_429\n        /* \"#utility.yul\":8124:8125   */\n      0x00\n        /* \"#utility.yul\":8113:8122   */\n      dup4\n        /* \"#utility.yul\":8109:8126   */\n      add\n        /* \"#utility.yul\":8100:8106   */\n      dup11\n        /* \"#utility.yul\":8058:8127   */\n      tag_322\n      jump\t// in\n    tag_429:\n        /* \"#utility.yul\":8174:8183   */\n      dup2\n        /* \"#utility.yul\":8168:8172   */\n      dup2\n        /* \"#utility.yul\":8164:8184   */\n      sub\n        /* \"#utility.yul\":8159:8161   */\n      0x20\n        /* \"#utility.yul\":8148:8157   */\n      dup4\n        /* \"#utility.yul\":8144:8162   */\n      add\n        /* \"#utility.yul\":8137:8185   */\n      mstore\n        /* \"#utility.yul\":8202:8280   */\n      tag_430\n        /* \"#utility.yul\":8275:8279   */\n      dup2\n        /* \"#utility.yul\":8266:8272   */\n      dup10\n        /* \"#utility.yul\":8202:8280   */\n      tag_303\n      jump\t// in\n    tag_430:\n        /* \"#utility.yul\":8194:8280   */\n      swap1\n      pop\n        /* \"#utility.yul\":8327:8336   */\n      dup2\n        /* \"#utility.yul\":8321:8325   */\n      dup2\n        /* \"#utility.yul\":8317:8337   */\n      sub\n        /* \"#utility.yul\":8312:8314   */\n      0x40\n        /* \"#utility.yul\":8301:8310   */\n      dup4\n        /* \"#utility.yul\":8297:8315   */\n      add\n        /* \"#utility.yul\":8290:8338   */\n      mstore\n        /* \"#utility.yul\":8355:8433   */\n      tag_431\n        /* \"#utility.yul\":8428:8432   */\n      dup2\n        /* \"#utility.yul\":8419:8425   */\n      dup9\n        /* \"#utility.yul\":8355:8433   */\n      tag_303\n      jump\t// in\n    tag_431:\n        /* \"#utility.yul\":8347:8433   */\n      swap1\n      pop\n        /* \"#utility.yul\":8443:8515   */\n      tag_432\n        /* \"#utility.yul\":8511:8513   */\n      0x60\n        /* \"#utility.yul\":8500:8509   */\n      dup4\n        /* \"#utility.yul\":8496:8514   */\n      add\n        /* \"#utility.yul\":8487:8493   */\n      dup8\n        /* \"#utility.yul\":8443:8515   */\n      tag_316\n      jump\t// in\n    tag_432:\n        /* \"#utility.yul\":8525:8598   */\n      tag_433\n        /* \"#utility.yul\":8593:8596   */\n      0x80\n        /* \"#utility.yul\":8582:8591   */\n      dup4\n        /* \"#utility.yul\":8578:8597   */\n      add\n        /* \"#utility.yul\":8569:8575   */\n      dup7\n        /* \"#utility.yul\":8525:8598   */\n      tag_323\n      jump\t// in\n    tag_433:\n        /* \"#utility.yul\":8608:8681   */\n      tag_434\n        /* \"#utility.yul\":8676:8679   */\n      0xa0\n        /* \"#utility.yul\":8665:8674   */\n      dup4\n        /* \"#utility.yul\":8661:8680   */\n      add\n        /* \"#utility.yul\":8652:8658   */\n      dup6\n        /* \"#utility.yul\":8608:8681   */\n      tag_320\n      jump\t// in\n    tag_434:\n        /* \"#utility.yul\":8729:8738   */\n      dup2\n        /* \"#utility.yul\":8723:8727   */\n      dup2\n        /* \"#utility.yul\":8719:8739   */\n      sub\n        /* \"#utility.yul\":8713:8716   */\n      0xc0\n        /* \"#utility.yul\":8702:8711   */\n      dup4\n        /* \"#utility.yul\":8698:8717   */\n      add\n        /* \"#utility.yul\":8691:8740   */\n      mstore\n        /* \"#utility.yul\":8757:8865   */\n      tag_435\n        /* \"#utility.yul\":8860:8864   */\n      dup2\n        /* \"#utility.yul\":8851:8857   */\n      dup5\n        /* \"#utility.yul\":8757:8865   */\n      tag_330\n      jump\t// in\n    tag_435:\n        /* \"#utility.yul\":8749:8865   */\n      swap1\n      pop\n        /* \"#utility.yul\":7657:8872   */\n      swap9\n      swap8\n      pop\n      pop\n      pop\n      pop\n      pop\n      pop\n      pop\n      pop\n      jump\t// out\n        /* \"#utility.yul\":8878:9100   */\n    tag_71:\n        /* \"#utility.yul\":8971:8975   */\n      0x00\n        /* \"#utility.yul\":9009:9011   */\n      0x20\n        /* \"#utility.yul\":8998:9007   */\n      dup3\n        /* \"#utility.yul\":8994:9012   */\n      add\n        /* \"#utility.yul\":8986:9012   */\n      swap1\n      pop\n        /* \"#utility.yul\":9022:9093   */\n      tag_437\n        /* \"#utility.yul\":9090:9091   */\n      0x00\n        /* \"#utility.yul\":9079:9088   */\n      dup4\n        /* \"#utility.yul\":9075:9092   */\n      add\n        /* \"#utility.yul\":9066:9072   */\n      dup5\n        /* \"#utility.yul\":9022:9093   */\n      tag_323\n      jump\t// in\n    tag_437:\n        /* \"#utility.yul\":8878:9100   */\n      swap3\n      swap2\n      pop\n      pop\n      jump\t// out\n        /* \"#utility.yul\":9106:9224   */\n    tag_331:\n        /* \"#utility.yul\":9177:9199   */\n      tag_439\n        /* \"#utility.yul\":9193:9198   */\n      dup2\n        /* \"#utility.yul\":9177:9199   */\n      tag_317\n      jump\t// in\n    tag_439:\n        /* \"#utility.yul\":9170:9175   */\n      dup2\n        /* \"#utility.yul\":9167:9200   */\n      eq\n        /* \"#utility.yul\":9157:9218   */\n      tag_440\n      jumpi\n        /* \"#utility.yul\":9214:9215   */\n      0x00\n        /* \"#utility.yul\":9211:9212   */\n      dup1\n        /* \"#utility.yul\":9204:9216   */\n      revert\n        /* \"#utility.yul\":9157:9218   */\n    tag_440:\n        /* \"#utility.yul\":9106:9224   */\n      pop\n      jump\t// out\n        /* \"#utility.yul\":9230:9365   */\n    tag_332:\n        /* \"#utility.yul\":9274:9279   */\n      0x00\n        /* \"#utility.yul\":9312:9318   */\n      dup2\n        /* \"#utility.yul\":9299:9319   */\n      calldataload\n        /* \"#utility.yul\":9290:9319   */\n      swap1\n      pop\n        /* \"#utility.yul\":9328:9359   */\n      tag_442\n        /* \"#utility.yul\":9353:9358   */\n      dup2\n        /* \"#utility.yul\":9328:9359   */\n      tag_331\n      jump\t// in\n    tag_442:\n        /* \"#utility.yul\":9230:9365   */\n      swap3\n      swap2\n      pop\n      pop\n      jump\t// out\n        /* \"#utility.yul\":9371:9493   */\n    tag_333:\n        /* \"#utility.yul\":9444:9468   */\n      tag_444\n        /* \"#utility.yul\":9462:9467   */\n      dup2\n        /* \"#utility.yul\":9444:9468   */\n      tag_319\n      jump\t// in\n    tag_444:\n        /* \"#utility.yul\":9437:9442   */\n      dup2\n        /* \"#utility.yul\":9434:9469   */\n      eq\n        /* \"#utility.yul\":9424:9487   */\n      tag_445\n      jumpi\n        /* \"#utility.yul\":9483:9484   */\n      0x00\n        /* \"#utility.yul\":9480:9481   */\n      dup1\n        /* \"#utility.yul\":9473:9485   */\n      revert\n        /* \"#utility.yul\":9424:9487   */\n    tag_445:\n        /* \"#utility.yul\":9371:9493   */\n      pop\n      jump\t// out\n        /* \"#utility.yul\":9499:9638   */\n    tag_334:\n        /* \"#utility.yul\":9545:9550   */\n      0x00\n        /* \"#utility.yul\":9583:9589   */\n      dup2\n        /* \"#utility.yul\":9570:9590   */\n      calldataload\n        /* \"#utility.yul\":9561:9590   */\n      swap1\n      pop\n        /* \"#utility.yul\":9599:9632   */\n      tag_447\n        /* \"#utility.yul\":9626:9631   */\n      dup2\n        /* \"#utility.yul\":9599:9632   */\n      tag_333\n      jump\t// in\n    tag_447:\n        /* \"#utility.yul\":9499:9638   */\n      swap3\n      swap2\n      pop\n      pop\n      jump\t// out\n        /* \"#utility.yul\":9644:10843   */\n    tag_81:\n        /* \"#utility.yul\":9755:9761   */\n      0x00\n        /* \"#utility.yul\":9763:9769   */\n      dup1\n        /* \"#utility.yul\":9771:9777   */\n      0x00\n        /* \"#utility.yul\":9779:9785   */\n      dup1\n        /* \"#utility.yul\":9787:9793   */\n      0x00\n        /* \"#utility.yul\":9795:9801   */\n      dup1\n        /* \"#utility.yul\":9803:9809   */\n      0x00\n        /* \"#utility.yul\":9852:9855   */\n      0xe0\n        /* \"#utility.yul\":9840:9849   */\n      dup9\n        /* \"#utility.yul\":9831:9838   */\n      dup11\n        /* \"#utility.yul\":9827:9850   */\n      sub\n        /* \"#utility.yul\":9823:9856   */\n      slt\n        /* \"#utility.yul\":9820:9940   */\n      iszero\n      tag_449\n      jumpi\n        /* \"#utility.yul\":9859:9938   */\n      tag_450\n      tag_305\n      jump\t// in\n    tag_450:\n        /* \"#utility.yul\":9820:9940   */\n    tag_449:\n        /* \"#utility.yul\":9979:9980   */\n      0x00\n        /* \"#utility.yul\":10004:10057   */\n      tag_451\n        /* \"#utility.yul\":10049:10056   */\n      dup11\n        /* \"#utility.yul\":10040:10046   */\n      dup3\n        /* \"#utility.yul\":10029:10038   */\n      dup12\n        /* \"#utility.yul\":10025:10047   */\n      add\n        /* \"#utility.yul\":10004:10057   */\n      tag_310\n      jump\t// in\n    tag_451:\n        /* \"#utility.yul\":9994:10057   */\n      swap8\n      pop\n        /* \"#utility.yul\":9950:10067   */\n      pop\n        /* \"#utility.yul\":10106:10108   */\n      0x20\n        /* \"#utility.yul\":10132:10185   */\n      tag_452\n        /* \"#utility.yul\":10177:10184   */\n      dup11\n        /* \"#utility.yul\":10168:10174   */\n      dup3\n        /* \"#utility.yul\":10157:10166   */\n      dup12\n        /* \"#utility.yul\":10153:10175   */\n      add\n        /* \"#utility.yul\":10132:10185   */\n      tag_310\n      jump\t// in\n    tag_452:\n        /* \"#utility.yul\":10122:10185   */\n      swap7\n      pop\n        /* \"#utility.yul\":10077:10195   */\n      pop\n        /* \"#utility.yul\":10234:10236   */\n      0x40\n        /* \"#utility.yul\":10260:10313   */\n      tag_453\n        /* \"#utility.yul\":10305:10312   */\n      dup11\n        /* \"#utility.yul\":10296:10302   */\n      dup3\n        /* \"#utility.yul\":10285:10294   */\n      dup12\n        /* \"#utility.yul\":10281:10303   */\n      add\n        /* \"#utility.yul\":10260:10313   */\n      tag_313\n      jump\t// in\n    tag_453:\n        /* \"#utility.yul\":10250:10313   */\n      swap6\n      pop\n        /* \"#utility.yul\":10205:10323   */\n      pop\n        /* \"#utility.yul\":10362:10364   */\n      0x60\n        /* \"#utility.yul\":10388:10441   */\n      tag_454\n        /* \"#utility.yul\":10433:10440   */\n      dup11\n        /* \"#utility.yul\":10424:10430   */\n      dup3\n        /* \"#utility.yul\":10413:10422   */\n      dup12\n        /* \"#utility.yul\":10409:10431   */\n      add\n        /* \"#utility.yul\":10388:10441   */\n      tag_313\n      jump\t// in\n    tag_454:\n        /* \"#utility.yul\":10378:10441   */\n      swap5\n      pop\n        /* \"#utility.yul\":10333:10451   */\n      pop\n        /* \"#utility.yul\":10490:10493   */\n      0x80\n        /* \"#utility.yul\":10517:10568   */\n      tag_455\n        /* \"#utility.yul\":10560:10567   */\n      dup11\n        /* \"#utility.yul\":10551:10557   */\n      dup3\n        /* \"#utility.yul\":10540:10549   */\n      dup12\n        /* \"#utility.yul\":10536:10558   */\n      add\n        /* \"#utility.yul\":10517:10568   */\n      tag_332\n      jump\t// in\n    tag_455:\n        /* \"#utility.yul\":10507:10568   */\n      swap4\n      pop\n        /* \"#utility.yul\":10461:10578   */\n      pop\n        /* \"#utility.yul\":10617:10620   */\n      0xa0\n        /* \"#utility.yul\":10644:10697   */\n      tag_456\n        /* \"#utility.yul\":10689:10696   */\n      dup11\n        /* \"#utility.yul\":10680:10686   */\n      dup3\n        /* \"#utility.yul\":10669:10678   */\n      dup12\n        /* \"#utility.yul\":10665:10687   */\n      add\n        /* \"#utility.yul\":10644:10697   */\n      tag_334\n      jump\t// in\n    tag_456:\n        /* \"#utility.yul\":10634:10697   */\n      swap3\n      pop\n        /* \"#utility.yul\":10588:10707   */\n      pop\n        /* \"#utility.yul\":10746:10749   */\n      0xc0\n        /* \"#utility.yul\":10773:10826   */\n      tag_457\n        /* \"#utility.yul\":10818:10825   */\n      dup11\n        /* \"#utility.yul\":10809:10815   */\n      dup3\n        /* \"#utility.yul\":10798:10807   */\n      dup12\n        /* \"#utility.yul\":10794:10816   */\n      add\n        /* \"#utility.yul\":10773:10826   */\n      tag_334\n      jump\t// in\n    tag_457:\n        /* \"#utility.yul\":10763:10826   */\n      swap2\n      pop\n        /* \"#utility.yul\":10717:10836   */\n      pop\n        /* \"#utility.yul\":9644:10843   */\n      swap3\n      swap6\n      swap9\n      swap2\n      swap5\n      swap8\n      pop\n      swap3\n      swap6\n      pop\n      jump\t// out\n        /* \"#utility.yul\":10849:11323   */\n    tag_85:\n        /* \"#utility.yul\":10917:10923   */\n      0x00\n        /* \"#utility.yul\":10925:10931   */\n      dup1\n        /* \"#utility.yul\":10974:10976   */\n      0x40\n        /* \"#utility.yul\":10962:10971   */\n      dup4\n        /* \"#utility.yul\":10953:10960   */\n      dup6\n        /* \"#utility.yul\":10949:10972   */\n      sub\n        /* \"#utility.yul\":10945:10977   */\n      slt\n        /* \"#utility.yul\":10942:11061   */\n      iszero\n      tag_459\n      jumpi\n        /* \"#utility.yul\":10980:11059   */\n      tag_460\n      tag_305\n      jump\t// in\n    tag_460:\n        /* \"#utility.yul\":10942:11061   */\n    tag_459:\n        /* \"#utility.yul\":11100:11101   */\n      0x00\n        /* \"#utility.yul\":11125:11178   */\n      tag_461\n        /* \"#utility.yul\":11170:11177   */\n      dup6\n        /* \"#utility.yul\":11161:11167   */\n      dup3\n        /* \"#utility.yul\":11150:11159   */\n      dup7\n        /* \"#utility.yul\":11146:11168   */\n      add\n        /* \"#utility.yul\":11125:11178   */\n      tag_310\n      jump\t// in\n    tag_461:\n        /* \"#utility.yul\":11115:11178   */\n      swap3\n      pop\n        /* \"#utility.yul\":11071:11188   */\n      pop\n        /* \"#utility.yul\":11227:11229   */\n      0x20\n        /* \"#utility.yul\":11253:11306   */\n      tag_462\n        /* \"#utility.yul\":11298:11305   */\n      dup6\n        /* \"#utility.yul\":11289:11295   */\n      dup3\n        /* \"#utility.yul\":11278:11287   */\n      dup7\n        /* \"#utility.yul\":11274:11296   */\n      add\n        /* \"#utility.yul\":11253:11306   */\n      tag_310\n      jump\t// in\n    tag_462:\n        /* \"#utility.yul\":11243:11306   */\n      swap2\n      pop\n        /* \"#utility.yul\":11198:11316   */\n      pop\n        /* \"#utility.yul\":10849:11323   */\n      swap3\n      pop\n      swap3\n      swap1\n      pop\n      jump\t// out\n        /* \"#utility.yul\":11329:11509   */\n    tag_335:\n        /* \"#utility.yul\":11377:11454   */\n      0x4e487b7100000000000000000000000000000000000000000000000000000000\n        /* \"#utility.yul\":11374:11375   */\n      0x00\n        /* \"#utility.yul\":11367:11455   */\n      mstore\n        /* \"#utility.yul\":11474:11478   */\n      0x22\n        /* \"#utility.yul\":11471:11472   */\n      0x04\n        /* \"#utility.yul\":11464:11479   */\n      mstore\n        /* \"#utility.yul\":11498:11502   */\n      0x24\n        /* \"#utility.yul\":11495:11496   */\n      0x00\n        /* \"#utility.yul\":11488:11503   */\n      revert\n        /* \"#utility.yul\":11515:11835   */\n    tag_93:\n        /* \"#utility.yul\":11559:11565   */\n      0x00\n        /* \"#utility.yul\":11596:11597   */\n      0x02\n        /* \"#utility.yul\":11590:11594   */\n      dup3\n        /* \"#utility.yul\":11586:11598   */\n      div\n        /* \"#utility.yul\":11576:11598   */\n      swap1\n      pop\n        /* \"#utility.yul\":11643:11644   */\n      0x01\n        /* \"#utility.yul\":11637:11641   */\n      dup3\n        /* \"#utility.yul\":11633:11645   */\n      and\n        /* \"#utility.yul\":11664:11682   */\n      dup1\n        /* \"#utility.yul\":11654:11735   */\n      tag_465\n      jumpi\n        /* \"#utility.yul\":11720:11724   */\n      0x7f\n        /* \"#utility.yul\":11712:11718   */\n      dup3\n        /* \"#utility.yul\":11708:11725   */\n      and\n        /* \"#utility.yul\":11698:11725   */\n      swap2\n      pop\n        /* \"#utility.yul\":11654:11735   */\n    tag_465:\n        /* \"#utility.yul\":11782:11784   */\n      0x20\n        /* \"#utility.yul\":11774:11780   */\n      dup3\n        /* \"#utility.yul\":11771:11785   */\n      lt\n        /* \"#utility.yul\":11751:11769   */\n      dup2\n        /* \"#utility.yul\":11748:11786   */\n      sub\n        /* \"#utility.yul\":11745:11829   */\n      tag_466\n      jumpi\n        /* \"#utility.yul\":11801:11819   */\n      tag_467\n      tag_335\n      jump\t// in\n    tag_467:\n        /* \"#utility.yul\":11745:11829   */\n    tag_466:\n        /* \"#utility.yul\":11566:11835   */\n      pop\n        /* \"#utility.yul\":11515:11835   */\n      swap2\n      swap1\n      pop\n      jump\t// out\n        /* \"#utility.yul\":11841:12021   */\n    tag_336:\n        /* \"#utility.yul\":11889:11966   */\n      0x4e487b7100000000000000000000000000000000000000000000000000000000\n        /* \"#utility.yul\":11886:11887   */\n      0x00\n        /* \"#utility.yul\":11879:11967   */\n      mstore\n        /* \"#utility.yul\":11986:11990   */\n      0x11\n        /* \"#utility.yul\":11983:11984   */\n      0x04\n        /* \"#utility.yul\":11976:11991   */\n      mstore\n        /* \"#utility.yul\":12010:12014   */\n      0x24\n        /* \"#utility.yul\":12007:12008   */\n      0x00\n        /* \"#utility.yul\":12000:12015   */\n      revert\n        /* \"#utility.yul\":12027:12129   */\n    tag_337:\n        /* \"#utility.yul\":12069:12077   */\n      0x00\n        /* \"#utility.yul\":12116:12121   */\n      dup2\n        /* \"#utility.yul\":12113:12114   */\n      0x01\n        /* \"#utility.yul\":12109:12122   */\n      shr\n        /* \"#utility.yul\":12088:12122   */\n      swap1\n      pop\n        /* \"#utility.yul\":12027:12129   */\n      swap2\n      swap1\n      pop\n      jump\t// out\n        /* \"#utility.yul\":12135:12983   */\n    tag_338:\n        /* \"#utility.yul\":12196:12201   */\n      0x00\n        /* \"#utility.yul\":12203:12207   */\n      dup1\n        /* \"#utility.yul\":12227:12233   */\n      dup3\n        /* \"#utility.yul\":12218:12233   */\n      swap2\n      pop\n        /* \"#utility.yul\":12251:12256   */\n      dup4\n        /* \"#utility.yul\":12242:12256   */\n      swap1\n      pop\n        /* \"#utility.yul\":12265:12977   */\n    tag_471:\n        /* \"#utility.yul\":12286:12287   */\n      0x01\n        /* \"#utility.yul\":12276:12284   */\n      dup6\n        /* \"#utility.yul\":12273:12288   */\n      gt\n        /* \"#utility.yul\":12265:12977   */\n      iszero\n      tag_473\n      jumpi\n        /* \"#utility.yul\":12381:12385   */\n      dup1\n        /* \"#utility.yul\":12376:12379   */\n      dup7\n        /* \"#utility.yul\":12372:12386   */\n      div\n        /* \"#utility.yul\":12366:12370   */\n      dup2\n        /* \"#utility.yul\":12363:12387   */\n      gt\n        /* \"#utility.yul\":12360:12410   */\n      iszero\n      tag_474\n      jumpi\n        /* \"#utility.yul\":12390:12408   */\n      tag_475\n      tag_336\n      jump\t// in\n    tag_475:\n        /* \"#utility.yul\":12360:12410   */\n    tag_474:\n        /* \"#utility.yul\":12440:12441   */\n      0x01\n        /* \"#utility.yul\":12430:12438   */\n      dup6\n        /* \"#utility.yul\":12426:12442   */\n      and\n        /* \"#utility.yul\":12423:12874   */\n      iszero\n      tag_476\n      jumpi\n        /* \"#utility.yul\":12855:12859   */\n      dup1\n        /* \"#utility.yul\":12848:12853   */\n      dup3\n        /* \"#utility.yul\":12844:12860   */\n      mul\n        /* \"#utility.yul\":12835:12860   */\n      swap2\n      pop\n        /* \"#utility.yul\":12423:12874   */\n    tag_476:\n        /* \"#utility.yul\":12905:12909   */\n      dup1\n        /* \"#utility.yul\":12899:12903   */\n      dup2\n        /* \"#utility.yul\":12895:12910   */\n      mul\n        /* \"#utility.yul\":12887:12910   */\n      swap1\n      pop\n        /* \"#utility.yul\":12935:12967   */\n      tag_477\n        /* \"#utility.yul\":12958:12966   */\n      dup6\n        /* \"#utility.yul\":12935:12967   */\n      tag_337\n      jump\t// in\n    tag_477:\n        /* \"#utility.yul\":12923:12967   */\n      swap5\n      pop\n        /* \"#utility.yul\":12265:12977   */\n      jump(tag_471)\n    tag_473:\n        /* \"#utility.yul\":12135:12983   */\n      swap5\n      pop\n      swap5\n      swap3\n      pop\n      pop\n      pop\n      jump\t// out\n        /* \"#utility.yul\":12989:14062   */\n    tag_339:\n        /* \"#utility.yul\":13043:13048   */\n      0x00\n        /* \"#utility.yul\":13234:13242   */\n      dup3\n        /* \"#utility.yul\":13224:13264   */\n      tag_479\n      jumpi\n        /* \"#utility.yul\":13255:13256   */\n      0x01\n        /* \"#utility.yul\":13246:13256   */\n      swap1\n      pop\n        /* \"#utility.yul\":13257:13262   */\n      jump(tag_478)\n        /* \"#utility.yul\":13224:13264   */\n    tag_479:\n        /* \"#utility.yul\":13283:13287   */\n      dup2\n        /* \"#utility.yul\":13273:13309   */\n      tag_480\n      jumpi\n        /* \"#utility.yul\":13300:13301   */\n      0x00\n        /* \"#utility.yul\":13291:13301   */\n      swap1\n      pop\n        /* \"#utility.yul\":13302:13307   */\n      jump(tag_478)\n        /* \"#utility.yul\":13273:13309   */\n    tag_480:\n        /* \"#utility.yul\":13369:13373   */\n      dup2\n        /* \"#utility.yul\":13417:13418   */\n      0x01\n        /* \"#utility.yul\":13412:13439   */\n      dup2\n      eq\n      tag_482\n      jumpi\n        /* \"#utility.yul\":13453:13454   */\n      0x02\n        /* \"#utility.yul\":13448:13639   */\n      dup2\n      eq\n      tag_483\n      jumpi\n        /* \"#utility.yul\":13362:13639   */\n      jump(tag_481)\n        /* \"#utility.yul\":13412:13439   */\n    tag_482:\n        /* \"#utility.yul\":13430:13431   */\n      0x01\n        /* \"#utility.yul\":13421:13431   */\n      swap2\n      pop\n        /* \"#utility.yul\":13432:13437   */\n      pop\n      jump(tag_478)\n        /* \"#utility.yul\":13448:13639   */\n    tag_483:\n        /* \"#utility.yul\":13493:13496   */\n      0xff\n        /* \"#utility.yul\":13483:13491   */\n      dup5\n        /* \"#utility.yul\":13480:13497   */\n      gt\n        /* \"#utility.yul\":13477:13520   */\n      iszero\n      tag_484\n      jumpi\n        /* \"#utility.yul\":13500:13518   */\n      tag_485\n      tag_336\n      jump\t// in\n    tag_485:\n        /* \"#utility.yul\":13477:13520   */\n    tag_484:\n        /* \"#utility.yul\":13549:13557   */\n      dup4\n        /* \"#utility.yul\":13546:13547   */\n      0x02\n        /* \"#utility.yul\":13542:13558   */\n      exp\n        /* \"#utility.yul\":13533:13558   */\n      swap2\n      pop\n        /* \"#utility.yul\":13584:13587   */\n      dup5\n        /* \"#utility.yul\":13577:13582   */\n      dup3\n        /* \"#utility.yul\":13574:13588   */\n      gt\n        /* \"#utility.yul\":13571:13611   */\n      iszero\n      tag_486\n      jumpi\n        /* \"#utility.yul\":13591:13609   */\n      tag_487\n      tag_336\n      jump\t// in\n    tag_487:\n        /* \"#utility.yul\":13571:13611   */\n    tag_486:\n        /* \"#utility.yul\":13624:13629   */\n      pop\n      jump(tag_478)\n        /* \"#utility.yul\":13362:13639   */\n    tag_481:\n      pop\n        /* \"#utility.yul\":13748:13750   */\n      0x20\n        /* \"#utility.yul\":13738:13746   */\n      dup4\n        /* \"#utility.yul\":13735:13751   */\n      lt\n        /* \"#utility.yul\":13729:13732   */\n      0x0133\n        /* \"#utility.yul\":13723:13727   */\n      dup4\n        /* \"#utility.yul\":13720:13733   */\n      lt\n        /* \"#utility.yul\":13716:13752   */\n      and\n        /* \"#utility.yul\":13698:13700   */\n      0x4e\n        /* \"#utility.yul\":13688:13696   */\n      dup5\n        /* \"#utility.yul\":13685:13701   */\n      lt\n        /* \"#utility.yul\":13680:13682   */\n      0x0b\n        /* \"#utility.yul\":13674:13678   */\n      dup5\n        /* \"#utility.yul\":13671:13683   */\n      lt\n        /* \"#utility.yul\":13667:13702   */\n      and\n        /* \"#utility.yul\":13651:13762   */\n      or\n        /* \"#utility.yul\":13648:13894   */\n      iszero\n      tag_488\n      jumpi\n        /* \"#utility.yul\":13804:13812   */\n      dup3\n        /* \"#utility.yul\":13798:13802   */\n      dup3\n        /* \"#utility.yul\":13794:13813   */\n      exp\n        /* \"#utility.yul\":13785:13813   */\n      swap1\n      pop\n        /* \"#utility.yul\":13839:13842   */\n      dup4\n        /* \"#utility.yul\":13832:13837   */\n      dup2\n        /* \"#utility.yul\":13829:13843   */\n      gt\n        /* \"#utility.yul\":13826:13866   */\n      iszero\n      tag_489\n      jumpi\n        /* \"#utility.yul\":13846:13864   */\n      tag_490\n      tag_336\n      jump\t// in\n    tag_490:\n        /* \"#utility.yul\":13826:13866   */\n    tag_489:\n        /* \"#utility.yul\":13879:13884   */\n      jump(tag_478)\n        /* \"#utility.yul\":13648:13894   */\n    tag_488:\n        /* \"#utility.yul\":13919:13961   */\n      tag_491\n        /* \"#utility.yul\":13957:13960   */\n      dup5\n        /* \"#utility.yul\":13947:13955   */\n      dup5\n        /* \"#utility.yul\":13941:13945   */\n      dup5\n        /* \"#utility.yul\":13938:13939   */\n      0x01\n        /* \"#utility.yul\":13919:13961   */\n      tag_338\n      jump\t// in\n    tag_491:\n        /* \"#utility.yul\":13904:13961   */\n      swap3\n      pop\n      swap1\n      pop\n        /* \"#utility.yul\":13993:13997   */\n      dup2\n        /* \"#utility.yul\":13988:13991   */\n      dup5\n        /* \"#utility.yul\":13984:13998   */\n      div\n        /* \"#utility.yul\":13977:13982   */\n      dup2\n        /* \"#utility.yul\":13974:13999   */\n      gt\n        /* \"#utility.yul\":13971:14022   */\n      iszero\n      tag_492\n      jumpi\n        /* \"#utility.yul\":14002:14020   */\n      tag_493\n      tag_336\n      jump\t// in\n    tag_493:\n        /* \"#utility.yul\":13971:14022   */\n    tag_492:\n        /* \"#utility.yul\":14051:14055   */\n      dup2\n        /* \"#utility.yul\":14044:14049   */\n      dup2\n        /* \"#utility.yul\":14040:14056   */\n      mul\n        /* \"#utility.yul\":14031:14056   */\n      swap1\n      pop\n        /* \"#utility.yul\":12989:14062   */\n    tag_478:\n      swap4\n      swap3\n      pop\n      pop\n      pop\n      jump\t// out\n        /* \"#utility.yul\":14068:14353   */\n    tag_121:\n        /* \"#utility.yul\":14128:14133   */\n      0x00\n        /* \"#utility.yul\":14152:14175   */\n      tag_495\n        /* \"#utility.yul\":14170:14174   */\n      dup3\n        /* \"#utility.yul\":14152:14175   */\n      tag_311\n      jump\t// in\n    tag_495:\n        /* \"#utility.yul\":14144:14175   */\n      swap2\n      pop\n        /* \"#utility.yul\":14196:14223   */\n      tag_496\n        /* \"#utility.yul\":14214:14222   */\n      dup4\n        /* \"#utility.yul\":14196:14223   */\n      tag_311\n      jump\t// in\n    tag_496:\n        /* \"#utility.yul\":14184:14223   */\n      swap3\n      pop\n        /* \"#utility.yul\":14242:14346   */\n      tag_497\n        /* \"#utility.yul\":14279:14345   */\n      0xffffffffffffffffffffffffffffffffffffffffffffffffffffffffffffffff\n        /* \"#utility.yul\":14269:14277   */\n      dup5\n        /* \"#utility.yul\":14263:14267   */\n      dup5\n        /* \"#utility.yul\":14242:14346   */\n      tag_339\n      jump\t// in\n    tag_497:\n        /* \"#utility.yul\":14233:14346   */\n      swap1\n      pop\n        /* \"#utility.yul\":14068:14353   */\n      swap3\n      swap2\n      pop\n      pop\n      jump\t// out\n        /* \"#utility.yul\":14359:14769   */\n    tag_123:\n        /* \"#utility.yul\":14399:14406   */\n      0x00\n        /* \"#utility.yul\":14422:14442   */\n      tag_499\n        /* \"#utility.yul\":14440:14441   */\n      dup3\n        /* \"#utility.yul\":14422:14442   */\n      tag_311\n      jump\t// in\n    tag_499:\n        /* \"#utility.yul\":14417:14442   */\n      swap2\n      pop\n        /* \"#utility.yul\":14456:14476   */\n      tag_500\n        /* \"#utility.yul\":14474:14475   */\n      dup4\n        /* \"#utility.yul\":14456:14476   */\n      tag_311\n      jump\t// in\n    tag_500:\n        /* \"#utility.yul\":14451:14476   */\n      swap3\n      pop\n        /* \"#utility.yul\":14511:14512   */\n      dup3\n        /* \"#utility.yul\":14508:14509   */\n      dup3\n        /* \"#utility.yul\":14504:14513   */\n      mul\n        /* \"#utility.yul\":14533:14563   */\n      tag_501\n        /* \"#utility.yul\":14551:14562   */\n      dup2\n        /* \"#utility.yul\":14533:14563   */\n      tag_311\n      jump\t// in\n    tag_501:\n        /* \"#utility.yul\":14522:14563   */\n      swap2\n      pop\n        /* \"#utility.yul\":14712:14713   */\n      dup3\n        /* \"#utility.yul\":14703:14710   */\n      dup3\n        /* \"#utility.yul\":14699:14714   */\n      div\n        /* \"#utility.yul\":14696:14697   */\n      dup5\n        /* \"#utility.yul\":14693:14715   */\n      eq\n        /* \"#utility.yul\":14673:14674   */\n      dup4\n        /* \"#utility.yul\":14666:14675   */\n      iszero\n        /* \"#utility.yul\":14646:14729   */\n      or\n        /* \"#utility.yul\":14623:14762   */\n      tag_502\n      jumpi\n        /* \"#utility.yul\":14742:14760   */\n      tag_503\n      tag_336\n      jump\t// in\n    tag_503:\n        /* \"#utility.yul\":14623:14762   */\n    tag_502:\n        /* \"#utility.yul\":14407:14769   */\n      pop\n        /* \"#utility.yul\":14359:14769   */\n      swap3\n      swap2\n      pop\n      pop\n      jump\t// out\n        /* \"#utility.yul\":14775:14955   */\n    tag_141:\n        /* \"#utility.yul\":14823:14900   */\n      0x4e487b7100000000000000000000000000000000000000000000000000000000\n        /* \"#utility.yul\":14820:14821   */\n      0x00\n        /* \"#utility.yul\":14813:14901   */\n      mstore\n        /* \"#utility.yul\":14920:14924   */\n      0x41\n        /* \"#utility.yul\":14917:14918   */\n      0x04\n        /* \"#utility.yul\":14910:14925   */\n      mstore\n        /* \"#utility.yul\":14944:14948   */\n      0x24\n        /* \"#utility.yul\":14941:14942   */\n      0x00\n        /* \"#utility.yul\":14934:14949   */\n      revert\n        /* \"#utility.yul\":14961:15736   */\n    tag_159:\n        /* \"#utility.yul\":15194:15198   */\n      0x00\n        /* \"#utility.yul\":15232:15235   */\n      0xc0\n        /* \"#utility.yul\":15221:15230   */\n      dup3\n        /* \"#utility.yul\":15217:15236   */\n      add\n        /* \"#utility.yul\":15209:15236   */\n      swap1\n      pop\n        /* \"#utility.yul\":15246:15317   */\n      tag_506\n        /* \"#utility.yul\":15314:15315   */\n      0x00\n        /* \"#utility.yul\":15303:15312   */\n      dup4\n        /* \"#utility.yul\":15299:15316   */\n      add\n        /* \"#utility.yul\":15290:15296   */\n      dup10\n        /* \"#utility.yul\":15246:15317   */\n      tag_320\n      jump\t// in\n    tag_506:\n        /* \"#utility.yul\":15327:15399   */\n      tag_507\n        /* \"#utility.yul\":15395:15397   */\n      0x20\n        /* \"#utility.yul\":15384:15393   */\n      dup4\n        /* \"#utility.yul\":15380:15398   */\n      add\n        /* \"#utility.yul\":15371:15377   */\n      dup9\n        /* \"#utility.yul\":15327:15399   */\n      tag_323\n      jump\t// in\n    tag_507:\n        /* \"#utility.yul\":15409:15481   */\n      tag_508\n        /* \"#utility.yul\":15477:15479   */\n      0x40\n        /* \"#utility.yul\":15466:15475   */\n      dup4\n        /* \"#utility.yul\":15462:15480   */\n      add\n        /* \"#utility.yul\":15453:15459   */\n      dup8\n        /* \"#utility.yul\":15409:15481   */\n      tag_323\n      jump\t// in\n    tag_508:\n        /* \"#utility.yul\":15491:15563   */\n      tag_509\n        /* \"#utility.yul\":15559:15561   */\n      0x60\n        /* \"#utility.yul\":15548:15557   */\n      dup4\n        /* \"#utility.yul\":15544:15562   */\n      add\n        /* \"#utility.yul\":15535:15541   */\n      dup7\n        /* \"#utility.yul\":15491:15563   */\n      tag_316\n      jump\t// in\n    tag_509:\n        /* \"#utility.yul\":15573:15646   */\n      tag_510\n        /* \"#utility.yul\":15641:15644   */\n      0x80\n        /* \"#utility.yul\":15630:15639   */\n      dup4\n        /* \"#utility.yul\":15626:15645   */\n      add\n        /* \"#utility.yul\":15617:15623   */\n      dup6\n        /* \"#utility.yul\":15573:15646   */\n      tag_316\n      jump\t// in\n    tag_510:\n        /* \"#utility.yul\":15656:15729   */\n      tag_511\n        /* \"#utility.yul\":15724:15727   */\n      0xa0\n        /* \"#utility.yul\":15713:15722   */\n      dup4\n        /* \"#utility.yul\":15709:15728   */\n      add\n        /* \"#utility.yul\":15700:15706   */\n      dup5\n        /* \"#utility.yul\":15656:15729   */\n      tag_316\n      jump\t// in\n    tag_511:\n        /* \"#utility.yul\":14961:15736   */\n      swap8\n      swap7\n      pop\n      pop\n      pop\n      pop\n      pop\n      pop\n      pop\n      jump\t// out\n        /* \"#utility.yul\":15742:16074   */\n    tag_166:\n        /* \"#utility.yul\":15863:15867   */\n      0x00\n        /* \"#utility.yul\":15901:15903   */\n      0x40\n        /* \"#utility.yul\":15890:15899   */\n      dup3\n        /* \"#utility.yul\":15886:15904   */\n      add\n        /* \"#utility.yul\":15878:15904   */\n      swap1\n      pop\n        /* \"#utility.yul\":15914:15985   */\n      tag_513\n        /* \"#utility.yul\":15982:15983   */\n      0x00\n        /* \"#utility.yul\":15971:15980   */\n      dup4\n        /* \"#utility.yul\":15967:15984   */\n      add\n        /* \"#utility.yul\":15958:15964   */\n      dup6\n        /* \"#utility.yul\":15914:15985   */\n      tag_323\n      jump\t// in\n    tag_513:\n        /* \"#utility.yul\":15995:16067   */\n      tag_514\n        /* \"#utility.yul\":16063:16065   */\n      0x20\n        /* \"#utility.yul\":16052:16061   */\n      dup4\n        /* \"#utility.yul\":16048:16066   */\n      add\n        /* \"#utility.yul\":16039:16045   */\n      dup5\n        /* \"#utility.yul\":15995:16067   */\n      tag_323\n      jump\t// in\n    tag_514:\n        /* \"#utility.yul\":15742:16074   */\n      swap4\n      swap3\n      pop\n      pop\n      pop\n      jump\t// out\n        /* \"#utility.yul\":16080:16522   */\n    tag_184:\n        /* \"#utility.yul\":16229:16233   */\n      0x00\n        /* \"#utility.yul\":16267:16269   */\n      0x60\n        /* \"#utility.yul\":16256:16265   */\n      dup3\n        /* \"#utility.yul\":16252:16270   */\n      add\n        /* \"#utility.yul\":16244:16270   */\n      swap1\n      pop\n        /* \"#utility.yul\":16280:16351   */\n      tag_516\n        /* \"#utility.yul\":16348:16349   */\n      0x00\n        /* \"#utility.yul\":16337:16346   */\n      dup4\n        /* \"#utility.yul\":16333:16350   */\n      add\n        /* \"#utility.yul\":16324:16330   */\n      dup7\n        /* \"#utility.yul\":16280:16351   */\n      tag_323\n      jump\t// in\n    tag_516:\n        /* \"#utility.yul\":16361:16433   */\n      tag_517\n        /* \"#utility.yul\":16429:16431   */\n      0x20\n        /* \"#utility.yul\":16418:16427   */\n      dup4\n        /* \"#utility.yul\":16414:16432   */\n      add\n        /* \"#utility.yul\":16405:16411   */\n      dup6\n        /* \"#utility.yul\":16361:16433   */\n      tag_316\n      jump\t// in\n    tag_517:\n        /* \"#utility.yul\":16443:16515   */\n      tag_518\n        /* \"#utility.yul\":16511:16513   */\n      0x40\n        /* \"#utility.yul\":16500:16509   */\n      dup4\n        /* \"#utility.yul\":16496:16514   */\n      add\n        /* \"#utility.yul\":16487:16493   */\n      dup5\n        /* \"#utility.yul\":16443:16515   */\n      tag_316\n      jump\t// in\n    tag_518:\n        /* \"#utility.yul\":16080:16522   */\n      swap5\n      swap4\n      pop\n      pop\n      pop\n      pop\n      jump\t// out\n        /* \"#utility.yul\":16528:16719   */\n    tag_236:\n        /* \"#utility.yul\":16568:16571   */\n      0x00\n        /* \"#utility.yul\":16587:16607   */\n      tag_520\n        /* \"#utility.yul\":16605:16606   */\n      dup3\n        /* \"#utility.yul\":16587:16607   */\n      tag_311\n      jump\t// in\n    tag_520:\n        /* \"#utility.yul\":16582:16607   */\n      swap2\n      pop\n        /* \"#utility.yul\":16621:16641   */\n      tag_521\n        /* \"#utility.yul\":16639:16640   */\n      dup4\n        /* \"#utility.yul\":16621:16641   */\n      tag_311\n      jump\t// in\n    tag_521:\n        /* \"#utility.yul\":16616:16641   */\n      swap3\n      pop\n        /* \"#utility.yul\":16664:16665   */\n      dup3\n        /* \"#utility.yul\":16661:16662   */\n      dup3\n        /* \"#utility.yul\":16657:16666   */\n      add\n        /* \"#utility.yul\":16650:16666   */\n      swap1\n      pop\n        /* \"#utility.yul\":16685:16688   */\n      dup1\n        /* \"#utility.yul\":16682:16683   */\n      dup3\n        /* \"#utility.yul\":16679:16689   */\n      gt\n        /* \"#utility.yul\":16676:16712   */\n      iszero\n      tag_522\n      jumpi\n        /* \"#utility.yul\":16692:16710   */\n      tag_523\n      tag_336\n      jump\t// in\n    tag_523:\n        /* \"#utility.yul\":16676:16712   */\n    tag_522:\n        /* \"#utility.yul\":16528:16719   */\n      swap3\n      swap2\n      pop\n      pop\n      jump\t// out\n        /* \"#utility.yul\":16725:17389   */\n    tag_245:\n        /* \"#utility.yul\":16930:16934   */\n      0x00\n        /* \"#utility.yul\":16968:16971   */\n      0xa0\n        /* \"#utility.yul\":16957:16966   */\n      dup3\n        /* \"#utility.yul\":16953:16972   */\n      add\n        /* \"#utility.yul\":16945:16972   */\n      swap1\n      pop\n        /* \"#utility.yul\":16982:17053   */\n      tag_525\n        /* \"#utility.yul\":17050:17051   */\n      0x00\n        /* \"#utility.yul\":17039:17048   */\n      dup4\n        /* \"#utility.yul\":17035:17052   */\n      add\n        /* \"#utility.yul\":17026:17032   */\n      dup9\n        /* \"#utility.yul\":16982:17053   */\n      tag_320\n      jump\t// in\n    tag_525:\n        /* \"#utility.yul\":17063:17135   */\n      tag_526\n        /* \"#utility.yul\":17131:17133   */\n      0x20\n        /* \"#utility.yul\":17120:17129   */\n      dup4\n        /* \"#utility.yul\":17116:17134   */\n      add\n        /* \"#utility.yul\":17107:17113   */\n      dup8\n        /* \"#utility.yul\":17063:17135   */\n      tag_320\n      jump\t// in\n    tag_526:\n        /* \"#utility.yul\":17145:17217   */\n      tag_527\n        /* \"#utility.yul\":17213:17215   */\n      0x40\n        /* \"#utility.yul\":17202:17211   */\n      dup4\n        /* \"#utility.yul\":17198:17216   */\n      add\n        /* \"#utility.yul\":17189:17195   */\n      dup7\n        /* \"#utility.yul\":17145:17217   */\n      tag_320\n      jump\t// in\n    tag_527:\n        /* \"#utility.yul\":17227:17299   */\n      tag_528\n        /* \"#utility.yul\":17295:17297   */\n      0x60\n        /* \"#utility.yul\":17284:17293   */\n      dup4\n        /* \"#utility.yul\":17280:17298   */\n      add\n        /* \"#utility.yul\":17271:17277   */\n      dup6\n        /* \"#utility.yul\":17227:17299   */\n      tag_316\n      jump\t// in\n    tag_528:\n        /* \"#utility.yul\":17309:17382   */\n      tag_529\n        /* \"#utility.yul\":17377:17380   */\n      0x80\n        /* \"#utility.yul\":17366:17375   */\n      dup4\n        /* \"#utility.yul\":17362:17381   */\n      add\n        /* \"#utility.yul\":17353:17359   */\n      dup5\n        /* \"#utility.yul\":17309:17382   */\n      tag_323\n      jump\t// in\n    tag_529:\n        /* \"#utility.yul\":16725:17389   */\n      swap7\n      swap6\n      pop\n      pop\n      pop\n      pop\n      pop\n      pop\n      jump\t// out\n        /* \"#utility.yul\":17395:17940   */\n    tag_260:\n        /* \"#utility.yul\":17568:17572   */\n      0x00\n        /* \"#utility.yul\":17606:17609   */\n      0x80\n        /* \"#utility.yul\":17595:17604   */\n      dup3\n        /* \"#utility.yul\":17591:17610   */\n      add\n        /* \"#utility.yul\":17583:17610   */\n      swap1\n      pop\n        /* \"#utility.yul\":17620:17691   */\n      tag_531\n        /* \"#utility.yul\":17688:17689   */\n      0x00\n        /* \"#utility.yul\":17677:17686   */\n      dup4\n        /* \"#utility.yul\":17673:17690   */\n      add\n        /* \"#utility.yul\":17664:17670   */\n      dup8\n        /* \"#utility.yul\":17620:17691   */\n      tag_320\n      jump\t// in\n    tag_531:\n        /* \"#utility.yul\":17701:17769   */\n      tag_532\n        /* \"#utility.yul\":17765:17767   */\n      0x20\n        /* \"#utility.yul\":17754:17763   */\n      dup4\n        /* \"#utility.yul\":17750:17768   */\n      add\n        /* \"#utility.yul\":17741:17747   */\n      dup7\n        /* \"#utility.yul\":17701:17769   */\n      tag_318\n      jump\t// in\n    tag_532:\n        /* \"#utility.yul\":17779:17851   */\n      tag_533\n        /* \"#utility.yul\":17847:17849   */\n      0x40\n        /* \"#utility.yul\":17836:17845   */\n      dup4\n        /* \"#utility.yul\":17832:17850   */\n      add\n        /* \"#utility.yul\":17823:17829   */\n      dup6\n        /* \"#utility.yul\":17779:17851   */\n      tag_320\n      jump\t// in\n    tag_533:\n        /* \"#utility.yul\":17861:17933   */\n      tag_534\n        /* \"#utility.yul\":17929:17931   */\n      0x60\n        /* \"#utility.yul\":17918:17927   */\n      dup4\n        /* \"#utility.yul\":17914:17932   */\n      add\n        /* \"#utility.yul\":17905:17911   */\n      dup5\n        /* \"#utility.yul\":17861:17933   */\n      tag_320\n      jump\t// in\n    tag_534:\n        /* \"#utility.yul\":17395:17940   */\n      swap6\n      swap5\n      pop\n      pop\n      pop\n      pop\n      pop\n      jump\t// out\n        /* \"#utility.yul\":17946:18126   */\n    tag_267:\n        /* \"#utility.yul\":17994:18071   */\n      0x4e487b7100000000000000000000000000000000000000000000000000000000\n        /* \"#utility.yul\":17991:17992   */\n      0x00\n        /* \"#utility.yul\":17984:18072   */\n      mstore\n        /* \"#utility.yul\":18091:18095   */\n      0x21\n        /* \"#utility.yul\":18088:18089   */\n      0x04\n        /* \"#utility.yul\":18081:18096   */\n      mstore\n        /* \"#utility.yul\":18115:18119   */\n      0x24\n        /* \"#utility.yul\":18112:18113   */\n      0x00\n        /* \"#utility.yul\":18105:18120   */\n      revert\n\n    auxdata: 0xa26469706673582212208363db12bb3d0766398c90a4a0227d5b13d78b3d7a38abea40bd08150e15885264736f6c63430008180033\n}\n",
				"bytecode": {
					"linkReferences": {},
					"object": "61016060405234801562000011575f80fd5b5060405162002b0938038062002b098339818101604052810190620000379190620004c0565b6040518060400160405280600b81526020017f4d656d626572546f6b656e000000000000000000000000000000000000000000815250806040518060400160405280600181526020017f3100000000000000000000000000000000000000000000000000000000000000815250836040518060400160405280600b81526020017f4d656d626572546f6b656e0000000000000000000000000000000000000000008152506040518060400160405280600581526020017f4d544b3130000000000000000000000000000000000000000000000000000000815250816003908162000122919062000754565b50806004908162000134919062000754565b5050505f73ffffffffffffffffffffffffffffffffffffffff168173ffffffffffffffffffffffffffffffffffffffff1603620001aa575f6040517f1e4fbdf7000000000000000000000000000000000000000000000000000000008152600401620001a1919062000849565b60405180910390fd5b620001bb816200027460201b60201c565b50620001d26006836200033760201b90919060201c565b6101208181525050620001f06007826200033760201b90919060201c565b6101408181525050818051906020012060e08181525050808051906020012061010081815250504660a081815250506200022f6200038c60201b60201c565b608081815250503073ffffffffffffffffffffffffffffffffffffffff1660c08173ffffffffffffffffffffffffffffffffffffffff16815250505050505062000a34565b5f60055f9054906101000a900473ffffffffffffffffffffffffffffffffffffffff1690508160055f6101000a81548173ffffffffffffffffffffffffffffffffffffffff021916908373ffffffffffffffffffffffffffffffffffffffff1602179055508173ffffffffffffffffffffffffffffffffffffffff168173ffffffffffffffffffffffffffffffffffffffff167f8be0079c531659141344cd1fd0a4f28419497f9722a3daafe3b4186f6b6457e060405160405180910390a35050565b5f6020835110156200035c576200035483620003e860201b60201c565b905062000386565b826200036e836200045260201b60201c565b5f0190816200037e919062000754565b5060ff5f1b90505b92915050565b5f7f8b73c3c69bb8fe3d512ecc4cf759cc79239f7b179b0ffacaa9a75d522b39400f60e051610100514630604051602001620003cd9594939291906200088f565b60405160208183030381529060405280519060200120905090565b5f80829050601f815111156200043757826040517f305a27a90000000000000000000000000000000000000000000000000000000081526004016200042e919062000974565b60405180910390fd5b8051816200044590620009c5565b5f1c175f1b915050919050565b5f819050919050565b5f80fd5b5f73ffffffffffffffffffffffffffffffffffffffff82169050919050565b5f6200048a826200045f565b9050919050565b6200049c816200047e565b8114620004a7575f80fd5b50565b5f81519050620004ba8162000491565b92915050565b5f60208284031215620004d857620004d76200045b565b5b5f620004e784828501620004aa565b91505092915050565b5f81519050919050565b7f4e487b71000000000000000000000000000000000000000000000000000000005f52604160045260245ffd5b7f4e487b71000000000000000000000000000000000000000000000000000000005f52602260045260245ffd5b5f60028204905060018216806200056c57607f821691505b60208210810362000582576200058162000527565b5b50919050565b5f819050815f5260205f209050919050565b5f6020601f8301049050919050565b5f82821b905092915050565b5f60088302620005e67fffffffffffffffffffffffffffffffffffffffffffffffffffffffffffffffff82620005a9565b620005f28683620005a9565b95508019841693508086168417925050509392505050565b5f819050919050565b5f819050919050565b5f6200063c6200063662000630846200060a565b62000613565b6200060a565b9050919050565b5f819050919050565b62000657836200061c565b6200066f620006668262000643565b848454620005b5565b825550505050565b5f90565b6200068562000677565b620006928184846200064c565b505050565b5b81811015620006b957620006ad5f826200067b565b60018101905062000698565b5050565b601f8211156200070857620006d28162000588565b620006dd846200059a565b81016020851015620006ed578190505b62000705620006fc856200059a565b83018262000697565b50505b505050565b5f82821c905092915050565b5f6200072a5f19846008026200070d565b1980831691505092915050565b5f62000744838362000719565b9150826002028217905092915050565b6200075f82620004f0565b67ffffffffffffffff8111156200077b576200077a620004fa565b5b62000787825462000554565b62000794828285620006bd565b5f60209050601f831160018114620007ca575f8415620007b5578287015190505b620007c1858262000737565b86555062000830565b601f198416620007da8662000588565b5f5b828110156200080357848901518255600182019150602085019450602081019050620007dc565b868310156200082357848901516200081f601f89168262000719565b8355505b6001600288020188555050505b505050505050565b62000843816200047e565b82525050565b5f6020820190506200085e5f83018462000838565b92915050565b5f819050919050565b620008788162000864565b82525050565b62000889816200060a565b82525050565b5f60a082019050620008a45f8301886200086d565b620008b360208301876200086d565b620008c260408301866200086d565b620008d160608301856200087e565b620008e0608083018462000838565b9695505050505050565b5f82825260208201905092915050565b5f5b8381101562000919578082015181840152602081019050620008fc565b5f8484015250505050565b5f601f19601f8301169050919050565b5f6200094082620004f0565b6200094c8185620008ea565b93506200095e818560208601620008fa565b620009698162000924565b840191505092915050565b5f6020820190508181035f8301526200098e818462000934565b905092915050565b5f81519050919050565b5f819050602082019050919050565b5f620009bc825162000864565b80915050919050565b5f620009d18262000996565b82620009dd84620009a0565b9050620009ea81620009af565b9250602082101562000a2d5762000a287fffffffffffffffffffffffffffffffffffffffffffffffffffffffffffffffff83602003600802620005a9565b831692505b5050919050565b60805160a05160c05160e05161010051610120516101405161208362000a865f395f610d7001525f610d3501525f61126901525f61124801525f610a6a01525f610ac001525f610ae901526120835ff3fe608060405234801561000f575f80fd5b5060043610610109575f3560e01c8063715018a6116100a057806395d89b411161006f57806395d89b41146102ad578063a9059cbb146102cb578063d505accf146102fb578063dd62ed3e14610317578063f2fde38b1461034757610109565b8063715018a6146102315780637ecebe001461023b57806384b0196e1461026b5780638da5cb5b1461028f57610109565b8063313ce567116100dc578063313ce567146101a95780633644e515146101c757806340c10f19146101e557806370a082311461020157610109565b806306fdde031461010d578063095ea7b31461012b57806318160ddd1461015b57806323b872dd14610179575b5f80fd5b610115610363565b6040516101229190611739565b60405180910390f35b610145600480360381019061014091906117ea565b6103f3565b6040516101529190611842565b60405180910390f35b610163610415565b604051610170919061186a565b60405180910390f35b610193600480360381019061018e9190611883565b61041e565b6040516101a09190611842565b60405180910390f35b6101b161044c565b6040516101be91906118ee565b60405180910390f35b6101cf610454565b6040516101dc919061191f565b60405180910390f35b6101ff60048036038101906101fa91906117ea565b610462565b005b61021b60048036038101906102169190611938565b610499565b604051610228919061186a565b60405180910390f35b6102396104de565b005b61025560048036038101906102509190611938565b6104f1565b604051610262919061186a565b60405180910390f35b610273610502565b6040516102869796959493929190611a63565b60405180910390f35b6102976105a7565b6040516102a49190611ae5565b60405180910390f35b6102b56105cf565b6040516102c29190611739565b60405180910390f35b6102e560048036038101906102e091906117ea565b61065f565b6040516102f29190611842565b60405180910390f35b61031560048036038101906103109190611b52565b610681565b005b610331600480360381019061032c9190611bef565b6107c6565b60405161033e919061186a565b60405180910390f35b610361600480360381019061035c9190611938565b610848565b005b60606003805461037290611c5a565b80601f016020809104026020016040519081016040528092919081815260200182805461039e90611c5a565b80156103e95780601f106103c0576101008083540402835291602001916103e9565b820191905f5260205f20905b8154815290600101906020018083116103cc57829003601f168201915b5050505050905090565b5f806103fd6108cc565b905061040a8185856108d3565b600191505092915050565b5f600254905090565b5f806104286108cc565b90506104358582856108e5565b610440858585610977565b60019150509392505050565b5f6012905090565b5f61045d610a67565b905090565b61046a610b1d565b6104958261047661044c565b60ff16600a6104859190611de6565b836104909190611e30565b610ba4565b5050565b5f805f8373ffffffffffffffffffffffffffffffffffffffff1673ffffffffffffffffffffffffffffffffffffffff1681526020019081526020015f20549050919050565b6104e6610b1d565b6104ef5f610c23565b565b5f6104fb82610ce6565b9050919050565b5f6060805f805f6060610513610d2c565b61051b610d67565b46305f801b5f67ffffffffffffffff81111561053a57610539611e71565b5b6040519080825280602002602001820160405280156105685781602001602082028036833780820191505090505b507f0f00000000000000000000000000000000000000000000000000000000000000959493929190965096509650965096509650965090919293949596565b5f60055f9054906101000a900473ffffffffffffffffffffffffffffffffffffffff16905090565b6060600480546105de90611c5a565b80601f016020809104026020016040519081016040528092919081815260200182805461060a90611c5a565b80156106555780601f1061062c57610100808354040283529160200191610655565b820191905f5260205f20905b81548152906001019060200180831161063857829003601f168201915b5050505050905090565b5f806106696108cc565b9050610676818585610977565b600191505092915050565b834211156106c657836040517f627913020000000000000000000000000000000000000000000000000000000081526004016106bd919061186a565b60405180910390fd5b5f7f6e71edae12b1b97f4d1f60370fef10105fa2faae0126114a169c64845d6126c98888886106f48c610da2565b8960405160200161070a96959493929190611e9e565b6040516020818303038152906040528051906020012090505f61072c82610df5565b90505f61073b82878787610e0e565b90508973ffffffffffffffffffffffffffffffffffffffff168173ffffffffffffffffffffffffffffffffffffffff16146107af57808a6040517f4b800e460000000000000000000000000000000000000000000000000000000081526004016107a6929190611efd565b60405180910390fd5b6107ba8a8a8a6108d3565b50505050505050505050565b5f60015f8473ffffffffffffffffffffffffffffffffffffffff1673ffffffffffffffffffffffffffffffffffffffff1681526020019081526020015f205f8373ffffffffffffffffffffffffffffffffffffffff1673ffffffffffffffffffffffffffffffffffffffff1681526020019081526020015f2054905092915050565b610850610b1d565b5f73ffffffffffffffffffffffffffffffffffffffff168173ffffffffffffffffffffffffffffffffffffffff16036108c0575f6040517f1e4fbdf70000000000000000000000000000000000000000000000000000000081526004016108b79190611ae5565b60405180910390fd5b6108c981610c23565b50565b5f33905090565b6108e08383836001610e3c565b505050565b5f6108f084846107c6565b90507fffffffffffffffffffffffffffffffffffffffffffffffffffffffffffffffff81146109715781811015610962578381836040517ffb8f41b200000000000000000000000000000000000000000000000000000000815260040161095993929190611f24565b60405180910390fd5b61097084848484035f610e3c565b5b50505050565b5f73ffffffffffffffffffffffffffffffffffffffff168373ffffffffffffffffffffffffffffffffffffffff16036109e7575f6040517f96c6fd1e0000000000000000000000000000000000000000000000000000000081526004016109de9190611ae5565b60405180910390fd5b5f73ffffffffffffffffffffffffffffffffffffffff168273ffffffffffffffffffffffffffffffffffffffff1603610a57575f6040517fec442f05000000000000000000000000000000000000000000000000000000008152600401610a4e9190611ae5565b60405180910390fd5b610a6283838361100b565b505050565b5f7f000000000000000000000000000000000000000000000000000000000000000073ffffffffffffffffffffffffffffffffffffffff163073ffffffffffffffffffffffffffffffffffffffff16148015610ae257507f000000000000000000000000000000000000000000000000000000000000000046145b15610b0f577f00000000000000000000000000000000000000000000000000000000000000009050610b1a565b610b17611224565b90505b90565b610b256108cc565b73ffffffffffffffffffffffffffffffffffffffff16610b436105a7565b73ffffffffffffffffffffffffffffffffffffffff1614610ba257610b666108cc565b6040517f118cdaa7000000000000000000000000000000000000000000000000000000008152600401610b999190611ae5565b60405180910390fd5b565b5f73ffffffffffffffffffffffffffffffffffffffff168273ffffffffffffffffffffffffffffffffffffffff1603610c14575f6040517fec442f05000000000000000000000000000000000000000000000000000000008152600401610c0b9190611ae5565b60405180910390fd5b610c1f5f838361100b565b5050565b5f60055f9054906101000a900473ffffffffffffffffffffffffffffffffffffffff1690508160055f6101000a81548173ffffffffffffffffffffffffffffffffffffffff021916908373ffffffffffffffffffffffffffffffffffffffff1602179055508173ffffffffffffffffffffffffffffffffffffffff168173ffffffffffffffffffffffffffffffffffffffff167f8be0079c531659141344cd1fd0a4f28419497f9722a3daafe3b4186f6b6457e060405160405180910390a35050565b5f60085f8373ffffffffffffffffffffffffffffffffffffffff1673ffffffffffffffffffffffffffffffffffffffff1681526020019081526020015f20549050919050565b6060610d6260067f00000000000000000000000000000000000000000000000000000000000000006112b990919063ffffffff16565b905090565b6060610d9d60077f00000000000000000000000000000000000000000000000000000000000000006112b990919063ffffffff16565b905090565b5f60085f8373ffffffffffffffffffffffffffffffffffffffff1673ffffffffffffffffffffffffffffffffffffffff1681526020019081526020015f205f815480929190600101919050559050919050565b5f610e07610e01610a67565b83611366565b9050919050565b5f805f80610e1e888888886113a6565b925092509250610e2e828261148d565b829350505050949350505050565b5f73ffffffffffffffffffffffffffffffffffffffff168473ffffffffffffffffffffffffffffffffffffffff1603610eac575f6040517fe602df05000000000000000000000000000000000000000000000000000000008152600401610ea39190611ae5565b60405180910390fd5b5f73ffffffffffffffffffffffffffffffffffffffff168373ffffffffffffffffffffffffffffffffffffffff1603610f1c575f6040517f94280d62000000000000000000000000000000000000000000000000000000008152600401610f139190611ae5565b60405180910390fd5b8160015f8673ffffffffffffffffffffffffffffffffffffffff1673ffffffffffffffffffffffffffffffffffffffff1681526020019081526020015f205f8573ffffffffffffffffffffffffffffffffffffffff1673ffffffffffffffffffffffffffffffffffffffff1681526020019081526020015f20819055508015611005578273ffffffffffffffffffffffffffffffffffffffff168473ffffffffffffffffffffffffffffffffffffffff167f8c5be1e5ebec7d5bd14f71427d1e84f3dd0314c0f7b2291e5b200ac8c7c3b92584604051610ffc919061186a565b60405180910390a35b50505050565b5f73ffffffffffffffffffffffffffffffffffffffff168373ffffffffffffffffffffffffffffffffffffffff160361105b578060025f82825461104f9190611f59565b92505081905550611129565b5f805f8573ffffffffffffffffffffffffffffffffffffffff1673ffffffffffffffffffffffffffffffffffffffff1681526020019081526020015f20549050818110156110e4578381836040517fe450d38c0000000000000000000000000000000000000000000000000000000081526004016110db93929190611f24565b60405180910390fd5b8181035f808673ffffffffffffffffffffffffffffffffffffffff1673ffffffffffffffffffffffffffffffffffffffff1681526020019081526020015f2081905550505b5f73ffffffffffffffffffffffffffffffffffffffff168273ffffffffffffffffffffffffffffffffffffffff1603611170578060025f82825403925050819055506111ba565b805f808473ffffffffffffffffffffffffffffffffffffffff1673ffffffffffffffffffffffffffffffffffffffff1681526020019081526020015f205f82825401925050819055505b8173ffffffffffffffffffffffffffffffffffffffff168373ffffffffffffffffffffffffffffffffffffffff167fddf252ad1be2c89b69c2b068fc378daa952ba7f163c4a11628f55a4df523b3ef83604051611217919061186a565b60405180910390a3505050565b5f7f8b73c3c69bb8fe3d512ecc4cf759cc79239f7b179b0ffacaa9a75d522b39400f7f00000000000000000000000000000000000000000000000000000000000000007f0000000000000000000000000000000000000000000000000000000000000000463060405160200161129e959493929190611f8c565b60405160208183030381529060405280519060200120905090565b606060ff5f1b83146112d5576112ce836115ef565b9050611360565b8180546112e190611c5a565b80601f016020809104026020016040519081016040528092919081815260200182805461130d90611c5a565b80156113585780601f1061132f57610100808354040283529160200191611358565b820191905f5260205f20905b81548152906001019060200180831161133b57829003601f168201915b505050505090505b92915050565b5f6040517f190100000000000000000000000000000000000000000000000000000000000081528360028201528260228201526042812091505092915050565b5f805f7f7fffffffffffffffffffffffffffffff5d576e7357a4501ddfe92f46681b20a0845f1c11156113e2575f600385925092509250611483565b5f6001888888886040515f81526020016040526040516114059493929190611fdd565b6020604051602081039080840390855afa158015611425573d5f803e3d5ffd5b5050506020604051035190505f73ffffffffffffffffffffffffffffffffffffffff168173ffffffffffffffffffffffffffffffffffffffff1603611476575f60015f801b93509350935050611483565b805f805f1b935093509350505b9450945094915050565b5f60038111156114a05761149f612020565b5b8260038111156114b3576114b2612020565b5b03156115eb57600160038111156114cd576114cc612020565b5b8260038111156114e0576114df612020565b5b03611517576040517ff645eedf00000000000000000000000000000000000000000000000000000000815260040160405180910390fd5b6002600381111561152b5761152a612020565b5b82600381111561153e5761153d612020565b5b0361158257805f1c6040517ffce698f7000000000000000000000000000000000000000000000000000000008152600401611579919061186a565b60405180910390fd5b60038081111561159557611594612020565b5b8260038111156115a8576115a7612020565b5b036115ea57806040517fd78bce0c0000000000000000000000000000000000000000000000000000000081526004016115e1919061191f565b60405180910390fd5b5b5050565b60605f6115fb83611661565b90505f602067ffffffffffffffff81111561161957611618611e71565b5b6040519080825280601f01601f19166020018201604052801561164b5781602001600182028036833780820191505090505b5090508181528360208201528092505050919050565b5f8060ff835f1c169050601f8111156116a6576040517fb3512b0c00000000000000000000000000000000000000000000000000000000815260040160405180910390fd5b80915050919050565b5f81519050919050565b5f82825260208201905092915050565b5f5b838110156116e65780820151818401526020810190506116cb565b5f8484015250505050565b5f601f19601f8301169050919050565b5f61170b826116af565b61171581856116b9565b93506117258185602086016116c9565b61172e816116f1565b840191505092915050565b5f6020820190508181035f8301526117518184611701565b905092915050565b5f80fd5b5f73ffffffffffffffffffffffffffffffffffffffff82169050919050565b5f6117868261175d565b9050919050565b6117968161177c565b81146117a0575f80fd5b50565b5f813590506117b18161178d565b92915050565b5f819050919050565b6117c9816117b7565b81146117d3575f80fd5b50565b5f813590506117e4816117c0565b92915050565b5f8060408385031215611800576117ff611759565b5b5f61180d858286016117a3565b925050602061181e858286016117d6565b9150509250929050565b5f8115159050919050565b61183c81611828565b82525050565b5f6020820190506118555f830184611833565b92915050565b611864816117b7565b82525050565b5f60208201905061187d5f83018461185b565b92915050565b5f805f6060848603121561189a57611899611759565b5b5f6118a7868287016117a3565b93505060206118b8868287016117a3565b92505060406118c9868287016117d6565b9150509250925092565b5f60ff82169050919050565b6118e8816118d3565b82525050565b5f6020820190506119015f8301846118df565b92915050565b5f819050919050565b61191981611907565b82525050565b5f6020820190506119325f830184611910565b92915050565b5f6020828403121561194d5761194c611759565b5b5f61195a848285016117a3565b91505092915050565b5f7fff0000000000000000000000000000000000000000000000000000000000000082169050919050565b61199781611963565b82525050565b6119a68161177c565b82525050565b5f81519050919050565b5f82825260208201905092915050565b5f819050602082019050919050565b6119de816117b7565b82525050565b5f6119ef83836119d5565b60208301905092915050565b5f602082019050919050565b5f611a11826119ac565b611a1b81856119b6565b9350611a26836119c6565b805f5b83811015611a56578151611a3d88826119e4565b9750611a48836119fb565b925050600181019050611a29565b5085935050505092915050565b5f60e082019050611a765f83018a61198e565b8181036020830152611a888189611701565b90508181036040830152611a9c8188611701565b9050611aab606083018761185b565b611ab8608083018661199d565b611ac560a0830185611910565b81810360c0830152611ad78184611a07565b905098975050505050505050565b5f602082019050611af85f83018461199d565b92915050565b611b07816118d3565b8114611b11575f80fd5b50565b5f81359050611b2281611afe565b92915050565b611b3181611907565b8114611b3b575f80fd5b50565b5f81359050611b4c81611b28565b92915050565b5f805f805f805f60e0888a031215611b6d57611b6c611759565b5b5f611b7a8a828b016117a3565b9750506020611b8b8a828b016117a3565b9650506040611b9c8a828b016117d6565b9550506060611bad8a828b016117d6565b9450506080611bbe8a828b01611b14565b93505060a0611bcf8a828b01611b3e565b92505060c0611be08a828b01611b3e565b91505092959891949750929550565b5f8060408385031215611c0557611c04611759565b5b5f611c12858286016117a3565b9250506020611c23858286016117a3565b9150509250929050565b7f4e487b71000000000000000000000000000000000000000000000000000000005f52602260045260245ffd5b5f6002820490506001821680611c7157607f821691505b602082108103611c8457611c83611c2d565b5b50919050565b7f4e487b71000000000000000000000000000000000000000000000000000000005f52601160045260245ffd5b5f8160011c9050919050565b5f808291508390505b6001851115611d0c57808604811115611ce857611ce7611c8a565b5b6001851615611cf75780820291505b8081029050611d0585611cb7565b9450611ccc565b94509492505050565b5f82611d245760019050611ddf565b81611d31575f9050611ddf565b8160018114611d475760028114611d5157611d80565b6001915050611ddf565b60ff841115611d6357611d62611c8a565b5b8360020a915084821115611d7a57611d79611c8a565b5b50611ddf565b5060208310610133831016604e8410600b8410161715611db55782820a905083811115611db057611daf611c8a565b5b611ddf565b611dc28484846001611cc3565b92509050818404811115611dd957611dd8611c8a565b5b81810290505b9392505050565b5f611df0826117b7565b9150611dfb836117b7565b9250611e287fffffffffffffffffffffffffffffffffffffffffffffffffffffffffffffffff8484611d15565b905092915050565b5f611e3a826117b7565b9150611e45836117b7565b9250828202611e53816117b7565b91508282048414831517611e6a57611e69611c8a565b5b5092915050565b7f4e487b71000000000000000000000000000000000000000000000000000000005f52604160045260245ffd5b5f60c082019050611eb15f830189611910565b611ebe602083018861199d565b611ecb604083018761199d565b611ed8606083018661185b565b611ee5608083018561185b565b611ef260a083018461185b565b979650505050505050565b5f604082019050611f105f83018561199d565b611f1d602083018461199d565b9392505050565b5f606082019050611f375f83018661199d565b611f44602083018561185b565b611f51604083018461185b565b949350505050565b5f611f63826117b7565b9150611f6e836117b7565b9250828201905080821115611f8657611f85611c8a565b5b92915050565b5f60a082019050611f9f5f830188611910565b611fac6020830187611910565b611fb96040830186611910565b611fc6606083018561185b565b611fd3608083018461199d565b9695505050505050565b5f608082019050611ff05f830187611910565b611ffd60208301866118df565b61200a6040830185611910565b6120176060830184611910565b95945050505050565b7f4e487b71000000000000000000000000000000000000000000000000000000005f52602160045260245ffdfea26469706673582212208363db12bb3d0766398c90a4a0227d5b13d78b3d7a38abea40bd08150e15885264736f6c63430008180033",
					"opcodes": "PUSH2 0x160 PUSH1 0x40 MSTORE CALLVALUE DUP1 ISZERO PUSH3 0x11 JUMPI PUSH0 DUP1 REVERT JUMPDEST POP PUSH1 0x40 MLOAD PUSH3 0x2B09 CODESIZE SUB DUP1 PUSH3 0x2B09 DUP4 CODECOPY DUP2 DUP2 ADD PUSH1 0x40 MSTORE DUP2 ADD SWAP1 PUSH3 0x37 SWAP2 SWAP1 PUSH3 0x4C0 JUMP JUMPDEST PUSH1 0x40 MLOAD DUP1 PUSH1 0x40 ADD PUSH1 0x40 MSTORE DUP1 PUSH1 0xB DUP2 MSTORE PUSH1 0x20 ADD PUSH32 0x4D656D626572546F6B656E000000000000000000000000000000000000000000 DUP2 MSTORE POP DUP1 PUSH1 0x40 MLOAD DUP1 PUSH1 0x40 ADD PUSH1 0x40 MSTORE DUP1 PUSH1 0x1 DUP2 MSTORE PUSH1 0x20 ADD PUSH32 0x3100000000000000000000000000000000000000000000000000000000000000 DUP2 MSTORE POP DUP4 PUSH1 0x40 MLOAD DUP1 PUSH1 0x40 ADD PUSH1 0x40 MSTORE DUP1 PUSH1 0xB DUP2 MSTORE PUSH1 0x20 ADD PUSH32 0x4D656D626572546F6B656E000000000000000000000000000000000000000000 DUP2 MSTORE POP PUSH1 0x40 MLOAD DUP1 PUSH1 0x40 ADD PUSH1 0x40 MSTORE DUP1 PUSH1 0x5 DUP2 MSTORE PUSH1 0x20 ADD PUSH32 0x4D544B3130000000000000000000000000000000000000000000000000000000 DUP2 MSTORE POP DUP2 PUSH1 0x3 SWAP1 DUP2 PUSH3 0x122 SWAP2 SWAP1 PUSH3 0x754 JUMP JUMPDEST POP DUP1 PUSH1 0x4 SWAP1 DUP2 PUSH3 0x134 SWAP2 SWAP1 PUSH3 0x754 JUMP JUMPDEST POP POP POP PUSH0 PUSH20 0xFFFFFFFFFFFFFFFFFFFFFFFFFFFFFFFFFFFFFFFF AND DUP2 PUSH20 0xFFFFFFFFFFFFFFFFFFFFFFFFFFFFFFFFFFFFFFFF AND SUB PUSH3 0x1AA JUMPI PUSH0 PUSH1 0x40 MLOAD PUSH32 0x1E4FBDF700000000000000000000000000000000000000000000000000000000 DUP2 MSTORE PUSH1 0x4 ADD PUSH3 0x1A1 SWAP2 SWAP1 PUSH3 0x849 JUMP JUMPDEST PUSH1 0x40 MLOAD DUP1 SWAP2 SUB SWAP1 REVERT JUMPDEST PUSH3 0x1BB DUP2 PUSH3 0x274 PUSH1 0x20 SHL PUSH1 0x20 SHR JUMP JUMPDEST POP PUSH3 0x1D2 PUSH1 0x6 DUP4 PUSH3 0x337 PUSH1 0x20 SHL SWAP1 SWAP2 SWAP1 PUSH1 0x20 SHR JUMP JUMPDEST PUSH2 0x120 DUP2 DUP2 MSTORE POP POP PUSH3 0x1F0 PUSH1 0x7 DUP3 PUSH3 0x337 PUSH1 0x20 SHL SWAP1 SWAP2 SWAP1 PUSH1 0x20 SHR JUMP JUMPDEST PUSH2 0x140 DUP2 DUP2 MSTORE POP POP DUP2 DUP1 MLOAD SWAP1 PUSH1 0x20 ADD KECCAK256 PUSH1 0xE0 DUP2 DUP2 MSTORE POP POP DUP1 DUP1 MLOAD SWAP1 PUSH1 0x20 ADD KECCAK256 PUSH2 0x100 DUP2 DUP2 MSTORE POP POP CHAINID PUSH1 0xA0 DUP2 DUP2 MSTORE POP POP PUSH3 0x22F PUSH3 0x38C PUSH1 0x20 SHL PUSH1 0x20 SHR JUMP JUMPDEST PUSH1 0x80 DUP2 DUP2 MSTORE POP POP ADDRESS PUSH20 0xFFFFFFFFFFFFFFFFFFFFFFFFFFFFFFFFFFFFFFFF AND PUSH1 0xC0 DUP2 PUSH20 0xFFFFFFFFFFFFFFFFFFFFFFFFFFFFFFFFFFFFFFFF AND DUP2 MSTORE POP POP POP POP POP POP PUSH3 0xA34 JUMP JUMPDEST PUSH0 PUSH1 0x5 PUSH0 SWAP1 SLOAD SWAP1 PUSH2 0x100 EXP SWAP1 DIV PUSH20 0xFFFFFFFFFFFFFFFFFFFFFFFFFFFFFFFFFFFFFFFF AND SWAP1 POP DUP2 PUSH1 0x5 PUSH0 PUSH2 0x100 EXP DUP2 SLOAD DUP2 PUSH20 0xFFFFFFFFFFFFFFFFFFFFFFFFFFFFFFFFFFFFFFFF MUL NOT AND SWAP1 DUP4 PUSH20 0xFFFFFFFFFFFFFFFFFFFFFFFFFFFFFFFFFFFFFFFF AND MUL OR SWAP1 SSTORE POP DUP2 PUSH20 0xFFFFFFFFFFFFFFFFFFFFFFFFFFFFFFFFFFFFFFFF AND DUP2 PUSH20 0xFFFFFFFFFFFFFFFFFFFFFFFFFFFFFFFFFFFFFFFF AND PUSH32 0x8BE0079C531659141344CD1FD0A4F28419497F9722A3DAAFE3B4186F6B6457E0 PUSH1 0x40 MLOAD PUSH1 0x40 MLOAD DUP1 SWAP2 SUB SWAP1 LOG3 POP POP JUMP JUMPDEST PUSH0 PUSH1 0x20 DUP4 MLOAD LT ISZERO PUSH3 0x35C JUMPI PUSH3 0x354 DUP4 PUSH3 0x3E8 PUSH1 0x20 SHL PUSH1 0x20 SHR JUMP JUMPDEST SWAP1 POP PUSH3 0x386 JUMP JUMPDEST DUP3 PUSH3 0x36E DUP4 PUSH3 0x452 PUSH1 0x20 SHL PUSH1 0x20 SHR JUMP JUMPDEST PUSH0 ADD SWAP1 DUP2 PUSH3 0x37E SWAP2 SWAP1 PUSH3 0x754 JUMP JUMPDEST POP PUSH1 0xFF PUSH0 SHL SWAP1 POP JUMPDEST SWAP3 SWAP2 POP POP JUMP JUMPDEST PUSH0 PUSH32 0x8B73C3C69BB8FE3D512ECC4CF759CC79239F7B179B0FFACAA9A75D522B39400F PUSH1 0xE0 MLOAD PUSH2 0x100 MLOAD CHAINID ADDRESS PUSH1 0x40 MLOAD PUSH1 0x20 ADD PUSH3 0x3CD SWAP6 SWAP5 SWAP4 SWAP3 SWAP2 SWAP1 PUSH3 0x88F JUMP JUMPDEST PUSH1 0x40 MLOAD PUSH1 0x20 DUP2 DUP4 SUB SUB DUP2 MSTORE SWAP1 PUSH1 0x40 MSTORE DUP1 MLOAD SWAP1 PUSH1 0x20 ADD KECCAK256 SWAP1 POP SWAP1 JUMP JUMPDEST PUSH0 DUP1 DUP3 SWAP1 POP PUSH1 0x1F DUP2 MLOAD GT ISZERO PUSH3 0x437 JUMPI DUP3 PUSH1 0x40 MLOAD PUSH32 0x305A27A900000000000000000000000000000000000000000000000000000000 DUP2 MSTORE PUSH1 0x4 ADD PUSH3 0x42E SWAP2 SWAP1 PUSH3 0x974 JUMP JUMPDEST PUSH1 0x40 MLOAD DUP1 SWAP2 SUB SWAP1 REVERT JUMPDEST DUP1 MLOAD DUP2 PUSH3 0x445 SWAP1 PUSH3 0x9C5 JUMP JUMPDEST PUSH0 SHR OR PUSH0 SHL SWAP2 POP POP SWAP2 SWAP1 POP JUMP JUMPDEST PUSH0 DUP2 SWAP1 POP SWAP2 SWAP1 POP JUMP JUMPDEST PUSH0 DUP1 REVERT JUMPDEST PUSH0 PUSH20 0xFFFFFFFFFFFFFFFFFFFFFFFFFFFFFFFFFFFFFFFF DUP3 AND SWAP1 POP SWAP2 SWAP1 POP JUMP JUMPDEST PUSH0 PUSH3 0x48A DUP3 PUSH3 0x45F JUMP JUMPDEST SWAP1 POP SWAP2 SWAP1 POP JUMP JUMPDEST PUSH3 0x49C DUP2 PUSH3 0x47E JUMP JUMPDEST DUP2 EQ PUSH3 0x4A7 JUMPI PUSH0 DUP1 REVERT JUMPDEST POP JUMP JUMPDEST PUSH0 DUP2 MLOAD SWAP1 POP PUSH3 0x4BA DUP2 PUSH3 0x491 JUMP JUMPDEST SWAP3 SWAP2 POP POP JUMP JUMPDEST PUSH0 PUSH1 0x20 DUP3 DUP5 SUB SLT ISZERO PUSH3 0x4D8 JUMPI PUSH3 0x4D7 PUSH3 0x45B JUMP JUMPDEST JUMPDEST PUSH0 PUSH3 0x4E7 DUP5 DUP3 DUP6 ADD PUSH3 0x4AA JUMP JUMPDEST SWAP2 POP POP SWAP3 SWAP2 POP POP JUMP JUMPDEST PUSH0 DUP2 MLOAD SWAP1 POP SWAP2 SWAP1 POP JUMP JUMPDEST PUSH32 0x4E487B7100000000000000000000000000000000000000000000000000000000 PUSH0 MSTORE PUSH1 0x41 PUSH1 0x4 MSTORE PUSH1 0x24 PUSH0 REVERT JUMPDEST PUSH32 0x4E487B7100000000000000000000000000000000000000000000000000000000 PUSH0 MSTORE PUSH1 0x22 PUSH1 0x4 MSTORE PUSH1 0x24 PUSH0 REVERT JUMPDEST PUSH0 PUSH1 0x2 DUP3 DIV SWAP1 POP PUSH1 0x1 DUP3 AND DUP1 PUSH3 0x56C JUMPI PUSH1 0x7F DUP3 AND SWAP2 POP JUMPDEST PUSH1 0x20 DUP3 LT DUP2 SUB PUSH3 0x582 JUMPI PUSH3 0x581 PUSH3 0x527 JUMP JUMPDEST JUMPDEST POP SWAP2 SWAP1 POP JUMP JUMPDEST PUSH0 DUP2 SWAP1 POP DUP2 PUSH0 MSTORE PUSH1 0x20 PUSH0 KECCAK256 SWAP1 POP SWAP2 SWAP1 POP JUMP JUMPDEST PUSH0 PUSH1 0x20 PUSH1 0x1F DUP4 ADD DIV SWAP1 POP SWAP2 SWAP1 POP JUMP JUMPDEST PUSH0 DUP3 DUP3 SHL SWAP1 POP SWAP3 SWAP2 POP POP JUMP JUMPDEST PUSH0 PUSH1 0x8 DUP4 MUL PUSH3 0x5E6 PUSH32 0xFFFFFFFFFFFFFFFFFFFFFFFFFFFFFFFFFFFFFFFFFFFFFFFFFFFFFFFFFFFFFFFF DUP3 PUSH3 0x5A9 JUMP JUMPDEST PUSH3 0x5F2 DUP7 DUP4 PUSH3 0x5A9 JUMP JUMPDEST SWAP6 POP DUP1 NOT DUP5 AND SWAP4 POP DUP1 DUP7 AND DUP5 OR SWAP3 POP POP POP SWAP4 SWAP3 POP POP POP JUMP JUMPDEST PUSH0 DUP2 SWAP1 POP SWAP2 SWAP1 POP JUMP JUMPDEST PUSH0 DUP2 SWAP1 POP SWAP2 SWAP1 POP JUMP JUMPDEST PUSH0 PUSH3 0x63C PUSH3 0x636 PUSH3 0x630 DUP5 PUSH3 0x60A JUMP JUMPDEST PUSH3 0x613 JUMP JUMPDEST PUSH3 0x60A JUMP JUMPDEST SWAP1 POP SWAP2 SWAP1 POP JUMP JUMPDEST PUSH0 DUP2 SWAP1 POP SWAP2 SWAP1 POP JUMP JUMPDEST PUSH3 0x657 DUP4 PUSH3 0x61C JUMP JUMPDEST PUSH3 0x66F PUSH3 0x666 DUP3 PUSH3 0x643 JUMP JUMPDEST DUP5 DUP5 SLOAD PUSH3 0x5B5 JUMP JUMPDEST DUP3 SSTORE POP POP POP POP JUMP JUMPDEST PUSH0 SWAP1 JUMP JUMPDEST PUSH3 0x685 PUSH3 0x677 JUMP JUMPDEST PUSH3 0x692 DUP2 DUP5 DUP5 PUSH3 0x64C JUMP JUMPDEST POP POP POP JUMP JUMPDEST JUMPDEST DUP2 DUP2 LT ISZERO PUSH3 0x6B9 JUMPI PUSH3 0x6AD PUSH0 DUP3 PUSH3 0x67B JUMP JUMPDEST PUSH1 0x1 DUP2 ADD SWAP1 POP PUSH3 0x698 JUMP JUMPDEST POP POP JUMP JUMPDEST PUSH1 0x1F DUP3 GT ISZERO PUSH3 0x708 JUMPI PUSH3 0x6D2 DUP2 PUSH3 0x588 JUMP JUMPDEST PUSH3 0x6DD DUP5 PUSH3 0x59A JUMP JUMPDEST DUP2 ADD PUSH1 0x20 DUP6 LT ISZERO PUSH3 0x6ED JUMPI DUP2 SWAP1 POP JUMPDEST PUSH3 0x705 PUSH3 0x6FC DUP6 PUSH3 0x59A JUMP JUMPDEST DUP4 ADD DUP3 PUSH3 0x697 JUMP JUMPDEST POP POP JUMPDEST POP POP POP JUMP JUMPDEST PUSH0 DUP3 DUP3 SHR SWAP1 POP SWAP3 SWAP2 POP POP JUMP JUMPDEST PUSH0 PUSH3 0x72A PUSH0 NOT DUP5 PUSH1 0x8 MUL PUSH3 0x70D JUMP JUMPDEST NOT DUP1 DUP4 AND SWAP2 POP POP SWAP3 SWAP2 POP POP JUMP JUMPDEST PUSH0 PUSH3 0x744 DUP4 DUP4 PUSH3 0x719 JUMP JUMPDEST SWAP2 POP DUP3 PUSH1 0x2 MUL DUP3 OR SWAP1 POP SWAP3 SWAP2 POP POP JUMP JUMPDEST PUSH3 0x75F DUP3 PUSH3 0x4F0 JUMP JUMPDEST PUSH8 0xFFFFFFFFFFFFFFFF DUP2 GT ISZERO PUSH3 0x77B JUMPI PUSH3 0x77A PUSH3 0x4FA JUMP JUMPDEST JUMPDEST PUSH3 0x787 DUP3 SLOAD PUSH3 0x554 JUMP JUMPDEST PUSH3 0x794 DUP3 DUP3 DUP6 PUSH3 0x6BD JUMP JUMPDEST PUSH0 PUSH1 0x20 SWAP1 POP PUSH1 0x1F DUP4 GT PUSH1 0x1 DUP2 EQ PUSH3 0x7CA JUMPI PUSH0 DUP5 ISZERO PUSH3 0x7B5 JUMPI DUP3 DUP8 ADD MLOAD SWAP1 POP JUMPDEST PUSH3 0x7C1 DUP6 DUP3 PUSH3 0x737 JUMP JUMPDEST DUP7 SSTORE POP PUSH3 0x830 JUMP JUMPDEST PUSH1 0x1F NOT DUP5 AND PUSH3 0x7DA DUP7 PUSH3 0x588 JUMP JUMPDEST PUSH0 JUMPDEST DUP3 DUP2 LT ISZERO PUSH3 0x803 JUMPI DUP5 DUP10 ADD MLOAD DUP3 SSTORE PUSH1 0x1 DUP3 ADD SWAP2 POP PUSH1 0x20 DUP6 ADD SWAP5 POP PUSH1 0x20 DUP2 ADD SWAP1 POP PUSH3 0x7DC JUMP JUMPDEST DUP7 DUP4 LT ISZERO PUSH3 0x823 JUMPI DUP5 DUP10 ADD MLOAD PUSH3 0x81F PUSH1 0x1F DUP10 AND DUP3 PUSH3 0x719 JUMP JUMPDEST DUP4 SSTORE POP JUMPDEST PUSH1 0x1 PUSH1 0x2 DUP9 MUL ADD DUP9 SSTORE POP POP POP JUMPDEST POP POP POP POP POP POP JUMP JUMPDEST PUSH3 0x843 DUP2 PUSH3 0x47E JUMP JUMPDEST DUP3 MSTORE POP POP JUMP JUMPDEST PUSH0 PUSH1 0x20 DUP3 ADD SWAP1 POP PUSH3 0x85E PUSH0 DUP4 ADD DUP5 PUSH3 0x838 JUMP JUMPDEST SWAP3 SWAP2 POP POP JUMP JUMPDEST PUSH0 DUP2 SWAP1 POP SWAP2 SWAP1 POP JUMP JUMPDEST PUSH3 0x878 DUP2 PUSH3 0x864 JUMP JUMPDEST DUP3 MSTORE POP POP JUMP JUMPDEST PUSH3 0x889 DUP2 PUSH3 0x60A JUMP JUMPDEST DUP3 MSTORE POP POP JUMP JUMPDEST PUSH0 PUSH1 0xA0 DUP3 ADD SWAP1 POP PUSH3 0x8A4 PUSH0 DUP4 ADD DUP9 PUSH3 0x86D JUMP JUMPDEST PUSH3 0x8B3 PUSH1 0x20 DUP4 ADD DUP8 PUSH3 0x86D JUMP JUMPDEST PUSH3 0x8C2 PUSH1 0x40 DUP4 ADD DUP7 PUSH3 0x86D JUMP JUMPDEST PUSH3 0x8D1 PUSH1 0x60 DUP4 ADD DUP6 PUSH3 0x87E JUMP JUMPDEST PUSH3 0x8E0 PUSH1 0x80 DUP4 ADD DUP5 PUSH3 0x838 JUMP JUMPDEST SWAP7 SWAP6 POP POP POP POP POP POP JUMP JUMPDEST PUSH0 DUP3 DUP3 MSTORE PUSH1 0x20 DUP3 ADD SWAP1 POP SWAP3 SWAP2 POP POP JUMP JUMPDEST PUSH0 JUMPDEST DUP4 DUP2 LT ISZERO PUSH3 0x919 JUMPI DUP1 DUP3 ADD MLOAD DUP2 DUP5 ADD MSTORE PUSH1 0x20 DUP2 ADD SWAP1 POP PUSH3 0x8FC JUMP JUMPDEST PUSH0 DUP5 DUP5 ADD MSTORE POP POP POP POP JUMP JUMPDEST PUSH0 PUSH1 0x1F NOT PUSH1 0x1F DUP4 ADD AND SWAP1 POP SWAP2 SWAP1 POP JUMP JUMPDEST PUSH0 PUSH3 0x940 DUP3 PUSH3 0x4F0 JUMP JUMPDEST PUSH3 0x94C DUP2 DUP6 PUSH3 0x8EA JUMP JUMPDEST SWAP4 POP PUSH3 0x95E DUP2 DUP6 PUSH1 0x20 DUP7 ADD PUSH3 0x8FA JUMP JUMPDEST PUSH3 0x969 DUP2 PUSH3 0x924 JUMP JUMPDEST DUP5 ADD SWAP2 POP POP SWAP3 SWAP2 POP POP JUMP JUMPDEST PUSH0 PUSH1 0x20 DUP3 ADD SWAP1 POP DUP2 DUP2 SUB PUSH0 DUP4 ADD MSTORE PUSH3 0x98E DUP2 DUP5 PUSH3 0x934 JUMP JUMPDEST SWAP1 POP SWAP3 SWAP2 POP POP JUMP JUMPDEST PUSH0 DUP2 MLOAD SWAP1 POP SWAP2 SWAP1 POP JUMP JUMPDEST PUSH0 DUP2 SWAP1 POP PUSH1 0x20 DUP3 ADD SWAP1 POP SWAP2 SWAP1 POP JUMP JUMPDEST PUSH0 PUSH3 0x9BC DUP3 MLOAD PUSH3 0x864 JUMP JUMPDEST DUP1 SWAP2 POP POP SWAP2 SWAP1 POP JUMP JUMPDEST PUSH0 PUSH3 0x9D1 DUP3 PUSH3 0x996 JUMP JUMPDEST DUP3 PUSH3 0x9DD DUP5 PUSH3 0x9A0 JUMP JUMPDEST SWAP1 POP PUSH3 0x9EA DUP2 PUSH3 0x9AF JUMP JUMPDEST SWAP3 POP PUSH1 0x20 DUP3 LT ISZERO PUSH3 0xA2D JUMPI PUSH3 0xA28 PUSH32 0xFFFFFFFFFFFFFFFFFFFFFFFFFFFFFFFFFFFFFFFFFFFFFFFFFFFFFFFFFFFFFFFF DUP4 PUSH1 0x20 SUB PUSH1 0x8 MUL PUSH3 0x5A9 JUMP JUMPDEST DUP4 AND SWAP3 POP JUMPDEST POP POP SWAP2 SWAP1 POP JUMP JUMPDEST PUSH1 0x80 MLOAD PUSH1 0xA0 MLOAD PUSH1 0xC0 MLOAD PUSH1 0xE0 MLOAD PUSH2 0x100 MLOAD PUSH2 0x120 MLOAD PUSH2 0x140 MLOAD PUSH2 0x2083 PUSH3 0xA86 PUSH0 CODECOPY PUSH0 PUSH2 0xD70 ADD MSTORE PUSH0 PUSH2 0xD35 ADD MSTORE PUSH0 PUSH2 0x1269 ADD MSTORE PUSH0 PUSH2 0x1248 ADD MSTORE PUSH0 PUSH2 0xA6A ADD MSTORE PUSH0 PUSH2 0xAC0 ADD MSTORE PUSH0 PUSH2 0xAE9 ADD MSTORE PUSH2 0x2083 PUSH0 RETURN INVALID PUSH1 0x80 PUSH1 0x40 MSTORE CALLVALUE DUP1 ISZERO PUSH2 0xF JUMPI PUSH0 DUP1 REVERT JUMPDEST POP PUSH1 0x4 CALLDATASIZE LT PUSH2 0x109 JUMPI PUSH0 CALLDATALOAD PUSH1 0xE0 SHR DUP1 PUSH4 0x715018A6 GT PUSH2 0xA0 JUMPI DUP1 PUSH4 0x95D89B41 GT PUSH2 0x6F JUMPI DUP1 PUSH4 0x95D89B41 EQ PUSH2 0x2AD JUMPI DUP1 PUSH4 0xA9059CBB EQ PUSH2 0x2CB JUMPI DUP1 PUSH4 0xD505ACCF EQ PUSH2 0x2FB JUMPI DUP1 PUSH4 0xDD62ED3E EQ PUSH2 0x317 JUMPI DUP1 PUSH4 0xF2FDE38B EQ PUSH2 0x347 JUMPI PUSH2 0x109 JUMP JUMPDEST DUP1 PUSH4 0x715018A6 EQ PUSH2 0x231 JUMPI DUP1 PUSH4 0x7ECEBE00 EQ PUSH2 0x23B JUMPI DUP1 PUSH4 0x84B0196E EQ PUSH2 0x26B JUMPI DUP1 PUSH4 0x8DA5CB5B EQ PUSH2 0x28F JUMPI PUSH2 0x109 JUMP JUMPDEST DUP1 PUSH4 0x313CE567 GT PUSH2 0xDC JUMPI DUP1 PUSH4 0x313CE567 EQ PUSH2 0x1A9 JUMPI DUP1 PUSH4 0x3644E515 EQ PUSH2 0x1C7 JUMPI DUP1 PUSH4 0x40C10F19 EQ PUSH2 0x1E5 JUMPI DUP1 PUSH4 0x70A08231 EQ PUSH2 0x201 JUMPI PUSH2 0x109 JUMP JUMPDEST DUP1 PUSH4 0x6FDDE03 EQ PUSH2 0x10D JUMPI DUP1 PUSH4 0x95EA7B3 EQ PUSH2 0x12B JUMPI DUP1 PUSH4 0x18160DDD EQ PUSH2 0x15B JUMPI DUP1 PUSH4 0x23B872DD EQ PUSH2 0x179 JUMPI JUMPDEST PUSH0 DUP1 REVERT JUMPDEST PUSH2 0x115 PUSH2 0x363 JUMP JUMPDEST PUSH1 0x40 MLOAD PUSH2 0x122 SWAP2 SWAP1 PUSH2 0x1739 JUMP JUMPDEST PUSH1 0x40 MLOAD DUP1 SWAP2 SUB SWAP1 RETURN JUMPDEST PUSH2 0x145 PUSH1 0x4 DUP1 CALLDATASIZE SUB DUP2 ADD SWAP1 PUSH2 0x140 SWAP2 SWAP1 PUSH2 0x17EA JUMP JUMPDEST PUSH2 0x3F3 JUMP JUMPDEST PUSH1 0x40 MLOAD PUSH2 0x152 SWAP2 SWAP1 PUSH2 0x1842 JUMP JUMPDEST PUSH1 0x40 MLOAD DUP1 SWAP2 SUB SWAP1 RETURN JUMPDEST PUSH2 0x163 PUSH2 0x415 JUMP JUMPDEST PUSH1 0x40 MLOAD PUSH2 0x170 SWAP2 SWAP1 PUSH2 0x186A JUMP JUMPDEST PUSH1 0x40 MLOAD DUP1 SWAP2 SUB SWAP1 RETURN JUMPDEST PUSH2 0x193 PUSH1 0x4 DUP1 CALLDATASIZE SUB DUP2 ADD SWAP1 PUSH2 0x18E SWAP2 SWAP1 PUSH2 0x1883 JUMP JUMPDEST PUSH2 0x41E JUMP JUMPDEST PUSH1 0x40 MLOAD PUSH2 0x1A0 SWAP2 SWAP1 PUSH2 0x1842 JUMP JUMPDEST PUSH1 0x40 MLOAD DUP1 SWAP2 SUB SWAP1 RETURN JUMPDEST PUSH2 0x1B1 PUSH2 0x44C JUMP JUMPDEST PUSH1 0x40 MLOAD PUSH2 0x1BE SWAP2 SWAP1 PUSH2 0x18EE JUMP JUMPDEST PUSH1 0x40 MLOAD DUP1 SWAP2 SUB SWAP1 RETURN JUMPDEST PUSH2 0x1CF PUSH2 0x454 JUMP JUMPDEST PUSH1 0x40 MLOAD PUSH2 0x1DC SWAP2 SWAP1 PUSH2 0x191F JUMP JUMPDEST PUSH1 0x40 MLOAD DUP1 SWAP2 SUB SWAP1 RETURN JUMPDEST PUSH2 0x1FF PUSH1 0x4 DUP1 CALLDATASIZE SUB DUP2 ADD SWAP1 PUSH2 0x1FA SWAP2 SWAP1 PUSH2 0x17EA JUMP JUMPDEST PUSH2 0x462 JUMP JUMPDEST STOP JUMPDEST PUSH2 0x21B PUSH1 0x4 DUP1 CALLDATASIZE SUB DUP2 ADD SWAP1 PUSH2 0x216 SWAP2 SWAP1 PUSH2 0x1938 JUMP JUMPDEST PUSH2 0x499 JUMP JUMPDEST PUSH1 0x40 MLOAD PUSH2 0x228 SWAP2 SWAP1 PUSH2 0x186A JUMP JUMPDEST PUSH1 0x40 MLOAD DUP1 SWAP2 SUB SWAP1 RETURN JUMPDEST PUSH2 0x239 PUSH2 0x4DE JUMP JUMPDEST STOP JUMPDEST PUSH2 0x255 PUSH1 0x4 DUP1 CALLDATASIZE SUB DUP2 ADD SWAP1 PUSH2 0x250 SWAP2 SWAP1 PUSH2 0x1938 JUMP JUMPDEST PUSH2 0x4F1 JUMP JUMPDEST PUSH1 0x40 MLOAD PUSH2 0x262 SWAP2 SWAP1 PUSH2 0x186A JUMP JUMPDEST PUSH1 0x40 MLOAD DUP1 SWAP2 SUB SWAP1 RETURN JUMPDEST PUSH2 0x273 PUSH2 0x502 JUMP JUMPDEST PUSH1 0x40 MLOAD PUSH2 0x286 SWAP8 SWAP7 SWAP6 SWAP5 SWAP4 SWAP3 SWAP2 SWAP1 PUSH2 0x1A63 JUMP JUMPDEST PUSH1 0x40 MLOAD DUP1 SWAP2 SUB SWAP1 RETURN JUMPDEST PUSH2 0x297 PUSH2 0x5A7 JUMP JUMPDEST PUSH1 0x40 MLOAD PUSH2 0x2A4 SWAP2 SWAP1 PUSH2 0x1AE5 JUMP JUMPDEST PUSH1 0x40 MLOAD DUP1 SWAP2 SUB SWAP1 RETURN JUMPDEST PUSH2 0x2B5 PUSH2 0x5CF JUMP JUMPDEST PUSH1 0x40 MLOAD PUSH2 0x2C2 SWAP2 SWAP1 PUSH2 0x1739 JUMP JUMPDEST PUSH1 0x40 MLOAD DUP1 SWAP2 SUB SWAP1 RETURN JUMPDEST PUSH2 0x2E5 PUSH1 0x4 DUP1 CALLDATASIZE SUB DUP2 ADD SWAP1 PUSH2 0x2E0 SWAP2 SWAP1 PUSH2 0x17EA JUMP JUMPDEST PUSH2 0x65F JUMP JUMPDEST PUSH1 0x40 MLOAD PUSH2 0x2F2 SWAP2 SWAP1 PUSH2 0x1842 JUMP JUMPDEST PUSH1 0x40 MLOAD DUP1 SWAP2 SUB SWAP1 RETURN JUMPDEST PUSH2 0x315 PUSH1 0x4 DUP1 CALLDATASIZE SUB DUP2 ADD SWAP1 PUSH2 0x310 SWAP2 SWAP1 PUSH2 0x1B52 JUMP JUMPDEST PUSH2 0x681 JUMP JUMPDEST STOP JUMPDEST PUSH2 0x331 PUSH1 0x4 DUP1 CALLDATASIZE SUB DUP2 ADD SWAP1 PUSH2 0x32C SWAP2 SWAP1 PUSH2 0x1BEF JUMP JUMPDEST PUSH2 0x7C6 JUMP JUMPDEST PUSH1 0x40 MLOAD PUSH2 0x33E SWAP2 SWAP1 PUSH2 0x186A JUMP JUMPDEST PUSH1 0x40 MLOAD DUP1 SWAP2 SUB SWAP1 RETURN JUMPDEST PUSH2 0x361 PUSH1 0x4 DUP1 CALLDATASIZE SUB DUP2 ADD SWAP1 PUSH2 0x35C SWAP2 SWAP1 PUSH2 0x1938 JUMP JUMPDEST PUSH2 0x848 JUMP JUMPDEST STOP JUMPDEST PUSH1 0x60 PUSH1 0x3 DUP1 SLOAD PUSH2 0x372 SWAP1 PUSH2 0x1C5A JUMP JUMPDEST DUP1 PUSH1 0x1F ADD PUSH1 0x20 DUP1 SWAP2 DIV MUL PUSH1 0x20 ADD PUSH1 0x40 MLOAD SWAP1 DUP2 ADD PUSH1 0x40 MSTORE DUP1 SWAP3 SWAP2 SWAP1 DUP2 DUP2 MSTORE PUSH1 0x20 ADD DUP3 DUP1 SLOAD PUSH2 0x39E SWAP1 PUSH2 0x1C5A JUMP JUMPDEST DUP1 ISZERO PUSH2 0x3E9 JUMPI DUP1 PUSH1 0x1F LT PUSH2 0x3C0 JUMPI PUSH2 0x100 DUP1 DUP4 SLOAD DIV MUL DUP4 MSTORE SWAP2 PUSH1 0x20 ADD SWAP2 PUSH2 0x3E9 JUMP JUMPDEST DUP3 ADD SWAP2 SWAP1 PUSH0 MSTORE PUSH1 0x20 PUSH0 KECCAK256 SWAP1 JUMPDEST DUP2 SLOAD DUP2 MSTORE SWAP1 PUSH1 0x1 ADD SWAP1 PUSH1 0x20 ADD DUP1 DUP4 GT PUSH2 0x3CC JUMPI DUP3 SWAP1 SUB PUSH1 0x1F AND DUP3 ADD SWAP2 JUMPDEST POP POP POP POP POP SWAP1 POP SWAP1 JUMP JUMPDEST PUSH0 DUP1 PUSH2 0x3FD PUSH2 0x8CC JUMP JUMPDEST SWAP1 POP PUSH2 0x40A DUP2 DUP6 DUP6 PUSH2 0x8D3 JUMP JUMPDEST PUSH1 0x1 SWAP2 POP POP SWAP3 SWAP2 POP POP JUMP JUMPDEST PUSH0 PUSH1 0x2 SLOAD SWAP1 POP SWAP1 JUMP JUMPDEST PUSH0 DUP1 PUSH2 0x428 PUSH2 0x8CC JUMP JUMPDEST SWAP1 POP PUSH2 0x435 DUP6 DUP3 DUP6 PUSH2 0x8E5 JUMP JUMPDEST PUSH2 0x440 DUP6 DUP6 DUP6 PUSH2 0x977 JUMP JUMPDEST PUSH1 0x1 SWAP2 POP POP SWAP4 SWAP3 POP POP POP JUMP JUMPDEST PUSH0 PUSH1 0x12 SWAP1 POP SWAP1 JUMP JUMPDEST PUSH0 PUSH2 0x45D PUSH2 0xA67 JUMP JUMPDEST SWAP1 POP SWAP1 JUMP JUMPDEST PUSH2 0x46A PUSH2 0xB1D JUMP JUMPDEST PUSH2 0x495 DUP3 PUSH2 0x476 PUSH2 0x44C JUMP JUMPDEST PUSH1 0xFF AND PUSH1 0xA PUSH2 0x485 SWAP2 SWAP1 PUSH2 0x1DE6 JUMP JUMPDEST DUP4 PUSH2 0x490 SWAP2 SWAP1 PUSH2 0x1E30 JUMP JUMPDEST PUSH2 0xBA4 JUMP JUMPDEST POP POP JUMP JUMPDEST PUSH0 DUP1 PUSH0 DUP4 PUSH20 0xFFFFFFFFFFFFFFFFFFFFFFFFFFFFFFFFFFFFFFFF AND PUSH20 0xFFFFFFFFFFFFFFFFFFFFFFFFFFFFFFFFFFFFFFFF AND DUP2 MSTORE PUSH1 0x20 ADD SWAP1 DUP2 MSTORE PUSH1 0x20 ADD PUSH0 KECCAK256 SLOAD SWAP1 POP SWAP2 SWAP1 POP JUMP JUMPDEST PUSH2 0x4E6 PUSH2 0xB1D JUMP JUMPDEST PUSH2 0x4EF PUSH0 PUSH2 0xC23 JUMP JUMPDEST JUMP JUMPDEST PUSH0 PUSH2 0x4FB DUP3 PUSH2 0xCE6 JUMP JUMPDEST SWAP1 POP SWAP2 SWAP1 POP JUMP JUMPDEST PUSH0 PUSH1 0x60 DUP1 PUSH0 DUP1 PUSH0 PUSH1 0x60 PUSH2 0x513 PUSH2 0xD2C JUMP JUMPDEST PUSH2 0x51B PUSH2 0xD67 JUMP JUMPDEST CHAINID ADDRESS PUSH0 DUP1 SHL PUSH0 PUSH8 0xFFFFFFFFFFFFFFFF DUP2 GT ISZERO PUSH2 0x53A JUMPI PUSH2 0x539 PUSH2 0x1E71 JUMP JUMPDEST JUMPDEST PUSH1 0x40 MLOAD SWAP1 DUP1 DUP3 MSTORE DUP1 PUSH1 0x20 MUL PUSH1 0x20 ADD DUP3 ADD PUSH1 0x40 MSTORE DUP1 ISZERO PUSH2 0x568 JUMPI DUP2 PUSH1 0x20 ADD PUSH1 0x20 DUP3 MUL DUP1 CALLDATASIZE DUP4 CALLDATACOPY DUP1 DUP3 ADD SWAP2 POP POP SWAP1 POP JUMPDEST POP PUSH32 0xF00000000000000000000000000000000000000000000000000000000000000 SWAP6 SWAP5 SWAP4 SWAP3 SWAP2 SWAP1 SWAP7 POP SWAP7 POP SWAP7 POP SWAP7 POP SWAP7 POP SWAP7 POP SWAP7 POP SWAP1 SWAP2 SWAP3 SWAP4 SWAP5 SWAP6 SWAP7 JUMP JUMPDEST PUSH0 PUSH1 0x5 PUSH0 SWAP1 SLOAD SWAP1 PUSH2 0x100 EXP SWAP1 DIV PUSH20 0xFFFFFFFFFFFFFFFFFFFFFFFFFFFFFFFFFFFFFFFF AND SWAP1 POP SWAP1 JUMP JUMPDEST PUSH1 0x60 PUSH1 0x4 DUP1 SLOAD PUSH2 0x5DE SWAP1 PUSH2 0x1C5A JUMP JUMPDEST DUP1 PUSH1 0x1F ADD PUSH1 0x20 DUP1 SWAP2 DIV MUL PUSH1 0x20 ADD PUSH1 0x40 MLOAD SWAP1 DUP2 ADD PUSH1 0x40 MSTORE DUP1 SWAP3 SWAP2 SWAP1 DUP2 DUP2 MSTORE PUSH1 0x20 ADD DUP3 DUP1 SLOAD PUSH2 0x60A SWAP1 PUSH2 0x1C5A JUMP JUMPDEST DUP1 ISZERO PUSH2 0x655 JUMPI DUP1 PUSH1 0x1F LT PUSH2 0x62C JUMPI PUSH2 0x100 DUP1 DUP4 SLOAD DIV MUL DUP4 MSTORE SWAP2 PUSH1 0x20 ADD SWAP2 PUSH2 0x655 JUMP JUMPDEST DUP3 ADD SWAP2 SWAP1 PUSH0 MSTORE PUSH1 0x20 PUSH0 KECCAK256 SWAP1 JUMPDEST DUP2 SLOAD DUP2 MSTORE SWAP1 PUSH1 0x1 ADD SWAP1 PUSH1 0x20 ADD DUP1 DUP4 GT PUSH2 0x638 JUMPI DUP3 SWAP1 SUB PUSH1 0x1F AND DUP3 ADD SWAP2 JUMPDEST POP POP POP POP POP SWAP1 POP SWAP1 JUMP JUMPDEST PUSH0 DUP1 PUSH2 0x669 PUSH2 0x8CC JUMP JUMPDEST SWAP1 POP PUSH2 0x676 DUP2 DUP6 DUP6 PUSH2 0x977 JUMP JUMPDEST PUSH1 0x1 SWAP2 POP POP SWAP3 SWAP2 POP POP JUMP JUMPDEST DUP4 TIMESTAMP GT ISZERO PUSH2 0x6C6 JUMPI DUP4 PUSH1 0x40 MLOAD PUSH32 0x6279130200000000000000000000000000000000000000000000000000000000 DUP2 MSTORE PUSH1 0x4 ADD PUSH2 0x6BD SWAP2 SWAP1 PUSH2 0x186A JUMP JUMPDEST PUSH1 0x40 MLOAD DUP1 SWAP2 SUB SWAP1 REVERT JUMPDEST PUSH0 PUSH32 0x6E71EDAE12B1B97F4D1F60370FEF10105FA2FAAE0126114A169C64845D6126C9 DUP9 DUP9 DUP9 PUSH2 0x6F4 DUP13 PUSH2 0xDA2 JUMP JUMPDEST DUP10 PUSH1 0x40 MLOAD PUSH1 0x20 ADD PUSH2 0x70A SWAP7 SWAP6 SWAP5 SWAP4 SWAP3 SWAP2 SWAP1 PUSH2 0x1E9E JUMP JUMPDEST PUSH1 0x40 MLOAD PUSH1 0x20 DUP2 DUP4 SUB SUB DUP2 MSTORE SWAP1 PUSH1 0x40 MSTORE DUP1 MLOAD SWAP1 PUSH1 0x20 ADD KECCAK256 SWAP1 POP PUSH0 PUSH2 0x72C DUP3 PUSH2 0xDF5 JUMP JUMPDEST SWAP1 POP PUSH0 PUSH2 0x73B DUP3 DUP8 DUP8 DUP8 PUSH2 0xE0E JUMP JUMPDEST SWAP1 POP DUP10 PUSH20 0xFFFFFFFFFFFFFFFFFFFFFFFFFFFFFFFFFFFFFFFF AND DUP2 PUSH20 0xFFFFFFFFFFFFFFFFFFFFFFFFFFFFFFFFFFFFFFFF AND EQ PUSH2 0x7AF JUMPI DUP1 DUP11 PUSH1 0x40 MLOAD PUSH32 0x4B800E4600000000000000000000000000000000000000000000000000000000 DUP2 MSTORE PUSH1 0x4 ADD PUSH2 0x7A6 SWAP3 SWAP2 SWAP1 PUSH2 0x1EFD JUMP JUMPDEST PUSH1 0x40 MLOAD DUP1 SWAP2 SUB SWAP1 REVERT JUMPDEST PUSH2 0x7BA DUP11 DUP11 DUP11 PUSH2 0x8D3 JUMP JUMPDEST POP POP POP POP POP POP POP POP POP POP JUMP JUMPDEST PUSH0 PUSH1 0x1 PUSH0 DUP5 PUSH20 0xFFFFFFFFFFFFFFFFFFFFFFFFFFFFFFFFFFFFFFFF AND PUSH20 0xFFFFFFFFFFFFFFFFFFFFFFFFFFFFFFFFFFFFFFFF AND DUP2 MSTORE PUSH1 0x20 ADD SWAP1 DUP2 MSTORE PUSH1 0x20 ADD PUSH0 KECCAK256 PUSH0 DUP4 PUSH20 0xFFFFFFFFFFFFFFFFFFFFFFFFFFFFFFFFFFFFFFFF AND PUSH20 0xFFFFFFFFFFFFFFFFFFFFFFFFFFFFFFFFFFFFFFFF AND DUP2 MSTORE PUSH1 0x20 ADD SWAP1 DUP2 MSTORE PUSH1 0x20 ADD PUSH0 KECCAK256 SLOAD SWAP1 POP SWAP3 SWAP2 POP POP JUMP JUMPDEST PUSH2 0x850 PUSH2 0xB1D JUMP JUMPDEST PUSH0 PUSH20 0xFFFFFFFFFFFFFFFFFFFFFFFFFFFFFFFFFFFFFFFF AND DUP2 PUSH20 0xFFFFFFFFFFFFFFFFFFFFFFFFFFFFFFFFFFFFFFFF AND SUB PUSH2 0x8C0 JUMPI PUSH0 PUSH1 0x40 MLOAD PUSH32 0x1E4FBDF700000000000000000000000000000000000000000000000000000000 DUP2 MSTORE PUSH1 0x4 ADD PUSH2 0x8B7 SWAP2 SWAP1 PUSH2 0x1AE5 JUMP JUMPDEST PUSH1 0x40 MLOAD DUP1 SWAP2 SUB SWAP1 REVERT JUMPDEST PUSH2 0x8C9 DUP2 PUSH2 0xC23 JUMP JUMPDEST POP JUMP JUMPDEST PUSH0 CALLER SWAP1 POP SWAP1 JUMP JUMPDEST PUSH2 0x8E0 DUP4 DUP4 DUP4 PUSH1 0x1 PUSH2 0xE3C JUMP JUMPDEST POP POP POP JUMP JUMPDEST PUSH0 PUSH2 0x8F0 DUP5 DUP5 PUSH2 0x7C6 JUMP JUMPDEST SWAP1 POP PUSH32 0xFFFFFFFFFFFFFFFFFFFFFFFFFFFFFFFFFFFFFFFFFFFFFFFFFFFFFFFFFFFFFFFF DUP2 EQ PUSH2 0x971 JUMPI DUP2 DUP2 LT ISZERO PUSH2 0x962 JUMPI DUP4 DUP2 DUP4 PUSH1 0x40 MLOAD PUSH32 0xFB8F41B200000000000000000000000000000000000000000000000000000000 DUP2 MSTORE PUSH1 0x4 ADD PUSH2 0x959 SWAP4 SWAP3 SWAP2 SWAP1 PUSH2 0x1F24 JUMP JUMPDEST PUSH1 0x40 MLOAD DUP1 SWAP2 SUB SWAP1 REVERT JUMPDEST PUSH2 0x970 DUP5 DUP5 DUP5 DUP5 SUB PUSH0 PUSH2 0xE3C JUMP JUMPDEST JUMPDEST POP POP POP POP JUMP JUMPDEST PUSH0 PUSH20 0xFFFFFFFFFFFFFFFFFFFFFFFFFFFFFFFFFFFFFFFF AND DUP4 PUSH20 0xFFFFFFFFFFFFFFFFFFFFFFFFFFFFFFFFFFFFFFFF AND SUB PUSH2 0x9E7 JUMPI PUSH0 PUSH1 0x40 MLOAD PUSH32 0x96C6FD1E00000000000000000000000000000000000000000000000000000000 DUP2 MSTORE PUSH1 0x4 ADD PUSH2 0x9DE SWAP2 SWAP1 PUSH2 0x1AE5 JUMP JUMPDEST PUSH1 0x40 MLOAD DUP1 SWAP2 SUB SWAP1 REVERT JUMPDEST PUSH0 PUSH20 0xFFFFFFFFFFFFFFFFFFFFFFFFFFFFFFFFFFFFFFFF AND DUP3 PUSH20 0xFFFFFFFFFFFFFFFFFFFFFFFFFFFFFFFFFFFFFFFF AND SUB PUSH2 0xA57 JUMPI PUSH0 PUSH1 0x40 MLOAD PUSH32 0xEC442F0500000000000000000000000000000000000000000000000000000000 DUP2 MSTORE PUSH1 0x4 ADD PUSH2 0xA4E SWAP2 SWAP1 PUSH2 0x1AE5 JUMP JUMPDEST PUSH1 0x40 MLOAD DUP1 SWAP2 SUB SWAP1 REVERT JUMPDEST PUSH2 0xA62 DUP4 DUP4 DUP4 PUSH2 0x100B JUMP JUMPDEST POP POP POP JUMP JUMPDEST PUSH0 PUSH32 0x0 PUSH20 0xFFFFFFFFFFFFFFFFFFFFFFFFFFFFFFFFFFFFFFFF AND ADDRESS PUSH20 0xFFFFFFFFFFFFFFFFFFFFFFFFFFFFFFFFFFFFFFFF AND EQ DUP1 ISZERO PUSH2 0xAE2 JUMPI POP PUSH32 0x0 CHAINID EQ JUMPDEST ISZERO PUSH2 0xB0F JUMPI PUSH32 0x0 SWAP1 POP PUSH2 0xB1A JUMP JUMPDEST PUSH2 0xB17 PUSH2 0x1224 JUMP JUMPDEST SWAP1 POP JUMPDEST SWAP1 JUMP JUMPDEST PUSH2 0xB25 PUSH2 0x8CC JUMP JUMPDEST PUSH20 0xFFFFFFFFFFFFFFFFFFFFFFFFFFFFFFFFFFFFFFFF AND PUSH2 0xB43 PUSH2 0x5A7 JUMP JUMPDEST PUSH20 0xFFFFFFFFFFFFFFFFFFFFFFFFFFFFFFFFFFFFFFFF AND EQ PUSH2 0xBA2 JUMPI PUSH2 0xB66 PUSH2 0x8CC JUMP JUMPDEST PUSH1 0x40 MLOAD PUSH32 0x118CDAA700000000000000000000000000000000000000000000000000000000 DUP2 MSTORE PUSH1 0x4 ADD PUSH2 0xB99 SWAP2 SWAP1 PUSH2 0x1AE5 JUMP JUMPDEST PUSH1 0x40 MLOAD DUP1 SWAP2 SUB SWAP1 REVERT JUMPDEST JUMP JUMPDEST PUSH0 PUSH20 0xFFFFFFFFFFFFFFFFFFFFFFFFFFFFFFFFFFFFFFFF AND DUP3 PUSH20 0xFFFFFFFFFFFFFFFFFFFFFFFFFFFFFFFFFFFFFFFF AND SUB PUSH2 0xC14 JUMPI PUSH0 PUSH1 0x40 MLOAD PUSH32 0xEC442F0500000000000000000000000000000000000000000000000000000000 DUP2 MSTORE PUSH1 0x4 ADD PUSH2 0xC0B SWAP2 SWAP1 PUSH2 0x1AE5 JUMP JUMPDEST PUSH1 0x40 MLOAD DUP1 SWAP2 SUB SWAP1 REVERT JUMPDEST PUSH2 0xC1F PUSH0 DUP4 DUP4 PUSH2 0x100B JUMP JUMPDEST POP POP JUMP JUMPDEST PUSH0 PUSH1 0x5 PUSH0 SWAP1 SLOAD SWAP1 PUSH2 0x100 EXP SWAP1 DIV PUSH20 0xFFFFFFFFFFFFFFFFFFFFFFFFFFFFFFFFFFFFFFFF AND SWAP1 POP DUP2 PUSH1 0x5 PUSH0 PUSH2 0x100 EXP DUP2 SLOAD DUP2 PUSH20 0xFFFFFFFFFFFFFFFFFFFFFFFFFFFFFFFFFFFFFFFF MUL NOT AND SWAP1 DUP4 PUSH20 0xFFFFFFFFFFFFFFFFFFFFFFFFFFFFFFFFFFFFFFFF AND MUL OR SWAP1 SSTORE POP DUP2 PUSH20 0xFFFFFFFFFFFFFFFFFFFFFFFFFFFFFFFFFFFFFFFF AND DUP2 PUSH20 0xFFFFFFFFFFFFFFFFFFFFFFFFFFFFFFFFFFFFFFFF AND PUSH32 0x8BE0079C531659141344CD1FD0A4F28419497F9722A3DAAFE3B4186F6B6457E0 PUSH1 0x40 MLOAD PUSH1 0x40 MLOAD DUP1 SWAP2 SUB SWAP1 LOG3 POP POP JUMP JUMPDEST PUSH0 PUSH1 0x8 PUSH0 DUP4 PUSH20 0xFFFFFFFFFFFFFFFFFFFFFFFFFFFFFFFFFFFFFFFF AND PUSH20 0xFFFFFFFFFFFFFFFFFFFFFFFFFFFFFFFFFFFFFFFF AND DUP2 MSTORE PUSH1 0x20 ADD SWAP1 DUP2 MSTORE PUSH1 0x20 ADD PUSH0 KECCAK256 SLOAD SWAP1 POP SWAP2 SWAP1 POP JUMP JUMPDEST PUSH1 0x60 PUSH2 0xD62 PUSH1 0x6 PUSH32 0x0 PUSH2 0x12B9 SWAP1 SWAP2 SWAP1 PUSH4 0xFFFFFFFF AND JUMP JUMPDEST SWAP1 POP SWAP1 JUMP JUMPDEST PUSH1 0x60 PUSH2 0xD9D PUSH1 0x7 PUSH32 0x0 PUSH2 0x12B9 SWAP1 SWAP2 SWAP1 PUSH4 0xFFFFFFFF AND JUMP JUMPDEST SWAP1 POP SWAP1 JUMP JUMPDEST PUSH0 PUSH1 0x8 PUSH0 DUP4 PUSH20 0xFFFFFFFFFFFFFFFFFFFFFFFFFFFFFFFFFFFFFFFF AND PUSH20 0xFFFFFFFFFFFFFFFFFFFFFFFFFFFFFFFFFFFFFFFF AND DUP2 MSTORE PUSH1 0x20 ADD SWAP1 DUP2 MSTORE PUSH1 0x20 ADD PUSH0 KECCAK256 PUSH0 DUP2 SLOAD DUP1 SWAP3 SWAP2 SWAP1 PUSH1 0x1 ADD SWAP2 SWAP1 POP SSTORE SWAP1 POP SWAP2 SWAP1 POP JUMP JUMPDEST PUSH0 PUSH2 0xE07 PUSH2 0xE01 PUSH2 0xA67 JUMP JUMPDEST DUP4 PUSH2 0x1366 JUMP JUMPDEST SWAP1 POP SWAP2 SWAP1 POP JUMP JUMPDEST PUSH0 DUP1 PUSH0 DUP1 PUSH2 0xE1E DUP9 DUP9 DUP9 DUP9 PUSH2 0x13A6 JUMP JUMPDEST SWAP3 POP SWAP3 POP SWAP3 POP PUSH2 0xE2E DUP3 DUP3 PUSH2 0x148D JUMP JUMPDEST DUP3 SWAP4 POP POP POP POP SWAP5 SWAP4 POP POP POP POP JUMP JUMPDEST PUSH0 PUSH20 0xFFFFFFFFFFFFFFFFFFFFFFFFFFFFFFFFFFFFFFFF AND DUP5 PUSH20 0xFFFFFFFFFFFFFFFFFFFFFFFFFFFFFFFFFFFFFFFF AND SUB PUSH2 0xEAC JUMPI PUSH0 PUSH1 0x40 MLOAD PUSH32 0xE602DF0500000000000000000000000000000000000000000000000000000000 DUP2 MSTORE PUSH1 0x4 ADD PUSH2 0xEA3 SWAP2 SWAP1 PUSH2 0x1AE5 JUMP JUMPDEST PUSH1 0x40 MLOAD DUP1 SWAP2 SUB SWAP1 REVERT JUMPDEST PUSH0 PUSH20 0xFFFFFFFFFFFFFFFFFFFFFFFFFFFFFFFFFFFFFFFF AND DUP4 PUSH20 0xFFFFFFFFFFFFFFFFFFFFFFFFFFFFFFFFFFFFFFFF AND SUB PUSH2 0xF1C JUMPI PUSH0 PUSH1 0x40 MLOAD PUSH32 0x94280D6200000000000000000000000000000000000000000000000000000000 DUP2 MSTORE PUSH1 0x4 ADD PUSH2 0xF13 SWAP2 SWAP1 PUSH2 0x1AE5 JUMP JUMPDEST PUSH1 0x40 MLOAD DUP1 SWAP2 SUB SWAP1 REVERT JUMPDEST DUP2 PUSH1 0x1 PUSH0 DUP7 PUSH20 0xFFFFFFFFFFFFFFFFFFFFFFFFFFFFFFFFFFFFFFFF AND PUSH20 0xFFFFFFFFFFFFFFFFFFFFFFFFFFFFFFFFFFFFFFFF AND DUP2 MSTORE PUSH1 0x20 ADD SWAP1 DUP2 MSTORE PUSH1 0x20 ADD PUSH0 KECCAK256 PUSH0 DUP6 PUSH20 0xFFFFFFFFFFFFFFFFFFFFFFFFFFFFFFFFFFFFFFFF AND PUSH20 0xFFFFFFFFFFFFFFFFFFFFFFFFFFFFFFFFFFFFFFFF AND DUP2 MSTORE PUSH1 0x20 ADD SWAP1 DUP2 MSTORE PUSH1 0x20 ADD PUSH0 KECCAK256 DUP2 SWAP1 SSTORE POP DUP1 ISZERO PUSH2 0x1005 JUMPI DUP3 PUSH20 0xFFFFFFFFFFFFFFFFFFFFFFFFFFFFFFFFFFFFFFFF AND DUP5 PUSH20 0xFFFFFFFFFFFFFFFFFFFFFFFFFFFFFFFFFFFFFFFF AND PUSH32 0x8C5BE1E5EBEC7D5BD14F71427D1E84F3DD0314C0F7B2291E5B200AC8C7C3B925 DUP5 PUSH1 0x40 MLOAD PUSH2 0xFFC SWAP2 SWAP1 PUSH2 0x186A JUMP JUMPDEST PUSH1 0x40 MLOAD DUP1 SWAP2 SUB SWAP1 LOG3 JUMPDEST POP POP POP POP JUMP JUMPDEST PUSH0 PUSH20 0xFFFFFFFFFFFFFFFFFFFFFFFFFFFFFFFFFFFFFFFF AND DUP4 PUSH20 0xFFFFFFFFFFFFFFFFFFFFFFFFFFFFFFFFFFFFFFFF AND SUB PUSH2 0x105B JUMPI DUP1 PUSH1 0x2 PUSH0 DUP3 DUP3 SLOAD PUSH2 0x104F SWAP2 SWAP1 PUSH2 0x1F59 JUMP JUMPDEST SWAP3 POP POP DUP2 SWAP1 SSTORE POP PUSH2 0x1129 JUMP JUMPDEST PUSH0 DUP1 PUSH0 DUP6 PUSH20 0xFFFFFFFFFFFFFFFFFFFFFFFFFFFFFFFFFFFFFFFF AND PUSH20 0xFFFFFFFFFFFFFFFFFFFFFFFFFFFFFFFFFFFFFFFF AND DUP2 MSTORE PUSH1 0x20 ADD SWAP1 DUP2 MSTORE PUSH1 0x20 ADD PUSH0 KECCAK256 SLOAD SWAP1 POP DUP2 DUP2 LT ISZERO PUSH2 0x10E4 JUMPI DUP4 DUP2 DUP4 PUSH1 0x40 MLOAD PUSH32 0xE450D38C00000000000000000000000000000000000000000000000000000000 DUP2 MSTORE PUSH1 0x4 ADD PUSH2 0x10DB SWAP4 SWAP3 SWAP2 SWAP1 PUSH2 0x1F24 JUMP JUMPDEST PUSH1 0x40 MLOAD DUP1 SWAP2 SUB SWAP1 REVERT JUMPDEST DUP2 DUP2 SUB PUSH0 DUP1 DUP7 PUSH20 0xFFFFFFFFFFFFFFFFFFFFFFFFFFFFFFFFFFFFFFFF AND PUSH20 0xFFFFFFFFFFFFFFFFFFFFFFFFFFFFFFFFFFFFFFFF AND DUP2 MSTORE PUSH1 0x20 ADD SWAP1 DUP2 MSTORE PUSH1 0x20 ADD PUSH0 KECCAK256 DUP2 SWAP1 SSTORE POP POP JUMPDEST PUSH0 PUSH20 0xFFFFFFFFFFFFFFFFFFFFFFFFFFFFFFFFFFFFFFFF AND DUP3 PUSH20 0xFFFFFFFFFFFFFFFFFFFFFFFFFFFFFFFFFFFFFFFF AND SUB PUSH2 0x1170 JUMPI DUP1 PUSH1 0x2 PUSH0 DUP3 DUP3 SLOAD SUB SWAP3 POP POP DUP2 SWAP1 SSTORE POP PUSH2 0x11BA JUMP JUMPDEST DUP1 PUSH0 DUP1 DUP5 PUSH20 0xFFFFFFFFFFFFFFFFFFFFFFFFFFFFFFFFFFFFFFFF AND PUSH20 0xFFFFFFFFFFFFFFFFFFFFFFFFFFFFFFFFFFFFFFFF AND DUP2 MSTORE PUSH1 0x20 ADD SWAP1 DUP2 MSTORE PUSH1 0x20 ADD PUSH0 KECCAK256 PUSH0 DUP3 DUP3 SLOAD ADD SWAP3 POP POP DUP2 SWAP1 SSTORE POP JUMPDEST DUP2 PUSH20 0xFFFFFFFFFFFFFFFFFFFFFFFFFFFFFFFFFFFFFFFF AND DUP4 PUSH20 0xFFFFFFFFFFFFFFFFFFFFFFFFFFFFFFFFFFFFFFFF AND PUSH32 0xDDF252AD1BE2C89B69C2B068FC378DAA952BA7F163C4A11628F55A4DF523B3EF DUP4 PUSH1 0x40 MLOAD PUSH2 0x1217 SWAP2 SWAP1 PUSH2 0x186A JUMP JUMPDEST PUSH1 0x40 MLOAD DUP1 SWAP2 SUB SWAP1 LOG3 POP POP POP JUMP JUMPDEST PUSH0 PUSH32 0x8B73C3C69BB8FE3D512ECC4CF759CC79239F7B179B0FFACAA9A75D522B39400F PUSH32 0x0 PUSH32 0x0 CHAINID ADDRESS PUSH1 0x40 MLOAD PUSH1 0x20 ADD PUSH2 0x129E SWAP6 SWAP5 SWAP4 SWAP3 SWAP2 SWAP1 PUSH2 0x1F8C JUMP JUMPDEST PUSH1 0x40 MLOAD PUSH1 0x20 DUP2 DUP4 SUB SUB DUP2 MSTORE SWAP1 PUSH1 0x40 MSTORE DUP1 MLOAD SWAP1 PUSH1 0x20 ADD KECCAK256 SWAP1 POP SWAP1 JUMP JUMPDEST PUSH1 0x60 PUSH1 0xFF PUSH0 SHL DUP4 EQ PUSH2 0x12D5 JUMPI PUSH2 0x12CE DUP4 PUSH2 0x15EF JUMP JUMPDEST SWAP1 POP PUSH2 0x1360 JUMP JUMPDEST DUP2 DUP1 SLOAD PUSH2 0x12E1 SWAP1 PUSH2 0x1C5A JUMP JUMPDEST DUP1 PUSH1 0x1F ADD PUSH1 0x20 DUP1 SWAP2 DIV MUL PUSH1 0x20 ADD PUSH1 0x40 MLOAD SWAP1 DUP2 ADD PUSH1 0x40 MSTORE DUP1 SWAP3 SWAP2 SWAP1 DUP2 DUP2 MSTORE PUSH1 0x20 ADD DUP3 DUP1 SLOAD PUSH2 0x130D SWAP1 PUSH2 0x1C5A JUMP JUMPDEST DUP1 ISZERO PUSH2 0x1358 JUMPI DUP1 PUSH1 0x1F LT PUSH2 0x132F JUMPI PUSH2 0x100 DUP1 DUP4 SLOAD DIV MUL DUP4 MSTORE SWAP2 PUSH1 0x20 ADD SWAP2 PUSH2 0x1358 JUMP JUMPDEST DUP3 ADD SWAP2 SWAP1 PUSH0 MSTORE PUSH1 0x20 PUSH0 KECCAK256 SWAP1 JUMPDEST DUP2 SLOAD DUP2 MSTORE SWAP1 PUSH1 0x1 ADD SWAP1 PUSH1 0x20 ADD DUP1 DUP4 GT PUSH2 0x133B JUMPI DUP3 SWAP1 SUB PUSH1 0x1F AND DUP3 ADD SWAP2 JUMPDEST POP POP POP POP POP SWAP1 POP JUMPDEST SWAP3 SWAP2 POP POP JUMP JUMPDEST PUSH0 PUSH1 0x40 MLOAD PUSH32 0x1901000000000000000000000000000000000000000000000000000000000000 DUP2 MSTORE DUP4 PUSH1 0x2 DUP3 ADD MSTORE DUP3 PUSH1 0x22 DUP3 ADD MSTORE PUSH1 0x42 DUP2 KECCAK256 SWAP2 POP POP SWAP3 SWAP2 POP POP JUMP JUMPDEST PUSH0 DUP1 PUSH0 PUSH32 0x7FFFFFFFFFFFFFFFFFFFFFFFFFFFFFFF5D576E7357A4501DDFE92F46681B20A0 DUP5 PUSH0 SHR GT ISZERO PUSH2 0x13E2 JUMPI PUSH0 PUSH1 0x3 DUP6 SWAP3 POP SWAP3 POP SWAP3 POP PUSH2 0x1483 JUMP JUMPDEST PUSH0 PUSH1 0x1 DUP9 DUP9 DUP9 DUP9 PUSH1 0x40 MLOAD PUSH0 DUP2 MSTORE PUSH1 0x20 ADD PUSH1 0x40 MSTORE PUSH1 0x40 MLOAD PUSH2 0x1405 SWAP5 SWAP4 SWAP3 SWAP2 SWAP1 PUSH2 0x1FDD JUMP JUMPDEST PUSH1 0x20 PUSH1 0x40 MLOAD PUSH1 0x20 DUP2 SUB SWAP1 DUP1 DUP5 SUB SWAP1 DUP6 GAS STATICCALL ISZERO DUP1 ISZERO PUSH2 0x1425 JUMPI RETURNDATASIZE PUSH0 DUP1 RETURNDATACOPY RETURNDATASIZE PUSH0 REVERT JUMPDEST POP POP POP PUSH1 0x20 PUSH1 0x40 MLOAD SUB MLOAD SWAP1 POP PUSH0 PUSH20 0xFFFFFFFFFFFFFFFFFFFFFFFFFFFFFFFFFFFFFFFF AND DUP2 PUSH20 0xFFFFFFFFFFFFFFFFFFFFFFFFFFFFFFFFFFFFFFFF AND SUB PUSH2 0x1476 JUMPI PUSH0 PUSH1 0x1 PUSH0 DUP1 SHL SWAP4 POP SWAP4 POP SWAP4 POP POP PUSH2 0x1483 JUMP JUMPDEST DUP1 PUSH0 DUP1 PUSH0 SHL SWAP4 POP SWAP4 POP SWAP4 POP POP JUMPDEST SWAP5 POP SWAP5 POP SWAP5 SWAP2 POP POP JUMP JUMPDEST PUSH0 PUSH1 0x3 DUP2 GT ISZERO PUSH2 0x14A0 JUMPI PUSH2 0x149F PUSH2 0x2020 JUMP JUMPDEST JUMPDEST DUP3 PUSH1 0x3 DUP2 GT ISZERO PUSH2 0x14B3 JUMPI PUSH2 0x14B2 PUSH2 0x2020 JUMP JUMPDEST JUMPDEST SUB ISZERO PUSH2 0x15EB JUMPI PUSH1 0x1 PUSH1 0x3 DUP2 GT ISZERO PUSH2 0x14CD JUMPI PUSH2 0x14CC PUSH2 0x2020 JUMP JUMPDEST JUMPDEST DUP3 PUSH1 0x3 DUP2 GT ISZERO PUSH2 0x14E0 JUMPI PUSH2 0x14DF PUSH2 0x2020 JUMP JUMPDEST JUMPDEST SUB PUSH2 0x1517 JUMPI PUSH1 0x40 MLOAD PUSH32 0xF645EEDF00000000000000000000000000000000000000000000000000000000 DUP2 MSTORE PUSH1 0x4 ADD PUSH1 0x40 MLOAD DUP1 SWAP2 SUB SWAP1 REVERT JUMPDEST PUSH1 0x2 PUSH1 0x3 DUP2 GT ISZERO PUSH2 0x152B JUMPI PUSH2 0x152A PUSH2 0x2020 JUMP JUMPDEST JUMPDEST DUP3 PUSH1 0x3 DUP2 GT ISZERO PUSH2 0x153E JUMPI PUSH2 0x153D PUSH2 0x2020 JUMP JUMPDEST JUMPDEST SUB PUSH2 0x1582 JUMPI DUP1 PUSH0 SHR PUSH1 0x40 MLOAD PUSH32 0xFCE698F700000000000000000000000000000000000000000000000000000000 DUP2 MSTORE PUSH1 0x4 ADD PUSH2 0x1579 SWAP2 SWAP1 PUSH2 0x186A JUMP JUMPDEST PUSH1 0x40 MLOAD DUP1 SWAP2 SUB SWAP1 REVERT JUMPDEST PUSH1 0x3 DUP1 DUP2 GT ISZERO PUSH2 0x1595 JUMPI PUSH2 0x1594 PUSH2 0x2020 JUMP JUMPDEST JUMPDEST DUP3 PUSH1 0x3 DUP2 GT ISZERO PUSH2 0x15A8 JUMPI PUSH2 0x15A7 PUSH2 0x2020 JUMP JUMPDEST JUMPDEST SUB PUSH2 0x15EA JUMPI DUP1 PUSH1 0x40 MLOAD PUSH32 0xD78BCE0C00000000000000000000000000000000000000000000000000000000 DUP2 MSTORE PUSH1 0x4 ADD PUSH2 0x15E1 SWAP2 SWAP1 PUSH2 0x191F JUMP JUMPDEST PUSH1 0x40 MLOAD DUP1 SWAP2 SUB SWAP1 REVERT JUMPDEST JUMPDEST POP POP JUMP JUMPDEST PUSH1 0x60 PUSH0 PUSH2 0x15FB DUP4 PUSH2 0x1661 JUMP JUMPDEST SWAP1 POP PUSH0 PUSH1 0x20 PUSH8 0xFFFFFFFFFFFFFFFF DUP2 GT ISZERO PUSH2 0x1619 JUMPI PUSH2 0x1618 PUSH2 0x1E71 JUMP JUMPDEST JUMPDEST PUSH1 0x40 MLOAD SWAP1 DUP1 DUP3 MSTORE DUP1 PUSH1 0x1F ADD PUSH1 0x1F NOT AND PUSH1 0x20 ADD DUP3 ADD PUSH1 0x40 MSTORE DUP1 ISZERO PUSH2 0x164B JUMPI DUP2 PUSH1 0x20 ADD PUSH1 0x1 DUP3 MUL DUP1 CALLDATASIZE DUP4 CALLDATACOPY DUP1 DUP3 ADD SWAP2 POP POP SWAP1 POP JUMPDEST POP SWAP1 POP DUP2 DUP2 MSTORE DUP4 PUSH1 0x20 DUP3 ADD MSTORE DUP1 SWAP3 POP POP POP SWAP2 SWAP1 POP JUMP JUMPDEST PUSH0 DUP1 PUSH1 0xFF DUP4 PUSH0 SHR AND SWAP1 POP PUSH1 0x1F DUP2 GT ISZERO PUSH2 0x16A6 JUMPI PUSH1 0x40 MLOAD PUSH32 0xB3512B0C00000000000000000000000000000000000000000000000000000000 DUP2 MSTORE PUSH1 0x4 ADD PUSH1 0x40 MLOAD DUP1 SWAP2 SUB SWAP1 REVERT JUMPDEST DUP1 SWAP2 POP POP SWAP2 SWAP1 POP JUMP JUMPDEST PUSH0 DUP2 MLOAD SWAP1 POP SWAP2 SWAP1 POP JUMP JUMPDEST PUSH0 DUP3 DUP3 MSTORE PUSH1 0x20 DUP3 ADD SWAP1 POP SWAP3 SWAP2 POP POP JUMP JUMPDEST PUSH0 JUMPDEST DUP4 DUP2 LT ISZERO PUSH2 0x16E6 JUMPI DUP1 DUP3 ADD MLOAD DUP2 DUP5 ADD MSTORE PUSH1 0x20 DUP2 ADD SWAP1 POP PUSH2 0x16CB JUMP JUMPDEST PUSH0 DUP5 DUP5 ADD MSTORE POP POP POP POP JUMP JUMPDEST PUSH0 PUSH1 0x1F NOT PUSH1 0x1F DUP4 ADD AND SWAP1 POP SWAP2 SWAP1 POP JUMP JUMPDEST PUSH0 PUSH2 0x170B DUP3 PUSH2 0x16AF JUMP JUMPDEST PUSH2 0x1715 DUP2 DUP6 PUSH2 0x16B9 JUMP JUMPDEST SWAP4 POP PUSH2 0x1725 DUP2 DUP6 PUSH1 0x20 DUP7 ADD PUSH2 0x16C9 JUMP JUMPDEST PUSH2 0x172E DUP2 PUSH2 0x16F1 JUMP JUMPDEST DUP5 ADD SWAP2 POP POP SWAP3 SWAP2 POP POP JUMP JUMPDEST PUSH0 PUSH1 0x20 DUP3 ADD SWAP1 POP DUP2 DUP2 SUB PUSH0 DUP4 ADD MSTORE PUSH2 0x1751 DUP2 DUP5 PUSH2 0x1701 JUMP JUMPDEST SWAP1 POP SWAP3 SWAP2 POP POP JUMP JUMPDEST PUSH0 DUP1 REVERT JUMPDEST PUSH0 PUSH20 0xFFFFFFFFFFFFFFFFFFFFFFFFFFFFFFFFFFFFFFFF DUP3 AND SWAP1 POP SWAP2 SWAP1 POP JUMP JUMPDEST PUSH0 PUSH2 0x1786 DUP3 PUSH2 0x175D JUMP JUMPDEST SWAP1 POP SWAP2 SWAP1 POP JUMP JUMPDEST PUSH2 0x1796 DUP2 PUSH2 0x177C JUMP JUMPDEST DUP2 EQ PUSH2 0x17A0 JUMPI PUSH0 DUP1 REVERT JUMPDEST POP JUMP JUMPDEST PUSH0 DUP2 CALLDATALOAD SWAP1 POP PUSH2 0x17B1 DUP2 PUSH2 0x178D JUMP JUMPDEST SWAP3 SWAP2 POP POP JUMP JUMPDEST PUSH0 DUP2 SWAP1 POP SWAP2 SWAP1 POP JUMP JUMPDEST PUSH2 0x17C9 DUP2 PUSH2 0x17B7 JUMP JUMPDEST DUP2 EQ PUSH2 0x17D3 JUMPI PUSH0 DUP1 REVERT JUMPDEST POP JUMP JUMPDEST PUSH0 DUP2 CALLDATALOAD SWAP1 POP PUSH2 0x17E4 DUP2 PUSH2 0x17C0 JUMP JUMPDEST SWAP3 SWAP2 POP POP JUMP JUMPDEST PUSH0 DUP1 PUSH1 0x40 DUP4 DUP6 SUB SLT ISZERO PUSH2 0x1800 JUMPI PUSH2 0x17FF PUSH2 0x1759 JUMP JUMPDEST JUMPDEST PUSH0 PUSH2 0x180D DUP6 DUP3 DUP7 ADD PUSH2 0x17A3 JUMP JUMPDEST SWAP3 POP POP PUSH1 0x20 PUSH2 0x181E DUP6 DUP3 DUP7 ADD PUSH2 0x17D6 JUMP JUMPDEST SWAP2 POP POP SWAP3 POP SWAP3 SWAP1 POP JUMP JUMPDEST PUSH0 DUP2 ISZERO ISZERO SWAP1 POP SWAP2 SWAP1 POP JUMP JUMPDEST PUSH2 0x183C DUP2 PUSH2 0x1828 JUMP JUMPDEST DUP3 MSTORE POP POP JUMP JUMPDEST PUSH0 PUSH1 0x20 DUP3 ADD SWAP1 POP PUSH2 0x1855 PUSH0 DUP4 ADD DUP5 PUSH2 0x1833 JUMP JUMPDEST SWAP3 SWAP2 POP POP JUMP JUMPDEST PUSH2 0x1864 DUP2 PUSH2 0x17B7 JUMP JUMPDEST DUP3 MSTORE POP POP JUMP JUMPDEST PUSH0 PUSH1 0x20 DUP3 ADD SWAP1 POP PUSH2 0x187D PUSH0 DUP4 ADD DUP5 PUSH2 0x185B JUMP JUMPDEST SWAP3 SWAP2 POP POP JUMP JUMPDEST PUSH0 DUP1 PUSH0 PUSH1 0x60 DUP5 DUP7 SUB SLT ISZERO PUSH2 0x189A JUMPI PUSH2 0x1899 PUSH2 0x1759 JUMP JUMPDEST JUMPDEST PUSH0 PUSH2 0x18A7 DUP7 DUP3 DUP8 ADD PUSH2 0x17A3 JUMP JUMPDEST SWAP4 POP POP PUSH1 0x20 PUSH2 0x18B8 DUP7 DUP3 DUP8 ADD PUSH2 0x17A3 JUMP JUMPDEST SWAP3 POP POP PUSH1 0x40 PUSH2 0x18C9 DUP7 DUP3 DUP8 ADD PUSH2 0x17D6 JUMP JUMPDEST SWAP2 POP POP SWAP3 POP SWAP3 POP SWAP3 JUMP JUMPDEST PUSH0 PUSH1 0xFF DUP3 AND SWAP1 POP SWAP2 SWAP1 POP JUMP JUMPDEST PUSH2 0x18E8 DUP2 PUSH2 0x18D3 JUMP JUMPDEST DUP3 MSTORE POP POP JUMP JUMPDEST PUSH0 PUSH1 0x20 DUP3 ADD SWAP1 POP PUSH2 0x1901 PUSH0 DUP4 ADD DUP5 PUSH2 0x18DF JUMP JUMPDEST SWAP3 SWAP2 POP POP JUMP JUMPDEST PUSH0 DUP2 SWAP1 POP SWAP2 SWAP1 POP JUMP JUMPDEST PUSH2 0x1919 DUP2 PUSH2 0x1907 JUMP JUMPDEST DUP3 MSTORE POP POP JUMP JUMPDEST PUSH0 PUSH1 0x20 DUP3 ADD SWAP1 POP PUSH2 0x1932 PUSH0 DUP4 ADD DUP5 PUSH2 0x1910 JUMP JUMPDEST SWAP3 SWAP2 POP POP JUMP JUMPDEST PUSH0 PUSH1 0x20 DUP3 DUP5 SUB SLT ISZERO PUSH2 0x194D JUMPI PUSH2 0x194C PUSH2 0x1759 JUMP JUMPDEST JUMPDEST PUSH0 PUSH2 0x195A DUP5 DUP3 DUP6 ADD PUSH2 0x17A3 JUMP JUMPDEST SWAP2 POP POP SWAP3 SWAP2 POP POP JUMP JUMPDEST PUSH0 PUSH32 0xFF00000000000000000000000000000000000000000000000000000000000000 DUP3 AND SWAP1 POP SWAP2 SWAP1 POP JUMP JUMPDEST PUSH2 0x1997 DUP2 PUSH2 0x1963 JUMP JUMPDEST DUP3 MSTORE POP POP JUMP JUMPDEST PUSH2 0x19A6 DUP2 PUSH2 0x177C JUMP JUMPDEST DUP3 MSTORE POP POP JUMP JUMPDEST PUSH0 DUP2 MLOAD SWAP1 POP SWAP2 SWAP1 POP JUMP JUMPDEST PUSH0 DUP3 DUP3 MSTORE PUSH1 0x20 DUP3 ADD SWAP1 POP SWAP3 SWAP2 POP POP JUMP JUMPDEST PUSH0 DUP2 SWAP1 POP PUSH1 0x20 DUP3 ADD SWAP1 POP SWAP2 SWAP1 POP JUMP JUMPDEST PUSH2 0x19DE DUP2 PUSH2 0x17B7 JUMP JUMPDEST DUP3 MSTORE POP POP JUMP JUMPDEST PUSH0 PUSH2 0x19EF DUP4 DUP4 PUSH2 0x19D5 JUMP JUMPDEST PUSH1 0x20 DUP4 ADD SWAP1 POP SWAP3 SWAP2 POP POP JUMP JUMPDEST PUSH0 PUSH1 0x20 DUP3 ADD SWAP1 POP SWAP2 SWAP1 POP JUMP JUMPDEST PUSH0 PUSH2 0x1A11 DUP3 PUSH2 0x19AC JUMP JUMPDEST PUSH2 0x1A1B DUP2 DUP6 PUSH2 0x19B6 JUMP JUMPDEST SWAP4 POP PUSH2 0x1A26 DUP4 PUSH2 0x19C6 JUMP JUMPDEST DUP1 PUSH0 JUMPDEST DUP4 DUP2 LT ISZERO PUSH2 0x1A56 JUMPI DUP2 MLOAD PUSH2 0x1A3D DUP9 DUP3 PUSH2 0x19E4 JUMP JUMPDEST SWAP8 POP PUSH2 0x1A48 DUP4 PUSH2 0x19FB JUMP JUMPDEST SWAP3 POP POP PUSH1 0x1 DUP2 ADD SWAP1 POP PUSH2 0x1A29 JUMP JUMPDEST POP DUP6 SWAP4 POP POP POP POP SWAP3 SWAP2 POP POP JUMP JUMPDEST PUSH0 PUSH1 0xE0 DUP3 ADD SWAP1 POP PUSH2 0x1A76 PUSH0 DUP4 ADD DUP11 PUSH2 0x198E JUMP JUMPDEST DUP2 DUP2 SUB PUSH1 0x20 DUP4 ADD MSTORE PUSH2 0x1A88 DUP2 DUP10 PUSH2 0x1701 JUMP JUMPDEST SWAP1 POP DUP2 DUP2 SUB PUSH1 0x40 DUP4 ADD MSTORE PUSH2 0x1A9C DUP2 DUP9 PUSH2 0x1701 JUMP JUMPDEST SWAP1 POP PUSH2 0x1AAB PUSH1 0x60 DUP4 ADD DUP8 PUSH2 0x185B JUMP JUMPDEST PUSH2 0x1AB8 PUSH1 0x80 DUP4 ADD DUP7 PUSH2 0x199D JUMP JUMPDEST PUSH2 0x1AC5 PUSH1 0xA0 DUP4 ADD DUP6 PUSH2 0x1910 JUMP JUMPDEST DUP2 DUP2 SUB PUSH1 0xC0 DUP4 ADD MSTORE PUSH2 0x1AD7 DUP2 DUP5 PUSH2 0x1A07 JUMP JUMPDEST SWAP1 POP SWAP9 SWAP8 POP POP POP POP POP POP POP POP JUMP JUMPDEST PUSH0 PUSH1 0x20 DUP3 ADD SWAP1 POP PUSH2 0x1AF8 PUSH0 DUP4 ADD DUP5 PUSH2 0x199D JUMP JUMPDEST SWAP3 SWAP2 POP POP JUMP JUMPDEST PUSH2 0x1B07 DUP2 PUSH2 0x18D3 JUMP JUMPDEST DUP2 EQ PUSH2 0x1B11 JUMPI PUSH0 DUP1 REVERT JUMPDEST POP JUMP JUMPDEST PUSH0 DUP2 CALLDATALOAD SWAP1 POP PUSH2 0x1B22 DUP2 PUSH2 0x1AFE JUMP JUMPDEST SWAP3 SWAP2 POP POP JUMP JUMPDEST PUSH2 0x1B31 DUP2 PUSH2 0x1907 JUMP JUMPDEST DUP2 EQ PUSH2 0x1B3B JUMPI PUSH0 DUP1 REVERT JUMPDEST POP JUMP JUMPDEST PUSH0 DUP2 CALLDATALOAD SWAP1 POP PUSH2 0x1B4C DUP2 PUSH2 0x1B28 JUMP JUMPDEST SWAP3 SWAP2 POP POP JUMP JUMPDEST PUSH0 DUP1 PUSH0 DUP1 PUSH0 DUP1 PUSH0 PUSH1 0xE0 DUP9 DUP11 SUB SLT ISZERO PUSH2 0x1B6D JUMPI PUSH2 0x1B6C PUSH2 0x1759 JUMP JUMPDEST JUMPDEST PUSH0 PUSH2 0x1B7A DUP11 DUP3 DUP12 ADD PUSH2 0x17A3 JUMP JUMPDEST SWAP8 POP POP PUSH1 0x20 PUSH2 0x1B8B DUP11 DUP3 DUP12 ADD PUSH2 0x17A3 JUMP JUMPDEST SWAP7 POP POP PUSH1 0x40 PUSH2 0x1B9C DUP11 DUP3 DUP12 ADD PUSH2 0x17D6 JUMP JUMPDEST SWAP6 POP POP PUSH1 0x60 PUSH2 0x1BAD DUP11 DUP3 DUP12 ADD PUSH2 0x17D6 JUMP JUMPDEST SWAP5 POP POP PUSH1 0x80 PUSH2 0x1BBE DUP11 DUP3 DUP12 ADD PUSH2 0x1B14 JUMP JUMPDEST SWAP4 POP POP PUSH1 0xA0 PUSH2 0x1BCF DUP11 DUP3 DUP12 ADD PUSH2 0x1B3E JUMP JUMPDEST SWAP3 POP POP PUSH1 0xC0 PUSH2 0x1BE0 DUP11 DUP3 DUP12 ADD PUSH2 0x1B3E JUMP JUMPDEST SWAP2 POP POP SWAP3 SWAP6 SWAP9 SWAP2 SWAP5 SWAP8 POP SWAP3 SWAP6 POP JUMP JUMPDEST PUSH0 DUP1 PUSH1 0x40 DUP4 DUP6 SUB SLT ISZERO PUSH2 0x1C05 JUMPI PUSH2 0x1C04 PUSH2 0x1759 JUMP JUMPDEST JUMPDEST PUSH0 PUSH2 0x1C12 DUP6 DUP3 DUP7 ADD PUSH2 0x17A3 JUMP JUMPDEST SWAP3 POP POP PUSH1 0x20 PUSH2 0x1C23 DUP6 DUP3 DUP7 ADD PUSH2 0x17A3 JUMP JUMPDEST SWAP2 POP POP SWAP3 POP SWAP3 SWAP1 POP JUMP JUMPDEST PUSH32 0x4E487B7100000000000000000000000000000000000000000000000000000000 PUSH0 MSTORE PUSH1 0x22 PUSH1 0x4 MSTORE PUSH1 0x24 PUSH0 REVERT JUMPDEST PUSH0 PUSH1 0x2 DUP3 DIV SWAP1 POP PUSH1 0x1 DUP3 AND DUP1 PUSH2 0x1C71 JUMPI PUSH1 0x7F DUP3 AND SWAP2 POP JUMPDEST PUSH1 0x20 DUP3 LT DUP2 SUB PUSH2 0x1C84 JUMPI PUSH2 0x1C83 PUSH2 0x1C2D JUMP JUMPDEST JUMPDEST POP SWAP2 SWAP1 POP JUMP JUMPDEST PUSH32 0x4E487B7100000000000000000000000000000000000000000000000000000000 PUSH0 MSTORE PUSH1 0x11 PUSH1 0x4 MSTORE PUSH1 0x24 PUSH0 REVERT JUMPDEST PUSH0 DUP2 PUSH1 0x1 SHR SWAP1 POP SWAP2 SWAP1 POP JUMP JUMPDEST PUSH0 DUP1 DUP3 SWAP2 POP DUP4 SWAP1 POP JUMPDEST PUSH1 0x1 DUP6 GT ISZERO PUSH2 0x1D0C JUMPI DUP1 DUP7 DIV DUP2 GT ISZERO PUSH2 0x1CE8 JUMPI PUSH2 0x1CE7 PUSH2 0x1C8A JUMP JUMPDEST JUMPDEST PUSH1 0x1 DUP6 AND ISZERO PUSH2 0x1CF7 JUMPI DUP1 DUP3 MUL SWAP2 POP JUMPDEST DUP1 DUP2 MUL SWAP1 POP PUSH2 0x1D05 DUP6 PUSH2 0x1CB7 JUMP JUMPDEST SWAP5 POP PUSH2 0x1CCC JUMP JUMPDEST SWAP5 POP SWAP5 SWAP3 POP POP POP JUMP JUMPDEST PUSH0 DUP3 PUSH2 0x1D24 JUMPI PUSH1 0x1 SWAP1 POP PUSH2 0x1DDF JUMP JUMPDEST DUP2 PUSH2 0x1D31 JUMPI PUSH0 SWAP1 POP PUSH2 0x1DDF JUMP JUMPDEST DUP2 PUSH1 0x1 DUP2 EQ PUSH2 0x1D47 JUMPI PUSH1 0x2 DUP2 EQ PUSH2 0x1D51 JUMPI PUSH2 0x1D80 JUMP JUMPDEST PUSH1 0x1 SWAP2 POP POP PUSH2 0x1DDF JUMP JUMPDEST PUSH1 0xFF DUP5 GT ISZERO PUSH2 0x1D63 JUMPI PUSH2 0x1D62 PUSH2 0x1C8A JUMP JUMPDEST JUMPDEST DUP4 PUSH1 0x2 EXP SWAP2 POP DUP5 DUP3 GT ISZERO PUSH2 0x1D7A JUMPI PUSH2 0x1D79 PUSH2 0x1C8A JUMP JUMPDEST JUMPDEST POP PUSH2 0x1DDF JUMP JUMPDEST POP PUSH1 0x20 DUP4 LT PUSH2 0x133 DUP4 LT AND PUSH1 0x4E DUP5 LT PUSH1 0xB DUP5 LT AND OR ISZERO PUSH2 0x1DB5 JUMPI DUP3 DUP3 EXP SWAP1 POP DUP4 DUP2 GT ISZERO PUSH2 0x1DB0 JUMPI PUSH2 0x1DAF PUSH2 0x1C8A JUMP JUMPDEST JUMPDEST PUSH2 0x1DDF JUMP JUMPDEST PUSH2 0x1DC2 DUP5 DUP5 DUP5 PUSH1 0x1 PUSH2 0x1CC3 JUMP JUMPDEST SWAP3 POP SWAP1 POP DUP2 DUP5 DIV DUP2 GT ISZERO PUSH2 0x1DD9 JUMPI PUSH2 0x1DD8 PUSH2 0x1C8A JUMP JUMPDEST JUMPDEST DUP2 DUP2 MUL SWAP1 POP JUMPDEST SWAP4 SWAP3 POP POP POP JUMP JUMPDEST PUSH0 PUSH2 0x1DF0 DUP3 PUSH2 0x17B7 JUMP JUMPDEST SWAP2 POP PUSH2 0x1DFB DUP4 PUSH2 0x17B7 JUMP JUMPDEST SWAP3 POP PUSH2 0x1E28 PUSH32 0xFFFFFFFFFFFFFFFFFFFFFFFFFFFFFFFFFFFFFFFFFFFFFFFFFFFFFFFFFFFFFFFF DUP5 DUP5 PUSH2 0x1D15 JUMP JUMPDEST SWAP1 POP SWAP3 SWAP2 POP POP JUMP JUMPDEST PUSH0 PUSH2 0x1E3A DUP3 PUSH2 0x17B7 JUMP JUMPDEST SWAP2 POP PUSH2 0x1E45 DUP4 PUSH2 0x17B7 JUMP JUMPDEST SWAP3 POP DUP3 DUP3 MUL PUSH2 0x1E53 DUP2 PUSH2 0x17B7 JUMP JUMPDEST SWAP2 POP DUP3 DUP3 DIV DUP5 EQ DUP4 ISZERO OR PUSH2 0x1E6A JUMPI PUSH2 0x1E69 PUSH2 0x1C8A JUMP JUMPDEST JUMPDEST POP SWAP3 SWAP2 POP POP JUMP JUMPDEST PUSH32 0x4E487B7100000000000000000000000000000000000000000000000000000000 PUSH0 MSTORE PUSH1 0x41 PUSH1 0x4 MSTORE PUSH1 0x24 PUSH0 REVERT JUMPDEST PUSH0 PUSH1 0xC0 DUP3 ADD SWAP1 POP PUSH2 0x1EB1 PUSH0 DUP4 ADD DUP10 PUSH2 0x1910 JUMP JUMPDEST PUSH2 0x1EBE PUSH1 0x20 DUP4 ADD DUP9 PUSH2 0x199D JUMP JUMPDEST PUSH2 0x1ECB PUSH1 0x40 DUP4 ADD DUP8 PUSH2 0x199D JUMP JUMPDEST PUSH2 0x1ED8 PUSH1 0x60 DUP4 ADD DUP7 PUSH2 0x185B JUMP JUMPDEST PUSH2 0x1EE5 PUSH1 0x80 DUP4 ADD DUP6 PUSH2 0x185B JUMP JUMPDEST PUSH2 0x1EF2 PUSH1 0xA0 DUP4 ADD DUP5 PUSH2 0x185B JUMP JUMPDEST SWAP8 SWAP7 POP POP POP POP POP POP POP JUMP JUMPDEST PUSH0 PUSH1 0x40 DUP3 ADD SWAP1 POP PUSH2 0x1F10 PUSH0 DUP4 ADD DUP6 PUSH2 0x199D JUMP JUMPDEST PUSH2 0x1F1D PUSH1 0x20 DUP4 ADD DUP5 PUSH2 0x199D JUMP JUMPDEST SWAP4 SWAP3 POP POP POP JUMP JUMPDEST PUSH0 PUSH1 0x60 DUP3 ADD SWAP1 POP PUSH2 0x1F37 PUSH0 DUP4 ADD DUP7 PUSH2 0x199D JUMP JUMPDEST PUSH2 0x1F44 PUSH1 0x20 DUP4 ADD DUP6 PUSH2 0x185B JUMP JUMPDEST PUSH2 0x1F51 PUSH1 0x40 DUP4 ADD DUP5 PUSH2 0x185B JUMP JUMPDEST SWAP5 SWAP4 POP POP POP POP JUMP JUMPDEST PUSH0 PUSH2 0x1F63 DUP3 PUSH2 0x17B7 JUMP JUMPDEST SWAP2 POP PUSH2 0x1F6E DUP4 PUSH2 0x17B7 JUMP JUMPDEST SWAP3 POP DUP3 DUP3 ADD SWAP1 POP DUP1 DUP3 GT ISZERO PUSH2 0x1F86 JUMPI PUSH2 0x1F85 PUSH2 0x1C8A JUMP JUMPDEST JUMPDEST SWAP3 SWAP2 POP POP JUMP JUMPDEST PUSH0 PUSH1 0xA0 DUP3 ADD SWAP1 POP PUSH2 0x1F9F PUSH0 DUP4 ADD DUP9 PUSH2 0x1910 JUMP JUMPDEST PUSH2 0x1FAC PUSH1 0x20 DUP4 ADD DUP8 PUSH2 0x1910 JUMP JUMPDEST PUSH2 0x1FB9 PUSH1 0x40 DUP4 ADD DUP7 PUSH2 0x1910 JUMP JUMPDEST PUSH2 0x1FC6 PUSH1 0x60 DUP4 ADD DUP6 PUSH2 0x185B JUMP JUMPDEST PUSH2 0x1FD3 PUSH1 0x80 DUP4 ADD DUP5 PUSH2 0x199D JUMP JUMPDEST SWAP7 SWAP6 POP POP POP POP POP POP JUMP JUMPDEST PUSH0 PUSH1 0x80 DUP3 ADD SWAP1 POP PUSH2 0x1FF0 PUSH0 DUP4 ADD DUP8 PUSH2 0x1910 JUMP JUMPDEST PUSH2 0x1FFD PUSH1 0x20 DUP4 ADD DUP7 PUSH2 0x18DF JUMP JUMPDEST PUSH2 0x200A PUSH1 0x40 DUP4 ADD DUP6 PUSH2 0x1910 JUMP JUMPDEST PUSH2 0x2017 PUSH1 0x60 DUP4 ADD DUP5 PUSH2 0x1910 JUMP JUMPDEST SWAP6 SWAP5 POP POP POP POP POP JUMP JUMPDEST PUSH32 0x4E487B7100000000000000000000000000000000000000000000000000000000 PUSH0 MSTORE PUSH1 0x21 PUSH1 0x4 MSTORE PUSH1 0x24 PUSH0 REVERT INVALID LOG2 PUSH5 0x6970667358 0x22 SLT KECCAK256 DUP4 PUSH4 0xDB12BB3D SMOD PUSH7 0x398C90A4A0227D JUMPDEST SGT 0xD7 DUP12 RETURNDATASIZE PUSH27 0x38ABEA40BD08150E15885264736F6C634300081800330000000000 "
				},
				"gasEstimates": {
					"creation": {
						"codeDepositCost": "1664600",
						"executionCost": "infinite",
						"totalCost": "infinite"
					},
					"external": {
						"DOMAIN_SEPARATOR()": "infinite",
						"allowance(address,address)": "infinite",
						"approve(address,uint256)": "infinite",
						"balanceOf(address)": "2918",
						"decimals()": "361",
						"eip712Domain()": "infinite",
						"mint(address,uint256)": "infinite",
						"name()": "infinite",
						"nonces(address)": "2916",
						"owner()": "2604",
						"permit(address,address,uint256,uint256,uint8,bytes32,bytes32)": "infinite",
						"renounceOwnership()": "infinite",
						"symbol()": "infinite",
						"totalSupply()": "2500",
						"transfer(address,uint256)": "infinite",
						"transferFrom(address,address,uint256)": "infinite",
						"transferOwnership(address)": "infinite"
					}
				},
				"methodIdentifiers": {
					"DOMAIN_SEPARATOR()": "3644e515",
					"allowance(address,address)": "dd62ed3e",
					"approve(address,uint256)": "095ea7b3",
					"balanceOf(address)": "70a08231",
					"decimals()": "313ce567",
					"eip712Domain()": "84b0196e",
					"mint(address,uint256)": "40c10f19",
					"name()": "06fdde03",
					"nonces(address)": "7ecebe00",
					"owner()": "8da5cb5b",
					"permit(address,address,uint256,uint256,uint8,bytes32,bytes32)": "d505accf",
					"renounceOwnership()": "715018a6",
					"symbol()": "95d89b41",
					"totalSupply()": "18160ddd",
					"transfer(address,uint256)": "a9059cbb",
					"transferFrom(address,address,uint256)": "23b872dd",
					"transferOwnership(address)": "f2fde38b"
				}
			},
			"storageLayout": {
				"storage": [
					{
						"astId": 2917,
						"contract": "MemberToken_flattened.sol:MemberToken",
						"label": "_balances",
						"offset": 0,
						"slot": "0",
						"type": "t_mapping(t_address,t_uint256)"
					},
					{
						"astId": 2923,
						"contract": "MemberToken_flattened.sol:MemberToken",
						"label": "_allowances",
						"offset": 0,
						"slot": "1",
						"type": "t_mapping(t_address,t_mapping(t_address,t_uint256))"
					},
					{
						"astId": 2925,
						"contract": "MemberToken_flattened.sol:MemberToken",
						"label": "_totalSupply",
						"offset": 0,
						"slot": "2",
						"type": "t_uint256"
					},
					{
						"astId": 2927,
						"contract": "MemberToken_flattened.sol:MemberToken",
						"label": "_name",
						"offset": 0,
						"slot": "3",
						"type": "t_string_storage"
					},
					{
						"astId": 2929,
						"contract": "MemberToken_flattened.sol:MemberToken",
						"label": "_symbol",
						"offset": 0,
						"slot": "4",
						"type": "t_string_storage"
					},
					{
						"astId": 2664,
						"contract": "MemberToken_flattened.sol:MemberToken",
						"label": "_owner",
						"offset": 0,
						"slot": "5",
						"type": "t_address"
					},
					{
						"astId": 1921,
						"contract": "MemberToken_flattened.sol:MemberToken",
						"label": "_nameFallback",
						"offset": 0,
						"slot": "6",
						"type": "t_string_storage"
					},
					{
						"astId": 1923,
						"contract": "MemberToken_flattened.sol:MemberToken",
						"label": "_versionFallback",
						"offset": 0,
						"slot": "7",
						"type": "t_string_storage"
					},
					{
						"astId": 13,
						"contract": "MemberToken_flattened.sol:MemberToken",
						"label": "_nonces",
						"offset": 0,
						"slot": "8",
						"type": "t_mapping(t_address,t_uint256)"
					}
				],
				"types": {
					"t_address": {
						"encoding": "inplace",
						"label": "address",
						"numberOfBytes": "20"
					},
					"t_mapping(t_address,t_mapping(t_address,t_uint256))": {
						"encoding": "mapping",
						"key": "t_address",
						"label": "mapping(address => mapping(address => uint256))",
						"numberOfBytes": "32",
						"value": "t_mapping(t_address,t_uint256)"
					},
					"t_mapping(t_address,t_uint256)": {
						"encoding": "mapping",
						"key": "t_address",
						"label": "mapping(address => uint256)",
						"numberOfBytes": "32",
						"value": "t_uint256"
					},
					"t_string_storage": {
						"encoding": "bytes",
						"label": "string",
						"numberOfBytes": "32"
					},
					"t_uint256": {
						"encoding": "inplace",
						"label": "uint256",
						"numberOfBytes": "32"
					}
				}
			},
			"userdoc": {
				"kind": "user",
				"methods": {},
				"version": 1
			}
		}
	}
}