{
	"Project/LandToken.sol": {
		"LandToken": {
			"abi": [
				{
					"inputs": [
						{
							"internalType": "address",
							"name": "initialOwner",
							"type": "address"
						}
					],
					"stateMutability": "nonpayable",
					"type": "constructor"
				},
				{
					"inputs": [],
					"name": "ECDSAInvalidSignature",
					"type": "error"
				},
				{
					"inputs": [
						{
							"internalType": "uint256",
							"name": "length",
							"type": "uint256"
						}
					],
					"name": "ECDSAInvalidSignatureLength",
					"type": "error"
				},
				{
					"inputs": [
						{
							"internalType": "bytes32",
							"name": "s",
							"type": "bytes32"
						}
					],
					"name": "ECDSAInvalidSignatureS",
					"type": "error"
				},
				{
					"inputs": [
						{
							"internalType": "address",
							"name": "spender",
							"type": "address"
						},
						{
							"internalType": "uint256",
							"name": "allowance",
							"type": "uint256"
						},
						{
							"internalType": "uint256",
							"name": "needed",
							"type": "uint256"
						}
					],
					"name": "ERC20InsufficientAllowance",
					"type": "error"
				},
				{
					"inputs": [
						{
							"internalType": "address",
							"name": "sender",
							"type": "address"
						},
						{
							"internalType": "uint256",
							"name": "balance",
							"type": "uint256"
						},
						{
							"internalType": "uint256",
							"name": "needed",
							"type": "uint256"
						}
					],
					"name": "ERC20InsufficientBalance",
					"type": "error"
				},
				{
					"inputs": [
						{
							"internalType": "address",
							"name": "approver",
							"type": "address"
						}
					],
					"name": "ERC20InvalidApprover",
					"type": "error"
				},
				{
					"inputs": [
						{
							"internalType": "address",
							"name": "receiver",
							"type": "address"
						}
					],
					"name": "ERC20InvalidReceiver",
					"type": "error"
				},
				{
					"inputs": [
						{
							"internalType": "address",
							"name": "sender",
							"type": "address"
						}
					],
					"name": "ERC20InvalidSender",
					"type": "error"
				},
				{
					"inputs": [
						{
							"internalType": "address",
							"name": "spender",
							"type": "address"
						}
					],
					"name": "ERC20InvalidSpender",
					"type": "error"
				},
				{
					"inputs": [
						{
							"internalType": "uint256",
							"name": "deadline",
							"type": "uint256"
						}
					],
					"name": "ERC2612ExpiredSignature",
					"type": "error"
				},
				{
					"inputs": [
						{
							"internalType": "address",
							"name": "signer",
							"type": "address"
						},
						{
							"internalType": "address",
							"name": "owner",
							"type": "address"
						}
					],
					"name": "ERC2612InvalidSigner",
					"type": "error"
				},
				{
					"inputs": [
						{
							"internalType": "address",
							"name": "account",
							"type": "address"
						},
						{
							"internalType": "uint256",
							"name": "currentNonce",
							"type": "uint256"
						}
					],
					"name": "InvalidAccountNonce",
					"type": "error"
				},
				{
					"inputs": [],
					"name": "InvalidShortString",
					"type": "error"
				},
				{
					"inputs": [
						{
							"internalType": "address",
							"name": "owner",
							"type": "address"
						}
					],
					"name": "OwnableInvalidOwner",
					"type": "error"
				},
				{
					"inputs": [
						{
							"internalType": "address",
							"name": "account",
							"type": "address"
						}
					],
					"name": "OwnableUnauthorizedAccount",
					"type": "error"
				},
				{
					"inputs": [
						{
							"internalType": "string",
							"name": "str",
							"type": "string"
						}
					],
					"name": "StringTooLong",
					"type": "error"
				},
				{
					"anonymous": false,
					"inputs": [
						{
							"indexed": true,
							"internalType": "address",
							"name": "owner",
							"type": "address"
						},
						{
							"indexed": true,
							"internalType": "address",
							"name": "spender",
							"type": "address"
						},
						{
							"indexed": false,
							"internalType": "uint256",
							"name": "value",
							"type": "uint256"
						}
					],
					"name": "Approval",
					"type": "event"
				},
				{
					"anonymous": false,
					"inputs": [],
					"name": "EIP712DomainChanged",
					"type": "event"
				},
				{
					"anonymous": false,
					"inputs": [
						{
							"indexed": true,
							"internalType": "address",
							"name": "previousOwner",
							"type": "address"
						},
						{
							"indexed": true,
							"internalType": "address",
							"name": "newOwner",
							"type": "address"
						}
					],
					"name": "OwnershipTransferred",
					"type": "event"
				},
				{
					"anonymous": false,
					"inputs": [
						{
							"indexed": true,
							"internalType": "address",
							"name": "from",
							"type": "address"
						},
						{
							"indexed": true,
							"internalType": "address",
							"name": "to",
							"type": "address"
						},
						{
							"indexed": false,
							"internalType": "uint256",
							"name": "value",
							"type": "uint256"
						}
					],
					"name": "Transfer",
					"type": "event"
				},
				{
					"inputs": [],
					"name": "DOMAIN_SEPARATOR",
					"outputs": [
						{
							"internalType": "bytes32",
							"name": "",
							"type": "bytes32"
						}
					],
					"stateMutability": "view",
					"type": "function"
				},
				{
					"inputs": [
						{
							"internalType": "address",
							"name": "owner",
							"type": "address"
						},
						{
							"internalType": "address",
							"name": "spender",
							"type": "address"
						}
					],
					"name": "allowance",
					"outputs": [
						{
							"internalType": "uint256",
							"name": "",
							"type": "uint256"
						}
					],
					"stateMutability": "view",
					"type": "function"
				},
				{
					"inputs": [
						{
							"internalType": "address",
							"name": "spender",
							"type": "address"
						},
						{
							"internalType": "uint256",
							"name": "value",
							"type": "uint256"
						}
					],
					"name": "approve",
					"outputs": [
						{
							"internalType": "bool",
							"name": "",
							"type": "bool"
						}
					],
					"stateMutability": "nonpayable",
					"type": "function"
				},
				{
					"inputs": [
						{
							"internalType": "address",
							"name": "account",
							"type": "address"
						}
					],
					"name": "balanceOf",
					"outputs": [
						{
							"internalType": "uint256",
							"name": "",
							"type": "uint256"
						}
					],
					"stateMutability": "view",
					"type": "function"
				},
				{
					"inputs": [],
					"name": "decimals",
					"outputs": [
						{
							"internalType": "uint8",
							"name": "",
							"type": "uint8"
						}
					],
					"stateMutability": "view",
					"type": "function"
				},
				{
					"inputs": [],
					"name": "eip712Domain",
					"outputs": [
						{
							"internalType": "bytes1",
							"name": "fields",
							"type": "bytes1"
						},
						{
							"internalType": "string",
							"name": "name",
							"type": "string"
						},
						{
							"internalType": "string",
							"name": "version",
							"type": "string"
						},
						{
							"internalType": "uint256",
							"name": "chainId",
							"type": "uint256"
						},
						{
							"internalType": "address",
							"name": "verifyingContract",
							"type": "address"
						},
						{
							"internalType": "bytes32",
							"name": "salt",
							"type": "bytes32"
						},
						{
							"internalType": "uint256[]",
							"name": "extensions",
							"type": "uint256[]"
						}
					],
					"stateMutability": "view",
					"type": "function"
				},
				{
					"inputs": [
						{
							"internalType": "address",
							"name": "to",
							"type": "address"
						},
						{
							"internalType": "uint256",
							"name": "amount",
							"type": "uint256"
						}
					],
					"name": "mint",
					"outputs": [],
					"stateMutability": "nonpayable",
					"type": "function"
				},
				{
					"inputs": [],
					"name": "name",
					"outputs": [
						{
							"internalType": "string",
							"name": "",
							"type": "string"
						}
					],
					"stateMutability": "view",
					"type": "function"
				},
				{
					"inputs": [
						{
							"internalType": "address",
							"name": "owner",
							"type": "address"
						}
					],
					"name": "nonces",
					"outputs": [
						{
							"internalType": "uint256",
							"name": "",
							"type": "uint256"
						}
					],
					"stateMutability": "view",
					"type": "function"
				},
				{
					"inputs": [],
					"name": "owner",
					"outputs": [
						{
							"internalType": "address",
							"name": "",
							"type": "address"
						}
					],
					"stateMutability": "view",
					"type": "function"
				},
				{
					"inputs": [
						{
							"internalType": "address",
							"name": "owner",
							"type": "address"
						},
						{
							"internalType": "address",
							"name": "spender",
							"type": "address"
						},
						{
							"internalType": "uint256",
							"name": "value",
							"type": "uint256"
						},
						{
							"internalType": "uint256",
							"name": "deadline",
							"type": "uint256"
						},
						{
							"internalType": "uint8",
							"name": "v",
							"type": "uint8"
						},
						{
							"internalType": "bytes32",
							"name": "r",
							"type": "bytes32"
						},
						{
							"internalType": "bytes32",
							"name": "s",
							"type": "bytes32"
						}
					],
					"name": "permit",
					"outputs": [],
					"stateMutability": "nonpayable",
					"type": "function"
				},
				{
					"inputs": [],
					"name": "renounceOwnership",
					"outputs": [],
					"stateMutability": "nonpayable",
					"type": "function"
				},
				{
					"inputs": [],
					"name": "symbol",
					"outputs": [
						{
							"internalType": "string",
							"name": "",
							"type": "string"
						}
					],
					"stateMutability": "view",
					"type": "function"
				},
				{
					"inputs": [],
					"name": "totalSupply",
					"outputs": [
						{
							"internalType": "uint256",
							"name": "",
							"type": "uint256"
						}
					],
					"stateMutability": "view",
					"type": "function"
				},
				{
					"inputs": [
						{
							"internalType": "address",
							"name": "to",
							"type": "address"
						},
						{
							"internalType": "uint256",
							"name": "value",
							"type": "uint256"
						}
					],
					"name": "transfer",
					"outputs": [
						{
							"internalType": "bool",
							"name": "",
							"type": "bool"
						}
					],
					"stateMutability": "nonpayable",
					"type": "function"
				},
				{
					"inputs": [
						{
							"internalType": "address",
							"name": "from",
							"type": "address"
						},
						{
							"internalType": "address",
							"name": "to",
							"type": "address"
						},
						{
							"internalType": "uint256",
							"name": "value",
							"type": "uint256"
						}
					],
					"name": "transferFrom",
					"outputs": [
						{
							"internalType": "bool",
							"name": "",
							"type": "bool"
						}
					],
					"stateMutability": "nonpayable",
					"type": "function"
				},
				{
					"inputs": [
						{
							"internalType": "address",
							"name": "from",
							"type": "address"
						},
						{
							"internalType": "address",
							"name": "to",
							"type": "address"
						},
						{
							"internalType": "uint256",
							"name": "value",
							"type": "uint256"
						},
						{
							"internalType": "address",
							"name": "contractAddress",
							"type": "address"
						}
					],
					"name": "transferFromCustom",
					"outputs": [
						{
							"internalType": "bool",
							"name": "",
							"type": "bool"
						}
					],
					"stateMutability": "nonpayable",
					"type": "function"
				},
				{
					"inputs": [
						{
							"internalType": "address",
							"name": "newOwner",
							"type": "address"
						}
					],
					"name": "transferOwnership",
					"outputs": [],
					"stateMutability": "nonpayable",
					"type": "function"
				}
			],
			"devdoc": {
				"errors": {
					"ECDSAInvalidSignature()": [
						{
							"details": "The signature derives the `address(0)`."
						}
					],
					"ECDSAInvalidSignatureLength(uint256)": [
						{
							"details": "The signature has an invalid length."
						}
					],
					"ECDSAInvalidSignatureS(bytes32)": [
						{
							"details": "The signature has an S value that is in the upper half order."
						}
					],
					"ERC20InsufficientAllowance(address,uint256,uint256)": [
						{
							"details": "Indicates a failure with the `spender`’s `allowance`. Used in transfers.",
							"params": {
								"allowance": "Amount of tokens a `spender` is allowed to operate with.",
								"needed": "Minimum amount required to perform a transfer.",
								"spender": "Address that may be allowed to operate on tokens without being their owner."
							}
						}
					],
					"ERC20InsufficientBalance(address,uint256,uint256)": [
						{
							"details": "Indicates an error related to the current `balance` of a `sender`. Used in transfers.",
							"params": {
								"balance": "Current balance for the interacting account.",
								"needed": "Minimum amount required to perform a transfer.",
								"sender": "Address whose tokens are being transferred."
							}
						}
					],
					"ERC20InvalidApprover(address)": [
						{
							"details": "Indicates a failure with the `approver` of a token to be approved. Used in approvals.",
							"params": {
								"approver": "Address initiating an approval operation."
							}
						}
					],
					"ERC20InvalidReceiver(address)": [
						{
							"details": "Indicates a failure with the token `receiver`. Used in transfers.",
							"params": {
								"receiver": "Address to which tokens are being transferred."
							}
						}
					],
					"ERC20InvalidSender(address)": [
						{
							"details": "Indicates a failure with the token `sender`. Used in transfers.",
							"params": {
								"sender": "Address whose tokens are being transferred."
							}
						}
					],
					"ERC20InvalidSpender(address)": [
						{
							"details": "Indicates a failure with the `spender` to be approved. Used in approvals.",
							"params": {
								"spender": "Address that may be allowed to operate on tokens without being their owner."
							}
						}
					],
					"ERC2612ExpiredSignature(uint256)": [
						{
							"details": "Permit deadline has expired."
						}
					],
					"ERC2612InvalidSigner(address,address)": [
						{
							"details": "Mismatched signature."
						}
					],
					"InvalidAccountNonce(address,uint256)": [
						{
							"details": "The nonce used for an `account` is not the expected current nonce."
						}
					],
					"OwnableInvalidOwner(address)": [
						{
							"details": "The owner is not a valid owner account. (eg. `address(0)`)"
						}
					],
					"OwnableUnauthorizedAccount(address)": [
						{
							"details": "The caller account is not authorized to perform an operation."
						}
					]
				},
				"events": {
					"Approval(address,address,uint256)": {
						"details": "Emitted when the allowance of a `spender` for an `owner` is set by a call to {approve}. `value` is the new allowance."
					},
					"EIP712DomainChanged()": {
						"details": "MAY be emitted to signal that the domain could have changed."
					},
					"Transfer(address,address,uint256)": {
						"details": "Emitted when `value` tokens are moved from one account (`from`) to another (`to`). Note that `value` may be zero."
					}
				},
				"kind": "dev",
				"methods": {
					"DOMAIN_SEPARATOR()": {
						"details": "Returns the domain separator used in the encoding of the signature for {permit}, as defined by {EIP712}."
					},
					"allowance(address,address)": {
						"details": "See {IERC20-allowance}."
					},
					"approve(address,uint256)": {
						"details": "See {IERC20-approve}. NOTE: If `value` is the maximum `uint256`, the allowance is not updated on `transferFrom`. This is semantically equivalent to an infinite approval. Requirements: - `spender` cannot be the zero address."
					},
					"balanceOf(address)": {
						"details": "See {IERC20-balanceOf}."
					},
					"decimals()": {
						"details": "Returns the number of decimals used to get its user representation. For example, if `decimals` equals `2`, a balance of `505` tokens should be displayed to a user as `5.05` (`505 / 10 ** 2`). Tokens usually opt for a value of 18, imitating the relationship between Ether and Wei. This is the default value returned by this function, unless it's overridden. NOTE: This information is only used for _display_ purposes: it in no way affects any of the arithmetic of the contract, including {IERC20-balanceOf} and {IERC20-transfer}."
					},
					"eip712Domain()": {
						"details": "See {IERC-5267}."
					},
					"name()": {
						"details": "Returns the name of the token."
					},
					"nonces(address)": {
						"details": "Returns the current nonce for `owner`. This value must be included whenever a signature is generated for {permit}. Every successful call to {permit} increases ``owner``'s nonce by one. This prevents a signature from being used multiple times."
					},
					"owner()": {
						"details": "Returns the address of the current owner."
					},
					"permit(address,address,uint256,uint256,uint8,bytes32,bytes32)": {
						"details": "Sets `value` as the allowance of `spender` over ``owner``'s tokens, given ``owner``'s signed approval. IMPORTANT: The same issues {IERC20-approve} has related to transaction ordering also apply here. Emits an {Approval} event. Requirements: - `spender` cannot be the zero address. - `deadline` must be a timestamp in the future. - `v`, `r` and `s` must be a valid `secp256k1` signature from `owner` over the EIP712-formatted function arguments. - the signature must use ``owner``'s current nonce (see {nonces}). For more information on the signature format, see the https://eips.ethereum.org/EIPS/eip-2612#specification[relevant EIP section]. CAUTION: See Security Considerations above."
					},
					"renounceOwnership()": {
						"details": "Leaves the contract without owner. It will not be possible to call `onlyOwner` functions. Can only be called by the current owner. NOTE: Renouncing ownership will leave the contract without an owner, thereby disabling any functionality that is only available to the owner."
					},
					"symbol()": {
						"details": "Returns the symbol of the token, usually a shorter version of the name."
					},
					"totalSupply()": {
						"details": "See {IERC20-totalSupply}."
					},
					"transfer(address,uint256)": {
						"details": "See {IERC20-transfer}. Requirements: - `to` cannot be the zero address. - the caller must have a balance of at least `value`."
					},
					"transferFrom(address,address,uint256)": {
						"details": "See {IERC20-transferFrom}. Emits an {Approval} event indicating the updated allowance. This is not required by the EIP. See the note at the beginning of {ERC20}. NOTE: Does not update the allowance if the current allowance is the maximum `uint256`. Requirements: - `from` and `to` cannot be the zero address. - `from` must have a balance of at least `value`. - the caller must have allowance for ``from``'s tokens of at least `value`."
					},
					"transferOwnership(address)": {
						"details": "Transfers ownership of the contract to a new account (`newOwner`). Can only be called by the current owner."
					}
				},
				"version": 1
			},
			"evm": {
				"assembly": "    /* \"Project/LandToken.sol\":308:632  contract LandToken is ERC20, Ownable, ERC20Permit {... */\n  mstore(0x40, 0x0160)\n    /* \"Project/LandToken.sol\":364:501  constructor(address initialOwner)... */\n  callvalue\n  dup1\n  iszero\n  tag_1\n  jumpi\n  0x00\n  dup1\n  revert\ntag_1:\n  pop\n  mload(0x40)\n  sub(codesize, bytecodeSize)\n  dup1\n  bytecodeSize\n  dup4\n  codecopy\n  dup2\n  dup2\n  add\n  0x40\n  mstore\n  dup2\n  add\n  swap1\n  tag_2\n  swap2\n  swap1\n  tag_3\n  jump\t// in\ntag_2:\n    /* \"@openzeppelin/contracts@5.0.2/token/ERC20/extensions/ERC20Permit.sol\":1574:1626  constructor(string memory name) EIP712(name, \"1\") {} */\n  mload(0x40)\n  dup1\n  0x40\n  add\n  0x40\n  mstore\n  dup1\n  0x09\n  dup2\n  mstore\n  0x20\n  add\n  0x4c616e64546f6b656e0000000000000000000000000000000000000000000000\n  dup2\n  mstore\n  pop\n    /* \"@openzeppelin/contracts@5.0.2/token/ERC20/extensions/ERC20Permit.sol\":1613:1617  name */\n  dup1\n    /* \"@openzeppelin/contracts@5.0.2/utils/cryptography/EIP712.sol\":3328:3759  constructor(string memory name, string memory version) {... */\n  mload(0x40)\n  dup1\n  0x40\n  add\n  0x40\n  mstore\n  dup1\n  0x01\n  dup2\n  mstore\n  0x20\n  add\n  0x3100000000000000000000000000000000000000000000000000000000000000\n  dup2\n  mstore\n  pop\n    /* \"Project/LandToken.sol\":448:460  initialOwner */\n  dup4\n    /* \"@openzeppelin/contracts@5.0.2/token/ERC20/ERC20.sol\":1896:2009  constructor(string memory name_, string memory symbol_) {... */\n  mload(0x40)\n  dup1\n  0x40\n  add\n  0x40\n  mstore\n  dup1\n  0x09\n  dup2\n  mstore\n  0x20\n  add\n  0x4c616e64546f6b656e0000000000000000000000000000000000000000000000\n  dup2\n  mstore\n  pop\n  mload(0x40)\n  dup1\n  0x40\n  add\n  0x40\n  mstore\n  dup1\n  0x03\n  dup2\n  mstore\n  0x20\n  add\n  0x4c4e440000000000000000000000000000000000000000000000000000000000\n  dup2\n  mstore\n  pop\n    /* \"@openzeppelin/contracts@5.0.2/token/ERC20/ERC20.sol\":1970:1975  name_ */\n  dup2\n    /* \"@openzeppelin/contracts@5.0.2/token/ERC20/ERC20.sol\":1962:1967  _name */\n  0x03\n    /* \"@openzeppelin/contracts@5.0.2/token/ERC20/ERC20.sol\":1962:1975  _name = name_ */\n  swap1\n  dup2\n  tag_10\n  swap2\n  swap1\n  tag_11\n  jump\t// in\ntag_10:\n  pop\n    /* \"@openzeppelin/contracts@5.0.2/token/ERC20/ERC20.sol\":1995:2002  symbol_ */\n  dup1\n    /* \"@openzeppelin/contracts@5.0.2/token/ERC20/ERC20.sol\":1985:1992  _symbol */\n  0x04\n    /* \"@openzeppelin/contracts@5.0.2/token/ERC20/ERC20.sol\":1985:2002  _symbol = symbol_ */\n  swap1\n  dup2\n  tag_12\n  swap2\n  swap1\n  tag_11\n  jump\t// in\ntag_12:\n  pop\n    /* \"@openzeppelin/contracts@5.0.2/token/ERC20/ERC20.sol\":1896:2009  constructor(string memory name_, string memory symbol_) {... */\n  pop\n  pop\n    /* \"@openzeppelin/contracts@5.0.2/access/Ownable.sol\":1297:1298  0 */\n  0x00\n    /* \"@openzeppelin/contracts@5.0.2/access/Ownable.sol\":1273:1299  initialOwner == address(0) */\n  0xffffffffffffffffffffffffffffffffffffffff\n  and\n    /* \"@openzeppelin/contracts@5.0.2/access/Ownable.sol\":1273:1285  initialOwner */\n  dup2\n    /* \"@openzeppelin/contracts@5.0.2/access/Ownable.sol\":1273:1299  initialOwner == address(0) */\n  0xffffffffffffffffffffffffffffffffffffffff\n  and\n  sub\n    /* \"@openzeppelin/contracts@5.0.2/access/Ownable.sol\":1269:1364  if (initialOwner == address(0)) {... */\n  tag_14\n  jumpi\n    /* \"@openzeppelin/contracts@5.0.2/access/Ownable.sol\":1350:1351  0 */\n  0x00\n    /* \"@openzeppelin/contracts@5.0.2/access/Ownable.sol\":1322:1353  OwnableInvalidOwner(address(0)) */\n  mload(0x40)\n  0x1e4fbdf700000000000000000000000000000000000000000000000000000000\n  dup2\n  mstore\n  0x04\n  add\n  tag_15\n  swap2\n  swap1\n  tag_16\n  jump\t// in\ntag_15:\n  mload(0x40)\n  dup1\n  swap2\n  sub\n  swap1\n  revert\n    /* \"@openzeppelin/contracts@5.0.2/access/Ownable.sol\":1269:1364  if (initialOwner == address(0)) {... */\ntag_14:\n    /* \"@openzeppelin/contracts@5.0.2/access/Ownable.sol\":1373:1405  _transferOwnership(initialOwner) */\n  tag_17\n    /* \"@openzeppelin/contracts@5.0.2/access/Ownable.sol\":1392:1404  initialOwner */\n  dup2\n    /* \"@openzeppelin/contracts@5.0.2/access/Ownable.sol\":1373:1391  _transferOwnership */\n  shl(0x20, tag_18)\n    /* \"@openzeppelin/contracts@5.0.2/access/Ownable.sol\":1373:1405  _transferOwnership(initialOwner) */\n  0x20\n  shr\n  jump\t// in\ntag_17:\n    /* \"@openzeppelin/contracts@5.0.2/access/Ownable.sol\":1225:1412  constructor(address initialOwner) {... */\n  pop\n    /* \"@openzeppelin/contracts@5.0.2/utils/cryptography/EIP712.sol\":3401:3446  name.toShortStringWithFallback(_nameFallback) */\n  tag_20\n    /* \"@openzeppelin/contracts@5.0.2/utils/cryptography/EIP712.sol\":3432:3445  _nameFallback */\n  0x06\n    /* \"@openzeppelin/contracts@5.0.2/utils/cryptography/EIP712.sol\":3401:3405  name */\n  dup4\n    /* \"@openzeppelin/contracts@5.0.2/utils/cryptography/EIP712.sol\":3401:3431  name.toShortStringWithFallback */\n  shl(0x20, tag_21)\n  swap1\n    /* \"@openzeppelin/contracts@5.0.2/utils/cryptography/EIP712.sol\":3401:3446  name.toShortStringWithFallback(_nameFallback) */\n  swap2\n  swap1\n  0x20\n  shr\n  jump\t// in\ntag_20:\n    /* \"@openzeppelin/contracts@5.0.2/utils/cryptography/EIP712.sol\":3393:3446  _name = name.toShortStringWithFallback(_nameFallback) */\n  0x0120\n  dup2\n  dup2\n  mstore\n  pop\n  pop\n    /* \"@openzeppelin/contracts@5.0.2/utils/cryptography/EIP712.sol\":3467:3518  version.toShortStringWithFallback(_versionFallback) */\n  tag_22\n    /* \"@openzeppelin/contracts@5.0.2/utils/cryptography/EIP712.sol\":3501:3517  _versionFallback */\n  0x07\n    /* \"@openzeppelin/contracts@5.0.2/utils/cryptography/EIP712.sol\":3467:3474  version */\n  dup3\n    /* \"@openzeppelin/contracts@5.0.2/utils/cryptography/EIP712.sol\":3467:3500  version.toShortStringWithFallback */\n  shl(0x20, tag_21)\n  swap1\n    /* \"@openzeppelin/contracts@5.0.2/utils/cryptography/EIP712.sol\":3467:3518  version.toShortStringWithFallback(_versionFallback) */\n  swap2\n  swap1\n  0x20\n  shr\n  jump\t// in\ntag_22:\n    /* \"@openzeppelin/contracts@5.0.2/utils/cryptography/EIP712.sol\":3456:3518  _version = version.toShortStringWithFallback(_versionFallback) */\n  0x0140\n  dup2\n  dup2\n  mstore\n  pop\n  pop\n    /* \"@openzeppelin/contracts@5.0.2/utils/cryptography/EIP712.sol\":3558:3562  name */\n  dup2\n    /* \"@openzeppelin/contracts@5.0.2/utils/cryptography/EIP712.sol\":3542:3564  keccak256(bytes(name)) */\n  dup1\n  mload\n  swap1\n  0x20\n  add\n  keccak256\n    /* \"@openzeppelin/contracts@5.0.2/utils/cryptography/EIP712.sol\":3528:3564  _hashedName = keccak256(bytes(name)) */\n  0xe0\n  dup2\n  dup2\n  mstore\n  pop\n  pop\n    /* \"@openzeppelin/contracts@5.0.2/utils/cryptography/EIP712.sol\":3607:3614  version */\n  dup1\n    /* \"@openzeppelin/contracts@5.0.2/utils/cryptography/EIP712.sol\":3591:3616  keccak256(bytes(version)) */\n  dup1\n  mload\n  swap1\n  0x20\n  add\n  keccak256\n    /* \"@openzeppelin/contracts@5.0.2/utils/cryptography/EIP712.sol\":3574:3616  _hashedVersion = keccak256(bytes(version)) */\n  0x0100\n  dup2\n  dup2\n  mstore\n  pop\n  pop\n    /* \"@openzeppelin/contracts@5.0.2/utils/cryptography/EIP712.sol\":3644:3657  block.chainid */\n  chainid\n    /* \"@openzeppelin/contracts@5.0.2/utils/cryptography/EIP712.sol\":3627:3657  _cachedChainId = block.chainid */\n  0xa0\n  dup2\n  dup2\n  mstore\n  pop\n  pop\n    /* \"@openzeppelin/contracts@5.0.2/utils/cryptography/EIP712.sol\":3692:3715  _buildDomainSeparator() */\n  tag_23\n    /* \"@openzeppelin/contracts@5.0.2/utils/cryptography/EIP712.sol\":3692:3713  _buildDomainSeparator */\n  shl(0x20, tag_24)\n    /* \"@openzeppelin/contracts@5.0.2/utils/cryptography/EIP712.sol\":3692:3715  _buildDomainSeparator() */\n  0x20\n  shr\n  jump\t// in\ntag_23:\n    /* \"@openzeppelin/contracts@5.0.2/utils/cryptography/EIP712.sol\":3667:3715  _cachedDomainSeparator = _buildDomainSeparator() */\n  0x80\n  dup2\n  dup2\n  mstore\n  pop\n  pop\n    /* \"@openzeppelin/contracts@5.0.2/utils/cryptography/EIP712.sol\":3747:3751  this */\n  address\n    /* \"@openzeppelin/contracts@5.0.2/utils/cryptography/EIP712.sol\":3725:3752  _cachedThis = address(this) */\n  0xffffffffffffffffffffffffffffffffffffffff\n  and\n  0xc0\n  dup2\n  0xffffffffffffffffffffffffffffffffffffffff\n  and\n  dup2\n  mstore\n  pop\n  pop\n    /* \"@openzeppelin/contracts@5.0.2/utils/cryptography/EIP712.sol\":3328:3759  constructor(string memory name, string memory version) {... */\n  pop\n  pop\n    /* \"@openzeppelin/contracts@5.0.2/token/ERC20/extensions/ERC20Permit.sol\":1574:1626  constructor(string memory name) EIP712(name, \"1\") {} */\n  pop\n    /* \"Project/LandToken.sol\":364:501  constructor(address initialOwner)... */\n  pop\n    /* \"Project/LandToken.sol\":308:632  contract LandToken is ERC20, Ownable, ERC20Permit {... */\n  jump(tag_27)\n    /* \"@openzeppelin/contracts@5.0.2/access/Ownable.sol\":2912:3099  function _transferOwnership(address newOwner) internal virtual {... */\ntag_18:\n    /* \"@openzeppelin/contracts@5.0.2/access/Ownable.sol\":2985:3001  address oldOwner */\n  0x00\n    /* \"@openzeppelin/contracts@5.0.2/access/Ownable.sol\":3004:3010  _owner */\n  0x05\n  0x00\n  swap1\n  sload\n  swap1\n  0x0100\n  exp\n  swap1\n  div\n  0xffffffffffffffffffffffffffffffffffffffff\n  and\n    /* \"@openzeppelin/contracts@5.0.2/access/Ownable.sol\":2985:3010  address oldOwner = _owner */\n  swap1\n  pop\n    /* \"@openzeppelin/contracts@5.0.2/access/Ownable.sol\":3029:3037  newOwner */\n  dup2\n    /* \"@openzeppelin/contracts@5.0.2/access/Ownable.sol\":3020:3026  _owner */\n  0x05\n  0x00\n    /* \"@openzeppelin/contracts@5.0.2/access/Ownable.sol\":3020:3037  _owner = newOwner */\n  0x0100\n  exp\n  dup2\n  sload\n  dup2\n  0xffffffffffffffffffffffffffffffffffffffff\n  mul\n  not\n  and\n  swap1\n  dup4\n  0xffffffffffffffffffffffffffffffffffffffff\n  and\n  mul\n  or\n  swap1\n  sstore\n  pop\n    /* \"@openzeppelin/contracts@5.0.2/access/Ownable.sol\":3083:3091  newOwner */\n  dup2\n    /* \"@openzeppelin/contracts@5.0.2/access/Ownable.sol\":3052:3092  OwnershipTransferred(oldOwner, newOwner) */\n  0xffffffffffffffffffffffffffffffffffffffff\n  and\n    /* \"@openzeppelin/contracts@5.0.2/access/Ownable.sol\":3073:3081  oldOwner */\n  dup2\n    /* \"@openzeppelin/contracts@5.0.2/access/Ownable.sol\":3052:3092  OwnershipTransferred(oldOwner, newOwner) */\n  0xffffffffffffffffffffffffffffffffffffffff\n  and\n  0x8be0079c531659141344cd1fd0a4f28419497f9722a3daafe3b4186f6b6457e0\n  mload(0x40)\n  mload(0x40)\n  dup1\n  swap2\n  sub\n  swap1\n  log3\n    /* \"@openzeppelin/contracts@5.0.2/access/Ownable.sol\":2975:3099  {... */\n  pop\n    /* \"@openzeppelin/contracts@5.0.2/access/Ownable.sol\":2912:3099  function _transferOwnership(address newOwner) internal virtual {... */\n  pop\n  jump\t// out\n    /* \"@openzeppelin/contracts@5.0.2/utils/ShortStrings.sol\":2914:3254  function toShortStringWithFallback(string memory value, string storage store) internal returns (ShortString) {... */\ntag_21:\n    /* \"@openzeppelin/contracts@5.0.2/utils/ShortStrings.sol\":3010:3021  ShortString */\n  0x00\n    /* \"@openzeppelin/contracts@5.0.2/utils/ShortStrings.sol\":3059:3061  32 */\n  0x20\n    /* \"@openzeppelin/contracts@5.0.2/utils/ShortStrings.sol\":3043:3048  value */\n  dup4\n    /* \"@openzeppelin/contracts@5.0.2/utils/ShortStrings.sol\":3037:3056  bytes(value).length */\n  mload\n    /* \"@openzeppelin/contracts@5.0.2/utils/ShortStrings.sol\":3037:3061  bytes(value).length < 32 */\n  lt\n    /* \"@openzeppelin/contracts@5.0.2/utils/ShortStrings.sol\":3033:3248  if (bytes(value).length < 32) {... */\n  iszero\n  tag_30\n  jumpi\n    /* \"@openzeppelin/contracts@5.0.2/utils/ShortStrings.sol\":3084:3104  toShortString(value) */\n  tag_31\n    /* \"@openzeppelin/contracts@5.0.2/utils/ShortStrings.sol\":3098:3103  value */\n  dup4\n    /* \"@openzeppelin/contracts@5.0.2/utils/ShortStrings.sol\":3084:3097  toShortString */\n  shl(0x20, tag_32)\n    /* \"@openzeppelin/contracts@5.0.2/utils/ShortStrings.sol\":3084:3104  toShortString(value) */\n  0x20\n  shr\n  jump\t// in\ntag_31:\n    /* \"@openzeppelin/contracts@5.0.2/utils/ShortStrings.sol\":3077:3104  return toShortString(value) */\n  swap1\n  pop\n  jump(tag_29)\n    /* \"@openzeppelin/contracts@5.0.2/utils/ShortStrings.sol\":3033:3248  if (bytes(value).length < 32) {... */\ntag_30:\n    /* \"@openzeppelin/contracts@5.0.2/utils/ShortStrings.sol\":3176:3181  value */\n  dup3\n    /* \"@openzeppelin/contracts@5.0.2/utils/ShortStrings.sol\":3135:3167  StorageSlot.getStringSlot(store) */\n  tag_34\n    /* \"@openzeppelin/contracts@5.0.2/utils/ShortStrings.sol\":3161:3166  store */\n  dup4\n    /* \"@openzeppelin/contracts@5.0.2/utils/ShortStrings.sol\":3135:3160  StorageSlot.getStringSlot */\n  shl(0x20, tag_35)\n    /* \"@openzeppelin/contracts@5.0.2/utils/ShortStrings.sol\":3135:3167  StorageSlot.getStringSlot(store) */\n  0x20\n  shr\n  jump\t// in\ntag_34:\n    /* \"@openzeppelin/contracts@5.0.2/utils/ShortStrings.sol\":3135:3173  StorageSlot.getStringSlot(store).value */\n  0x00\n  add\n    /* \"@openzeppelin/contracts@5.0.2/utils/ShortStrings.sol\":3135:3181  StorageSlot.getStringSlot(store).value = value */\n  swap1\n  dup2\n  tag_36\n  swap2\n  swap1\n  tag_11\n  jump\t// in\ntag_36:\n  pop\n    /* \"@openzeppelin/contracts@5.0.2/utils/ShortStrings.sol\":1390:1456  0x00000000000000000000000000000000000000000000000000000000000000FF */\n  0xff\n    /* \"@openzeppelin/contracts@5.0.2/utils/ShortStrings.sol\":3219:3236  FALLBACK_SENTINEL */\n  0x00\n  shl\n    /* \"@openzeppelin/contracts@5.0.2/utils/ShortStrings.sol\":3195:3237  return ShortString.wrap(FALLBACK_SENTINEL) */\n  swap1\n  pop\n    /* \"@openzeppelin/contracts@5.0.2/utils/ShortStrings.sol\":2914:3254  function toShortStringWithFallback(string memory value, string storage store) internal returns (ShortString) {... */\ntag_29:\n  swap3\n  swap2\n  pop\n  pop\n  jump\t// out\n    /* \"@openzeppelin/contracts@5.0.2/utils/cryptography/EIP712.sol\":4113:4292  function _buildDomainSeparator() private view returns (bytes32) {... */\ntag_24:\n    /* \"@openzeppelin/contracts@5.0.2/utils/cryptography/EIP712.sol\":4168:4175  bytes32 */\n  0x00\n    /* \"@openzeppelin/contracts@5.0.2/utils/cryptography/EIP712.sol\":2079:2174  keccak256(\"EIP712Domain(string name,string version,uint256 chainId,address verifyingContract)\") */\n  0x8b73c3c69bb8fe3d512ecc4cf759cc79239f7b179b0ffacaa9a75d522b39400f\n    /* \"@openzeppelin/contracts@5.0.2/utils/cryptography/EIP712.sol\":4226:4237  _hashedName */\n  mload(0xe0)\n    /* \"@openzeppelin/contracts@5.0.2/utils/cryptography/EIP712.sol\":4239:4253  _hashedVersion */\n  mload(0x0100)\n    /* \"@openzeppelin/contracts@5.0.2/utils/cryptography/EIP712.sol\":4255:4268  block.chainid */\n  chainid\n    /* \"@openzeppelin/contracts@5.0.2/utils/cryptography/EIP712.sol\":4278:4282  this */\n  address\n    /* \"@openzeppelin/contracts@5.0.2/utils/cryptography/EIP712.sol\":4204:4284  abi.encode(TYPE_HASH, _hashedName, _hashedVersion, block.chainid, address(this)) */\n  add(0x20, mload(0x40))\n  tag_38\n  swap6\n  swap5\n  swap4\n  swap3\n  swap2\n  swap1\n  tag_39\n  jump\t// in\ntag_38:\n  mload(0x40)\n  0x20\n  dup2\n  dup4\n  sub\n  sub\n  dup2\n  mstore\n  swap1\n  0x40\n  mstore\n    /* \"@openzeppelin/contracts@5.0.2/utils/cryptography/EIP712.sol\":4194:4285  keccak256(abi.encode(TYPE_HASH, _hashedName, _hashedVersion, block.chainid, address(this))) */\n  dup1\n  mload\n  swap1\n  0x20\n  add\n  keccak256\n    /* \"@openzeppelin/contracts@5.0.2/utils/cryptography/EIP712.sol\":4187:4285  return keccak256(abi.encode(TYPE_HASH, _hashedName, _hashedVersion, block.chainid, address(this))) */\n  swap1\n  pop\n    /* \"@openzeppelin/contracts@5.0.2/utils/cryptography/EIP712.sol\":4113:4292  function _buildDomainSeparator() private view returns (bytes32) {... */\n  swap1\n  jump\t// out\n    /* \"@openzeppelin/contracts@5.0.2/utils/ShortStrings.sol\":1708:1994  function toShortString(string memory str) internal pure returns (ShortString) {... */\ntag_32:\n    /* \"@openzeppelin/contracts@5.0.2/utils/ShortStrings.sol\":1773:1784  ShortString */\n  0x00\n    /* \"@openzeppelin/contracts@5.0.2/utils/ShortStrings.sol\":1796:1813  bytes memory bstr */\n  dup1\n    /* \"@openzeppelin/contracts@5.0.2/utils/ShortStrings.sol\":1822:1825  str */\n  dup3\n    /* \"@openzeppelin/contracts@5.0.2/utils/ShortStrings.sol\":1796:1826  bytes memory bstr = bytes(str) */\n  swap1\n  pop\n    /* \"@openzeppelin/contracts@5.0.2/utils/ShortStrings.sol\":1854:1856  31 */\n  0x1f\n    /* \"@openzeppelin/contracts@5.0.2/utils/ShortStrings.sol\":1840:1844  bstr */\n  dup2\n    /* \"@openzeppelin/contracts@5.0.2/utils/ShortStrings.sol\":1840:1851  bstr.length */\n  mload\n    /* \"@openzeppelin/contracts@5.0.2/utils/ShortStrings.sol\":1840:1856  bstr.length > 31 */\n  gt\n    /* \"@openzeppelin/contracts@5.0.2/utils/ShortStrings.sol\":1836:1908  if (bstr.length > 31) {... */\n  iszero\n  tag_41\n  jumpi\n    /* \"@openzeppelin/contracts@5.0.2/utils/ShortStrings.sol\":1893:1896  str */\n  dup3\n    /* \"@openzeppelin/contracts@5.0.2/utils/ShortStrings.sol\":1879:1897  StringTooLong(str) */\n  mload(0x40)\n  0x305a27a900000000000000000000000000000000000000000000000000000000\n  dup2\n  mstore\n  0x04\n  add\n  tag_42\n  swap2\n  swap1\n  tag_43\n  jump\t// in\ntag_42:\n  mload(0x40)\n  dup1\n  swap2\n  sub\n  swap1\n  revert\n    /* \"@openzeppelin/contracts@5.0.2/utils/ShortStrings.sol\":1836:1908  if (bstr.length > 31) {... */\ntag_41:\n    /* \"@openzeppelin/contracts@5.0.2/utils/ShortStrings.sol\":1974:1978  bstr */\n  dup1\n    /* \"@openzeppelin/contracts@5.0.2/utils/ShortStrings.sol\":1974:1985  bstr.length */\n  mload\n    /* \"@openzeppelin/contracts@5.0.2/utils/ShortStrings.sol\":1965:1969  bstr */\n  dup2\n    /* \"@openzeppelin/contracts@5.0.2/utils/ShortStrings.sol\":1957:1970  bytes32(bstr) */\n  tag_44\n  swap1\n  tag_45\n  jump\t// in\ntag_44:\n    /* \"@openzeppelin/contracts@5.0.2/utils/ShortStrings.sol\":1949:1971  uint256(bytes32(bstr)) */\n  0x00\n  shr\n    /* \"@openzeppelin/contracts@5.0.2/utils/ShortStrings.sol\":1949:1985  uint256(bytes32(bstr)) | bstr.length */\n  or\n    /* \"@openzeppelin/contracts@5.0.2/utils/ShortStrings.sol\":1941:1986  bytes32(uint256(bytes32(bstr)) | bstr.length) */\n  0x00\n  shl\n    /* \"@openzeppelin/contracts@5.0.2/utils/ShortStrings.sol\":1917:1987  return ShortString.wrap(bytes32(uint256(bytes32(bstr)) | bstr.length)) */\n  swap2\n  pop\n  pop\n    /* \"@openzeppelin/contracts@5.0.2/utils/ShortStrings.sol\":1708:1994  function toShortString(string memory str) internal pure returns (ShortString) {... */\n  swap2\n  swap1\n  pop\n  jump\t// out\n    /* \"@openzeppelin/contracts@5.0.2/utils/StorageSlot.sol\":3135:3337  function getStringSlot(string storage store) internal pure returns (StringSlot storage r) {... */\ntag_35:\n    /* \"@openzeppelin/contracts@5.0.2/utils/StorageSlot.sol\":3203:3223  StringSlot storage r */\n  0x00\n    /* \"@openzeppelin/contracts@5.0.2/utils/StorageSlot.sol\":3311:3321  store.slot */\n  dup2\n    /* \"@openzeppelin/contracts@5.0.2/utils/StorageSlot.sol\":3301:3321  r.slot := store.slot */\n  swap1\n  pop\n    /* \"@openzeppelin/contracts@5.0.2/utils/StorageSlot.sol\":3135:3337  function getStringSlot(string storage store) internal pure returns (StringSlot storage r) {... */\n  swap2\n  swap1\n  pop\n  jump\t// out\n    /* \"#utility.yul\":88:205   */\ntag_48:\n    /* \"#utility.yul\":197:198   */\n  0x00\n    /* \"#utility.yul\":194:195   */\n  dup1\n    /* \"#utility.yul\":187:199   */\n  revert\n    /* \"#utility.yul\":334:460   */\ntag_50:\n    /* \"#utility.yul\":371:378   */\n  0x00\n    /* \"#utility.yul\":411:453   */\n  0xffffffffffffffffffffffffffffffffffffffff\n    /* \"#utility.yul\":404:409   */\n  dup3\n    /* \"#utility.yul\":400:454   */\n  and\n    /* \"#utility.yul\":389:454   */\n  swap1\n  pop\n    /* \"#utility.yul\":334:460   */\n  swap2\n  swap1\n  pop\n  jump\t// out\n    /* \"#utility.yul\":466:562   */\ntag_51:\n    /* \"#utility.yul\":503:510   */\n  0x00\n    /* \"#utility.yul\":532:556   */\n  tag_91\n    /* \"#utility.yul\":550:555   */\n  dup3\n    /* \"#utility.yul\":532:556   */\n  tag_50\n  jump\t// in\ntag_91:\n    /* \"#utility.yul\":521:556   */\n  swap1\n  pop\n    /* \"#utility.yul\":466:562   */\n  swap2\n  swap1\n  pop\n  jump\t// out\n    /* \"#utility.yul\":568:690   */\ntag_52:\n    /* \"#utility.yul\":641:665   */\n  tag_93\n    /* \"#utility.yul\":659:664   */\n  dup2\n    /* \"#utility.yul\":641:665   */\n  tag_51\n  jump\t// in\ntag_93:\n    /* \"#utility.yul\":634:639   */\n  dup2\n    /* \"#utility.yul\":631:666   */\n  eq\n    /* \"#utility.yul\":621:684   */\n  tag_94\n  jumpi\n    /* \"#utility.yul\":680:681   */\n  0x00\n    /* \"#utility.yul\":677:678   */\n  dup1\n    /* \"#utility.yul\":670:682   */\n  revert\n    /* \"#utility.yul\":621:684   */\ntag_94:\n    /* \"#utility.yul\":568:690   */\n  pop\n  jump\t// out\n    /* \"#utility.yul\":696:839   */\ntag_53:\n    /* \"#utility.yul\":753:758   */\n  0x00\n    /* \"#utility.yul\":784:790   */\n  dup2\n    /* \"#utility.yul\":778:791   */\n  mload\n    /* \"#utility.yul\":769:791   */\n  swap1\n  pop\n    /* \"#utility.yul\":800:833   */\n  tag_96\n    /* \"#utility.yul\":827:832   */\n  dup2\n    /* \"#utility.yul\":800:833   */\n  tag_52\n  jump\t// in\ntag_96:\n    /* \"#utility.yul\":696:839   */\n  swap3\n  swap2\n  pop\n  pop\n  jump\t// out\n    /* \"#utility.yul\":845:1196   */\ntag_3:\n    /* \"#utility.yul\":915:921   */\n  0x00\n    /* \"#utility.yul\":964:966   */\n  0x20\n    /* \"#utility.yul\":952:961   */\n  dup3\n    /* \"#utility.yul\":943:950   */\n  dup5\n    /* \"#utility.yul\":939:962   */\n  sub\n    /* \"#utility.yul\":935:967   */\n  slt\n    /* \"#utility.yul\":932:1051   */\n  iszero\n  tag_98\n  jumpi\n    /* \"#utility.yul\":970:1049   */\n  tag_99\n  tag_48\n  jump\t// in\ntag_99:\n    /* \"#utility.yul\":932:1051   */\ntag_98:\n    /* \"#utility.yul\":1090:1091   */\n  0x00\n    /* \"#utility.yul\":1115:1179   */\n  tag_100\n    /* \"#utility.yul\":1171:1178   */\n  dup5\n    /* \"#utility.yul\":1162:1168   */\n  dup3\n    /* \"#utility.yul\":1151:1160   */\n  dup6\n    /* \"#utility.yul\":1147:1169   */\n  add\n    /* \"#utility.yul\":1115:1179   */\n  tag_53\n  jump\t// in\ntag_100:\n    /* \"#utility.yul\":1105:1179   */\n  swap2\n  pop\n    /* \"#utility.yul\":1061:1189   */\n  pop\n    /* \"#utility.yul\":845:1196   */\n  swap3\n  swap2\n  pop\n  pop\n  jump\t// out\n    /* \"#utility.yul\":1202:1301   */\ntag_54:\n    /* \"#utility.yul\":1254:1260   */\n  0x00\n    /* \"#utility.yul\":1288:1293   */\n  dup2\n    /* \"#utility.yul\":1282:1294   */\n  mload\n    /* \"#utility.yul\":1272:1294   */\n  swap1\n  pop\n    /* \"#utility.yul\":1202:1301   */\n  swap2\n  swap1\n  pop\n  jump\t// out\n    /* \"#utility.yul\":1307:1487   */\ntag_55:\n    /* \"#utility.yul\":1355:1432   */\n  0x4e487b7100000000000000000000000000000000000000000000000000000000\n    /* \"#utility.yul\":1352:1353   */\n  0x00\n    /* \"#utility.yul\":1345:1433   */\n  mstore\n    /* \"#utility.yul\":1452:1456   */\n  0x41\n    /* \"#utility.yul\":1449:1450   */\n  0x04\n    /* \"#utility.yul\":1442:1457   */\n  mstore\n    /* \"#utility.yul\":1476:1480   */\n  0x24\n    /* \"#utility.yul\":1473:1474   */\n  0x00\n    /* \"#utility.yul\":1466:1481   */\n  revert\n    /* \"#utility.yul\":1493:1673   */\ntag_56:\n    /* \"#utility.yul\":1541:1618   */\n  0x4e487b7100000000000000000000000000000000000000000000000000000000\n    /* \"#utility.yul\":1538:1539   */\n  0x00\n    /* \"#utility.yul\":1531:1619   */\n  mstore\n    /* \"#utility.yul\":1638:1642   */\n  0x22\n    /* \"#utility.yul\":1635:1636   */\n  0x04\n    /* \"#utility.yul\":1628:1643   */\n  mstore\n    /* \"#utility.yul\":1662:1666   */\n  0x24\n    /* \"#utility.yul\":1659:1660   */\n  0x00\n    /* \"#utility.yul\":1652:1667   */\n  revert\n    /* \"#utility.yul\":1679:1999   */\ntag_57:\n    /* \"#utility.yul\":1723:1729   */\n  0x00\n    /* \"#utility.yul\":1760:1761   */\n  0x02\n    /* \"#utility.yul\":1754:1758   */\n  dup3\n    /* \"#utility.yul\":1750:1762   */\n  div\n    /* \"#utility.yul\":1740:1762   */\n  swap1\n  pop\n    /* \"#utility.yul\":1807:1808   */\n  0x01\n    /* \"#utility.yul\":1801:1805   */\n  dup3\n    /* \"#utility.yul\":1797:1809   */\n  and\n    /* \"#utility.yul\":1828:1846   */\n  dup1\n    /* \"#utility.yul\":1818:1899   */\n  tag_105\n  jumpi\n    /* \"#utility.yul\":1884:1888   */\n  0x7f\n    /* \"#utility.yul\":1876:1882   */\n  dup3\n    /* \"#utility.yul\":1872:1889   */\n  and\n    /* \"#utility.yul\":1862:1889   */\n  swap2\n  pop\n    /* \"#utility.yul\":1818:1899   */\ntag_105:\n    /* \"#utility.yul\":1946:1948   */\n  0x20\n    /* \"#utility.yul\":1938:1944   */\n  dup3\n    /* \"#utility.yul\":1935:1949   */\n  lt\n    /* \"#utility.yul\":1915:1933   */\n  dup2\n    /* \"#utility.yul\":1912:1950   */\n  sub\n    /* \"#utility.yul\":1909:1993   */\n  tag_106\n  jumpi\n    /* \"#utility.yul\":1965:1983   */\n  tag_107\n  tag_56\n  jump\t// in\ntag_107:\n    /* \"#utility.yul\":1909:1993   */\ntag_106:\n    /* \"#utility.yul\":1730:1999   */\n  pop\n    /* \"#utility.yul\":1679:1999   */\n  swap2\n  swap1\n  pop\n  jump\t// out\n    /* \"#utility.yul\":2005:2146   */\ntag_58:\n    /* \"#utility.yul\":2054:2058   */\n  0x00\n    /* \"#utility.yul\":2077:2080   */\n  dup2\n    /* \"#utility.yul\":2069:2080   */\n  swap1\n  pop\n    /* \"#utility.yul\":2100:2103   */\n  dup2\n    /* \"#utility.yul\":2097:2098   */\n  0x00\n    /* \"#utility.yul\":2090:2104   */\n  mstore\n    /* \"#utility.yul\":2134:2138   */\n  0x20\n    /* \"#utility.yul\":2131:2132   */\n  0x00\n    /* \"#utility.yul\":2121:2139   */\n  keccak256\n    /* \"#utility.yul\":2113:2139   */\n  swap1\n  pop\n    /* \"#utility.yul\":2005:2146   */\n  swap2\n  swap1\n  pop\n  jump\t// out\n    /* \"#utility.yul\":2152:2245   */\ntag_59:\n    /* \"#utility.yul\":2189:2195   */\n  0x00\n    /* \"#utility.yul\":2236:2238   */\n  0x20\n    /* \"#utility.yul\":2231:2233   */\n  0x1f\n    /* \"#utility.yul\":2224:2229   */\n  dup4\n    /* \"#utility.yul\":2220:2234   */\n  add\n    /* \"#utility.yul\":2216:2239   */\n  div\n    /* \"#utility.yul\":2206:2239   */\n  swap1\n  pop\n    /* \"#utility.yul\":2152:2245   */\n  swap2\n  swap1\n  pop\n  jump\t// out\n    /* \"#utility.yul\":2251:2358   */\ntag_60:\n    /* \"#utility.yul\":2295:2303   */\n  0x00\n    /* \"#utility.yul\":2345:2350   */\n  dup3\n    /* \"#utility.yul\":2339:2343   */\n  dup3\n    /* \"#utility.yul\":2335:2351   */\n  shl\n    /* \"#utility.yul\":2314:2351   */\n  swap1\n  pop\n    /* \"#utility.yul\":2251:2358   */\n  swap3\n  swap2\n  pop\n  pop\n  jump\t// out\n    /* \"#utility.yul\":2364:2757   */\ntag_61:\n    /* \"#utility.yul\":2433:2439   */\n  0x00\n    /* \"#utility.yul\":2483:2484   */\n  0x08\n    /* \"#utility.yul\":2471:2481   */\n  dup4\n    /* \"#utility.yul\":2467:2485   */\n  mul\n    /* \"#utility.yul\":2506:2603   */\n  tag_112\n    /* \"#utility.yul\":2536:2602   */\n  0xffffffffffffffffffffffffffffffffffffffffffffffffffffffffffffffff\n    /* \"#utility.yul\":2525:2534   */\n  dup3\n    /* \"#utility.yul\":2506:2603   */\n  tag_60\n  jump\t// in\ntag_112:\n    /* \"#utility.yul\":2624:2663   */\n  tag_113\n    /* \"#utility.yul\":2654:2662   */\n  dup7\n    /* \"#utility.yul\":2643:2652   */\n  dup4\n    /* \"#utility.yul\":2624:2663   */\n  tag_60\n  jump\t// in\ntag_113:\n    /* \"#utility.yul\":2612:2663   */\n  swap6\n  pop\n    /* \"#utility.yul\":2696:2700   */\n  dup1\n    /* \"#utility.yul\":2692:2701   */\n  not\n    /* \"#utility.yul\":2685:2690   */\n  dup5\n    /* \"#utility.yul\":2681:2702   */\n  and\n    /* \"#utility.yul\":2672:2702   */\n  swap4\n  pop\n    /* \"#utility.yul\":2745:2749   */\n  dup1\n    /* \"#utility.yul\":2735:2743   */\n  dup7\n    /* \"#utility.yul\":2731:2750   */\n  and\n    /* \"#utility.yul\":2724:2729   */\n  dup5\n    /* \"#utility.yul\":2721:2751   */\n  or\n    /* \"#utility.yul\":2711:2751   */\n  swap3\n  pop\n    /* \"#utility.yul\":2440:2757   */\n  pop\n  pop\n    /* \"#utility.yul\":2364:2757   */\n  swap4\n  swap3\n  pop\n  pop\n  pop\n  jump\t// out\n    /* \"#utility.yul\":2763:2840   */\ntag_62:\n    /* \"#utility.yul\":2800:2807   */\n  0x00\n    /* \"#utility.yul\":2829:2834   */\n  dup2\n    /* \"#utility.yul\":2818:2834   */\n  swap1\n  pop\n    /* \"#utility.yul\":2763:2840   */\n  swap2\n  swap1\n  pop\n  jump\t// out\n    /* \"#utility.yul\":2846:2906   */\ntag_63:\n    /* \"#utility.yul\":2874:2877   */\n  0x00\n    /* \"#utility.yul\":2895:2900   */\n  dup2\n    /* \"#utility.yul\":2888:2900   */\n  swap1\n  pop\n    /* \"#utility.yul\":2846:2906   */\n  swap2\n  swap1\n  pop\n  jump\t// out\n    /* \"#utility.yul\":2912:3054   */\ntag_64:\n    /* \"#utility.yul\":2962:2971   */\n  0x00\n    /* \"#utility.yul\":2995:3048   */\n  tag_117\n    /* \"#utility.yul\":3013:3047   */\n  tag_118\n    /* \"#utility.yul\":3022:3046   */\n  tag_119\n    /* \"#utility.yul\":3040:3045   */\n  dup5\n    /* \"#utility.yul\":3022:3046   */\n  tag_62\n  jump\t// in\ntag_119:\n    /* \"#utility.yul\":3013:3047   */\n  tag_63\n  jump\t// in\ntag_118:\n    /* \"#utility.yul\":2995:3048   */\n  tag_62\n  jump\t// in\ntag_117:\n    /* \"#utility.yul\":2982:3048   */\n  swap1\n  pop\n    /* \"#utility.yul\":2912:3054   */\n  swap2\n  swap1\n  pop\n  jump\t// out\n    /* \"#utility.yul\":3060:3135   */\ntag_65:\n    /* \"#utility.yul\":3103:3106   */\n  0x00\n    /* \"#utility.yul\":3124:3129   */\n  dup2\n    /* \"#utility.yul\":3117:3129   */\n  swap1\n  pop\n    /* \"#utility.yul\":3060:3135   */\n  swap2\n  swap1\n  pop\n  jump\t// out\n    /* \"#utility.yul\":3141:3410   */\ntag_66:\n    /* \"#utility.yul\":3251:3290   */\n  tag_122\n    /* \"#utility.yul\":3282:3289   */\n  dup4\n    /* \"#utility.yul\":3251:3290   */\n  tag_64\n  jump\t// in\ntag_122:\n    /* \"#utility.yul\":3312:3403   */\n  tag_123\n    /* \"#utility.yul\":3361:3402   */\n  tag_124\n    /* \"#utility.yul\":3385:3401   */\n  dup3\n    /* \"#utility.yul\":3361:3402   */\n  tag_65\n  jump\t// in\ntag_124:\n    /* \"#utility.yul\":3353:3359   */\n  dup5\n    /* \"#utility.yul\":3346:3350   */\n  dup5\n    /* \"#utility.yul\":3340:3351   */\n  sload\n    /* \"#utility.yul\":3312:3403   */\n  tag_61\n  jump\t// in\ntag_123:\n    /* \"#utility.yul\":3306:3310   */\n  dup3\n    /* \"#utility.yul\":3299:3404   */\n  sstore\n    /* \"#utility.yul\":3217:3410   */\n  pop\n    /* \"#utility.yul\":3141:3410   */\n  pop\n  pop\n  pop\n  jump\t// out\n    /* \"#utility.yul\":3416:3489   */\ntag_67:\n    /* \"#utility.yul\":3461:3464   */\n  0x00\n    /* \"#utility.yul\":3416:3489   */\n  swap1\n  jump\t// out\n    /* \"#utility.yul\":3495:3684   */\ntag_68:\n    /* \"#utility.yul\":3572:3604   */\n  tag_127\n  tag_67\n  jump\t// in\ntag_127:\n    /* \"#utility.yul\":3613:3678   */\n  tag_128\n    /* \"#utility.yul\":3671:3677   */\n  dup2\n    /* \"#utility.yul\":3663:3669   */\n  dup5\n    /* \"#utility.yul\":3657:3661   */\n  dup5\n    /* \"#utility.yul\":3613:3678   */\n  tag_66\n  jump\t// in\ntag_128:\n    /* \"#utility.yul\":3548:3684   */\n  pop\n    /* \"#utility.yul\":3495:3684   */\n  pop\n  pop\n  jump\t// out\n    /* \"#utility.yul\":3690:3876   */\ntag_69:\n    /* \"#utility.yul\":3750:3870   */\ntag_130:\n    /* \"#utility.yul\":3767:3770   */\n  dup2\n    /* \"#utility.yul\":3760:3765   */\n  dup2\n    /* \"#utility.yul\":3757:3771   */\n  lt\n    /* \"#utility.yul\":3750:3870   */\n  iszero\n  tag_132\n  jumpi\n    /* \"#utility.yul\":3821:3860   */\n  tag_133\n    /* \"#utility.yul\":3858:3859   */\n  0x00\n    /* \"#utility.yul\":3851:3856   */\n  dup3\n    /* \"#utility.yul\":3821:3860   */\n  tag_68\n  jump\t// in\ntag_133:\n    /* \"#utility.yul\":3794:3795   */\n  0x01\n    /* \"#utility.yul\":3787:3792   */\n  dup2\n    /* \"#utility.yul\":3783:3796   */\n  add\n    /* \"#utility.yul\":3774:3796   */\n  swap1\n  pop\n    /* \"#utility.yul\":3750:3870   */\n  jump(tag_130)\ntag_132:\n    /* \"#utility.yul\":3690:3876   */\n  pop\n  pop\n  jump\t// out\n    /* \"#utility.yul\":3882:4425   */\ntag_70:\n    /* \"#utility.yul\":3983:3985   */\n  0x1f\n    /* \"#utility.yul\":3978:3981   */\n  dup3\n    /* \"#utility.yul\":3975:3986   */\n  gt\n    /* \"#utility.yul\":3972:4418   */\n  iszero\n  tag_135\n  jumpi\n    /* \"#utility.yul\":4017:4055   */\n  tag_136\n    /* \"#utility.yul\":4049:4054   */\n  dup2\n    /* \"#utility.yul\":4017:4055   */\n  tag_58\n  jump\t// in\ntag_136:\n    /* \"#utility.yul\":4101:4130   */\n  tag_137\n    /* \"#utility.yul\":4119:4129   */\n  dup5\n    /* \"#utility.yul\":4101:4130   */\n  tag_59\n  jump\t// in\ntag_137:\n    /* \"#utility.yul\":4091:4099   */\n  dup2\n    /* \"#utility.yul\":4087:4131   */\n  add\n    /* \"#utility.yul\":4284:4286   */\n  0x20\n    /* \"#utility.yul\":4272:4282   */\n  dup6\n    /* \"#utility.yul\":4269:4287   */\n  lt\n    /* \"#utility.yul\":4266:4315   */\n  iszero\n  tag_138\n  jumpi\n    /* \"#utility.yul\":4305:4313   */\n  dup2\n    /* \"#utility.yul\":4290:4313   */\n  swap1\n  pop\n    /* \"#utility.yul\":4266:4315   */\ntag_138:\n    /* \"#utility.yul\":4328:4408   */\n  tag_139\n    /* \"#utility.yul\":4384:4406   */\n  tag_140\n    /* \"#utility.yul\":4402:4405   */\n  dup6\n    /* \"#utility.yul\":4384:4406   */\n  tag_59\n  jump\t// in\ntag_140:\n    /* \"#utility.yul\":4374:4382   */\n  dup4\n    /* \"#utility.yul\":4370:4407   */\n  add\n    /* \"#utility.yul\":4357:4368   */\n  dup3\n    /* \"#utility.yul\":4328:4408   */\n  tag_69\n  jump\t// in\ntag_139:\n    /* \"#utility.yul\":3987:4418   */\n  pop\n  pop\n    /* \"#utility.yul\":3972:4418   */\ntag_135:\n    /* \"#utility.yul\":3882:4425   */\n  pop\n  pop\n  pop\n  jump\t// out\n    /* \"#utility.yul\":4431:4548   */\ntag_71:\n    /* \"#utility.yul\":4485:4493   */\n  0x00\n    /* \"#utility.yul\":4535:4540   */\n  dup3\n    /* \"#utility.yul\":4529:4533   */\n  dup3\n    /* \"#utility.yul\":4525:4541   */\n  shr\n    /* \"#utility.yul\":4504:4541   */\n  swap1\n  pop\n    /* \"#utility.yul\":4431:4548   */\n  swap3\n  swap2\n  pop\n  pop\n  jump\t// out\n    /* \"#utility.yul\":4554:4723   */\ntag_72:\n    /* \"#utility.yul\":4598:4604   */\n  0x00\n    /* \"#utility.yul\":4631:4682   */\n  tag_143\n    /* \"#utility.yul\":4679:4680   */\n  0x00\n    /* \"#utility.yul\":4675:4681   */\n  not\n    /* \"#utility.yul\":4667:4672   */\n  dup5\n    /* \"#utility.yul\":4664:4665   */\n  0x08\n    /* \"#utility.yul\":4660:4673   */\n  mul\n    /* \"#utility.yul\":4631:4682   */\n  tag_71\n  jump\t// in\ntag_143:\n    /* \"#utility.yul\":4627:4683   */\n  not\n    /* \"#utility.yul\":4712:4716   */\n  dup1\n    /* \"#utility.yul\":4706:4710   */\n  dup4\n    /* \"#utility.yul\":4702:4717   */\n  and\n    /* \"#utility.yul\":4692:4717   */\n  swap2\n  pop\n    /* \"#utility.yul\":4605:4723   */\n  pop\n    /* \"#utility.yul\":4554:4723   */\n  swap3\n  swap2\n  pop\n  pop\n  jump\t// out\n    /* \"#utility.yul\":4728:5023   */\ntag_73:\n    /* \"#utility.yul\":4804:4808   */\n  0x00\n    /* \"#utility.yul\":4950:4979   */\n  tag_145\n    /* \"#utility.yul\":4975:4978   */\n  dup4\n    /* \"#utility.yul\":4969:4973   */\n  dup4\n    /* \"#utility.yul\":4950:4979   */\n  tag_72\n  jump\t// in\ntag_145:\n    /* \"#utility.yul\":4942:4979   */\n  swap2\n  pop\n    /* \"#utility.yul\":5012:5015   */\n  dup3\n    /* \"#utility.yul\":5009:5010   */\n  0x02\n    /* \"#utility.yul\":5005:5016   */\n  mul\n    /* \"#utility.yul\":4999:5003   */\n  dup3\n    /* \"#utility.yul\":4996:5017   */\n  or\n    /* \"#utility.yul\":4988:5017   */\n  swap1\n  pop\n    /* \"#utility.yul\":4728:5023   */\n  swap3\n  swap2\n  pop\n  pop\n  jump\t// out\n    /* \"#utility.yul\":5028:6423   */\ntag_11:\n    /* \"#utility.yul\":5145:5182   */\n  tag_147\n    /* \"#utility.yul\":5178:5181   */\n  dup3\n    /* \"#utility.yul\":5145:5182   */\n  tag_54\n  jump\t// in\ntag_147:\n    /* \"#utility.yul\":5247:5265   */\n  0xffffffffffffffff\n    /* \"#utility.yul\":5239:5245   */\n  dup2\n    /* \"#utility.yul\":5236:5266   */\n  gt\n    /* \"#utility.yul\":5233:5289   */\n  iszero\n  tag_148\n  jumpi\n    /* \"#utility.yul\":5269:5287   */\n  tag_149\n  tag_55\n  jump\t// in\ntag_149:\n    /* \"#utility.yul\":5233:5289   */\ntag_148:\n    /* \"#utility.yul\":5313:5351   */\n  tag_150\n    /* \"#utility.yul\":5345:5349   */\n  dup3\n    /* \"#utility.yul\":5339:5350   */\n  sload\n    /* \"#utility.yul\":5313:5351   */\n  tag_57\n  jump\t// in\ntag_150:\n    /* \"#utility.yul\":5398:5465   */\n  tag_151\n    /* \"#utility.yul\":5458:5464   */\n  dup3\n    /* \"#utility.yul\":5450:5456   */\n  dup3\n    /* \"#utility.yul\":5444:5448   */\n  dup6\n    /* \"#utility.yul\":5398:5465   */\n  tag_70\n  jump\t// in\ntag_151:\n    /* \"#utility.yul\":5492:5493   */\n  0x00\n    /* \"#utility.yul\":5516:5520   */\n  0x20\n    /* \"#utility.yul\":5503:5520   */\n  swap1\n  pop\n    /* \"#utility.yul\":5548:5550   */\n  0x1f\n    /* \"#utility.yul\":5540:5546   */\n  dup4\n    /* \"#utility.yul\":5537:5551   */\n  gt\n    /* \"#utility.yul\":5565:5566   */\n  0x01\n    /* \"#utility.yul\":5560:6178   */\n  dup2\n  eq\n  tag_153\n  jumpi\n    /* \"#utility.yul\":6222:6223   */\n  0x00\n    /* \"#utility.yul\":6239:6245   */\n  dup5\n    /* \"#utility.yul\":6236:6313   */\n  iszero\n  tag_154\n  jumpi\n    /* \"#utility.yul\":6288:6297   */\n  dup3\n    /* \"#utility.yul\":6283:6286   */\n  dup8\n    /* \"#utility.yul\":6279:6298   */\n  add\n    /* \"#utility.yul\":6273:6299   */\n  mload\n    /* \"#utility.yul\":6264:6299   */\n  swap1\n  pop\n    /* \"#utility.yul\":6236:6313   */\ntag_154:\n    /* \"#utility.yul\":6339:6406   */\n  tag_155\n    /* \"#utility.yul\":6399:6405   */\n  dup6\n    /* \"#utility.yul\":6392:6397   */\n  dup3\n    /* \"#utility.yul\":6339:6406   */\n  tag_73\n  jump\t// in\ntag_155:\n    /* \"#utility.yul\":6333:6337   */\n  dup7\n    /* \"#utility.yul\":6326:6407   */\n  sstore\n    /* \"#utility.yul\":6195:6417   */\n  pop\n    /* \"#utility.yul\":5530:6417   */\n  jump(tag_152)\n    /* \"#utility.yul\":5560:6178   */\ntag_153:\n    /* \"#utility.yul\":5612:5616   */\n  0x1f\n    /* \"#utility.yul\":5608:5617   */\n  not\n    /* \"#utility.yul\":5600:5606   */\n  dup5\n    /* \"#utility.yul\":5596:5618   */\n  and\n    /* \"#utility.yul\":5646:5683   */\n  tag_156\n    /* \"#utility.yul\":5678:5682   */\n  dup7\n    /* \"#utility.yul\":5646:5683   */\n  tag_58\n  jump\t// in\ntag_156:\n    /* \"#utility.yul\":5705:5706   */\n  0x00\n    /* \"#utility.yul\":5719:5927   */\ntag_157:\n    /* \"#utility.yul\":5733:5740   */\n  dup3\n    /* \"#utility.yul\":5730:5731   */\n  dup2\n    /* \"#utility.yul\":5727:5741   */\n  lt\n    /* \"#utility.yul\":5719:5927   */\n  iszero\n  tag_159\n  jumpi\n    /* \"#utility.yul\":5812:5821   */\n  dup5\n    /* \"#utility.yul\":5807:5810   */\n  dup10\n    /* \"#utility.yul\":5803:5822   */\n  add\n    /* \"#utility.yul\":5797:5823   */\n  mload\n    /* \"#utility.yul\":5789:5795   */\n  dup3\n    /* \"#utility.yul\":5782:5824   */\n  sstore\n    /* \"#utility.yul\":5863:5864   */\n  0x01\n    /* \"#utility.yul\":5855:5861   */\n  dup3\n    /* \"#utility.yul\":5851:5865   */\n  add\n    /* \"#utility.yul\":5841:5865   */\n  swap2\n  pop\n    /* \"#utility.yul\":5910:5912   */\n  0x20\n    /* \"#utility.yul\":5899:5908   */\n  dup6\n    /* \"#utility.yul\":5895:5913   */\n  add\n    /* \"#utility.yul\":5882:5913   */\n  swap5\n  pop\n    /* \"#utility.yul\":5756:5760   */\n  0x20\n    /* \"#utility.yul\":5753:5754   */\n  dup2\n    /* \"#utility.yul\":5749:5761   */\n  add\n    /* \"#utility.yul\":5744:5761   */\n  swap1\n  pop\n    /* \"#utility.yul\":5719:5927   */\n  jump(tag_157)\ntag_159:\n    /* \"#utility.yul\":5955:5961   */\n  dup7\n    /* \"#utility.yul\":5946:5953   */\n  dup4\n    /* \"#utility.yul\":5943:5962   */\n  lt\n    /* \"#utility.yul\":5940:6119   */\n  iszero\n  tag_160\n  jumpi\n    /* \"#utility.yul\":6013:6022   */\n  dup5\n    /* \"#utility.yul\":6008:6011   */\n  dup10\n    /* \"#utility.yul\":6004:6023   */\n  add\n    /* \"#utility.yul\":5998:6024   */\n  mload\n    /* \"#utility.yul\":6056:6104   */\n  tag_161\n    /* \"#utility.yul\":6098:6102   */\n  0x1f\n    /* \"#utility.yul\":6090:6096   */\n  dup10\n    /* \"#utility.yul\":6086:6103   */\n  and\n    /* \"#utility.yul\":6075:6084   */\n  dup3\n    /* \"#utility.yul\":6056:6104   */\n  tag_72\n  jump\t// in\ntag_161:\n    /* \"#utility.yul\":6048:6054   */\n  dup4\n    /* \"#utility.yul\":6041:6105   */\n  sstore\n    /* \"#utility.yul\":5963:6119   */\n  pop\n    /* \"#utility.yul\":5940:6119   */\ntag_160:\n    /* \"#utility.yul\":6165:6166   */\n  0x01\n    /* \"#utility.yul\":6161:6162   */\n  0x02\n    /* \"#utility.yul\":6153:6159   */\n  dup9\n    /* \"#utility.yul\":6149:6163   */\n  mul\n    /* \"#utility.yul\":6145:6167   */\n  add\n    /* \"#utility.yul\":6139:6143   */\n  dup9\n    /* \"#utility.yul\":6132:6168   */\n  sstore\n    /* \"#utility.yul\":5567:6178   */\n  pop\n  pop\n  pop\n    /* \"#utility.yul\":5530:6417   */\ntag_152:\n  pop\n    /* \"#utility.yul\":5120:6423   */\n  pop\n  pop\n  pop\n    /* \"#utility.yul\":5028:6423   */\n  pop\n  pop\n  jump\t// out\n    /* \"#utility.yul\":6429:6547   */\ntag_74:\n    /* \"#utility.yul\":6516:6540   */\n  tag_163\n    /* \"#utility.yul\":6534:6539   */\n  dup2\n    /* \"#utility.yul\":6516:6540   */\n  tag_51\n  jump\t// in\ntag_163:\n    /* \"#utility.yul\":6511:6514   */\n  dup3\n    /* \"#utility.yul\":6504:6541   */\n  mstore\n    /* \"#utility.yul\":6429:6547   */\n  pop\n  pop\n  jump\t// out\n    /* \"#utility.yul\":6553:6775   */\ntag_16:\n    /* \"#utility.yul\":6646:6650   */\n  0x00\n    /* \"#utility.yul\":6684:6686   */\n  0x20\n    /* \"#utility.yul\":6673:6682   */\n  dup3\n    /* \"#utility.yul\":6669:6687   */\n  add\n    /* \"#utility.yul\":6661:6687   */\n  swap1\n  pop\n    /* \"#utility.yul\":6697:6768   */\n  tag_165\n    /* \"#utility.yul\":6765:6766   */\n  0x00\n    /* \"#utility.yul\":6754:6763   */\n  dup4\n    /* \"#utility.yul\":6750:6767   */\n  add\n    /* \"#utility.yul\":6741:6747   */\n  dup5\n    /* \"#utility.yul\":6697:6768   */\n  tag_74\n  jump\t// in\ntag_165:\n    /* \"#utility.yul\":6553:6775   */\n  swap3\n  swap2\n  pop\n  pop\n  jump\t// out\n    /* \"#utility.yul\":6781:6858   */\ntag_75:\n    /* \"#utility.yul\":6818:6825   */\n  0x00\n    /* \"#utility.yul\":6847:6852   */\n  dup2\n    /* \"#utility.yul\":6836:6852   */\n  swap1\n  pop\n    /* \"#utility.yul\":6781:6858   */\n  swap2\n  swap1\n  pop\n  jump\t// out\n    /* \"#utility.yul\":6864:6982   */\ntag_76:\n    /* \"#utility.yul\":6951:6975   */\n  tag_168\n    /* \"#utility.yul\":6969:6974   */\n  dup2\n    /* \"#utility.yul\":6951:6975   */\n  tag_75\n  jump\t// in\ntag_168:\n    /* \"#utility.yul\":6946:6949   */\n  dup3\n    /* \"#utility.yul\":6939:6976   */\n  mstore\n    /* \"#utility.yul\":6864:6982   */\n  pop\n  pop\n  jump\t// out\n    /* \"#utility.yul\":6988:7106   */\ntag_77:\n    /* \"#utility.yul\":7075:7099   */\n  tag_170\n    /* \"#utility.yul\":7093:7098   */\n  dup2\n    /* \"#utility.yul\":7075:7099   */\n  tag_62\n  jump\t// in\ntag_170:\n    /* \"#utility.yul\":7070:7073   */\n  dup3\n    /* \"#utility.yul\":7063:7100   */\n  mstore\n    /* \"#utility.yul\":6988:7106   */\n  pop\n  pop\n  jump\t// out\n    /* \"#utility.yul\":7112:7776   */\ntag_39:\n    /* \"#utility.yul\":7317:7321   */\n  0x00\n    /* \"#utility.yul\":7355:7358   */\n  0xa0\n    /* \"#utility.yul\":7344:7353   */\n  dup3\n    /* \"#utility.yul\":7340:7359   */\n  add\n    /* \"#utility.yul\":7332:7359   */\n  swap1\n  pop\n    /* \"#utility.yul\":7369:7440   */\n  tag_172\n    /* \"#utility.yul\":7437:7438   */\n  0x00\n    /* \"#utility.yul\":7426:7435   */\n  dup4\n    /* \"#utility.yul\":7422:7439   */\n  add\n    /* \"#utility.yul\":7413:7419   */\n  dup9\n    /* \"#utility.yul\":7369:7440   */\n  tag_76\n  jump\t// in\ntag_172:\n    /* \"#utility.yul\":7450:7522   */\n  tag_173\n    /* \"#utility.yul\":7518:7520   */\n  0x20\n    /* \"#utility.yul\":7507:7516   */\n  dup4\n    /* \"#utility.yul\":7503:7521   */\n  add\n    /* \"#utility.yul\":7494:7500   */\n  dup8\n    /* \"#utility.yul\":7450:7522   */\n  tag_76\n  jump\t// in\ntag_173:\n    /* \"#utility.yul\":7532:7604   */\n  tag_174\n    /* \"#utility.yul\":7600:7602   */\n  0x40\n    /* \"#utility.yul\":7589:7598   */\n  dup4\n    /* \"#utility.yul\":7585:7603   */\n  add\n    /* \"#utility.yul\":7576:7582   */\n  dup7\n    /* \"#utility.yul\":7532:7604   */\n  tag_76\n  jump\t// in\ntag_174:\n    /* \"#utility.yul\":7614:7686   */\n  tag_175\n    /* \"#utility.yul\":7682:7684   */\n  0x60\n    /* \"#utility.yul\":7671:7680   */\n  dup4\n    /* \"#utility.yul\":7667:7685   */\n  add\n    /* \"#utility.yul\":7658:7664   */\n  dup6\n    /* \"#utility.yul\":7614:7686   */\n  tag_77\n  jump\t// in\ntag_175:\n    /* \"#utility.yul\":7696:7769   */\n  tag_176\n    /* \"#utility.yul\":7764:7767   */\n  0x80\n    /* \"#utility.yul\":7753:7762   */\n  dup4\n    /* \"#utility.yul\":7749:7768   */\n  add\n    /* \"#utility.yul\":7740:7746   */\n  dup5\n    /* \"#utility.yul\":7696:7769   */\n  tag_74\n  jump\t// in\ntag_176:\n    /* \"#utility.yul\":7112:7776   */\n  swap7\n  swap6\n  pop\n  pop\n  pop\n  pop\n  pop\n  pop\n  jump\t// out\n    /* \"#utility.yul\":7782:7951   */\ntag_78:\n    /* \"#utility.yul\":7866:7877   */\n  0x00\n    /* \"#utility.yul\":7900:7906   */\n  dup3\n    /* \"#utility.yul\":7895:7898   */\n  dup3\n    /* \"#utility.yul\":7888:7907   */\n  mstore\n    /* \"#utility.yul\":7940:7944   */\n  0x20\n    /* \"#utility.yul\":7935:7938   */\n  dup3\n    /* \"#utility.yul\":7931:7945   */\n  add\n    /* \"#utility.yul\":7916:7945   */\n  swap1\n  pop\n    /* \"#utility.yul\":7782:7951   */\n  swap3\n  swap2\n  pop\n  pop\n  jump\t// out\n    /* \"#utility.yul\":7957:8203   */\ntag_79:\n    /* \"#utility.yul\":8038:8039   */\n  0x00\n    /* \"#utility.yul\":8048:8161   */\ntag_179:\n    /* \"#utility.yul\":8062:8068   */\n  dup4\n    /* \"#utility.yul\":8059:8060   */\n  dup2\n    /* \"#utility.yul\":8056:8069   */\n  lt\n    /* \"#utility.yul\":8048:8161   */\n  iszero\n  tag_181\n  jumpi\n    /* \"#utility.yul\":8147:8148   */\n  dup1\n    /* \"#utility.yul\":8142:8145   */\n  dup3\n    /* \"#utility.yul\":8138:8149   */\n  add\n    /* \"#utility.yul\":8132:8150   */\n  mload\n    /* \"#utility.yul\":8128:8129   */\n  dup2\n    /* \"#utility.yul\":8123:8126   */\n  dup5\n    /* \"#utility.yul\":8119:8130   */\n  add\n    /* \"#utility.yul\":8112:8151   */\n  mstore\n    /* \"#utility.yul\":8084:8086   */\n  0x20\n    /* \"#utility.yul\":8081:8082   */\n  dup2\n    /* \"#utility.yul\":8077:8087   */\n  add\n    /* \"#utility.yul\":8072:8087   */\n  swap1\n  pop\n    /* \"#utility.yul\":8048:8161   */\n  jump(tag_179)\ntag_181:\n    /* \"#utility.yul\":8195:8196   */\n  0x00\n    /* \"#utility.yul\":8186:8192   */\n  dup5\n    /* \"#utility.yul\":8181:8184   */\n  dup5\n    /* \"#utility.yul\":8177:8193   */\n  add\n    /* \"#utility.yul\":8170:8197   */\n  mstore\n    /* \"#utility.yul\":8019:8203   */\n  pop\n    /* \"#utility.yul\":7957:8203   */\n  pop\n  pop\n  pop\n  jump\t// out\n    /* \"#utility.yul\":8209:8311   */\ntag_80:\n    /* \"#utility.yul\":8250:8256   */\n  0x00\n    /* \"#utility.yul\":8301:8303   */\n  0x1f\n    /* \"#utility.yul\":8297:8304   */\n  not\n    /* \"#utility.yul\":8292:8294   */\n  0x1f\n    /* \"#utility.yul\":8285:8290   */\n  dup4\n    /* \"#utility.yul\":8281:8295   */\n  add\n    /* \"#utility.yul\":8277:8305   */\n  and\n    /* \"#utility.yul\":8267:8305   */\n  swap1\n  pop\n    /* \"#utility.yul\":8209:8311   */\n  swap2\n  swap1\n  pop\n  jump\t// out\n    /* \"#utility.yul\":8317:8694   */\ntag_81:\n    /* \"#utility.yul\":8405:8408   */\n  0x00\n    /* \"#utility.yul\":8433:8472   */\n  tag_184\n    /* \"#utility.yul\":8466:8471   */\n  dup3\n    /* \"#utility.yul\":8433:8472   */\n  tag_54\n  jump\t// in\ntag_184:\n    /* \"#utility.yul\":8488:8559   */\n  tag_185\n    /* \"#utility.yul\":8552:8558   */\n  dup2\n    /* \"#utility.yul\":8547:8550   */\n  dup6\n    /* \"#utility.yul\":8488:8559   */\n  tag_78\n  jump\t// in\ntag_185:\n    /* \"#utility.yul\":8481:8559   */\n  swap4\n  pop\n    /* \"#utility.yul\":8568:8633   */\n  tag_186\n    /* \"#utility.yul\":8626:8632   */\n  dup2\n    /* \"#utility.yul\":8621:8624   */\n  dup6\n    /* \"#utility.yul\":8614:8618   */\n  0x20\n    /* \"#utility.yul\":8607:8612   */\n  dup7\n    /* \"#utility.yul\":8603:8619   */\n  add\n    /* \"#utility.yul\":8568:8633   */\n  tag_79\n  jump\t// in\ntag_186:\n    /* \"#utility.yul\":8658:8687   */\n  tag_187\n    /* \"#utility.yul\":8680:8686   */\n  dup2\n    /* \"#utility.yul\":8658:8687   */\n  tag_80\n  jump\t// in\ntag_187:\n    /* \"#utility.yul\":8653:8656   */\n  dup5\n    /* \"#utility.yul\":8649:8688   */\n  add\n    /* \"#utility.yul\":8642:8688   */\n  swap2\n  pop\n    /* \"#utility.yul\":8409:8694   */\n  pop\n    /* \"#utility.yul\":8317:8694   */\n  swap3\n  swap2\n  pop\n  pop\n  jump\t// out\n    /* \"#utility.yul\":8700:9013   */\ntag_43:\n    /* \"#utility.yul\":8813:8817   */\n  0x00\n    /* \"#utility.yul\":8851:8853   */\n  0x20\n    /* \"#utility.yul\":8840:8849   */\n  dup3\n    /* \"#utility.yul\":8836:8854   */\n  add\n    /* \"#utility.yul\":8828:8854   */\n  swap1\n  pop\n    /* \"#utility.yul\":8900:8909   */\n  dup2\n    /* \"#utility.yul\":8894:8898   */\n  dup2\n    /* \"#utility.yul\":8890:8910   */\n  sub\n    /* \"#utility.yul\":8886:8887   */\n  0x00\n    /* \"#utility.yul\":8875:8884   */\n  dup4\n    /* \"#utility.yul\":8871:8888   */\n  add\n    /* \"#utility.yul\":8864:8911   */\n  mstore\n    /* \"#utility.yul\":8928:9006   */\n  tag_189\n    /* \"#utility.yul\":9001:9005   */\n  dup2\n    /* \"#utility.yul\":8992:8998   */\n  dup5\n    /* \"#utility.yul\":8928:9006   */\n  tag_81\n  jump\t// in\ntag_189:\n    /* \"#utility.yul\":8920:9006   */\n  swap1\n  pop\n    /* \"#utility.yul\":8700:9013   */\n  swap3\n  swap2\n  pop\n  pop\n  jump\t// out\n    /* \"#utility.yul\":9019:9117   */\ntag_82:\n    /* \"#utility.yul\":9070:9076   */\n  0x00\n    /* \"#utility.yul\":9104:9109   */\n  dup2\n    /* \"#utility.yul\":9098:9110   */\n  mload\n    /* \"#utility.yul\":9088:9110   */\n  swap1\n  pop\n    /* \"#utility.yul\":9019:9117   */\n  swap2\n  swap1\n  pop\n  jump\t// out\n    /* \"#utility.yul\":9123:9239   */\ntag_83:\n    /* \"#utility.yul\":9174:9178   */\n  0x00\n    /* \"#utility.yul\":9197:9200   */\n  dup2\n    /* \"#utility.yul\":9189:9200   */\n  swap1\n  pop\n    /* \"#utility.yul\":9227:9231   */\n  0x20\n    /* \"#utility.yul\":9222:9225   */\n  dup3\n    /* \"#utility.yul\":9218:9232   */\n  add\n    /* \"#utility.yul\":9210:9232   */\n  swap1\n  pop\n    /* \"#utility.yul\":9123:9239   */\n  swap2\n  swap1\n  pop\n  jump\t// out\n    /* \"#utility.yul\":9245:9399   */\ntag_84:\n    /* \"#utility.yul\":9288:9299   */\n  0x00\n    /* \"#utility.yul\":9324:9353   */\n  tag_193\n    /* \"#utility.yul\":9348:9351   */\n  dup3\n    /* \"#utility.yul\":9342:9352   */\n  mload\n    /* \"#utility.yul\":9324:9353   */\n  tag_75\n  jump\t// in\ntag_193:\n    /* \"#utility.yul\":9387:9392   */\n  dup1\n    /* \"#utility.yul\":9363:9392   */\n  swap2\n  pop\n    /* \"#utility.yul\":9300:9399   */\n  pop\n    /* \"#utility.yul\":9245:9399   */\n  swap2\n  swap1\n  pop\n  jump\t// out\n    /* \"#utility.yul\":9405:9999   */\ntag_45:\n    /* \"#utility.yul\":9489:9494   */\n  0x00\n    /* \"#utility.yul\":9520:9558   */\n  tag_195\n    /* \"#utility.yul\":9552:9557   */\n  dup3\n    /* \"#utility.yul\":9520:9558   */\n  tag_82\n  jump\t// in\ntag_195:\n    /* \"#utility.yul\":9583:9588   */\n  dup3\n    /* \"#utility.yul\":9610:9650   */\n  tag_196\n    /* \"#utility.yul\":9644:9649   */\n  dup5\n    /* \"#utility.yul\":9610:9650   */\n  tag_83\n  jump\t// in\ntag_196:\n    /* \"#utility.yul\":9598:9650   */\n  swap1\n  pop\n    /* \"#utility.yul\":9669:9704   */\n  tag_197\n    /* \"#utility.yul\":9695:9703   */\n  dup2\n    /* \"#utility.yul\":9669:9704   */\n  tag_84\n  jump\t// in\ntag_197:\n    /* \"#utility.yul\":9660:9704   */\n  swap3\n  pop\n    /* \"#utility.yul\":9728:9730   */\n  0x20\n    /* \"#utility.yul\":9720:9726   */\n  dup3\n    /* \"#utility.yul\":9717:9731   */\n  lt\n    /* \"#utility.yul\":9714:9992   */\n  iszero\n  tag_198\n  jumpi\n    /* \"#utility.yul\":9799:9968   */\n  tag_199\n    /* \"#utility.yul\":9884:9950   */\n  0xffffffffffffffffffffffffffffffffffffffffffffffffffffffffffffffff\n    /* \"#utility.yul\":9854:9860   */\n  dup4\n    /* \"#utility.yul\":9850:9852   */\n  0x20\n    /* \"#utility.yul\":9846:9861   */\n  sub\n    /* \"#utility.yul\":9843:9844   */\n  0x08\n    /* \"#utility.yul\":9839:9862   */\n  mul\n    /* \"#utility.yul\":9799:9968   */\n  tag_60\n  jump\t// in\ntag_199:\n    /* \"#utility.yul\":9776:9781   */\n  dup4\n    /* \"#utility.yul\":9755:9982   */\n  and\n    /* \"#utility.yul\":9746:9982   */\n  swap3\n  pop\n    /* \"#utility.yul\":9714:9992   */\ntag_198:\n    /* \"#utility.yul\":9495:9999   */\n  pop\n  pop\n    /* \"#utility.yul\":9405:9999   */\n  swap2\n  swap1\n  pop\n  jump\t// out\n    /* \"Project/LandToken.sol\":308:632  contract LandToken is ERC20, Ownable, ERC20Permit {... */\ntag_27:\n  mload(0x80)\n  mload(0xa0)\n  mload(0xc0)\n  mload(0xe0)\n  mload(0x0100)\n  mload(0x0120)\n  mload(0x0140)\n  codecopy(0x00, dataOffset(sub_0), dataSize(sub_0))\n  0x00\n  assignImmutable(\"0xfd925c346b866f15dc14b15669f54ea199640e70e8c480120dda0c18d1e9fd90\")\n  0x00\n  assignImmutable(\"0xe3122498d9ff2487a2561e8a734d04fd6e3d041d0a760f712a31c656b503f4e9\")\n  0x00\n  assignImmutable(\"0x1d4fd5afc7bf1a8c6112c96aba7276e07af3f16d86515087973b03fdff507ee1\")\n  0x00\n  assignImmutable(\"0x345f382da6bc84e813a69b1b534bca15525cf36c08e00ae0bcd53b6d58a4dc02\")\n  0x00\n  assignImmutable(\"0xb82071edfff134ff1052b654ae69c3c67bf3f8b35ce6706309fa7f2bcffe5e17\")\n  0x00\n  assignImmutable(\"0x3329b7633d4e172cc10487008746a48383b862e8915fef2ccef2fdd8286a4f3b\")\n  0x00\n  assignImmutable(\"0x169c36d5a26963faf00d0000557de5a8fe53f73dfb1c741ee7e7502b1148fef0\")\n  return(0x00, dataSize(sub_0))\nstop\n\nsub_0: assembly {\n        /* \"Project/LandToken.sol\":308:632  contract LandToken is ERC20, Ownable, ERC20Permit {... */\n      mstore(0x40, 0x80)\n      callvalue\n      dup1\n      iszero\n      tag_1\n      jumpi\n      0x00\n      dup1\n      revert\n    tag_1:\n      pop\n      jumpi(tag_2, lt(calldatasize, 0x04))\n      shr(0xe0, calldataload(0x00))\n      dup1\n      0x7ecebe00\n      gt\n      tag_21\n      jumpi\n      dup1\n      0xa9059cbb\n      gt\n      tag_22\n      jumpi\n      dup1\n      0xa9059cbb\n      eq\n      tag_16\n      jumpi\n      dup1\n      0xad24b8d0\n      eq\n      tag_17\n      jumpi\n      dup1\n      0xd505accf\n      eq\n      tag_18\n      jumpi\n      dup1\n      0xdd62ed3e\n      eq\n      tag_19\n      jumpi\n      dup1\n      0xf2fde38b\n      eq\n      tag_20\n      jumpi\n      jump(tag_2)\n    tag_22:\n      dup1\n      0x7ecebe00\n      eq\n      tag_12\n      jumpi\n      dup1\n      0x84b0196e\n      eq\n      tag_13\n      jumpi\n      dup1\n      0x8da5cb5b\n      eq\n      tag_14\n      jumpi\n      dup1\n      0x95d89b41\n      eq\n      tag_15\n      jumpi\n      jump(tag_2)\n    tag_21:\n      dup1\n      0x313ce567\n      gt\n      tag_23\n      jumpi\n      dup1\n      0x313ce567\n      eq\n      tag_7\n      jumpi\n      dup1\n      0x3644e515\n      eq\n      tag_8\n      jumpi\n      dup1\n      0x40c10f19\n      eq\n      tag_9\n      jumpi\n      dup1\n      0x70a08231\n      eq\n      tag_10\n      jumpi\n      dup1\n      0x715018a6\n      eq\n      tag_11\n      jumpi\n      jump(tag_2)\n    tag_23:\n      dup1\n      0x06fdde03\n      eq\n      tag_3\n      jumpi\n      dup1\n      0x095ea7b3\n      eq\n      tag_4\n      jumpi\n      dup1\n      0x18160ddd\n      eq\n      tag_5\n      jumpi\n      dup1\n      0x23b872dd\n      eq\n      tag_6\n      jumpi\n    tag_2:\n      0x00\n      dup1\n      revert\n        /* \"@openzeppelin/contracts@5.0.2/token/ERC20/ERC20.sol\":2074:2163  function name() public view virtual returns (string memory) {... */\n    tag_3:\n      tag_24\n      tag_25\n      jump\t// in\n    tag_24:\n      mload(0x40)\n      tag_26\n      swap2\n      swap1\n      tag_27\n      jump\t// in\n    tag_26:\n      mload(0x40)\n      dup1\n      swap2\n      sub\n      swap1\n      return\n        /* \"@openzeppelin/contracts@5.0.2/token/ERC20/ERC20.sol\":4293:4479  function approve(address spender, uint256 value) public virtual returns (bool) {... */\n    tag_4:\n      tag_28\n      0x04\n      dup1\n      calldatasize\n      sub\n      dup2\n      add\n      swap1\n      tag_29\n      swap2\n      swap1\n      tag_30\n      jump\t// in\n    tag_29:\n      tag_31\n      jump\t// in\n    tag_28:\n      mload(0x40)\n      tag_32\n      swap2\n      swap1\n      tag_33\n      jump\t// in\n    tag_32:\n      mload(0x40)\n      dup1\n      swap2\n      sub\n      swap1\n      return\n        /* \"@openzeppelin/contracts@5.0.2/token/ERC20/ERC20.sol\":3144:3241  function totalSupply() public view virtual returns (uint256) {... */\n    tag_5:\n      tag_34\n      tag_35\n      jump\t// in\n    tag_34:\n      mload(0x40)\n      tag_36\n      swap2\n      swap1\n      tag_37\n      jump\t// in\n    tag_36:\n      mload(0x40)\n      dup1\n      swap2\n      sub\n      swap1\n      return\n        /* \"@openzeppelin/contracts@5.0.2/token/ERC20/ERC20.sol\":5039:5283  function transferFrom(address from, address to, uint256 value) public virtual returns (bool) {... */\n    tag_6:\n      tag_38\n      0x04\n      dup1\n      calldatasize\n      sub\n      dup2\n      add\n      swap1\n      tag_39\n      swap2\n      swap1\n      tag_40\n      jump\t// in\n    tag_39:\n      tag_41\n      jump\t// in\n    tag_38:\n      mload(0x40)\n      tag_42\n      swap2\n      swap1\n      tag_33\n      jump\t// in\n    tag_42:\n      mload(0x40)\n      dup1\n      swap2\n      sub\n      swap1\n      return\n        /* \"@openzeppelin/contracts@5.0.2/token/ERC20/ERC20.sol\":3002:3084  function decimals() public view virtual returns (uint8) {... */\n    tag_7:\n      tag_43\n      tag_44\n      jump\t// in\n    tag_43:\n      mload(0x40)\n      tag_45\n      swap2\n      swap1\n      tag_46\n      jump\t// in\n    tag_45:\n      mload(0x40)\n      dup1\n      swap2\n      sub\n      swap1\n      return\n        /* \"@openzeppelin/contracts@5.0.2/token/ERC20/extensions/ERC20Permit.sol\":2656:2768  function DOMAIN_SEPARATOR() external view virtual returns (bytes32) {... */\n    tag_8:\n      tag_47\n      tag_48\n      jump\t// in\n    tag_47:\n      mload(0x40)\n      tag_49\n      swap2\n      swap1\n      tag_50\n      jump\t// in\n    tag_49:\n      mload(0x40)\n      dup1\n      swap2\n      sub\n      swap1\n      return\n        /* \"Project/LandToken.sol\":507:630  function mint(address to, uint256 amount) public onlyOwner {... */\n    tag_9:\n      tag_51\n      0x04\n      dup1\n      calldatasize\n      sub\n      dup2\n      add\n      swap1\n      tag_52\n      swap2\n      swap1\n      tag_30\n      jump\t// in\n    tag_52:\n      tag_53\n      jump\t// in\n    tag_51:\n      stop\n        /* \"@openzeppelin/contracts@5.0.2/token/ERC20/ERC20.sol\":3299:3415  function balanceOf(address account) public view virtual returns (uint256) {... */\n    tag_10:\n      tag_54\n      0x04\n      dup1\n      calldatasize\n      sub\n      dup2\n      add\n      swap1\n      tag_55\n      swap2\n      swap1\n      tag_56\n      jump\t// in\n    tag_55:\n      tag_57\n      jump\t// in\n    tag_54:\n      mload(0x40)\n      tag_58\n      swap2\n      swap1\n      tag_37\n      jump\t// in\n    tag_58:\n      mload(0x40)\n      dup1\n      swap2\n      sub\n      swap1\n      return\n        /* \"@openzeppelin/contracts@5.0.2/access/Ownable.sol\":2293:2394  function renounceOwnership() public virtual onlyOwner {... */\n    tag_11:\n      tag_59\n      tag_60\n      jump\t// in\n    tag_59:\n      stop\n        /* \"@openzeppelin/contracts@5.0.2/token/ERC20/extensions/ERC20Permit.sol\":2406:2549  function nonces(address owner) public view virtual override(IERC20Permit, Nonces) returns (uint256) {... */\n    tag_12:\n      tag_61\n      0x04\n      dup1\n      calldatasize\n      sub\n      dup2\n      add\n      swap1\n      tag_62\n      swap2\n      swap1\n      tag_56\n      jump\t// in\n    tag_62:\n      tag_63\n      jump\t// in\n    tag_61:\n      mload(0x40)\n      tag_64\n      swap2\n      swap1\n      tag_37\n      jump\t// in\n    tag_64:\n      mload(0x40)\n      dup1\n      swap2\n      sub\n      swap1\n      return\n        /* \"@openzeppelin/contracts@5.0.2/utils/cryptography/EIP712.sol\":5144:5701  function eip712Domain()... */\n    tag_13:\n      tag_65\n      tag_66\n      jump\t// in\n    tag_65:\n      mload(0x40)\n      tag_67\n      swap8\n      swap7\n      swap6\n      swap5\n      swap4\n      swap3\n      swap2\n      swap1\n      tag_68\n      jump\t// in\n    tag_67:\n      mload(0x40)\n      dup1\n      swap2\n      sub\n      swap1\n      return\n        /* \"@openzeppelin/contracts@5.0.2/access/Ownable.sol\":1638:1723  function owner() public view virtual returns (address) {... */\n    tag_14:\n      tag_69\n      tag_70\n      jump\t// in\n    tag_69:\n      mload(0x40)\n      tag_71\n      swap2\n      swap1\n      tag_72\n      jump\t// in\n    tag_71:\n      mload(0x40)\n      dup1\n      swap2\n      sub\n      swap1\n      return\n        /* \"@openzeppelin/contracts@5.0.2/token/ERC20/ERC20.sol\":2276:2369  function symbol() public view virtual returns (string memory) {... */\n    tag_15:\n      tag_73\n      tag_74\n      jump\t// in\n    tag_73:\n      mload(0x40)\n      tag_75\n      swap2\n      swap1\n      tag_27\n      jump\t// in\n    tag_75:\n      mload(0x40)\n      dup1\n      swap2\n      sub\n      swap1\n      return\n        /* \"@openzeppelin/contracts@5.0.2/token/ERC20/ERC20.sol\":3610:3788  function transfer(address to, uint256 value) public virtual returns (bool) {... */\n    tag_16:\n      tag_76\n      0x04\n      dup1\n      calldatasize\n      sub\n      dup2\n      add\n      swap1\n      tag_77\n      swap2\n      swap1\n      tag_30\n      jump\t// in\n    tag_77:\n      tag_78\n      jump\t// in\n    tag_76:\n      mload(0x40)\n      tag_79\n      swap2\n      swap1\n      tag_33\n      jump\t// in\n    tag_79:\n      mload(0x40)\n      dup1\n      swap2\n      sub\n      swap1\n      return\n        /* \"@openzeppelin/contracts@5.0.2/token/ERC20/ERC20.sol\":11244:11529  function transferFromCustom(address from, address to, uint256 value, address contractAddress) public virtual returns (bool) {... */\n    tag_17:\n      tag_80\n      0x04\n      dup1\n      calldatasize\n      sub\n      dup2\n      add\n      swap1\n      tag_81\n      swap2\n      swap1\n      tag_82\n      jump\t// in\n    tag_81:\n      tag_83\n      jump\t// in\n    tag_80:\n      mload(0x40)\n      tag_84\n      swap2\n      swap1\n      tag_33\n      jump\t// in\n    tag_84:\n      mload(0x40)\n      dup1\n      swap2\n      sub\n      swap1\n      return\n        /* \"@openzeppelin/contracts@5.0.2/token/ERC20/extensions/ERC20Permit.sol\":1680:2352  function permit(... */\n    tag_18:\n      tag_85\n      0x04\n      dup1\n      calldatasize\n      sub\n      dup2\n      add\n      swap1\n      tag_86\n      swap2\n      swap1\n      tag_87\n      jump\t// in\n    tag_86:\n      tag_88\n      jump\t// in\n    tag_85:\n      stop\n        /* \"@openzeppelin/contracts@5.0.2/token/ERC20/ERC20.sol\":3846:3986  function allowance(address owner, address spender) public view virtual returns (uint256) {... */\n    tag_19:\n      tag_89\n      0x04\n      dup1\n      calldatasize\n      sub\n      dup2\n      add\n      swap1\n      tag_90\n      swap2\n      swap1\n      tag_91\n      jump\t// in\n    tag_90:\n      tag_92\n      jump\t// in\n    tag_89:\n      mload(0x40)\n      tag_93\n      swap2\n      swap1\n      tag_37\n      jump\t// in\n    tag_93:\n      mload(0x40)\n      dup1\n      swap2\n      sub\n      swap1\n      return\n        /* \"@openzeppelin/contracts@5.0.2/access/Ownable.sol\":2543:2758  function transferOwnership(address newOwner) public virtual onlyOwner {... */\n    tag_20:\n      tag_94\n      0x04\n      dup1\n      calldatasize\n      sub\n      dup2\n      add\n      swap1\n      tag_95\n      swap2\n      swap1\n      tag_56\n      jump\t// in\n    tag_95:\n      tag_96\n      jump\t// in\n    tag_94:\n      stop\n        /* \"@openzeppelin/contracts@5.0.2/token/ERC20/ERC20.sol\":2074:2163  function name() public view virtual returns (string memory) {... */\n    tag_25:\n        /* \"@openzeppelin/contracts@5.0.2/token/ERC20/ERC20.sol\":2119:2132  string memory */\n      0x60\n        /* \"@openzeppelin/contracts@5.0.2/token/ERC20/ERC20.sol\":2151:2156  _name */\n      0x03\n        /* \"@openzeppelin/contracts@5.0.2/token/ERC20/ERC20.sol\":2144:2156  return _name */\n      dup1\n      sload\n      tag_98\n      swap1\n      tag_99\n      jump\t// in\n    tag_98:\n      dup1\n      0x1f\n      add\n      0x20\n      dup1\n      swap2\n      div\n      mul\n      0x20\n      add\n      mload(0x40)\n      swap1\n      dup2\n      add\n      0x40\n      mstore\n      dup1\n      swap3\n      swap2\n      swap1\n      dup2\n      dup2\n      mstore\n      0x20\n      add\n      dup3\n      dup1\n      sload\n      tag_100\n      swap1\n      tag_99\n      jump\t// in\n    tag_100:\n      dup1\n      iszero\n      tag_101\n      jumpi\n      dup1\n      0x1f\n      lt\n      tag_102\n      jumpi\n      0x0100\n      dup1\n      dup4\n      sload\n      div\n      mul\n      dup4\n      mstore\n      swap2\n      0x20\n      add\n      swap2\n      jump(tag_101)\n    tag_102:\n      dup3\n      add\n      swap2\n      swap1\n      0x00\n      mstore\n      keccak256(0x00, 0x20)\n      swap1\n    tag_103:\n      dup2\n      sload\n      dup2\n      mstore\n      swap1\n      0x01\n      add\n      swap1\n      0x20\n      add\n      dup1\n      dup4\n      gt\n      tag_103\n      jumpi\n      dup3\n      swap1\n      sub\n      0x1f\n      and\n      dup3\n      add\n      swap2\n    tag_101:\n      pop\n      pop\n      pop\n      pop\n      pop\n      swap1\n      pop\n        /* \"@openzeppelin/contracts@5.0.2/token/ERC20/ERC20.sol\":2074:2163  function name() public view virtual returns (string memory) {... */\n      swap1\n      jump\t// out\n        /* \"@openzeppelin/contracts@5.0.2/token/ERC20/ERC20.sol\":4293:4479  function approve(address spender, uint256 value) public virtual returns (bool) {... */\n    tag_31:\n        /* \"@openzeppelin/contracts@5.0.2/token/ERC20/ERC20.sol\":4366:4370  bool */\n      0x00\n        /* \"@openzeppelin/contracts@5.0.2/token/ERC20/ERC20.sol\":4382:4395  address owner */\n      dup1\n        /* \"@openzeppelin/contracts@5.0.2/token/ERC20/ERC20.sol\":4398:4410  _msgSender() */\n      tag_105\n        /* \"@openzeppelin/contracts@5.0.2/token/ERC20/ERC20.sol\":4398:4408  _msgSender */\n      tag_106\n        /* \"@openzeppelin/contracts@5.0.2/token/ERC20/ERC20.sol\":4398:4410  _msgSender() */\n      jump\t// in\n    tag_105:\n        /* \"@openzeppelin/contracts@5.0.2/token/ERC20/ERC20.sol\":4382:4410  address owner = _msgSender() */\n      swap1\n      pop\n        /* \"@openzeppelin/contracts@5.0.2/token/ERC20/ERC20.sol\":4420:4451  _approve(owner, spender, value) */\n      tag_107\n        /* \"@openzeppelin/contracts@5.0.2/token/ERC20/ERC20.sol\":4429:4434  owner */\n      dup2\n        /* \"@openzeppelin/contracts@5.0.2/token/ERC20/ERC20.sol\":4436:4443  spender */\n      dup6\n        /* \"@openzeppelin/contracts@5.0.2/token/ERC20/ERC20.sol\":4445:4450  value */\n      dup6\n        /* \"@openzeppelin/contracts@5.0.2/token/ERC20/ERC20.sol\":4420:4428  _approve */\n      tag_108\n        /* \"@openzeppelin/contracts@5.0.2/token/ERC20/ERC20.sol\":4420:4451  _approve(owner, spender, value) */\n      jump\t// in\n    tag_107:\n        /* \"@openzeppelin/contracts@5.0.2/token/ERC20/ERC20.sol\":4468:4472  true */\n      0x01\n        /* \"@openzeppelin/contracts@5.0.2/token/ERC20/ERC20.sol\":4461:4472  return true */\n      swap2\n      pop\n      pop\n        /* \"@openzeppelin/contracts@5.0.2/token/ERC20/ERC20.sol\":4293:4479  function approve(address spender, uint256 value) public virtual returns (bool) {... */\n      swap3\n      swap2\n      pop\n      pop\n      jump\t// out\n        /* \"@openzeppelin/contracts@5.0.2/token/ERC20/ERC20.sol\":3144:3241  function totalSupply() public view virtual returns (uint256) {... */\n    tag_35:\n        /* \"@openzeppelin/contracts@5.0.2/token/ERC20/ERC20.sol\":3196:3203  uint256 */\n      0x00\n        /* \"@openzeppelin/contracts@5.0.2/token/ERC20/ERC20.sol\":3222:3234  _totalSupply */\n      sload(0x02)\n        /* \"@openzeppelin/contracts@5.0.2/token/ERC20/ERC20.sol\":3215:3234  return _totalSupply */\n      swap1\n      pop\n        /* \"@openzeppelin/contracts@5.0.2/token/ERC20/ERC20.sol\":3144:3241  function totalSupply() public view virtual returns (uint256) {... */\n      swap1\n      jump\t// out\n        /* \"@openzeppelin/contracts@5.0.2/token/ERC20/ERC20.sol\":5039:5283  function transferFrom(address from, address to, uint256 value) public virtual returns (bool) {... */\n    tag_41:\n        /* \"@openzeppelin/contracts@5.0.2/token/ERC20/ERC20.sol\":5126:5130  bool */\n      0x00\n        /* \"@openzeppelin/contracts@5.0.2/token/ERC20/ERC20.sol\":5142:5157  address spender */\n      dup1\n        /* \"@openzeppelin/contracts@5.0.2/token/ERC20/ERC20.sol\":5160:5172  _msgSender() */\n      tag_111\n        /* \"@openzeppelin/contracts@5.0.2/token/ERC20/ERC20.sol\":5160:5170  _msgSender */\n      tag_106\n        /* \"@openzeppelin/contracts@5.0.2/token/ERC20/ERC20.sol\":5160:5172  _msgSender() */\n      jump\t// in\n    tag_111:\n        /* \"@openzeppelin/contracts@5.0.2/token/ERC20/ERC20.sol\":5142:5172  address spender = _msgSender() */\n      swap1\n      pop\n        /* \"@openzeppelin/contracts@5.0.2/token/ERC20/ERC20.sol\":5182:5219  _spendAllowance(from, spender, value) */\n      tag_112\n        /* \"@openzeppelin/contracts@5.0.2/token/ERC20/ERC20.sol\":5198:5202  from */\n      dup6\n        /* \"@openzeppelin/contracts@5.0.2/token/ERC20/ERC20.sol\":5204:5211  spender */\n      dup3\n        /* \"@openzeppelin/contracts@5.0.2/token/ERC20/ERC20.sol\":5213:5218  value */\n      dup6\n        /* \"@openzeppelin/contracts@5.0.2/token/ERC20/ERC20.sol\":5182:5197  _spendAllowance */\n      tag_113\n        /* \"@openzeppelin/contracts@5.0.2/token/ERC20/ERC20.sol\":5182:5219  _spendAllowance(from, spender, value) */\n      jump\t// in\n    tag_112:\n        /* \"@openzeppelin/contracts@5.0.2/token/ERC20/ERC20.sol\":5229:5255  _transfer(from, to, value) */\n      tag_114\n        /* \"@openzeppelin/contracts@5.0.2/token/ERC20/ERC20.sol\":5239:5243  from */\n      dup6\n        /* \"@openzeppelin/contracts@5.0.2/token/ERC20/ERC20.sol\":5245:5247  to */\n      dup6\n        /* \"@openzeppelin/contracts@5.0.2/token/ERC20/ERC20.sol\":5249:5254  value */\n      dup6\n        /* \"@openzeppelin/contracts@5.0.2/token/ERC20/ERC20.sol\":5229:5238  _transfer */\n      tag_115\n        /* \"@openzeppelin/contracts@5.0.2/token/ERC20/ERC20.sol\":5229:5255  _transfer(from, to, value) */\n      jump\t// in\n    tag_114:\n        /* \"@openzeppelin/contracts@5.0.2/token/ERC20/ERC20.sol\":5272:5276  true */\n      0x01\n        /* \"@openzeppelin/contracts@5.0.2/token/ERC20/ERC20.sol\":5265:5276  return true */\n      swap2\n      pop\n      pop\n        /* \"@openzeppelin/contracts@5.0.2/token/ERC20/ERC20.sol\":5039:5283  function transferFrom(address from, address to, uint256 value) public virtual returns (bool) {... */\n      swap4\n      swap3\n      pop\n      pop\n      pop\n      jump\t// out\n        /* \"@openzeppelin/contracts@5.0.2/token/ERC20/ERC20.sol\":3002:3084  function decimals() public view virtual returns (uint8) {... */\n    tag_44:\n        /* \"@openzeppelin/contracts@5.0.2/token/ERC20/ERC20.sol\":3051:3056  uint8 */\n      0x00\n        /* \"@openzeppelin/contracts@5.0.2/token/ERC20/ERC20.sol\":3075:3077  18 */\n      0x12\n        /* \"@openzeppelin/contracts@5.0.2/token/ERC20/ERC20.sol\":3068:3077  return 18 */\n      swap1\n      pop\n        /* \"@openzeppelin/contracts@5.0.2/token/ERC20/ERC20.sol\":3002:3084  function decimals() public view virtual returns (uint8) {... */\n      swap1\n      jump\t// out\n        /* \"@openzeppelin/contracts@5.0.2/token/ERC20/extensions/ERC20Permit.sol\":2656:2768  function DOMAIN_SEPARATOR() external view virtual returns (bytes32) {... */\n    tag_48:\n        /* \"@openzeppelin/contracts@5.0.2/token/ERC20/extensions/ERC20Permit.sol\":2715:2722  bytes32 */\n      0x00\n        /* \"@openzeppelin/contracts@5.0.2/token/ERC20/extensions/ERC20Permit.sol\":2741:2761  _domainSeparatorV4() */\n      tag_118\n        /* \"@openzeppelin/contracts@5.0.2/token/ERC20/extensions/ERC20Permit.sol\":2741:2759  _domainSeparatorV4 */\n      tag_119\n        /* \"@openzeppelin/contracts@5.0.2/token/ERC20/extensions/ERC20Permit.sol\":2741:2761  _domainSeparatorV4() */\n      jump\t// in\n    tag_118:\n        /* \"@openzeppelin/contracts@5.0.2/token/ERC20/extensions/ERC20Permit.sol\":2734:2761  return _domainSeparatorV4() */\n      swap1\n      pop\n        /* \"@openzeppelin/contracts@5.0.2/token/ERC20/extensions/ERC20Permit.sol\":2656:2768  function DOMAIN_SEPARATOR() external view virtual returns (bytes32) {... */\n      swap1\n      jump\t// out\n        /* \"Project/LandToken.sol\":507:630  function mint(address to, uint256 amount) public onlyOwner {... */\n    tag_53:\n        /* \"@openzeppelin/contracts@5.0.2/access/Ownable.sol\":1531:1544  _checkOwner() */\n      tag_121\n        /* \"@openzeppelin/contracts@5.0.2/access/Ownable.sol\":1531:1542  _checkOwner */\n      tag_122\n        /* \"@openzeppelin/contracts@5.0.2/access/Ownable.sol\":1531:1544  _checkOwner() */\n      jump\t// in\n    tag_121:\n        /* \"Project/LandToken.sol\":576:623  _mint(to, amount * (10 ** uint256(decimals()))) */\n      tag_124\n        /* \"Project/LandToken.sol\":582:584  to */\n      dup3\n        /* \"Project/LandToken.sol\":610:620  decimals() */\n      tag_125\n        /* \"Project/LandToken.sol\":610:618  decimals */\n      tag_44\n        /* \"Project/LandToken.sol\":610:620  decimals() */\n      jump\t// in\n    tag_125:\n        /* \"Project/LandToken.sol\":602:621  uint256(decimals()) */\n      0xff\n      and\n        /* \"Project/LandToken.sol\":596:598  10 */\n      0x0a\n        /* \"Project/LandToken.sol\":596:621  10 ** uint256(decimals()) */\n      tag_126\n      swap2\n      swap1\n      tag_127\n      jump\t// in\n    tag_126:\n        /* \"Project/LandToken.sol\":586:592  amount */\n      dup4\n        /* \"Project/LandToken.sol\":586:622  amount * (10 ** uint256(decimals())) */\n      tag_128\n      swap2\n      swap1\n      tag_129\n      jump\t// in\n    tag_128:\n        /* \"Project/LandToken.sol\":576:581  _mint */\n      tag_130\n        /* \"Project/LandToken.sol\":576:623  _mint(to, amount * (10 ** uint256(decimals()))) */\n      jump\t// in\n    tag_124:\n        /* \"Project/LandToken.sol\":507:630  function mint(address to, uint256 amount) public onlyOwner {... */\n      pop\n      pop\n      jump\t// out\n        /* \"@openzeppelin/contracts@5.0.2/token/ERC20/ERC20.sol\":3299:3415  function balanceOf(address account) public view virtual returns (uint256) {... */\n    tag_57:\n        /* \"@openzeppelin/contracts@5.0.2/token/ERC20/ERC20.sol\":3364:3371  uint256 */\n      0x00\n        /* \"@openzeppelin/contracts@5.0.2/token/ERC20/ERC20.sol\":3390:3399  _balances */\n      dup1\n        /* \"@openzeppelin/contracts@5.0.2/token/ERC20/ERC20.sol\":3390:3408  _balances[account] */\n      0x00\n        /* \"@openzeppelin/contracts@5.0.2/token/ERC20/ERC20.sol\":3400:3407  account */\n      dup4\n        /* \"@openzeppelin/contracts@5.0.2/token/ERC20/ERC20.sol\":3390:3408  _balances[account] */\n      0xffffffffffffffffffffffffffffffffffffffff\n      and\n      0xffffffffffffffffffffffffffffffffffffffff\n      and\n      dup2\n      mstore\n      0x20\n      add\n      swap1\n      dup2\n      mstore\n      0x20\n      add\n      0x00\n      keccak256\n      sload\n        /* \"@openzeppelin/contracts@5.0.2/token/ERC20/ERC20.sol\":3383:3408  return _balances[account] */\n      swap1\n      pop\n        /* \"@openzeppelin/contracts@5.0.2/token/ERC20/ERC20.sol\":3299:3415  function balanceOf(address account) public view virtual returns (uint256) {... */\n      swap2\n      swap1\n      pop\n      jump\t// out\n        /* \"@openzeppelin/contracts@5.0.2/access/Ownable.sol\":2293:2394  function renounceOwnership() public virtual onlyOwner {... */\n    tag_60:\n        /* \"@openzeppelin/contracts@5.0.2/access/Ownable.sol\":1531:1544  _checkOwner() */\n      tag_133\n        /* \"@openzeppelin/contracts@5.0.2/access/Ownable.sol\":1531:1542  _checkOwner */\n      tag_122\n        /* \"@openzeppelin/contracts@5.0.2/access/Ownable.sol\":1531:1544  _checkOwner() */\n      jump\t// in\n    tag_133:\n        /* \"@openzeppelin/contracts@5.0.2/access/Ownable.sol\":2357:2387  _transferOwnership(address(0)) */\n      tag_135\n        /* \"@openzeppelin/contracts@5.0.2/access/Ownable.sol\":2384:2385  0 */\n      0x00\n        /* \"@openzeppelin/contracts@5.0.2/access/Ownable.sol\":2357:2375  _transferOwnership */\n      tag_136\n        /* \"@openzeppelin/contracts@5.0.2/access/Ownable.sol\":2357:2387  _transferOwnership(address(0)) */\n      jump\t// in\n    tag_135:\n        /* \"@openzeppelin/contracts@5.0.2/access/Ownable.sol\":2293:2394  function renounceOwnership() public virtual onlyOwner {... */\n      jump\t// out\n        /* \"@openzeppelin/contracts@5.0.2/token/ERC20/extensions/ERC20Permit.sol\":2406:2549  function nonces(address owner) public view virtual override(IERC20Permit, Nonces) returns (uint256) {... */\n    tag_63:\n        /* \"@openzeppelin/contracts@5.0.2/token/ERC20/extensions/ERC20Permit.sol\":2497:2504  uint256 */\n      0x00\n        /* \"@openzeppelin/contracts@5.0.2/token/ERC20/extensions/ERC20Permit.sol\":2523:2542  super.nonces(owner) */\n      tag_138\n        /* \"@openzeppelin/contracts@5.0.2/token/ERC20/extensions/ERC20Permit.sol\":2536:2541  owner */\n      dup3\n        /* \"@openzeppelin/contracts@5.0.2/token/ERC20/extensions/ERC20Permit.sol\":2523:2535  super.nonces */\n      tag_139\n        /* \"@openzeppelin/contracts@5.0.2/token/ERC20/extensions/ERC20Permit.sol\":2523:2542  super.nonces(owner) */\n      jump\t// in\n    tag_138:\n        /* \"@openzeppelin/contracts@5.0.2/token/ERC20/extensions/ERC20Permit.sol\":2516:2542  return super.nonces(owner) */\n      swap1\n      pop\n        /* \"@openzeppelin/contracts@5.0.2/token/ERC20/extensions/ERC20Permit.sol\":2406:2549  function nonces(address owner) public view virtual override(IERC20Permit, Nonces) returns (uint256) {... */\n      swap2\n      swap1\n      pop\n      jump\t// out\n        /* \"@openzeppelin/contracts@5.0.2/utils/cryptography/EIP712.sol\":5144:5701  function eip712Domain()... */\n    tag_66:\n        /* \"@openzeppelin/contracts@5.0.2/utils/cryptography/EIP712.sol\":5242:5255  bytes1 fields */\n      0x00\n        /* \"@openzeppelin/contracts@5.0.2/utils/cryptography/EIP712.sol\":5269:5287  string memory name */\n      0x60\n        /* \"@openzeppelin/contracts@5.0.2/utils/cryptography/EIP712.sol\":5301:5322  string memory version */\n      dup1\n        /* \"@openzeppelin/contracts@5.0.2/utils/cryptography/EIP712.sol\":5336:5351  uint256 chainId */\n      0x00\n        /* \"@openzeppelin/contracts@5.0.2/utils/cryptography/EIP712.sol\":5365:5390  address verifyingContract */\n      dup1\n        /* \"@openzeppelin/contracts@5.0.2/utils/cryptography/EIP712.sol\":5404:5416  bytes32 salt */\n      0x00\n        /* \"@openzeppelin/contracts@5.0.2/utils/cryptography/EIP712.sol\":5430:5457  uint256[] memory extensions */\n      0x60\n        /* \"@openzeppelin/contracts@5.0.2/utils/cryptography/EIP712.sol\":5533:5546  _EIP712Name() */\n      tag_141\n        /* \"@openzeppelin/contracts@5.0.2/utils/cryptography/EIP712.sol\":5533:5544  _EIP712Name */\n      tag_142\n        /* \"@openzeppelin/contracts@5.0.2/utils/cryptography/EIP712.sol\":5533:5546  _EIP712Name() */\n      jump\t// in\n    tag_141:\n        /* \"@openzeppelin/contracts@5.0.2/utils/cryptography/EIP712.sol\":5560:5576  _EIP712Version() */\n      tag_143\n        /* \"@openzeppelin/contracts@5.0.2/utils/cryptography/EIP712.sol\":5560:5574  _EIP712Version */\n      tag_144\n        /* \"@openzeppelin/contracts@5.0.2/utils/cryptography/EIP712.sol\":5560:5576  _EIP712Version() */\n      jump\t// in\n    tag_143:\n        /* \"@openzeppelin/contracts@5.0.2/utils/cryptography/EIP712.sol\":5590:5603  block.chainid */\n      chainid\n        /* \"@openzeppelin/contracts@5.0.2/utils/cryptography/EIP712.sol\":5625:5629  this */\n      address\n        /* \"@openzeppelin/contracts@5.0.2/utils/cryptography/EIP712.sol\":5652:5653  0 */\n      0x00\n        /* \"@openzeppelin/contracts@5.0.2/utils/cryptography/EIP712.sol\":5644:5654  bytes32(0) */\n      dup1\n      shl\n        /* \"@openzeppelin/contracts@5.0.2/utils/cryptography/EIP712.sol\":5682:5683  0 */\n      0x00\n        /* \"@openzeppelin/contracts@5.0.2/utils/cryptography/EIP712.sol\":5668:5684  new uint256[](0) */\n      0xffffffffffffffff\n      dup2\n      gt\n      iszero\n      tag_145\n      jumpi\n      tag_146\n      tag_147\n      jump\t// in\n    tag_146:\n    tag_145:\n      mload(0x40)\n      swap1\n      dup1\n      dup3\n      mstore\n      dup1\n      0x20\n      mul\n      0x20\n      add\n      dup3\n      add\n      0x40\n      mstore\n      dup1\n      iszero\n      tag_148\n      jumpi\n      dup2\n      0x20\n      add\n      0x20\n      dup3\n      mul\n      dup1\n      calldatasize\n      dup4\n      calldatacopy\n      dup1\n      dup3\n      add\n      swap2\n      pop\n      pop\n      swap1\n      pop\n    tag_148:\n      pop\n        /* \"@openzeppelin/contracts@5.0.2/utils/cryptography/EIP712.sol\":5482:5694  return (... */\n      0x0f00000000000000000000000000000000000000000000000000000000000000\n      swap6\n      swap5\n      swap4\n      swap3\n      swap2\n      swap1\n      swap7\n      pop\n      swap7\n      pop\n      swap7\n      pop\n      swap7\n      pop\n      swap7\n      pop\n      swap7\n      pop\n      swap7\n      pop\n        /* \"@openzeppelin/contracts@5.0.2/utils/cryptography/EIP712.sol\":5144:5701  function eip712Domain()... */\n      swap1\n      swap2\n      swap3\n      swap4\n      swap5\n      swap6\n      swap7\n      jump\t// out\n        /* \"@openzeppelin/contracts@5.0.2/access/Ownable.sol\":1638:1723  function owner() public view virtual returns (address) {... */\n    tag_70:\n        /* \"@openzeppelin/contracts@5.0.2/access/Ownable.sol\":1684:1691  address */\n      0x00\n        /* \"@openzeppelin/contracts@5.0.2/access/Ownable.sol\":1710:1716  _owner */\n      0x05\n      0x00\n      swap1\n      sload\n      swap1\n      0x0100\n      exp\n      swap1\n      div\n      0xffffffffffffffffffffffffffffffffffffffff\n      and\n        /* \"@openzeppelin/contracts@5.0.2/access/Ownable.sol\":1703:1716  return _owner */\n      swap1\n      pop\n        /* \"@openzeppelin/contracts@5.0.2/access/Ownable.sol\":1638:1723  function owner() public view virtual returns (address) {... */\n      swap1\n      jump\t// out\n        /* \"@openzeppelin/contracts@5.0.2/token/ERC20/ERC20.sol\":2276:2369  function symbol() public view virtual returns (string memory) {... */\n    tag_74:\n        /* \"@openzeppelin/contracts@5.0.2/token/ERC20/ERC20.sol\":2323:2336  string memory */\n      0x60\n        /* \"@openzeppelin/contracts@5.0.2/token/ERC20/ERC20.sol\":2355:2362  _symbol */\n      0x04\n        /* \"@openzeppelin/contracts@5.0.2/token/ERC20/ERC20.sol\":2348:2362  return _symbol */\n      dup1\n      sload\n      tag_151\n      swap1\n      tag_99\n      jump\t// in\n    tag_151:\n      dup1\n      0x1f\n      add\n      0x20\n      dup1\n      swap2\n      div\n      mul\n      0x20\n      add\n      mload(0x40)\n      swap1\n      dup2\n      add\n      0x40\n      mstore\n      dup1\n      swap3\n      swap2\n      swap1\n      dup2\n      dup2\n      mstore\n      0x20\n      add\n      dup3\n      dup1\n      sload\n      tag_152\n      swap1\n      tag_99\n      jump\t// in\n    tag_152:\n      dup1\n      iszero\n      tag_153\n      jumpi\n      dup1\n      0x1f\n      lt\n      tag_154\n      jumpi\n      0x0100\n      dup1\n      dup4\n      sload\n      div\n      mul\n      dup4\n      mstore\n      swap2\n      0x20\n      add\n      swap2\n      jump(tag_153)\n    tag_154:\n      dup3\n      add\n      swap2\n      swap1\n      0x00\n      mstore\n      keccak256(0x00, 0x20)\n      swap1\n    tag_155:\n      dup2\n      sload\n      dup2\n      mstore\n      swap1\n      0x01\n      add\n      swap1\n      0x20\n      add\n      dup1\n      dup4\n      gt\n      tag_155\n      jumpi\n      dup3\n      swap1\n      sub\n      0x1f\n      and\n      dup3\n      add\n      swap2\n    tag_153:\n      pop\n      pop\n      pop\n      pop\n      pop\n      swap1\n      pop\n        /* \"@openzeppelin/contracts@5.0.2/token/ERC20/ERC20.sol\":2276:2369  function symbol() public view virtual returns (string memory) {... */\n      swap1\n      jump\t// out\n        /* \"@openzeppelin/contracts@5.0.2/token/ERC20/ERC20.sol\":3610:3788  function transfer(address to, uint256 value) public virtual returns (bool) {... */\n    tag_78:\n        /* \"@openzeppelin/contracts@5.0.2/token/ERC20/ERC20.sol\":3679:3683  bool */\n      0x00\n        /* \"@openzeppelin/contracts@5.0.2/token/ERC20/ERC20.sol\":3695:3708  address owner */\n      dup1\n        /* \"@openzeppelin/contracts@5.0.2/token/ERC20/ERC20.sol\":3711:3723  _msgSender() */\n      tag_157\n        /* \"@openzeppelin/contracts@5.0.2/token/ERC20/ERC20.sol\":3711:3721  _msgSender */\n      tag_106\n        /* \"@openzeppelin/contracts@5.0.2/token/ERC20/ERC20.sol\":3711:3723  _msgSender() */\n      jump\t// in\n    tag_157:\n        /* \"@openzeppelin/contracts@5.0.2/token/ERC20/ERC20.sol\":3695:3723  address owner = _msgSender() */\n      swap1\n      pop\n        /* \"@openzeppelin/contracts@5.0.2/token/ERC20/ERC20.sol\":3733:3760  _transfer(owner, to, value) */\n      tag_158\n        /* \"@openzeppelin/contracts@5.0.2/token/ERC20/ERC20.sol\":3743:3748  owner */\n      dup2\n        /* \"@openzeppelin/contracts@5.0.2/token/ERC20/ERC20.sol\":3750:3752  to */\n      dup6\n        /* \"@openzeppelin/contracts@5.0.2/token/ERC20/ERC20.sol\":3754:3759  value */\n      dup6\n        /* \"@openzeppelin/contracts@5.0.2/token/ERC20/ERC20.sol\":3733:3742  _transfer */\n      tag_115\n        /* \"@openzeppelin/contracts@5.0.2/token/ERC20/ERC20.sol\":3733:3760  _transfer(owner, to, value) */\n      jump\t// in\n    tag_158:\n        /* \"@openzeppelin/contracts@5.0.2/token/ERC20/ERC20.sol\":3777:3781  true */\n      0x01\n        /* \"@openzeppelin/contracts@5.0.2/token/ERC20/ERC20.sol\":3770:3781  return true */\n      swap2\n      pop\n      pop\n        /* \"@openzeppelin/contracts@5.0.2/token/ERC20/ERC20.sol\":3610:3788  function transfer(address to, uint256 value) public virtual returns (bool) {... */\n      swap3\n      swap2\n      pop\n      pop\n      jump\t// out\n        /* \"@openzeppelin/contracts@5.0.2/token/ERC20/ERC20.sol\":11244:11529  function transferFromCustom(address from, address to, uint256 value, address contractAddress) public virtual returns (bool) {... */\n    tag_83:\n        /* \"@openzeppelin/contracts@5.0.2/token/ERC20/ERC20.sol\":11362:11366  bool */\n      0x00\n        /* \"@openzeppelin/contracts@5.0.2/token/ERC20/ERC20.sol\":11420:11465  _spendAllowance(contractAddress, from, value) */\n      tag_160\n        /* \"@openzeppelin/contracts@5.0.2/token/ERC20/ERC20.sol\":11436:11451  contractAddress */\n      dup3\n        /* \"@openzeppelin/contracts@5.0.2/token/ERC20/ERC20.sol\":11453:11457  from */\n      dup7\n        /* \"@openzeppelin/contracts@5.0.2/token/ERC20/ERC20.sol\":11459:11464  value */\n      dup6\n        /* \"@openzeppelin/contracts@5.0.2/token/ERC20/ERC20.sol\":11420:11435  _spendAllowance */\n      tag_113\n        /* \"@openzeppelin/contracts@5.0.2/token/ERC20/ERC20.sol\":11420:11465  _spendAllowance(contractAddress, from, value) */\n      jump\t// in\n    tag_160:\n        /* \"@openzeppelin/contracts@5.0.2/token/ERC20/ERC20.sol\":11475:11501  _transfer(from, to, value) */\n      tag_161\n        /* \"@openzeppelin/contracts@5.0.2/token/ERC20/ERC20.sol\":11485:11489  from */\n      dup6\n        /* \"@openzeppelin/contracts@5.0.2/token/ERC20/ERC20.sol\":11491:11493  to */\n      dup6\n        /* \"@openzeppelin/contracts@5.0.2/token/ERC20/ERC20.sol\":11495:11500  value */\n      dup6\n        /* \"@openzeppelin/contracts@5.0.2/token/ERC20/ERC20.sol\":11475:11484  _transfer */\n      tag_115\n        /* \"@openzeppelin/contracts@5.0.2/token/ERC20/ERC20.sol\":11475:11501  _transfer(from, to, value) */\n      jump\t// in\n    tag_161:\n        /* \"@openzeppelin/contracts@5.0.2/token/ERC20/ERC20.sol\":11518:11522  true */\n      0x01\n        /* \"@openzeppelin/contracts@5.0.2/token/ERC20/ERC20.sol\":11511:11522  return true */\n      swap1\n      pop\n        /* \"@openzeppelin/contracts@5.0.2/token/ERC20/ERC20.sol\":11244:11529  function transferFromCustom(address from, address to, uint256 value, address contractAddress) public virtual returns (bool) {... */\n      swap5\n      swap4\n      pop\n      pop\n      pop\n      pop\n      jump\t// out\n        /* \"@openzeppelin/contracts@5.0.2/token/ERC20/extensions/ERC20Permit.sol\":1680:2352  function permit(... */\n    tag_88:\n        /* \"@openzeppelin/contracts@5.0.2/token/ERC20/extensions/ERC20Permit.sol\":1901:1909  deadline */\n      dup4\n        /* \"@openzeppelin/contracts@5.0.2/token/ERC20/extensions/ERC20Permit.sol\":1883:1898  block.timestamp */\n      timestamp\n        /* \"@openzeppelin/contracts@5.0.2/token/ERC20/extensions/ERC20Permit.sol\":1883:1909  block.timestamp > deadline */\n      gt\n        /* \"@openzeppelin/contracts@5.0.2/token/ERC20/extensions/ERC20Permit.sol\":1879:1976  if (block.timestamp > deadline) {... */\n      iszero\n      tag_163\n      jumpi\n        /* \"@openzeppelin/contracts@5.0.2/token/ERC20/extensions/ERC20Permit.sol\":1956:1964  deadline */\n      dup4\n        /* \"@openzeppelin/contracts@5.0.2/token/ERC20/extensions/ERC20Permit.sol\":1932:1965  ERC2612ExpiredSignature(deadline) */\n      mload(0x40)\n      0x6279130200000000000000000000000000000000000000000000000000000000\n      dup2\n      mstore\n      0x04\n      add\n      tag_164\n      swap2\n      swap1\n      tag_37\n      jump\t// in\n    tag_164:\n      mload(0x40)\n      dup1\n      swap2\n      sub\n      swap1\n      revert\n        /* \"@openzeppelin/contracts@5.0.2/token/ERC20/extensions/ERC20Permit.sol\":1879:1976  if (block.timestamp > deadline) {... */\n    tag_163:\n        /* \"@openzeppelin/contracts@5.0.2/token/ERC20/extensions/ERC20Permit.sol\":1986:2004  bytes32 structHash */\n      0x00\n        /* \"@openzeppelin/contracts@5.0.2/token/ERC20/extensions/ERC20Permit.sol\":1022:1117  keccak256(\"Permit(address owner,address spender,uint256 value,uint256 nonce,uint256 deadline)\") */\n      0x6e71edae12b1b97f4d1f60370fef10105fa2faae0126114a169c64845d6126c9\n        /* \"@openzeppelin/contracts@5.0.2/token/ERC20/extensions/ERC20Permit.sol\":2045:2050  owner */\n      dup9\n        /* \"@openzeppelin/contracts@5.0.2/token/ERC20/extensions/ERC20Permit.sol\":2052:2059  spender */\n      dup9\n        /* \"@openzeppelin/contracts@5.0.2/token/ERC20/extensions/ERC20Permit.sol\":2061:2066  value */\n      dup9\n        /* \"@openzeppelin/contracts@5.0.2/token/ERC20/extensions/ERC20Permit.sol\":2068:2084  _useNonce(owner) */\n      tag_165\n        /* \"@openzeppelin/contracts@5.0.2/token/ERC20/extensions/ERC20Permit.sol\":2078:2083  owner */\n      dup13\n        /* \"@openzeppelin/contracts@5.0.2/token/ERC20/extensions/ERC20Permit.sol\":2068:2077  _useNonce */\n      tag_166\n        /* \"@openzeppelin/contracts@5.0.2/token/ERC20/extensions/ERC20Permit.sol\":2068:2084  _useNonce(owner) */\n      jump\t// in\n    tag_165:\n        /* \"@openzeppelin/contracts@5.0.2/token/ERC20/extensions/ERC20Permit.sol\":2086:2094  deadline */\n      dup10\n        /* \"@openzeppelin/contracts@5.0.2/token/ERC20/extensions/ERC20Permit.sol\":2017:2095  abi.encode(PERMIT_TYPEHASH, owner, spender, value, _useNonce(owner), deadline) */\n      add(0x20, mload(0x40))\n      tag_167\n      swap7\n      swap6\n      swap5\n      swap4\n      swap3\n      swap2\n      swap1\n      tag_168\n      jump\t// in\n    tag_167:\n      mload(0x40)\n      0x20\n      dup2\n      dup4\n      sub\n      sub\n      dup2\n      mstore\n      swap1\n      0x40\n      mstore\n        /* \"@openzeppelin/contracts@5.0.2/token/ERC20/extensions/ERC20Permit.sol\":2007:2096  keccak256(abi.encode(PERMIT_TYPEHASH, owner, spender, value, _useNonce(owner), deadline)) */\n      dup1\n      mload\n      swap1\n      0x20\n      add\n      keccak256\n        /* \"@openzeppelin/contracts@5.0.2/token/ERC20/extensions/ERC20Permit.sol\":1986:2096  bytes32 structHash = keccak256(abi.encode(PERMIT_TYPEHASH, owner, spender, value, _useNonce(owner), deadline)) */\n      swap1\n      pop\n        /* \"@openzeppelin/contracts@5.0.2/token/ERC20/extensions/ERC20Permit.sol\":2107:2119  bytes32 hash */\n      0x00\n        /* \"@openzeppelin/contracts@5.0.2/token/ERC20/extensions/ERC20Permit.sol\":2122:2150  _hashTypedDataV4(structHash) */\n      tag_169\n        /* \"@openzeppelin/contracts@5.0.2/token/ERC20/extensions/ERC20Permit.sol\":2139:2149  structHash */\n      dup3\n        /* \"@openzeppelin/contracts@5.0.2/token/ERC20/extensions/ERC20Permit.sol\":2122:2138  _hashTypedDataV4 */\n      tag_170\n        /* \"@openzeppelin/contracts@5.0.2/token/ERC20/extensions/ERC20Permit.sol\":2122:2150  _hashTypedDataV4(structHash) */\n      jump\t// in\n    tag_169:\n        /* \"@openzeppelin/contracts@5.0.2/token/ERC20/extensions/ERC20Permit.sol\":2107:2150  bytes32 hash = _hashTypedDataV4(structHash) */\n      swap1\n      pop\n        /* \"@openzeppelin/contracts@5.0.2/token/ERC20/extensions/ERC20Permit.sol\":2161:2175  address signer */\n      0x00\n        /* \"@openzeppelin/contracts@5.0.2/token/ERC20/extensions/ERC20Permit.sol\":2178:2206  ECDSA.recover(hash, v, r, s) */\n      tag_171\n        /* \"@openzeppelin/contracts@5.0.2/token/ERC20/extensions/ERC20Permit.sol\":2192:2196  hash */\n      dup3\n        /* \"@openzeppelin/contracts@5.0.2/token/ERC20/extensions/ERC20Permit.sol\":2198:2199  v */\n      dup8\n        /* \"@openzeppelin/contracts@5.0.2/token/ERC20/extensions/ERC20Permit.sol\":2201:2202  r */\n      dup8\n        /* \"@openzeppelin/contracts@5.0.2/token/ERC20/extensions/ERC20Permit.sol\":2204:2205  s */\n      dup8\n        /* \"@openzeppelin/contracts@5.0.2/token/ERC20/extensions/ERC20Permit.sol\":2178:2191  ECDSA.recover */\n      tag_172\n        /* \"@openzeppelin/contracts@5.0.2/token/ERC20/extensions/ERC20Permit.sol\":2178:2206  ECDSA.recover(hash, v, r, s) */\n      jump\t// in\n    tag_171:\n        /* \"@openzeppelin/contracts@5.0.2/token/ERC20/extensions/ERC20Permit.sol\":2161:2206  address signer = ECDSA.recover(hash, v, r, s) */\n      swap1\n      pop\n        /* \"@openzeppelin/contracts@5.0.2/token/ERC20/extensions/ERC20Permit.sol\":2230:2235  owner */\n      dup10\n        /* \"@openzeppelin/contracts@5.0.2/token/ERC20/extensions/ERC20Permit.sol\":2220:2235  signer != owner */\n      0xffffffffffffffffffffffffffffffffffffffff\n      and\n        /* \"@openzeppelin/contracts@5.0.2/token/ERC20/extensions/ERC20Permit.sol\":2220:2226  signer */\n      dup2\n        /* \"@openzeppelin/contracts@5.0.2/token/ERC20/extensions/ERC20Permit.sol\":2220:2235  signer != owner */\n      0xffffffffffffffffffffffffffffffffffffffff\n      and\n      eq\n        /* \"@openzeppelin/contracts@5.0.2/token/ERC20/extensions/ERC20Permit.sol\":2216:2304  if (signer != owner) {... */\n      tag_173\n      jumpi\n        /* \"@openzeppelin/contracts@5.0.2/token/ERC20/extensions/ERC20Permit.sol\":2279:2285  signer */\n      dup1\n        /* \"@openzeppelin/contracts@5.0.2/token/ERC20/extensions/ERC20Permit.sol\":2287:2292  owner */\n      dup11\n        /* \"@openzeppelin/contracts@5.0.2/token/ERC20/extensions/ERC20Permit.sol\":2258:2293  ERC2612InvalidSigner(signer, owner) */\n      mload(0x40)\n      0x4b800e4600000000000000000000000000000000000000000000000000000000\n      dup2\n      mstore\n      0x04\n      add\n      tag_174\n      swap3\n      swap2\n      swap1\n      tag_175\n      jump\t// in\n    tag_174:\n      mload(0x40)\n      dup1\n      swap2\n      sub\n      swap1\n      revert\n        /* \"@openzeppelin/contracts@5.0.2/token/ERC20/extensions/ERC20Permit.sol\":2216:2304  if (signer != owner) {... */\n    tag_173:\n        /* \"@openzeppelin/contracts@5.0.2/token/ERC20/extensions/ERC20Permit.sol\":2314:2345  _approve(owner, spender, value) */\n      tag_176\n        /* \"@openzeppelin/contracts@5.0.2/token/ERC20/extensions/ERC20Permit.sol\":2323:2328  owner */\n      dup11\n        /* \"@openzeppelin/contracts@5.0.2/token/ERC20/extensions/ERC20Permit.sol\":2330:2337  spender */\n      dup11\n        /* \"@openzeppelin/contracts@5.0.2/token/ERC20/extensions/ERC20Permit.sol\":2339:2344  value */\n      dup11\n        /* \"@openzeppelin/contracts@5.0.2/token/ERC20/extensions/ERC20Permit.sol\":2314:2322  _approve */\n      tag_108\n        /* \"@openzeppelin/contracts@5.0.2/token/ERC20/extensions/ERC20Permit.sol\":2314:2345  _approve(owner, spender, value) */\n      jump\t// in\n    tag_176:\n        /* \"@openzeppelin/contracts@5.0.2/token/ERC20/extensions/ERC20Permit.sol\":1869:2352  {... */\n      pop\n      pop\n      pop\n        /* \"@openzeppelin/contracts@5.0.2/token/ERC20/extensions/ERC20Permit.sol\":1680:2352  function permit(... */\n      pop\n      pop\n      pop\n      pop\n      pop\n      pop\n      pop\n      jump\t// out\n        /* \"@openzeppelin/contracts@5.0.2/token/ERC20/ERC20.sol\":3846:3986  function allowance(address owner, address spender) public view virtual returns (uint256) {... */\n    tag_92:\n        /* \"@openzeppelin/contracts@5.0.2/token/ERC20/ERC20.sol\":3926:3933  uint256 */\n      0x00\n        /* \"@openzeppelin/contracts@5.0.2/token/ERC20/ERC20.sol\":3952:3963  _allowances */\n      0x01\n        /* \"@openzeppelin/contracts@5.0.2/token/ERC20/ERC20.sol\":3952:3970  _allowances[owner] */\n      0x00\n        /* \"@openzeppelin/contracts@5.0.2/token/ERC20/ERC20.sol\":3964:3969  owner */\n      dup5\n        /* \"@openzeppelin/contracts@5.0.2/token/ERC20/ERC20.sol\":3952:3970  _allowances[owner] */\n      0xffffffffffffffffffffffffffffffffffffffff\n      and\n      0xffffffffffffffffffffffffffffffffffffffff\n      and\n      dup2\n      mstore\n      0x20\n      add\n      swap1\n      dup2\n      mstore\n      0x20\n      add\n      0x00\n      keccak256\n        /* \"@openzeppelin/contracts@5.0.2/token/ERC20/ERC20.sol\":3952:3979  _allowances[owner][spender] */\n      0x00\n        /* \"@openzeppelin/contracts@5.0.2/token/ERC20/ERC20.sol\":3971:3978  spender */\n      dup4\n        /* \"@openzeppelin/contracts@5.0.2/token/ERC20/ERC20.sol\":3952:3979  _allowances[owner][spender] */\n      0xffffffffffffffffffffffffffffffffffffffff\n      and\n      0xffffffffffffffffffffffffffffffffffffffff\n      and\n      dup2\n      mstore\n      0x20\n      add\n      swap1\n      dup2\n      mstore\n      0x20\n      add\n      0x00\n      keccak256\n      sload\n        /* \"@openzeppelin/contracts@5.0.2/token/ERC20/ERC20.sol\":3945:3979  return _allowances[owner][spender] */\n      swap1\n      pop\n        /* \"@openzeppelin/contracts@5.0.2/token/ERC20/ERC20.sol\":3846:3986  function allowance(address owner, address spender) public view virtual returns (uint256) {... */\n      swap3\n      swap2\n      pop\n      pop\n      jump\t// out\n        /* \"@openzeppelin/contracts@5.0.2/access/Ownable.sol\":2543:2758  function transferOwnership(address newOwner) public virtual onlyOwner {... */\n    tag_96:\n        /* \"@openzeppelin/contracts@5.0.2/access/Ownable.sol\":1531:1544  _checkOwner() */\n      tag_179\n        /* \"@openzeppelin/contracts@5.0.2/access/Ownable.sol\":1531:1542  _checkOwner */\n      tag_122\n        /* \"@openzeppelin/contracts@5.0.2/access/Ownable.sol\":1531:1544  _checkOwner() */\n      jump\t// in\n    tag_179:\n        /* \"@openzeppelin/contracts@5.0.2/access/Ownable.sol\":2647:2648  0 */\n      0x00\n        /* \"@openzeppelin/contracts@5.0.2/access/Ownable.sol\":2627:2649  newOwner == address(0) */\n      0xffffffffffffffffffffffffffffffffffffffff\n      and\n        /* \"@openzeppelin/contracts@5.0.2/access/Ownable.sol\":2627:2635  newOwner */\n      dup2\n        /* \"@openzeppelin/contracts@5.0.2/access/Ownable.sol\":2627:2649  newOwner == address(0) */\n      0xffffffffffffffffffffffffffffffffffffffff\n      and\n      sub\n        /* \"@openzeppelin/contracts@5.0.2/access/Ownable.sol\":2623:2714  if (newOwner == address(0)) {... */\n      tag_181\n      jumpi\n        /* \"@openzeppelin/contracts@5.0.2/access/Ownable.sol\":2700:2701  0 */\n      0x00\n        /* \"@openzeppelin/contracts@5.0.2/access/Ownable.sol\":2672:2703  OwnableInvalidOwner(address(0)) */\n      mload(0x40)\n      0x1e4fbdf700000000000000000000000000000000000000000000000000000000\n      dup2\n      mstore\n      0x04\n      add\n      tag_182\n      swap2\n      swap1\n      tag_72\n      jump\t// in\n    tag_182:\n      mload(0x40)\n      dup1\n      swap2\n      sub\n      swap1\n      revert\n        /* \"@openzeppelin/contracts@5.0.2/access/Ownable.sol\":2623:2714  if (newOwner == address(0)) {... */\n    tag_181:\n        /* \"@openzeppelin/contracts@5.0.2/access/Ownable.sol\":2723:2751  _transferOwnership(newOwner) */\n      tag_183\n        /* \"@openzeppelin/contracts@5.0.2/access/Ownable.sol\":2742:2750  newOwner */\n      dup2\n        /* \"@openzeppelin/contracts@5.0.2/access/Ownable.sol\":2723:2741  _transferOwnership */\n      tag_136\n        /* \"@openzeppelin/contracts@5.0.2/access/Ownable.sol\":2723:2751  _transferOwnership(newOwner) */\n      jump\t// in\n    tag_183:\n        /* \"@openzeppelin/contracts@5.0.2/access/Ownable.sol\":2543:2758  function transferOwnership(address newOwner) public virtual onlyOwner {... */\n      pop\n      jump\t// out\n        /* \"@openzeppelin/contracts@5.0.2/utils/Context.sol\":656:752  function _msgSender() internal view virtual returns (address) {... */\n    tag_106:\n        /* \"@openzeppelin/contracts@5.0.2/utils/Context.sol\":709:716  address */\n      0x00\n        /* \"@openzeppelin/contracts@5.0.2/utils/Context.sol\":735:745  msg.sender */\n      caller\n        /* \"@openzeppelin/contracts@5.0.2/utils/Context.sol\":728:745  return msg.sender */\n      swap1\n      pop\n        /* \"@openzeppelin/contracts@5.0.2/utils/Context.sol\":656:752  function _msgSender() internal view virtual returns (address) {... */\n      swap1\n      jump\t// out\n        /* \"@openzeppelin/contracts@5.0.2/token/ERC20/ERC20.sol\":8989:9117  function _approve(address owner, address spender, uint256 value) internal {... */\n    tag_108:\n        /* \"@openzeppelin/contracts@5.0.2/token/ERC20/ERC20.sol\":9073:9110  _approve(owner, spender, value, true) */\n      tag_186\n        /* \"@openzeppelin/contracts@5.0.2/token/ERC20/ERC20.sol\":9082:9087  owner */\n      dup4\n        /* \"@openzeppelin/contracts@5.0.2/token/ERC20/ERC20.sol\":9089:9096  spender */\n      dup4\n        /* \"@openzeppelin/contracts@5.0.2/token/ERC20/ERC20.sol\":9098:9103  value */\n      dup4\n        /* \"@openzeppelin/contracts@5.0.2/token/ERC20/ERC20.sol\":9105:9109  true */\n      0x01\n        /* \"@openzeppelin/contracts@5.0.2/token/ERC20/ERC20.sol\":9073:9081  _approve */\n      tag_187\n        /* \"@openzeppelin/contracts@5.0.2/token/ERC20/ERC20.sol\":9073:9110  _approve(owner, spender, value, true) */\n      jump\t// in\n    tag_186:\n        /* \"@openzeppelin/contracts@5.0.2/token/ERC20/ERC20.sol\":8989:9117  function _approve(address owner, address spender, uint256 value) internal {... */\n      pop\n      pop\n      pop\n      jump\t// out\n        /* \"@openzeppelin/contracts@5.0.2/token/ERC20/ERC20.sol\":10663:11140  function _spendAllowance(address owner, address spender, uint256 value) internal virtual {... */\n    tag_113:\n        /* \"@openzeppelin/contracts@5.0.2/token/ERC20/ERC20.sol\":10762:10786  uint256 currentAllowance */\n      0x00\n        /* \"@openzeppelin/contracts@5.0.2/token/ERC20/ERC20.sol\":10789:10814  allowance(owner, spender) */\n      tag_189\n        /* \"@openzeppelin/contracts@5.0.2/token/ERC20/ERC20.sol\":10799:10804  owner */\n      dup5\n        /* \"@openzeppelin/contracts@5.0.2/token/ERC20/ERC20.sol\":10806:10813  spender */\n      dup5\n        /* \"@openzeppelin/contracts@5.0.2/token/ERC20/ERC20.sol\":10789:10798  allowance */\n      tag_92\n        /* \"@openzeppelin/contracts@5.0.2/token/ERC20/ERC20.sol\":10789:10814  allowance(owner, spender) */\n      jump\t// in\n    tag_189:\n        /* \"@openzeppelin/contracts@5.0.2/token/ERC20/ERC20.sol\":10762:10814  uint256 currentAllowance = allowance(owner, spender) */\n      swap1\n      pop\n        /* \"@openzeppelin/contracts@5.0.2/token/ERC20/ERC20.sol\":10848:10865  type(uint256).max */\n      0xffffffffffffffffffffffffffffffffffffffffffffffffffffffffffffffff\n        /* \"@openzeppelin/contracts@5.0.2/token/ERC20/ERC20.sol\":10828:10844  currentAllowance */\n      dup2\n        /* \"@openzeppelin/contracts@5.0.2/token/ERC20/ERC20.sol\":10828:10865  currentAllowance != type(uint256).max */\n      eq\n        /* \"@openzeppelin/contracts@5.0.2/token/ERC20/ERC20.sol\":10824:11134  if (currentAllowance != type(uint256).max) {... */\n      tag_190\n      jumpi\n        /* \"@openzeppelin/contracts@5.0.2/token/ERC20/ERC20.sol\":10904:10909  value */\n      dup2\n        /* \"@openzeppelin/contracts@5.0.2/token/ERC20/ERC20.sol\":10885:10901  currentAllowance */\n      dup2\n        /* \"@openzeppelin/contracts@5.0.2/token/ERC20/ERC20.sol\":10885:10909  currentAllowance < value */\n      lt\n        /* \"@openzeppelin/contracts@5.0.2/token/ERC20/ERC20.sol\":10881:11011  if (currentAllowance < value) {... */\n      iszero\n      tag_191\n      jumpi\n        /* \"@openzeppelin/contracts@5.0.2/token/ERC20/ERC20.sol\":10963:10970  spender */\n      dup3\n        /* \"@openzeppelin/contracts@5.0.2/token/ERC20/ERC20.sol\":10972:10988  currentAllowance */\n      dup2\n        /* \"@openzeppelin/contracts@5.0.2/token/ERC20/ERC20.sol\":10990:10995  value */\n      dup4\n        /* \"@openzeppelin/contracts@5.0.2/token/ERC20/ERC20.sol\":10936:10996  ERC20InsufficientAllowance(spender, currentAllowance, value) */\n      mload(0x40)\n      0xfb8f41b200000000000000000000000000000000000000000000000000000000\n      dup2\n      mstore\n      0x04\n      add\n      tag_192\n      swap4\n      swap3\n      swap2\n      swap1\n      tag_193\n      jump\t// in\n    tag_192:\n      mload(0x40)\n      dup1\n      swap2\n      sub\n      swap1\n      revert\n        /* \"@openzeppelin/contracts@5.0.2/token/ERC20/ERC20.sol\":10881:11011  if (currentAllowance < value) {... */\n    tag_191:\n        /* \"@openzeppelin/contracts@5.0.2/token/ERC20/ERC20.sol\":11052:11109  _approve(owner, spender, currentAllowance - value, false) */\n      tag_194\n        /* \"@openzeppelin/contracts@5.0.2/token/ERC20/ERC20.sol\":11061:11066  owner */\n      dup5\n        /* \"@openzeppelin/contracts@5.0.2/token/ERC20/ERC20.sol\":11068:11075  spender */\n      dup5\n        /* \"@openzeppelin/contracts@5.0.2/token/ERC20/ERC20.sol\":11096:11101  value */\n      dup5\n        /* \"@openzeppelin/contracts@5.0.2/token/ERC20/ERC20.sol\":11077:11093  currentAllowance */\n      dup5\n        /* \"@openzeppelin/contracts@5.0.2/token/ERC20/ERC20.sol\":11077:11101  currentAllowance - value */\n      sub\n        /* \"@openzeppelin/contracts@5.0.2/token/ERC20/ERC20.sol\":11103:11108  false */\n      0x00\n        /* \"@openzeppelin/contracts@5.0.2/token/ERC20/ERC20.sol\":11052:11060  _approve */\n      tag_187\n        /* \"@openzeppelin/contracts@5.0.2/token/ERC20/ERC20.sol\":11052:11109  _approve(owner, spender, currentAllowance - value, false) */\n      jump\t// in\n    tag_194:\n        /* \"@openzeppelin/contracts@5.0.2/token/ERC20/ERC20.sol\":10824:11134  if (currentAllowance != type(uint256).max) {... */\n    tag_190:\n        /* \"@openzeppelin/contracts@5.0.2/token/ERC20/ERC20.sol\":10752:11140  {... */\n      pop\n        /* \"@openzeppelin/contracts@5.0.2/token/ERC20/ERC20.sol\":10663:11140  function _spendAllowance(address owner, address spender, uint256 value) internal virtual {... */\n      pop\n      pop\n      pop\n      jump\t// out\n        /* \"@openzeppelin/contracts@5.0.2/token/ERC20/ERC20.sol\":5656:5956  function _transfer(address from, address to, uint256 value) internal {... */\n    tag_115:\n        /* \"@openzeppelin/contracts@5.0.2/token/ERC20/ERC20.sol\":5755:5756  0 */\n      0x00\n        /* \"@openzeppelin/contracts@5.0.2/token/ERC20/ERC20.sol\":5739:5757  from == address(0) */\n      0xffffffffffffffffffffffffffffffffffffffff\n      and\n        /* \"@openzeppelin/contracts@5.0.2/token/ERC20/ERC20.sol\":5739:5743  from */\n      dup4\n        /* \"@openzeppelin/contracts@5.0.2/token/ERC20/ERC20.sol\":5739:5757  from == address(0) */\n      0xffffffffffffffffffffffffffffffffffffffff\n      and\n      sub\n        /* \"@openzeppelin/contracts@5.0.2/token/ERC20/ERC20.sol\":5735:5821  if (from == address(0)) {... */\n      tag_196\n      jumpi\n        /* \"@openzeppelin/contracts@5.0.2/token/ERC20/ERC20.sol\":5807:5808  0 */\n      0x00\n        /* \"@openzeppelin/contracts@5.0.2/token/ERC20/ERC20.sol\":5780:5810  ERC20InvalidSender(address(0)) */\n      mload(0x40)\n      0x96c6fd1e00000000000000000000000000000000000000000000000000000000\n      dup2\n      mstore\n      0x04\n      add\n      tag_197\n      swap2\n      swap1\n      tag_72\n      jump\t// in\n    tag_197:\n      mload(0x40)\n      dup1\n      swap2\n      sub\n      swap1\n      revert\n        /* \"@openzeppelin/contracts@5.0.2/token/ERC20/ERC20.sol\":5735:5821  if (from == address(0)) {... */\n    tag_196:\n        /* \"@openzeppelin/contracts@5.0.2/token/ERC20/ERC20.sol\":5848:5849  0 */\n      0x00\n        /* \"@openzeppelin/contracts@5.0.2/token/ERC20/ERC20.sol\":5834:5850  to == address(0) */\n      0xffffffffffffffffffffffffffffffffffffffff\n      and\n        /* \"@openzeppelin/contracts@5.0.2/token/ERC20/ERC20.sol\":5834:5836  to */\n      dup3\n        /* \"@openzeppelin/contracts@5.0.2/token/ERC20/ERC20.sol\":5834:5850  to == address(0) */\n      0xffffffffffffffffffffffffffffffffffffffff\n      and\n      sub\n        /* \"@openzeppelin/contracts@5.0.2/token/ERC20/ERC20.sol\":5830:5916  if (to == address(0)) {... */\n      tag_198\n      jumpi\n        /* \"@openzeppelin/contracts@5.0.2/token/ERC20/ERC20.sol\":5902:5903  0 */\n      0x00\n        /* \"@openzeppelin/contracts@5.0.2/token/ERC20/ERC20.sol\":5873:5905  ERC20InvalidReceiver(address(0)) */\n      mload(0x40)\n      0xec442f0500000000000000000000000000000000000000000000000000000000\n      dup2\n      mstore\n      0x04\n      add\n      tag_199\n      swap2\n      swap1\n      tag_72\n      jump\t// in\n    tag_199:\n      mload(0x40)\n      dup1\n      swap2\n      sub\n      swap1\n      revert\n        /* \"@openzeppelin/contracts@5.0.2/token/ERC20/ERC20.sol\":5830:5916  if (to == address(0)) {... */\n    tag_198:\n        /* \"@openzeppelin/contracts@5.0.2/token/ERC20/ERC20.sol\":5925:5949  _update(from, to, value) */\n      tag_200\n        /* \"@openzeppelin/contracts@5.0.2/token/ERC20/ERC20.sol\":5933:5937  from */\n      dup4\n        /* \"@openzeppelin/contracts@5.0.2/token/ERC20/ERC20.sol\":5939:5941  to */\n      dup4\n        /* \"@openzeppelin/contracts@5.0.2/token/ERC20/ERC20.sol\":5943:5948  value */\n      dup4\n        /* \"@openzeppelin/contracts@5.0.2/token/ERC20/ERC20.sol\":5925:5932  _update */\n      tag_201\n        /* \"@openzeppelin/contracts@5.0.2/token/ERC20/ERC20.sol\":5925:5949  _update(from, to, value) */\n      jump\t// in\n    tag_200:\n        /* \"@openzeppelin/contracts@5.0.2/token/ERC20/ERC20.sol\":5656:5956  function _transfer(address from, address to, uint256 value) internal {... */\n      pop\n      pop\n      pop\n      jump\t// out\n        /* \"@openzeppelin/contracts@5.0.2/utils/cryptography/EIP712.sol\":3845:4107  function _domainSeparatorV4() internal view returns (bytes32) {... */\n    tag_119:\n        /* \"@openzeppelin/contracts@5.0.2/utils/cryptography/EIP712.sol\":3898:3905  bytes32 */\n      0x00\n        /* \"@openzeppelin/contracts@5.0.2/utils/cryptography/EIP712.sol\":3938:3949  _cachedThis */\n      immutable(\"0xb82071edfff134ff1052b654ae69c3c67bf3f8b35ce6706309fa7f2bcffe5e17\")\n        /* \"@openzeppelin/contracts@5.0.2/utils/cryptography/EIP712.sol\":3921:3949  address(this) == _cachedThis */\n      0xffffffffffffffffffffffffffffffffffffffff\n      and\n        /* \"@openzeppelin/contracts@5.0.2/utils/cryptography/EIP712.sol\":3929:3933  this */\n      address\n        /* \"@openzeppelin/contracts@5.0.2/utils/cryptography/EIP712.sol\":3921:3949  address(this) == _cachedThis */\n      0xffffffffffffffffffffffffffffffffffffffff\n      and\n      eq\n        /* \"@openzeppelin/contracts@5.0.2/utils/cryptography/EIP712.sol\":3921:3984  address(this) == _cachedThis && block.chainid == _cachedChainId */\n      dup1\n      iszero\n      tag_203\n      jumpi\n      pop\n        /* \"@openzeppelin/contracts@5.0.2/utils/cryptography/EIP712.sol\":3970:3984  _cachedChainId */\n      immutable(\"0x3329b7633d4e172cc10487008746a48383b862e8915fef2ccef2fdd8286a4f3b\")\n        /* \"@openzeppelin/contracts@5.0.2/utils/cryptography/EIP712.sol\":3953:3966  block.chainid */\n      chainid\n        /* \"@openzeppelin/contracts@5.0.2/utils/cryptography/EIP712.sol\":3953:3984  block.chainid == _cachedChainId */\n      eq\n        /* \"@openzeppelin/contracts@5.0.2/utils/cryptography/EIP712.sol\":3921:3984  address(this) == _cachedThis && block.chainid == _cachedChainId */\n    tag_203:\n        /* \"@openzeppelin/contracts@5.0.2/utils/cryptography/EIP712.sol\":3917:4101  if (address(this) == _cachedThis && block.chainid == _cachedChainId) {... */\n      iszero\n      tag_204\n      jumpi\n        /* \"@openzeppelin/contracts@5.0.2/utils/cryptography/EIP712.sol\":4007:4029  _cachedDomainSeparator */\n      immutable(\"0x169c36d5a26963faf00d0000557de5a8fe53f73dfb1c741ee7e7502b1148fef0\")\n        /* \"@openzeppelin/contracts@5.0.2/utils/cryptography/EIP712.sol\":4000:4029  return _cachedDomainSeparator */\n      swap1\n      pop\n      jump(tag_202)\n        /* \"@openzeppelin/contracts@5.0.2/utils/cryptography/EIP712.sol\":3917:4101  if (address(this) == _cachedThis && block.chainid == _cachedChainId) {... */\n    tag_204:\n        /* \"@openzeppelin/contracts@5.0.2/utils/cryptography/EIP712.sol\":4067:4090  _buildDomainSeparator() */\n      tag_206\n        /* \"@openzeppelin/contracts@5.0.2/utils/cryptography/EIP712.sol\":4067:4088  _buildDomainSeparator */\n      tag_207\n        /* \"@openzeppelin/contracts@5.0.2/utils/cryptography/EIP712.sol\":4067:4090  _buildDomainSeparator() */\n      jump\t// in\n    tag_206:\n        /* \"@openzeppelin/contracts@5.0.2/utils/cryptography/EIP712.sol\":4060:4090  return _buildDomainSeparator() */\n      swap1\n      pop\n        /* \"@openzeppelin/contracts@5.0.2/utils/cryptography/EIP712.sol\":3845:4107  function _domainSeparatorV4() internal view returns (bytes32) {... */\n    tag_202:\n      swap1\n      jump\t// out\n        /* \"@openzeppelin/contracts@5.0.2/access/Ownable.sol\":1796:1958  function _checkOwner() internal view virtual {... */\n    tag_122:\n        /* \"@openzeppelin/contracts@5.0.2/access/Ownable.sol\":1866:1878  _msgSender() */\n      tag_209\n        /* \"@openzeppelin/contracts@5.0.2/access/Ownable.sol\":1866:1876  _msgSender */\n      tag_106\n        /* \"@openzeppelin/contracts@5.0.2/access/Ownable.sol\":1866:1878  _msgSender() */\n      jump\t// in\n    tag_209:\n        /* \"@openzeppelin/contracts@5.0.2/access/Ownable.sol\":1855:1878  owner() != _msgSender() */\n      0xffffffffffffffffffffffffffffffffffffffff\n      and\n        /* \"@openzeppelin/contracts@5.0.2/access/Ownable.sol\":1855:1862  owner() */\n      tag_210\n        /* \"@openzeppelin/contracts@5.0.2/access/Ownable.sol\":1855:1860  owner */\n      tag_70\n        /* \"@openzeppelin/contracts@5.0.2/access/Ownable.sol\":1855:1862  owner() */\n      jump\t// in\n    tag_210:\n        /* \"@openzeppelin/contracts@5.0.2/access/Ownable.sol\":1855:1878  owner() != _msgSender() */\n      0xffffffffffffffffffffffffffffffffffffffff\n      and\n      eq\n        /* \"@openzeppelin/contracts@5.0.2/access/Ownable.sol\":1851:1952  if (owner() != _msgSender()) {... */\n      tag_211\n      jumpi\n        /* \"@openzeppelin/contracts@5.0.2/access/Ownable.sol\":1928:1940  _msgSender() */\n      tag_212\n        /* \"@openzeppelin/contracts@5.0.2/access/Ownable.sol\":1928:1938  _msgSender */\n      tag_106\n        /* \"@openzeppelin/contracts@5.0.2/access/Ownable.sol\":1928:1940  _msgSender() */\n      jump\t// in\n    tag_212:\n        /* \"@openzeppelin/contracts@5.0.2/access/Ownable.sol\":1901:1941  OwnableUnauthorizedAccount(_msgSender()) */\n      mload(0x40)\n      0x118cdaa700000000000000000000000000000000000000000000000000000000\n      dup2\n      mstore\n      0x04\n      add\n      tag_213\n      swap2\n      swap1\n      tag_72\n      jump\t// in\n    tag_213:\n      mload(0x40)\n      dup1\n      swap2\n      sub\n      swap1\n      revert\n        /* \"@openzeppelin/contracts@5.0.2/access/Ownable.sol\":1851:1952  if (owner() != _msgSender()) {... */\n    tag_211:\n        /* \"@openzeppelin/contracts@5.0.2/access/Ownable.sol\":1796:1958  function _checkOwner() internal view virtual {... */\n      jump\t// out\n        /* \"@openzeppelin/contracts@5.0.2/token/ERC20/ERC20.sol\":7721:7929  function _mint(address account, uint256 value) internal {... */\n    tag_130:\n        /* \"@openzeppelin/contracts@5.0.2/token/ERC20/ERC20.sol\":7810:7811  0 */\n      0x00\n        /* \"@openzeppelin/contracts@5.0.2/token/ERC20/ERC20.sol\":7791:7812  account == address(0) */\n      0xffffffffffffffffffffffffffffffffffffffff\n      and\n        /* \"@openzeppelin/contracts@5.0.2/token/ERC20/ERC20.sol\":7791:7798  account */\n      dup3\n        /* \"@openzeppelin/contracts@5.0.2/token/ERC20/ERC20.sol\":7791:7812  account == address(0) */\n      0xffffffffffffffffffffffffffffffffffffffff\n      and\n      sub\n        /* \"@openzeppelin/contracts@5.0.2/token/ERC20/ERC20.sol\":7787:7878  if (account == address(0)) {... */\n      tag_215\n      jumpi\n        /* \"@openzeppelin/contracts@5.0.2/token/ERC20/ERC20.sol\":7864:7865  0 */\n      0x00\n        /* \"@openzeppelin/contracts@5.0.2/token/ERC20/ERC20.sol\":7835:7867  ERC20InvalidReceiver(address(0)) */\n      mload(0x40)\n      0xec442f0500000000000000000000000000000000000000000000000000000000\n      dup2\n      mstore\n      0x04\n      add\n      tag_216\n      swap2\n      swap1\n      tag_72\n      jump\t// in\n    tag_216:\n      mload(0x40)\n      dup1\n      swap2\n      sub\n      swap1\n      revert\n        /* \"@openzeppelin/contracts@5.0.2/token/ERC20/ERC20.sol\":7787:7878  if (account == address(0)) {... */\n    tag_215:\n        /* \"@openzeppelin/contracts@5.0.2/token/ERC20/ERC20.sol\":7887:7922  _update(address(0), account, value) */\n      tag_217\n        /* \"@openzeppelin/contracts@5.0.2/token/ERC20/ERC20.sol\":7903:7904  0 */\n      0x00\n        /* \"@openzeppelin/contracts@5.0.2/token/ERC20/ERC20.sol\":7907:7914  account */\n      dup4\n        /* \"@openzeppelin/contracts@5.0.2/token/ERC20/ERC20.sol\":7916:7921  value */\n      dup4\n        /* \"@openzeppelin/contracts@5.0.2/token/ERC20/ERC20.sol\":7887:7894  _update */\n      tag_201\n        /* \"@openzeppelin/contracts@5.0.2/token/ERC20/ERC20.sol\":7887:7922  _update(address(0), account, value) */\n      jump\t// in\n    tag_217:\n        /* \"@openzeppelin/contracts@5.0.2/token/ERC20/ERC20.sol\":7721:7929  function _mint(address account, uint256 value) internal {... */\n      pop\n      pop\n      jump\t// out\n        /* \"@openzeppelin/contracts@5.0.2/access/Ownable.sol\":2912:3099  function _transferOwnership(address newOwner) internal virtual {... */\n    tag_136:\n        /* \"@openzeppelin/contracts@5.0.2/access/Ownable.sol\":2985:3001  address oldOwner */\n      0x00\n        /* \"@openzeppelin/contracts@5.0.2/access/Ownable.sol\":3004:3010  _owner */\n      0x05\n      0x00\n      swap1\n      sload\n      swap1\n      0x0100\n      exp\n      swap1\n      div\n      0xffffffffffffffffffffffffffffffffffffffff\n      and\n        /* \"@openzeppelin/contracts@5.0.2/access/Ownable.sol\":2985:3010  address oldOwner = _owner */\n      swap1\n      pop\n        /* \"@openzeppelin/contracts@5.0.2/access/Ownable.sol\":3029:3037  newOwner */\n      dup2\n        /* \"@openzeppelin/contracts@5.0.2/access/Ownable.sol\":3020:3026  _owner */\n      0x05\n      0x00\n        /* \"@openzeppelin/contracts@5.0.2/access/Ownable.sol\":3020:3037  _owner = newOwner */\n      0x0100\n      exp\n      dup2\n      sload\n      dup2\n      0xffffffffffffffffffffffffffffffffffffffff\n      mul\n      not\n      and\n      swap1\n      dup4\n      0xffffffffffffffffffffffffffffffffffffffff\n      and\n      mul\n      or\n      swap1\n      sstore\n      pop\n        /* \"@openzeppelin/contracts@5.0.2/access/Ownable.sol\":3083:3091  newOwner */\n      dup2\n        /* \"@openzeppelin/contracts@5.0.2/access/Ownable.sol\":3052:3092  OwnershipTransferred(oldOwner, newOwner) */\n      0xffffffffffffffffffffffffffffffffffffffff\n      and\n        /* \"@openzeppelin/contracts@5.0.2/access/Ownable.sol\":3073:3081  oldOwner */\n      dup2\n        /* \"@openzeppelin/contracts@5.0.2/access/Ownable.sol\":3052:3092  OwnershipTransferred(oldOwner, newOwner) */\n      0xffffffffffffffffffffffffffffffffffffffff\n      and\n      0x8be0079c531659141344cd1fd0a4f28419497f9722a3daafe3b4186f6b6457e0\n      mload(0x40)\n      mload(0x40)\n      dup1\n      swap2\n      sub\n      swap1\n      log3\n        /* \"@openzeppelin/contracts@5.0.2/access/Ownable.sol\":2975:3099  {... */\n      pop\n        /* \"@openzeppelin/contracts@5.0.2/access/Ownable.sol\":2912:3099  function _transferOwnership(address newOwner) internal virtual {... */\n      pop\n      jump\t// out\n        /* \"@openzeppelin/contracts@5.0.2/utils/Nonces.sol\":538:645  function nonces(address owner) public view virtual returns (uint256) {... */\n    tag_139:\n        /* \"@openzeppelin/contracts@5.0.2/utils/Nonces.sol\":598:605  uint256 */\n      0x00\n        /* \"@openzeppelin/contracts@5.0.2/utils/Nonces.sol\":624:631  _nonces */\n      0x08\n        /* \"@openzeppelin/contracts@5.0.2/utils/Nonces.sol\":624:638  _nonces[owner] */\n      0x00\n        /* \"@openzeppelin/contracts@5.0.2/utils/Nonces.sol\":632:637  owner */\n      dup4\n        /* \"@openzeppelin/contracts@5.0.2/utils/Nonces.sol\":624:638  _nonces[owner] */\n      0xffffffffffffffffffffffffffffffffffffffff\n      and\n      0xffffffffffffffffffffffffffffffffffffffff\n      and\n      dup2\n      mstore\n      0x20\n      add\n      swap1\n      dup2\n      mstore\n      0x20\n      add\n      0x00\n      keccak256\n      sload\n        /* \"@openzeppelin/contracts@5.0.2/utils/Nonces.sol\":617:638  return _nonces[owner] */\n      swap1\n      pop\n        /* \"@openzeppelin/contracts@5.0.2/utils/Nonces.sol\":538:645  function nonces(address owner) public view virtual returns (uint256) {... */\n      swap2\n      swap1\n      pop\n      jump\t// out\n        /* \"@openzeppelin/contracts@5.0.2/utils/cryptography/EIP712.sol\":6021:6147  function _EIP712Name() internal view returns (string memory) {... */\n    tag_142:\n        /* \"@openzeppelin/contracts@5.0.2/utils/cryptography/EIP712.sol\":6067:6080  string memory */\n      0x60\n        /* \"@openzeppelin/contracts@5.0.2/utils/cryptography/EIP712.sol\":6099:6140  _name.toStringWithFallback(_nameFallback) */\n      tag_221\n        /* \"@openzeppelin/contracts@5.0.2/utils/cryptography/EIP712.sol\":6126:6139  _nameFallback */\n      0x06\n        /* \"@openzeppelin/contracts@5.0.2/utils/cryptography/EIP712.sol\":6099:6104  _name */\n      immutable(\"0xe3122498d9ff2487a2561e8a734d04fd6e3d041d0a760f712a31c656b503f4e9\")\n        /* \"@openzeppelin/contracts@5.0.2/utils/cryptography/EIP712.sol\":6099:6125  _name.toStringWithFallback */\n      tag_222\n      swap1\n        /* \"@openzeppelin/contracts@5.0.2/utils/cryptography/EIP712.sol\":6099:6140  _name.toStringWithFallback(_nameFallback) */\n      swap2\n      swap1\n      0xffffffff\n      and\n      jump\t// in\n    tag_221:\n        /* \"@openzeppelin/contracts@5.0.2/utils/cryptography/EIP712.sol\":6092:6140  return _name.toStringWithFallback(_nameFallback) */\n      swap1\n      pop\n        /* \"@openzeppelin/contracts@5.0.2/utils/cryptography/EIP712.sol\":6021:6147  function _EIP712Name() internal view returns (string memory) {... */\n      swap1\n      jump\t// out\n        /* \"@openzeppelin/contracts@5.0.2/utils/cryptography/EIP712.sol\":6473:6608  function _EIP712Version() internal view returns (string memory) {... */\n    tag_144:\n        /* \"@openzeppelin/contracts@5.0.2/utils/cryptography/EIP712.sol\":6522:6535  string memory */\n      0x60\n        /* \"@openzeppelin/contracts@5.0.2/utils/cryptography/EIP712.sol\":6554:6601  _version.toStringWithFallback(_versionFallback) */\n      tag_224\n        /* \"@openzeppelin/contracts@5.0.2/utils/cryptography/EIP712.sol\":6584:6600  _versionFallback */\n      0x07\n        /* \"@openzeppelin/contracts@5.0.2/utils/cryptography/EIP712.sol\":6554:6562  _version */\n      immutable(\"0xfd925c346b866f15dc14b15669f54ea199640e70e8c480120dda0c18d1e9fd90\")\n        /* \"@openzeppelin/contracts@5.0.2/utils/cryptography/EIP712.sol\":6554:6583  _version.toStringWithFallback */\n      tag_222\n      swap1\n        /* \"@openzeppelin/contracts@5.0.2/utils/cryptography/EIP712.sol\":6554:6601  _version.toStringWithFallback(_versionFallback) */\n      swap2\n      swap1\n      0xffffffff\n      and\n      jump\t// in\n    tag_224:\n        /* \"@openzeppelin/contracts@5.0.2/utils/cryptography/EIP712.sol\":6547:6601  return _version.toStringWithFallback(_versionFallback) */\n      swap1\n      pop\n        /* \"@openzeppelin/contracts@5.0.2/utils/cryptography/EIP712.sol\":6473:6608  function _EIP712Version() internal view returns (string memory) {... */\n      swap1\n      jump\t// out\n        /* \"@openzeppelin/contracts@5.0.2/utils/Nonces.sol\":759:1154  function _useNonce(address owner) internal virtual returns (uint256) {... */\n    tag_166:\n        /* \"@openzeppelin/contracts@5.0.2/utils/Nonces.sol\":819:826  uint256 */\n      0x00\n        /* \"@openzeppelin/contracts@5.0.2/utils/Nonces.sol\":1121:1128  _nonces */\n      0x08\n        /* \"@openzeppelin/contracts@5.0.2/utils/Nonces.sol\":1121:1135  _nonces[owner] */\n      0x00\n        /* \"@openzeppelin/contracts@5.0.2/utils/Nonces.sol\":1129:1134  owner */\n      dup4\n        /* \"@openzeppelin/contracts@5.0.2/utils/Nonces.sol\":1121:1135  _nonces[owner] */\n      0xffffffffffffffffffffffffffffffffffffffff\n      and\n      0xffffffffffffffffffffffffffffffffffffffff\n      and\n      dup2\n      mstore\n      0x20\n      add\n      swap1\n      dup2\n      mstore\n      0x20\n      add\n      0x00\n      keccak256\n      0x00\n        /* \"@openzeppelin/contracts@5.0.2/utils/Nonces.sol\":1121:1137  _nonces[owner]++ */\n      dup2\n      sload\n      dup1\n      swap3\n      swap2\n      swap1\n      0x01\n      add\n      swap2\n      swap1\n      pop\n      sstore\n        /* \"@openzeppelin/contracts@5.0.2/utils/Nonces.sol\":1114:1137  return _nonces[owner]++ */\n      swap1\n      pop\n        /* \"@openzeppelin/contracts@5.0.2/utils/Nonces.sol\":759:1154  function _useNonce(address owner) internal virtual returns (uint256) {... */\n      swap2\n      swap1\n      pop\n      jump\t// out\n        /* \"@openzeppelin/contracts@5.0.2/utils/cryptography/EIP712.sol\":4917:5093  function _hashTypedDataV4(bytes32 structHash) internal view virtual returns (bytes32) {... */\n    tag_170:\n        /* \"@openzeppelin/contracts@5.0.2/utils/cryptography/EIP712.sol\":4994:5001  bytes32 */\n      0x00\n        /* \"@openzeppelin/contracts@5.0.2/utils/cryptography/EIP712.sol\":5020:5086  MessageHashUtils.toTypedDataHash(_domainSeparatorV4(), structHash) */\n      tag_227\n        /* \"@openzeppelin/contracts@5.0.2/utils/cryptography/EIP712.sol\":5053:5073  _domainSeparatorV4() */\n      tag_228\n        /* \"@openzeppelin/contracts@5.0.2/utils/cryptography/EIP712.sol\":5053:5071  _domainSeparatorV4 */\n      tag_119\n        /* \"@openzeppelin/contracts@5.0.2/utils/cryptography/EIP712.sol\":5053:5073  _domainSeparatorV4() */\n      jump\t// in\n    tag_228:\n        /* \"@openzeppelin/contracts@5.0.2/utils/cryptography/EIP712.sol\":5075:5085  structHash */\n      dup4\n        /* \"@openzeppelin/contracts@5.0.2/utils/cryptography/EIP712.sol\":5020:5052  MessageHashUtils.toTypedDataHash */\n      tag_229\n        /* \"@openzeppelin/contracts@5.0.2/utils/cryptography/EIP712.sol\":5020:5086  MessageHashUtils.toTypedDataHash(_domainSeparatorV4(), structHash) */\n      jump\t// in\n    tag_227:\n        /* \"@openzeppelin/contracts@5.0.2/utils/cryptography/EIP712.sol\":5013:5086  return MessageHashUtils.toTypedDataHash(_domainSeparatorV4(), structHash) */\n      swap1\n      pop\n        /* \"@openzeppelin/contracts@5.0.2/utils/cryptography/EIP712.sol\":4917:5093  function _hashTypedDataV4(bytes32 structHash) internal view virtual returns (bytes32) {... */\n      swap2\n      swap1\n      pop\n      jump\t// out\n        /* \"@openzeppelin/contracts@5.0.2/utils/cryptography/ECDSA.sol\":6803:7063  function recover(bytes32 hash, uint8 v, bytes32 r, bytes32 s) internal pure returns (address) {... */\n    tag_172:\n        /* \"@openzeppelin/contracts@5.0.2/utils/cryptography/ECDSA.sol\":6888:6895  address */\n      0x00\n        /* \"@openzeppelin/contracts@5.0.2/utils/cryptography/ECDSA.sol\":6908:6925  address recovered */\n      dup1\n        /* \"@openzeppelin/contracts@5.0.2/utils/cryptography/ECDSA.sol\":6927:6945  RecoverError error */\n      0x00\n        /* \"@openzeppelin/contracts@5.0.2/utils/cryptography/ECDSA.sol\":6947:6963  bytes32 errorArg */\n      dup1\n        /* \"@openzeppelin/contracts@5.0.2/utils/cryptography/ECDSA.sol\":6967:6992  tryRecover(hash, v, r, s) */\n      tag_231\n        /* \"@openzeppelin/contracts@5.0.2/utils/cryptography/ECDSA.sol\":6978:6982  hash */\n      dup9\n        /* \"@openzeppelin/contracts@5.0.2/utils/cryptography/ECDSA.sol\":6984:6985  v */\n      dup9\n        /* \"@openzeppelin/contracts@5.0.2/utils/cryptography/ECDSA.sol\":6987:6988  r */\n      dup9\n        /* \"@openzeppelin/contracts@5.0.2/utils/cryptography/ECDSA.sol\":6990:6991  s */\n      dup9\n        /* \"@openzeppelin/contracts@5.0.2/utils/cryptography/ECDSA.sol\":6967:6977  tryRecover */\n      tag_232\n        /* \"@openzeppelin/contracts@5.0.2/utils/cryptography/ECDSA.sol\":6967:6992  tryRecover(hash, v, r, s) */\n      jump\t// in\n    tag_231:\n        /* \"@openzeppelin/contracts@5.0.2/utils/cryptography/ECDSA.sol\":6907:6992  (address recovered, RecoverError error, bytes32 errorArg) = tryRecover(hash, v, r, s) */\n      swap3\n      pop\n      swap3\n      pop\n      swap3\n      pop\n        /* \"@openzeppelin/contracts@5.0.2/utils/cryptography/ECDSA.sol\":7002:7030  _throwError(error, errorArg) */\n      tag_233\n        /* \"@openzeppelin/contracts@5.0.2/utils/cryptography/ECDSA.sol\":7014:7019  error */\n      dup3\n        /* \"@openzeppelin/contracts@5.0.2/utils/cryptography/ECDSA.sol\":7021:7029  errorArg */\n      dup3\n        /* \"@openzeppelin/contracts@5.0.2/utils/cryptography/ECDSA.sol\":7002:7013  _throwError */\n      tag_234\n        /* \"@openzeppelin/contracts@5.0.2/utils/cryptography/ECDSA.sol\":7002:7030  _throwError(error, errorArg) */\n      jump\t// in\n    tag_233:\n        /* \"@openzeppelin/contracts@5.0.2/utils/cryptography/ECDSA.sol\":7047:7056  recovered */\n      dup3\n        /* \"@openzeppelin/contracts@5.0.2/utils/cryptography/ECDSA.sol\":7040:7056  return recovered */\n      swap4\n      pop\n      pop\n      pop\n      pop\n        /* \"@openzeppelin/contracts@5.0.2/utils/cryptography/ECDSA.sol\":6803:7063  function recover(bytes32 hash, uint8 v, bytes32 r, bytes32 s) internal pure returns (address) {... */\n      swap5\n      swap4\n      pop\n      pop\n      pop\n      pop\n      jump\t// out\n        /* \"@openzeppelin/contracts@5.0.2/token/ERC20/ERC20.sol\":9949:10381  function _approve(address owner, address spender, uint256 value, bool emitEvent) internal virtual {... */\n    tag_187:\n        /* \"@openzeppelin/contracts@5.0.2/token/ERC20/ERC20.sol\":10078:10079  0 */\n      0x00\n        /* \"@openzeppelin/contracts@5.0.2/token/ERC20/ERC20.sol\":10061:10080  owner == address(0) */\n      0xffffffffffffffffffffffffffffffffffffffff\n      and\n        /* \"@openzeppelin/contracts@5.0.2/token/ERC20/ERC20.sol\":10061:10066  owner */\n      dup5\n        /* \"@openzeppelin/contracts@5.0.2/token/ERC20/ERC20.sol\":10061:10080  owner == address(0) */\n      0xffffffffffffffffffffffffffffffffffffffff\n      and\n      sub\n        /* \"@openzeppelin/contracts@5.0.2/token/ERC20/ERC20.sol\":10057:10146  if (owner == address(0)) {... */\n      tag_236\n      jumpi\n        /* \"@openzeppelin/contracts@5.0.2/token/ERC20/ERC20.sol\":10132:10133  0 */\n      0x00\n        /* \"@openzeppelin/contracts@5.0.2/token/ERC20/ERC20.sol\":10103:10135  ERC20InvalidApprover(address(0)) */\n      mload(0x40)\n      0xe602df0500000000000000000000000000000000000000000000000000000000\n      dup2\n      mstore\n      0x04\n      add\n      tag_237\n      swap2\n      swap1\n      tag_72\n      jump\t// in\n    tag_237:\n      mload(0x40)\n      dup1\n      swap2\n      sub\n      swap1\n      revert\n        /* \"@openzeppelin/contracts@5.0.2/token/ERC20/ERC20.sol\":10057:10146  if (owner == address(0)) {... */\n    tag_236:\n        /* \"@openzeppelin/contracts@5.0.2/token/ERC20/ERC20.sol\":10178:10179  0 */\n      0x00\n        /* \"@openzeppelin/contracts@5.0.2/token/ERC20/ERC20.sol\":10159:10180  spender == address(0) */\n      0xffffffffffffffffffffffffffffffffffffffff\n      and\n        /* \"@openzeppelin/contracts@5.0.2/token/ERC20/ERC20.sol\":10159:10166  spender */\n      dup4\n        /* \"@openzeppelin/contracts@5.0.2/token/ERC20/ERC20.sol\":10159:10180  spender == address(0) */\n      0xffffffffffffffffffffffffffffffffffffffff\n      and\n      sub\n        /* \"@openzeppelin/contracts@5.0.2/token/ERC20/ERC20.sol\":10155:10245  if (spender == address(0)) {... */\n      tag_238\n      jumpi\n        /* \"@openzeppelin/contracts@5.0.2/token/ERC20/ERC20.sol\":10231:10232  0 */\n      0x00\n        /* \"@openzeppelin/contracts@5.0.2/token/ERC20/ERC20.sol\":10203:10234  ERC20InvalidSpender(address(0)) */\n      mload(0x40)\n      0x94280d6200000000000000000000000000000000000000000000000000000000\n      dup2\n      mstore\n      0x04\n      add\n      tag_239\n      swap2\n      swap1\n      tag_72\n      jump\t// in\n    tag_239:\n      mload(0x40)\n      dup1\n      swap2\n      sub\n      swap1\n      revert\n        /* \"@openzeppelin/contracts@5.0.2/token/ERC20/ERC20.sol\":10155:10245  if (spender == address(0)) {... */\n    tag_238:\n        /* \"@openzeppelin/contracts@5.0.2/token/ERC20/ERC20.sol\":10284:10289  value */\n      dup2\n        /* \"@openzeppelin/contracts@5.0.2/token/ERC20/ERC20.sol\":10254:10265  _allowances */\n      0x01\n        /* \"@openzeppelin/contracts@5.0.2/token/ERC20/ERC20.sol\":10254:10272  _allowances[owner] */\n      0x00\n        /* \"@openzeppelin/contracts@5.0.2/token/ERC20/ERC20.sol\":10266:10271  owner */\n      dup7\n        /* \"@openzeppelin/contracts@5.0.2/token/ERC20/ERC20.sol\":10254:10272  _allowances[owner] */\n      0xffffffffffffffffffffffffffffffffffffffff\n      and\n      0xffffffffffffffffffffffffffffffffffffffff\n      and\n      dup2\n      mstore\n      0x20\n      add\n      swap1\n      dup2\n      mstore\n      0x20\n      add\n      0x00\n      keccak256\n        /* \"@openzeppelin/contracts@5.0.2/token/ERC20/ERC20.sol\":10254:10281  _allowances[owner][spender] */\n      0x00\n        /* \"@openzeppelin/contracts@5.0.2/token/ERC20/ERC20.sol\":10273:10280  spender */\n      dup6\n        /* \"@openzeppelin/contracts@5.0.2/token/ERC20/ERC20.sol\":10254:10281  _allowances[owner][spender] */\n      0xffffffffffffffffffffffffffffffffffffffff\n      and\n      0xffffffffffffffffffffffffffffffffffffffff\n      and\n      dup2\n      mstore\n      0x20\n      add\n      swap1\n      dup2\n      mstore\n      0x20\n      add\n      0x00\n      keccak256\n        /* \"@openzeppelin/contracts@5.0.2/token/ERC20/ERC20.sol\":10254:10289  _allowances[owner][spender] = value */\n      dup2\n      swap1\n      sstore\n      pop\n        /* \"@openzeppelin/contracts@5.0.2/token/ERC20/ERC20.sol\":10303:10312  emitEvent */\n      dup1\n        /* \"@openzeppelin/contracts@5.0.2/token/ERC20/ERC20.sol\":10299:10375  if (emitEvent) {... */\n      iszero\n      tag_240\n      jumpi\n        /* \"@openzeppelin/contracts@5.0.2/token/ERC20/ERC20.sol\":10349:10356  spender */\n      dup3\n        /* \"@openzeppelin/contracts@5.0.2/token/ERC20/ERC20.sol\":10333:10364  Approval(owner, spender, value) */\n      0xffffffffffffffffffffffffffffffffffffffff\n      and\n        /* \"@openzeppelin/contracts@5.0.2/token/ERC20/ERC20.sol\":10342:10347  owner */\n      dup5\n        /* \"@openzeppelin/contracts@5.0.2/token/ERC20/ERC20.sol\":10333:10364  Approval(owner, spender, value) */\n      0xffffffffffffffffffffffffffffffffffffffff\n      and\n      0x8c5be1e5ebec7d5bd14f71427d1e84f3dd0314c0f7b2291e5b200ac8c7c3b925\n        /* \"@openzeppelin/contracts@5.0.2/token/ERC20/ERC20.sol\":10358:10363  value */\n      dup5\n        /* \"@openzeppelin/contracts@5.0.2/token/ERC20/ERC20.sol\":10333:10364  Approval(owner, spender, value) */\n      mload(0x40)\n      tag_241\n      swap2\n      swap1\n      tag_37\n      jump\t// in\n    tag_241:\n      mload(0x40)\n      dup1\n      swap2\n      sub\n      swap1\n      log3\n        /* \"@openzeppelin/contracts@5.0.2/token/ERC20/ERC20.sol\":10299:10375  if (emitEvent) {... */\n    tag_240:\n        /* \"@openzeppelin/contracts@5.0.2/token/ERC20/ERC20.sol\":9949:10381  function _approve(address owner, address spender, uint256 value, bool emitEvent) internal virtual {... */\n      pop\n      pop\n      pop\n      pop\n      jump\t// out\n        /* \"@openzeppelin/contracts@5.0.2/token/ERC20/ERC20.sol\":6271:7378  function _update(address from, address to, uint256 value) internal virtual {... */\n    tag_201:\n        /* \"@openzeppelin/contracts@5.0.2/token/ERC20/ERC20.sol\":6376:6377  0 */\n      0x00\n        /* \"@openzeppelin/contracts@5.0.2/token/ERC20/ERC20.sol\":6360:6378  from == address(0) */\n      0xffffffffffffffffffffffffffffffffffffffff\n      and\n        /* \"@openzeppelin/contracts@5.0.2/token/ERC20/ERC20.sol\":6360:6364  from */\n      dup4\n        /* \"@openzeppelin/contracts@5.0.2/token/ERC20/ERC20.sol\":6360:6378  from == address(0) */\n      0xffffffffffffffffffffffffffffffffffffffff\n      and\n      sub\n        /* \"@openzeppelin/contracts@5.0.2/token/ERC20/ERC20.sol\":6356:6896  if (from == address(0)) {... */\n      tag_243\n      jumpi\n        /* \"@openzeppelin/contracts@5.0.2/token/ERC20/ERC20.sol\":6512:6517  value */\n      dup1\n        /* \"@openzeppelin/contracts@5.0.2/token/ERC20/ERC20.sol\":6496:6508  _totalSupply */\n      0x02\n      0x00\n        /* \"@openzeppelin/contracts@5.0.2/token/ERC20/ERC20.sol\":6496:6517  _totalSupply += value */\n      dup3\n      dup3\n      sload\n      tag_244\n      swap2\n      swap1\n      tag_245\n      jump\t// in\n    tag_244:\n      swap3\n      pop\n      pop\n      dup2\n      swap1\n      sstore\n      pop\n        /* \"@openzeppelin/contracts@5.0.2/token/ERC20/ERC20.sol\":6356:6896  if (from == address(0)) {... */\n      jump(tag_246)\n    tag_243:\n        /* \"@openzeppelin/contracts@5.0.2/token/ERC20/ERC20.sol\":6548:6567  uint256 fromBalance */\n      0x00\n        /* \"@openzeppelin/contracts@5.0.2/token/ERC20/ERC20.sol\":6570:6579  _balances */\n      dup1\n        /* \"@openzeppelin/contracts@5.0.2/token/ERC20/ERC20.sol\":6570:6585  _balances[from] */\n      0x00\n        /* \"@openzeppelin/contracts@5.0.2/token/ERC20/ERC20.sol\":6580:6584  from */\n      dup6\n        /* \"@openzeppelin/contracts@5.0.2/token/ERC20/ERC20.sol\":6570:6585  _balances[from] */\n      0xffffffffffffffffffffffffffffffffffffffff\n      and\n      0xffffffffffffffffffffffffffffffffffffffff\n      and\n      dup2\n      mstore\n      0x20\n      add\n      swap1\n      dup2\n      mstore\n      0x20\n      add\n      0x00\n      keccak256\n      sload\n        /* \"@openzeppelin/contracts@5.0.2/token/ERC20/ERC20.sol\":6548:6585  uint256 fromBalance = _balances[from] */\n      swap1\n      pop\n        /* \"@openzeppelin/contracts@5.0.2/token/ERC20/ERC20.sol\":6617:6622  value */\n      dup2\n        /* \"@openzeppelin/contracts@5.0.2/token/ERC20/ERC20.sol\":6603:6614  fromBalance */\n      dup2\n        /* \"@openzeppelin/contracts@5.0.2/token/ERC20/ERC20.sol\":6603:6622  fromBalance < value */\n      lt\n        /* \"@openzeppelin/contracts@5.0.2/token/ERC20/ERC20.sol\":6599:6714  if (fromBalance < value) {... */\n      iszero\n      tag_247\n      jumpi\n        /* \"@openzeppelin/contracts@5.0.2/token/ERC20/ERC20.sol\":6674:6678  from */\n      dup4\n        /* \"@openzeppelin/contracts@5.0.2/token/ERC20/ERC20.sol\":6680:6691  fromBalance */\n      dup2\n        /* \"@openzeppelin/contracts@5.0.2/token/ERC20/ERC20.sol\":6693:6698  value */\n      dup4\n        /* \"@openzeppelin/contracts@5.0.2/token/ERC20/ERC20.sol\":6649:6699  ERC20InsufficientBalance(from, fromBalance, value) */\n      mload(0x40)\n      0xe450d38c00000000000000000000000000000000000000000000000000000000\n      dup2\n      mstore\n      0x04\n      add\n      tag_248\n      swap4\n      swap3\n      swap2\n      swap1\n      tag_193\n      jump\t// in\n    tag_248:\n      mload(0x40)\n      dup1\n      swap2\n      sub\n      swap1\n      revert\n        /* \"@openzeppelin/contracts@5.0.2/token/ERC20/ERC20.sol\":6599:6714  if (fromBalance < value) {... */\n    tag_247:\n        /* \"@openzeppelin/contracts@5.0.2/token/ERC20/ERC20.sol\":6866:6871  value */\n      dup2\n        /* \"@openzeppelin/contracts@5.0.2/token/ERC20/ERC20.sol\":6852:6863  fromBalance */\n      dup2\n        /* \"@openzeppelin/contracts@5.0.2/token/ERC20/ERC20.sol\":6852:6871  fromBalance - value */\n      sub\n        /* \"@openzeppelin/contracts@5.0.2/token/ERC20/ERC20.sol\":6834:6843  _balances */\n      0x00\n        /* \"@openzeppelin/contracts@5.0.2/token/ERC20/ERC20.sol\":6834:6849  _balances[from] */\n      dup1\n        /* \"@openzeppelin/contracts@5.0.2/token/ERC20/ERC20.sol\":6844:6848  from */\n      dup7\n        /* \"@openzeppelin/contracts@5.0.2/token/ERC20/ERC20.sol\":6834:6849  _balances[from] */\n      0xffffffffffffffffffffffffffffffffffffffff\n      and\n      0xffffffffffffffffffffffffffffffffffffffff\n      and\n      dup2\n      mstore\n      0x20\n      add\n      swap1\n      dup2\n      mstore\n      0x20\n      add\n      0x00\n      keccak256\n        /* \"@openzeppelin/contracts@5.0.2/token/ERC20/ERC20.sol\":6834:6871  _balances[from] = fromBalance - value */\n      dup2\n      swap1\n      sstore\n      pop\n        /* \"@openzeppelin/contracts@5.0.2/token/ERC20/ERC20.sol\":6534:6896  {... */\n      pop\n        /* \"@openzeppelin/contracts@5.0.2/token/ERC20/ERC20.sol\":6356:6896  if (from == address(0)) {... */\n    tag_246:\n        /* \"@openzeppelin/contracts@5.0.2/token/ERC20/ERC20.sol\":6924:6925  0 */\n      0x00\n        /* \"@openzeppelin/contracts@5.0.2/token/ERC20/ERC20.sol\":6910:6926  to == address(0) */\n      0xffffffffffffffffffffffffffffffffffffffff\n      and\n        /* \"@openzeppelin/contracts@5.0.2/token/ERC20/ERC20.sol\":6910:6912  to */\n      dup3\n        /* \"@openzeppelin/contracts@5.0.2/token/ERC20/ERC20.sol\":6910:6926  to == address(0) */\n      0xffffffffffffffffffffffffffffffffffffffff\n      and\n      sub\n        /* \"@openzeppelin/contracts@5.0.2/token/ERC20/ERC20.sol\":6906:7331  if (to == address(0)) {... */\n      tag_249\n      jumpi\n        /* \"@openzeppelin/contracts@5.0.2/token/ERC20/ERC20.sol\":7089:7094  value */\n      dup1\n        /* \"@openzeppelin/contracts@5.0.2/token/ERC20/ERC20.sol\":7073:7085  _totalSupply */\n      0x02\n      0x00\n        /* \"@openzeppelin/contracts@5.0.2/token/ERC20/ERC20.sol\":7073:7094  _totalSupply -= value */\n      dup3\n      dup3\n      sload\n      sub\n      swap3\n      pop\n      pop\n      dup2\n      swap1\n      sstore\n      pop\n        /* \"@openzeppelin/contracts@5.0.2/token/ERC20/ERC20.sol\":6906:7331  if (to == address(0)) {... */\n      jump(tag_250)\n    tag_249:\n        /* \"@openzeppelin/contracts@5.0.2/token/ERC20/ERC20.sol\":7301:7306  value */\n      dup1\n        /* \"@openzeppelin/contracts@5.0.2/token/ERC20/ERC20.sol\":7284:7293  _balances */\n      0x00\n        /* \"@openzeppelin/contracts@5.0.2/token/ERC20/ERC20.sol\":7284:7297  _balances[to] */\n      dup1\n        /* \"@openzeppelin/contracts@5.0.2/token/ERC20/ERC20.sol\":7294:7296  to */\n      dup5\n        /* \"@openzeppelin/contracts@5.0.2/token/ERC20/ERC20.sol\":7284:7297  _balances[to] */\n      0xffffffffffffffffffffffffffffffffffffffff\n      and\n      0xffffffffffffffffffffffffffffffffffffffff\n      and\n      dup2\n      mstore\n      0x20\n      add\n      swap1\n      dup2\n      mstore\n      0x20\n      add\n      0x00\n      keccak256\n      0x00\n        /* \"@openzeppelin/contracts@5.0.2/token/ERC20/ERC20.sol\":7284:7306  _balances[to] += value */\n      dup3\n      dup3\n      sload\n      add\n      swap3\n      pop\n      pop\n      dup2\n      swap1\n      sstore\n      pop\n        /* \"@openzeppelin/contracts@5.0.2/token/ERC20/ERC20.sol\":6906:7331  if (to == address(0)) {... */\n    tag_250:\n        /* \"@openzeppelin/contracts@5.0.2/token/ERC20/ERC20.sol\":7361:7363  to */\n      dup2\n        /* \"@openzeppelin/contracts@5.0.2/token/ERC20/ERC20.sol\":7346:7371  Transfer(from, to, value) */\n      0xffffffffffffffffffffffffffffffffffffffff\n      and\n        /* \"@openzeppelin/contracts@5.0.2/token/ERC20/ERC20.sol\":7355:7359  from */\n      dup4\n        /* \"@openzeppelin/contracts@5.0.2/token/ERC20/ERC20.sol\":7346:7371  Transfer(from, to, value) */\n      0xffffffffffffffffffffffffffffffffffffffff\n      and\n      0xddf252ad1be2c89b69c2b068fc378daa952ba7f163c4a11628f55a4df523b3ef\n        /* \"@openzeppelin/contracts@5.0.2/token/ERC20/ERC20.sol\":7365:7370  value */\n      dup4\n        /* \"@openzeppelin/contracts@5.0.2/token/ERC20/ERC20.sol\":7346:7371  Transfer(from, to, value) */\n      mload(0x40)\n      tag_251\n      swap2\n      swap1\n      tag_37\n      jump\t// in\n    tag_251:\n      mload(0x40)\n      dup1\n      swap2\n      sub\n      swap1\n      log3\n        /* \"@openzeppelin/contracts@5.0.2/token/ERC20/ERC20.sol\":6271:7378  function _update(address from, address to, uint256 value) internal virtual {... */\n      pop\n      pop\n      pop\n      jump\t// out\n        /* \"@openzeppelin/contracts@5.0.2/utils/cryptography/EIP712.sol\":4113:4292  function _buildDomainSeparator() private view returns (bytes32) {... */\n    tag_207:\n        /* \"@openzeppelin/contracts@5.0.2/utils/cryptography/EIP712.sol\":4168:4175  bytes32 */\n      0x00\n        /* \"@openzeppelin/contracts@5.0.2/utils/cryptography/EIP712.sol\":2079:2174  keccak256(\"EIP712Domain(string name,string version,uint256 chainId,address verifyingContract)\") */\n      0x8b73c3c69bb8fe3d512ecc4cf759cc79239f7b179b0ffacaa9a75d522b39400f\n        /* \"@openzeppelin/contracts@5.0.2/utils/cryptography/EIP712.sol\":4226:4237  _hashedName */\n      immutable(\"0x345f382da6bc84e813a69b1b534bca15525cf36c08e00ae0bcd53b6d58a4dc02\")\n        /* \"@openzeppelin/contracts@5.0.2/utils/cryptography/EIP712.sol\":4239:4253  _hashedVersion */\n      immutable(\"0x1d4fd5afc7bf1a8c6112c96aba7276e07af3f16d86515087973b03fdff507ee1\")\n        /* \"@openzeppelin/contracts@5.0.2/utils/cryptography/EIP712.sol\":4255:4268  block.chainid */\n      chainid\n        /* \"@openzeppelin/contracts@5.0.2/utils/cryptography/EIP712.sol\":4278:4282  this */\n      address\n        /* \"@openzeppelin/contracts@5.0.2/utils/cryptography/EIP712.sol\":4204:4284  abi.encode(TYPE_HASH, _hashedName, _hashedVersion, block.chainid, address(this)) */\n      add(0x20, mload(0x40))\n      tag_253\n      swap6\n      swap5\n      swap4\n      swap3\n      swap2\n      swap1\n      tag_254\n      jump\t// in\n    tag_253:\n      mload(0x40)\n      0x20\n      dup2\n      dup4\n      sub\n      sub\n      dup2\n      mstore\n      swap1\n      0x40\n      mstore\n        /* \"@openzeppelin/contracts@5.0.2/utils/cryptography/EIP712.sol\":4194:4285  keccak256(abi.encode(TYPE_HASH, _hashedName, _hashedVersion, block.chainid, address(this))) */\n      dup1\n      mload\n      swap1\n      0x20\n      add\n      keccak256\n        /* \"@openzeppelin/contracts@5.0.2/utils/cryptography/EIP712.sol\":4187:4285  return keccak256(abi.encode(TYPE_HASH, _hashedName, _hashedVersion, block.chainid, address(this))) */\n      swap1\n      pop\n        /* \"@openzeppelin/contracts@5.0.2/utils/cryptography/EIP712.sol\":4113:4292  function _buildDomainSeparator() private view returns (bytes32) {... */\n      swap1\n      jump\t// out\n        /* \"@openzeppelin/contracts@5.0.2/utils/ShortStrings.sol\":3385:3652  function toStringWithFallback(ShortString value, string storage store) internal pure returns (string memory) {... */\n    tag_222:\n        /* \"@openzeppelin/contracts@5.0.2/utils/ShortStrings.sol\":3479:3492  string memory */\n      0x60\n        /* \"@openzeppelin/contracts@5.0.2/utils/ShortStrings.sol\":1390:1456  0x00000000000000000000000000000000000000000000000000000000000000FF */\n      0xff\n        /* \"@openzeppelin/contracts@5.0.2/utils/ShortStrings.sol\":3537:3554  FALLBACK_SENTINEL */\n      0x00\n      shl\n        /* \"@openzeppelin/contracts@5.0.2/utils/ShortStrings.sol\":3527:3532  value */\n      dup4\n        /* \"@openzeppelin/contracts@5.0.2/utils/ShortStrings.sol\":3508:3554  ShortString.unwrap(value) != FALLBACK_SENTINEL */\n      eq\n        /* \"@openzeppelin/contracts@5.0.2/utils/ShortStrings.sol\":3504:3646  if (ShortString.unwrap(value) != FALLBACK_SENTINEL) {... */\n      tag_256\n      jumpi\n        /* \"@openzeppelin/contracts@5.0.2/utils/ShortStrings.sol\":3577:3592  toString(value) */\n      tag_257\n        /* \"@openzeppelin/contracts@5.0.2/utils/ShortStrings.sol\":3586:3591  value */\n      dup4\n        /* \"@openzeppelin/contracts@5.0.2/utils/ShortStrings.sol\":3577:3585  toString */\n      tag_258\n        /* \"@openzeppelin/contracts@5.0.2/utils/ShortStrings.sol\":3577:3592  toString(value) */\n      jump\t// in\n    tag_257:\n        /* \"@openzeppelin/contracts@5.0.2/utils/ShortStrings.sol\":3570:3592  return toString(value) */\n      swap1\n      pop\n      jump(tag_255)\n        /* \"@openzeppelin/contracts@5.0.2/utils/ShortStrings.sol\":3504:3646  if (ShortString.unwrap(value) != FALLBACK_SENTINEL) {... */\n    tag_256:\n        /* \"@openzeppelin/contracts@5.0.2/utils/ShortStrings.sol\":3630:3635  store */\n      dup2\n        /* \"@openzeppelin/contracts@5.0.2/utils/ShortStrings.sol\":3623:3635  return store */\n      dup1\n      sload\n      tag_260\n      swap1\n      tag_99\n      jump\t// in\n    tag_260:\n      dup1\n      0x1f\n      add\n      0x20\n      dup1\n      swap2\n      div\n      mul\n      0x20\n      add\n      mload(0x40)\n      swap1\n      dup2\n      add\n      0x40\n      mstore\n      dup1\n      swap3\n      swap2\n      swap1\n      dup2\n      dup2\n      mstore\n      0x20\n      add\n      dup3\n      dup1\n      sload\n      tag_261\n      swap1\n      tag_99\n      jump\t// in\n    tag_261:\n      dup1\n      iszero\n      tag_262\n      jumpi\n      dup1\n      0x1f\n      lt\n      tag_263\n      jumpi\n      0x0100\n      dup1\n      dup4\n      sload\n      div\n      mul\n      dup4\n      mstore\n      swap2\n      0x20\n      add\n      swap2\n      jump(tag_262)\n    tag_263:\n      dup3\n      add\n      swap2\n      swap1\n      0x00\n      mstore\n      keccak256(0x00, 0x20)\n      swap1\n    tag_264:\n      dup2\n      sload\n      dup2\n      mstore\n      swap1\n      0x01\n      add\n      swap1\n      0x20\n      add\n      dup1\n      dup4\n      gt\n      tag_264\n      jumpi\n      dup3\n      swap1\n      sub\n      0x1f\n      and\n      dup3\n      add\n      swap2\n    tag_262:\n      pop\n      pop\n      pop\n      pop\n      pop\n      swap1\n      pop\n        /* \"@openzeppelin/contracts@5.0.2/utils/ShortStrings.sol\":3385:3652  function toStringWithFallback(ShortString value, string storage store) internal pure returns (string memory) {... */\n    tag_255:\n      swap3\n      swap2\n      pop\n      pop\n      jump\t// out\n        /* \"@openzeppelin/contracts@5.0.2/utils/cryptography/MessageHashUtils.sol\":3353:3754  function toTypedDataHash(bytes32 domainSeparator, bytes32 structHash) internal pure returns (bytes32 digest) {... */\n    tag_229:\n        /* \"@openzeppelin/contracts@5.0.2/utils/cryptography/MessageHashUtils.sol\":3446:3460  bytes32 digest */\n      0x00\n        /* \"@openzeppelin/contracts@5.0.2/utils/cryptography/MessageHashUtils.sol\":3555:3559  0x40 */\n      0x40\n        /* \"@openzeppelin/contracts@5.0.2/utils/cryptography/MessageHashUtils.sol\":3549:3560  mload(0x40) */\n      mload\n        /* \"@openzeppelin/contracts@5.0.2/utils/cryptography/MessageHashUtils.sol\":3585:3595  hex\"19_01\" */\n      0x1901000000000000000000000000000000000000000000000000000000000000\n        /* \"@openzeppelin/contracts@5.0.2/utils/cryptography/MessageHashUtils.sol\":3580:3583  ptr */\n      dup2\n        /* \"@openzeppelin/contracts@5.0.2/utils/cryptography/MessageHashUtils.sol\":3573:3596  mstore(ptr, hex\"19_01\") */\n      mstore\n        /* \"@openzeppelin/contracts@5.0.2/utils/cryptography/MessageHashUtils.sol\":3632:3647  domainSeparator */\n      dup4\n        /* \"@openzeppelin/contracts@5.0.2/utils/cryptography/MessageHashUtils.sol\":3625:3629  0x02 */\n      0x02\n        /* \"@openzeppelin/contracts@5.0.2/utils/cryptography/MessageHashUtils.sol\":3620:3623  ptr */\n      dup3\n        /* \"@openzeppelin/contracts@5.0.2/utils/cryptography/MessageHashUtils.sol\":3616:3630  add(ptr, 0x02) */\n      add\n        /* \"@openzeppelin/contracts@5.0.2/utils/cryptography/MessageHashUtils.sol\":3609:3648  mstore(add(ptr, 0x02), domainSeparator) */\n      mstore\n        /* \"@openzeppelin/contracts@5.0.2/utils/cryptography/MessageHashUtils.sol\":3684:3694  structHash */\n      dup3\n        /* \"@openzeppelin/contracts@5.0.2/utils/cryptography/MessageHashUtils.sol\":3677:3681  0x22 */\n      0x22\n        /* \"@openzeppelin/contracts@5.0.2/utils/cryptography/MessageHashUtils.sol\":3672:3675  ptr */\n      dup3\n        /* \"@openzeppelin/contracts@5.0.2/utils/cryptography/MessageHashUtils.sol\":3668:3682  add(ptr, 0x22) */\n      add\n        /* \"@openzeppelin/contracts@5.0.2/utils/cryptography/MessageHashUtils.sol\":3661:3695  mstore(add(ptr, 0x22), structHash) */\n      mstore\n        /* \"@openzeppelin/contracts@5.0.2/utils/cryptography/MessageHashUtils.sol\":3733:3737  0x42 */\n      0x42\n        /* \"@openzeppelin/contracts@5.0.2/utils/cryptography/MessageHashUtils.sol\":3728:3731  ptr */\n      dup2\n        /* \"@openzeppelin/contracts@5.0.2/utils/cryptography/MessageHashUtils.sol\":3718:3738  keccak256(ptr, 0x42) */\n      keccak256\n        /* \"@openzeppelin/contracts@5.0.2/utils/cryptography/MessageHashUtils.sol\":3708:3738  digest := keccak256(ptr, 0x42) */\n      swap2\n      pop\n        /* \"@openzeppelin/contracts@5.0.2/utils/cryptography/MessageHashUtils.sol\":3524:3748  {... */\n      pop\n        /* \"@openzeppelin/contracts@5.0.2/utils/cryptography/MessageHashUtils.sol\":3353:3754  function toTypedDataHash(bytes32 domainSeparator, bytes32 structHash) internal pure returns (bytes32 digest) {... */\n      swap3\n      swap2\n      pop\n      pop\n      jump\t// out\n        /* \"@openzeppelin/contracts@5.0.2/utils/cryptography/ECDSA.sol\":5140:6670  function tryRecover(... */\n    tag_232:\n        /* \"@openzeppelin/contracts@5.0.2/utils/cryptography/ECDSA.sol\":5266:5273  address */\n      0x00\n        /* \"@openzeppelin/contracts@5.0.2/utils/cryptography/ECDSA.sol\":5275:5287  RecoverError */\n      dup1\n        /* \"@openzeppelin/contracts@5.0.2/utils/cryptography/ECDSA.sol\":5289:5296  bytes32 */\n      0x00\n        /* \"@openzeppelin/contracts@5.0.2/utils/cryptography/ECDSA.sol\":6199:6265  0x7FFFFFFFFFFFFFFFFFFFFFFFFFFFFFFF5D576E7357A4501DDFE92F46681B20A0 */\n      0x7fffffffffffffffffffffffffffffff5d576e7357a4501ddfe92f46681b20a0\n        /* \"@openzeppelin/contracts@5.0.2/utils/cryptography/ECDSA.sol\":6194:6195  s */\n      dup5\n        /* \"@openzeppelin/contracts@5.0.2/utils/cryptography/ECDSA.sol\":6186:6196  uint256(s) */\n      0x00\n      shr\n        /* \"@openzeppelin/contracts@5.0.2/utils/cryptography/ECDSA.sol\":6186:6265  uint256(s) > 0x7FFFFFFFFFFFFFFFFFFFFFFFFFFFFFFF5D576E7357A4501DDFE92F46681B20A0 */\n      gt\n        /* \"@openzeppelin/contracts@5.0.2/utils/cryptography/ECDSA.sol\":6182:6346  if (uint256(s) > 0x7FFFFFFFFFFFFFFFFFFFFFFFFFFFFFFF5D576E7357A4501DDFE92F46681B20A0) {... */\n      iszero\n      tag_267\n      jumpi\n        /* \"@openzeppelin/contracts@5.0.2/utils/cryptography/ECDSA.sol\":6297:6298  0 */\n      0x00\n        /* \"@openzeppelin/contracts@5.0.2/utils/cryptography/ECDSA.sol\":6301:6331  RecoverError.InvalidSignatureS */\n      0x03\n        /* \"@openzeppelin/contracts@5.0.2/utils/cryptography/ECDSA.sol\":6333:6334  s */\n      dup6\n        /* \"@openzeppelin/contracts@5.0.2/utils/cryptography/ECDSA.sol\":6281:6335  return (address(0), RecoverError.InvalidSignatureS, s) */\n      swap3\n      pop\n      swap3\n      pop\n      swap3\n      pop\n      jump(tag_266)\n        /* \"@openzeppelin/contracts@5.0.2/utils/cryptography/ECDSA.sol\":6182:6346  if (uint256(s) > 0x7FFFFFFFFFFFFFFFFFFFFFFFFFFFFFFF5D576E7357A4501DDFE92F46681B20A0) {... */\n    tag_267:\n        /* \"@openzeppelin/contracts@5.0.2/utils/cryptography/ECDSA.sol\":6440:6454  address signer */\n      0x00\n        /* \"@openzeppelin/contracts@5.0.2/utils/cryptography/ECDSA.sol\":6457:6481  ecrecover(hash, v, r, s) */\n      0x01\n        /* \"@openzeppelin/contracts@5.0.2/utils/cryptography/ECDSA.sol\":6467:6471  hash */\n      dup9\n        /* \"@openzeppelin/contracts@5.0.2/utils/cryptography/ECDSA.sol\":6473:6474  v */\n      dup9\n        /* \"@openzeppelin/contracts@5.0.2/utils/cryptography/ECDSA.sol\":6476:6477  r */\n      dup9\n        /* \"@openzeppelin/contracts@5.0.2/utils/cryptography/ECDSA.sol\":6479:6480  s */\n      dup9\n        /* \"@openzeppelin/contracts@5.0.2/utils/cryptography/ECDSA.sol\":6457:6481  ecrecover(hash, v, r, s) */\n      mload(0x40)\n      0x00\n      dup2\n      mstore\n      0x20\n      add\n      0x40\n      mstore\n      mload(0x40)\n      tag_268\n      swap5\n      swap4\n      swap3\n      swap2\n      swap1\n      tag_269\n      jump\t// in\n    tag_268:\n      0x20\n      mload(0x40)\n      0x20\n      dup2\n      sub\n      swap1\n      dup1\n      dup5\n      sub\n      swap1\n      dup6\n      gas\n      staticcall\n      iszero\n      dup1\n      iszero\n      tag_271\n      jumpi\n      returndatasize\n      0x00\n      dup1\n      returndatacopy\n      revert(0x00, returndatasize)\n    tag_271:\n      pop\n      pop\n      pop\n      mload(sub(mload(0x40), 0x20))\n        /* \"@openzeppelin/contracts@5.0.2/utils/cryptography/ECDSA.sol\":6440:6481  address signer = ecrecover(hash, v, r, s) */\n      swap1\n      pop\n        /* \"@openzeppelin/contracts@5.0.2/utils/cryptography/ECDSA.sol\":6513:6514  0 */\n      0x00\n        /* \"@openzeppelin/contracts@5.0.2/utils/cryptography/ECDSA.sol\":6495:6515  signer == address(0) */\n      0xffffffffffffffffffffffffffffffffffffffff\n      and\n        /* \"@openzeppelin/contracts@5.0.2/utils/cryptography/ECDSA.sol\":6495:6501  signer */\n      dup2\n        /* \"@openzeppelin/contracts@5.0.2/utils/cryptography/ECDSA.sol\":6495:6515  signer == address(0) */\n      0xffffffffffffffffffffffffffffffffffffffff\n      and\n      sub\n        /* \"@openzeppelin/contracts@5.0.2/utils/cryptography/ECDSA.sol\":6491:6604  if (signer == address(0)) {... */\n      tag_272\n      jumpi\n        /* \"@openzeppelin/contracts@5.0.2/utils/cryptography/ECDSA.sol\":6547:6548  0 */\n      0x00\n        /* \"@openzeppelin/contracts@5.0.2/utils/cryptography/ECDSA.sol\":6551:6580  RecoverError.InvalidSignature */\n      0x01\n        /* \"@openzeppelin/contracts@5.0.2/utils/cryptography/ECDSA.sol\":6590:6591  0 */\n      0x00\n        /* \"@openzeppelin/contracts@5.0.2/utils/cryptography/ECDSA.sol\":6582:6592  bytes32(0) */\n      dup1\n      shl\n        /* \"@openzeppelin/contracts@5.0.2/utils/cryptography/ECDSA.sol\":6531:6593  return (address(0), RecoverError.InvalidSignature, bytes32(0)) */\n      swap4\n      pop\n      swap4\n      pop\n      swap4\n      pop\n      pop\n      jump(tag_266)\n        /* \"@openzeppelin/contracts@5.0.2/utils/cryptography/ECDSA.sol\":6491:6604  if (signer == address(0)) {... */\n    tag_272:\n        /* \"@openzeppelin/contracts@5.0.2/utils/cryptography/ECDSA.sol\":6622:6628  signer */\n      dup1\n        /* \"@openzeppelin/contracts@5.0.2/utils/cryptography/ECDSA.sol\":6630:6650  RecoverError.NoError */\n      0x00\n        /* \"@openzeppelin/contracts@5.0.2/utils/cryptography/ECDSA.sol\":6660:6661  0 */\n      dup1\n        /* \"@openzeppelin/contracts@5.0.2/utils/cryptography/ECDSA.sol\":6652:6662  bytes32(0) */\n      0x00\n      shl\n        /* \"@openzeppelin/contracts@5.0.2/utils/cryptography/ECDSA.sol\":6614:6663  return (signer, RecoverError.NoError, bytes32(0)) */\n      swap4\n      pop\n      swap4\n      pop\n      swap4\n      pop\n      pop\n        /* \"@openzeppelin/contracts@5.0.2/utils/cryptography/ECDSA.sol\":5140:6670  function tryRecover(... */\n    tag_266:\n      swap5\n      pop\n      swap5\n      pop\n      swap5\n      swap2\n      pop\n      pop\n      jump\t// out\n        /* \"@openzeppelin/contracts@5.0.2/utils/cryptography/ECDSA.sol\":7196:7728  function _throwError(RecoverError error, bytes32 errorArg) private pure {... */\n    tag_234:\n        /* \"@openzeppelin/contracts@5.0.2/utils/cryptography/ECDSA.sol\":7291:7311  RecoverError.NoError */\n      0x00\n        /* \"@openzeppelin/contracts@5.0.2/utils/cryptography/ECDSA.sol\":7282:7311  error == RecoverError.NoError */\n      0x03\n      dup2\n      gt\n      iszero\n      tag_274\n      jumpi\n      tag_275\n      tag_276\n      jump\t// in\n    tag_275:\n    tag_274:\n        /* \"@openzeppelin/contracts@5.0.2/utils/cryptography/ECDSA.sol\":7282:7287  error */\n      dup3\n        /* \"@openzeppelin/contracts@5.0.2/utils/cryptography/ECDSA.sol\":7282:7311  error == RecoverError.NoError */\n      0x03\n      dup2\n      gt\n      iszero\n      tag_277\n      jumpi\n      tag_278\n      tag_276\n      jump\t// in\n    tag_278:\n    tag_277:\n      sub\n        /* \"@openzeppelin/contracts@5.0.2/utils/cryptography/ECDSA.sol\":7278:7722  if (error == RecoverError.NoError) {... */\n      iszero\n        /* \"@openzeppelin/contracts@5.0.2/utils/cryptography/ECDSA.sol\":7327:7334  return; */\n      tag_273\n        /* \"@openzeppelin/contracts@5.0.2/utils/cryptography/ECDSA.sol\":7278:7722  if (error == RecoverError.NoError) {... */\n      jumpi\n        /* \"@openzeppelin/contracts@5.0.2/utils/cryptography/ECDSA.sol\":7387:7416  RecoverError.InvalidSignature */\n      0x01\n        /* \"@openzeppelin/contracts@5.0.2/utils/cryptography/ECDSA.sol\":7378:7416  error == RecoverError.InvalidSignature */\n      0x03\n      dup2\n      gt\n      iszero\n      tag_281\n      jumpi\n      tag_282\n      tag_276\n      jump\t// in\n    tag_282:\n    tag_281:\n        /* \"@openzeppelin/contracts@5.0.2/utils/cryptography/ECDSA.sol\":7378:7383  error */\n      dup3\n        /* \"@openzeppelin/contracts@5.0.2/utils/cryptography/ECDSA.sol\":7378:7416  error == RecoverError.InvalidSignature */\n      0x03\n      dup2\n      gt\n      iszero\n      tag_283\n      jumpi\n      tag_284\n      tag_276\n      jump\t// in\n    tag_284:\n    tag_283:\n      sub\n        /* \"@openzeppelin/contracts@5.0.2/utils/cryptography/ECDSA.sol\":7374:7722  if (error == RecoverError.InvalidSignature) {... */\n      tag_285\n      jumpi\n        /* \"@openzeppelin/contracts@5.0.2/utils/cryptography/ECDSA.sol\":7439:7462  ECDSAInvalidSignature() */\n      mload(0x40)\n      0xf645eedf00000000000000000000000000000000000000000000000000000000\n      dup2\n      mstore\n      0x04\n      add\n      mload(0x40)\n      dup1\n      swap2\n      sub\n      swap1\n      revert\n        /* \"@openzeppelin/contracts@5.0.2/utils/cryptography/ECDSA.sol\":7374:7722  if (error == RecoverError.InvalidSignature) {... */\n    tag_285:\n        /* \"@openzeppelin/contracts@5.0.2/utils/cryptography/ECDSA.sol\":7492:7527  RecoverError.InvalidSignatureLength */\n      0x02\n        /* \"@openzeppelin/contracts@5.0.2/utils/cryptography/ECDSA.sol\":7483:7527  error == RecoverError.InvalidSignatureLength */\n      0x03\n      dup2\n      gt\n      iszero\n      tag_287\n      jumpi\n      tag_288\n      tag_276\n      jump\t// in\n    tag_288:\n    tag_287:\n        /* \"@openzeppelin/contracts@5.0.2/utils/cryptography/ECDSA.sol\":7483:7488  error */\n      dup3\n        /* \"@openzeppelin/contracts@5.0.2/utils/cryptography/ECDSA.sol\":7483:7527  error == RecoverError.InvalidSignatureLength */\n      0x03\n      dup2\n      gt\n      iszero\n      tag_289\n      jumpi\n      tag_290\n      tag_276\n      jump\t// in\n    tag_290:\n    tag_289:\n      sub\n        /* \"@openzeppelin/contracts@5.0.2/utils/cryptography/ECDSA.sol\":7479:7722  if (error == RecoverError.InvalidSignatureLength) {... */\n      tag_291\n      jumpi\n        /* \"@openzeppelin/contracts@5.0.2/utils/cryptography/ECDSA.sol\":7586:7594  errorArg */\n      dup1\n        /* \"@openzeppelin/contracts@5.0.2/utils/cryptography/ECDSA.sol\":7578:7595  uint256(errorArg) */\n      0x00\n      shr\n        /* \"@openzeppelin/contracts@5.0.2/utils/cryptography/ECDSA.sol\":7550:7596  ECDSAInvalidSignatureLength(uint256(errorArg)) */\n      mload(0x40)\n      0xfce698f700000000000000000000000000000000000000000000000000000000\n      dup2\n      mstore\n      0x04\n      add\n      tag_292\n      swap2\n      swap1\n      tag_37\n      jump\t// in\n    tag_292:\n      mload(0x40)\n      dup1\n      swap2\n      sub\n      swap1\n      revert\n        /* \"@openzeppelin/contracts@5.0.2/utils/cryptography/ECDSA.sol\":7479:7722  if (error == RecoverError.InvalidSignatureLength) {... */\n    tag_291:\n        /* \"@openzeppelin/contracts@5.0.2/utils/cryptography/ECDSA.sol\":7626:7656  RecoverError.InvalidSignatureS */\n      0x03\n        /* \"@openzeppelin/contracts@5.0.2/utils/cryptography/ECDSA.sol\":7617:7656  error == RecoverError.InvalidSignatureS */\n      dup1\n      dup2\n      gt\n      iszero\n      tag_294\n      jumpi\n      tag_295\n      tag_276\n      jump\t// in\n    tag_295:\n    tag_294:\n        /* \"@openzeppelin/contracts@5.0.2/utils/cryptography/ECDSA.sol\":7617:7622  error */\n      dup3\n        /* \"@openzeppelin/contracts@5.0.2/utils/cryptography/ECDSA.sol\":7617:7656  error == RecoverError.InvalidSignatureS */\n      0x03\n      dup2\n      gt\n      iszero\n      tag_296\n      jumpi\n      tag_297\n      tag_276\n      jump\t// in\n    tag_297:\n    tag_296:\n      sub\n        /* \"@openzeppelin/contracts@5.0.2/utils/cryptography/ECDSA.sol\":7613:7722  if (error == RecoverError.InvalidSignatureS) {... */\n      tag_298\n      jumpi\n        /* \"@openzeppelin/contracts@5.0.2/utils/cryptography/ECDSA.sol\":7702:7710  errorArg */\n      dup1\n        /* \"@openzeppelin/contracts@5.0.2/utils/cryptography/ECDSA.sol\":7679:7711  ECDSAInvalidSignatureS(errorArg) */\n      mload(0x40)\n      0xd78bce0c00000000000000000000000000000000000000000000000000000000\n      dup2\n      mstore\n      0x04\n      add\n      tag_299\n      swap2\n      swap1\n      tag_50\n      jump\t// in\n    tag_299:\n      mload(0x40)\n      dup1\n      swap2\n      sub\n      swap1\n      revert\n        /* \"@openzeppelin/contracts@5.0.2/utils/cryptography/ECDSA.sol\":7613:7722  if (error == RecoverError.InvalidSignatureS) {... */\n    tag_298:\n        /* \"@openzeppelin/contracts@5.0.2/utils/cryptography/ECDSA.sol\":7196:7728  function _throwError(RecoverError error, bytes32 errorArg) private pure {... */\n    tag_273:\n      pop\n      pop\n      jump\t// out\n        /* \"@openzeppelin/contracts@5.0.2/utils/ShortStrings.sol\":2078:2483  function toString(ShortString sstr) internal pure returns (string memory) {... */\n    tag_258:\n        /* \"@openzeppelin/contracts@5.0.2/utils/ShortStrings.sol\":2137:2150  string memory */\n      0x60\n        /* \"@openzeppelin/contracts@5.0.2/utils/ShortStrings.sol\":2162:2173  uint256 len */\n      0x00\n        /* \"@openzeppelin/contracts@5.0.2/utils/ShortStrings.sol\":2176:2192  byteLength(sstr) */\n      tag_301\n        /* \"@openzeppelin/contracts@5.0.2/utils/ShortStrings.sol\":2187:2191  sstr */\n      dup4\n        /* \"@openzeppelin/contracts@5.0.2/utils/ShortStrings.sol\":2176:2186  byteLength */\n      tag_302\n        /* \"@openzeppelin/contracts@5.0.2/utils/ShortStrings.sol\":2176:2192  byteLength(sstr) */\n      jump\t// in\n    tag_301:\n        /* \"@openzeppelin/contracts@5.0.2/utils/ShortStrings.sol\":2162:2192  uint256 len = byteLength(sstr) */\n      swap1\n      pop\n        /* \"@openzeppelin/contracts@5.0.2/utils/ShortStrings.sol\":2280:2297  string memory str */\n      0x00\n        /* \"@openzeppelin/contracts@5.0.2/utils/ShortStrings.sol\":2311:2313  32 */\n      0x20\n        /* \"@openzeppelin/contracts@5.0.2/utils/ShortStrings.sol\":2300:2314  new string(32) */\n      0xffffffffffffffff\n      dup2\n      gt\n      iszero\n      tag_303\n      jumpi\n      tag_304\n      tag_147\n      jump\t// in\n    tag_304:\n    tag_303:\n      mload(0x40)\n      swap1\n      dup1\n      dup3\n      mstore\n      dup1\n      0x1f\n      add\n      not(0x1f)\n      and\n      0x20\n      add\n      dup3\n      add\n      0x40\n      mstore\n      dup1\n      iszero\n      tag_305\n      jumpi\n      dup2\n      0x20\n      add\n      0x01\n      dup3\n      mul\n      dup1\n      calldatasize\n      dup4\n      calldatacopy\n      dup1\n      dup3\n      add\n      swap2\n      pop\n      pop\n      swap1\n      pop\n    tag_305:\n      pop\n        /* \"@openzeppelin/contracts@5.0.2/utils/ShortStrings.sol\":2280:2314  string memory str = new string(32) */\n      swap1\n      pop\n        /* \"@openzeppelin/contracts@5.0.2/utils/ShortStrings.sol\":2402:2405  len */\n      dup2\n        /* \"@openzeppelin/contracts@5.0.2/utils/ShortStrings.sol\":2397:2400  str */\n      dup2\n        /* \"@openzeppelin/contracts@5.0.2/utils/ShortStrings.sol\":2390:2406  mstore(str, len) */\n      mstore\n        /* \"@openzeppelin/contracts@5.0.2/utils/ShortStrings.sol\":2442:2446  sstr */\n      dup4\n        /* \"@openzeppelin/contracts@5.0.2/utils/ShortStrings.sol\":2435:2439  0x20 */\n      0x20\n        /* \"@openzeppelin/contracts@5.0.2/utils/ShortStrings.sol\":2430:2433  str */\n      dup3\n        /* \"@openzeppelin/contracts@5.0.2/utils/ShortStrings.sol\":2426:2440  add(str, 0x20) */\n      add\n        /* \"@openzeppelin/contracts@5.0.2/utils/ShortStrings.sol\":2419:2447  mstore(add(str, 0x20), sstr) */\n      mstore\n        /* \"@openzeppelin/contracts@5.0.2/utils/ShortStrings.sol\":2473:2476  str */\n      dup1\n        /* \"@openzeppelin/contracts@5.0.2/utils/ShortStrings.sol\":2466:2476  return str */\n      swap3\n      pop\n      pop\n      pop\n        /* \"@openzeppelin/contracts@5.0.2/utils/ShortStrings.sol\":2078:2483  function toString(ShortString sstr) internal pure returns (string memory) {... */\n      swap2\n      swap1\n      pop\n      jump\t// out\n        /* \"@openzeppelin/contracts@5.0.2/utils/ShortStrings.sol\":2555:2800  function byteLength(ShortString sstr) internal pure returns (uint256) {... */\n    tag_302:\n        /* \"@openzeppelin/contracts@5.0.2/utils/ShortStrings.sol\":2616:2623  uint256 */\n      0x00\n        /* \"@openzeppelin/contracts@5.0.2/utils/ShortStrings.sol\":2635:2649  uint256 result */\n      dup1\n        /* \"@openzeppelin/contracts@5.0.2/utils/ShortStrings.sol\":2688:2692  0xFF */\n      0xff\n        /* \"@openzeppelin/contracts@5.0.2/utils/ShortStrings.sol\":2679:2683  sstr */\n      dup4\n        /* \"@openzeppelin/contracts@5.0.2/utils/ShortStrings.sol\":2652:2685  uint256(ShortString.unwrap(sstr)) */\n      0x00\n      shr\n        /* \"@openzeppelin/contracts@5.0.2/utils/ShortStrings.sol\":2652:2692  uint256(ShortString.unwrap(sstr)) & 0xFF */\n      and\n        /* \"@openzeppelin/contracts@5.0.2/utils/ShortStrings.sol\":2635:2692  uint256 result = uint256(ShortString.unwrap(sstr)) & 0xFF */\n      swap1\n      pop\n        /* \"@openzeppelin/contracts@5.0.2/utils/ShortStrings.sol\":2715:2717  31 */\n      0x1f\n        /* \"@openzeppelin/contracts@5.0.2/utils/ShortStrings.sol\":2706:2712  result */\n      dup2\n        /* \"@openzeppelin/contracts@5.0.2/utils/ShortStrings.sol\":2706:2717  result > 31 */\n      gt\n        /* \"@openzeppelin/contracts@5.0.2/utils/ShortStrings.sol\":2702:2771  if (result > 31) {... */\n      iszero\n      tag_307\n      jumpi\n        /* \"@openzeppelin/contracts@5.0.2/utils/ShortStrings.sol\":2740:2760  InvalidShortString() */\n      mload(0x40)\n      0xb3512b0c00000000000000000000000000000000000000000000000000000000\n      dup2\n      mstore\n      0x04\n      add\n      mload(0x40)\n      dup1\n      swap2\n      sub\n      swap1\n      revert\n        /* \"@openzeppelin/contracts@5.0.2/utils/ShortStrings.sol\":2702:2771  if (result > 31) {... */\n    tag_307:\n        /* \"@openzeppelin/contracts@5.0.2/utils/ShortStrings.sol\":2787:2793  result */\n      dup1\n        /* \"@openzeppelin/contracts@5.0.2/utils/ShortStrings.sol\":2780:2793  return result */\n      swap2\n      pop\n      pop\n        /* \"@openzeppelin/contracts@5.0.2/utils/ShortStrings.sol\":2555:2800  function byteLength(ShortString sstr) internal pure returns (uint256) {... */\n      swap2\n      swap1\n      pop\n      jump\t// out\n        /* \"#utility.yul\":7:106   */\n    tag_308:\n        /* \"#utility.yul\":59:65   */\n      0x00\n        /* \"#utility.yul\":93:98   */\n      dup2\n        /* \"#utility.yul\":87:99   */\n      mload\n        /* \"#utility.yul\":77:99   */\n      swap1\n      pop\n        /* \"#utility.yul\":7:106   */\n      swap2\n      swap1\n      pop\n      jump\t// out\n        /* \"#utility.yul\":112:281   */\n    tag_309:\n        /* \"#utility.yul\":196:207   */\n      0x00\n        /* \"#utility.yul\":230:236   */\n      dup3\n        /* \"#utility.yul\":225:228   */\n      dup3\n        /* \"#utility.yul\":218:237   */\n      mstore\n        /* \"#utility.yul\":270:274   */\n      0x20\n        /* \"#utility.yul\":265:268   */\n      dup3\n        /* \"#utility.yul\":261:275   */\n      add\n        /* \"#utility.yul\":246:275   */\n      swap1\n      pop\n        /* \"#utility.yul\":112:281   */\n      swap3\n      swap2\n      pop\n      pop\n      jump\t// out\n        /* \"#utility.yul\":287:533   */\n    tag_310:\n        /* \"#utility.yul\":368:369   */\n      0x00\n        /* \"#utility.yul\":378:491   */\n    tag_353:\n        /* \"#utility.yul\":392:398   */\n      dup4\n        /* \"#utility.yul\":389:390   */\n      dup2\n        /* \"#utility.yul\":386:399   */\n      lt\n        /* \"#utility.yul\":378:491   */\n      iszero\n      tag_355\n      jumpi\n        /* \"#utility.yul\":477:478   */\n      dup1\n        /* \"#utility.yul\":472:475   */\n      dup3\n        /* \"#utility.yul\":468:479   */\n      add\n        /* \"#utility.yul\":462:480   */\n      mload\n        /* \"#utility.yul\":458:459   */\n      dup2\n        /* \"#utility.yul\":453:456   */\n      dup5\n        /* \"#utility.yul\":449:460   */\n      add\n        /* \"#utility.yul\":442:481   */\n      mstore\n        /* \"#utility.yul\":414:416   */\n      0x20\n        /* \"#utility.yul\":411:412   */\n      dup2\n        /* \"#utility.yul\":407:417   */\n      add\n        /* \"#utility.yul\":402:417   */\n      swap1\n      pop\n        /* \"#utility.yul\":378:491   */\n      jump(tag_353)\n    tag_355:\n        /* \"#utility.yul\":525:526   */\n      0x00\n        /* \"#utility.yul\":516:522   */\n      dup5\n        /* \"#utility.yul\":511:514   */\n      dup5\n        /* \"#utility.yul\":507:523   */\n      add\n        /* \"#utility.yul\":500:527   */\n      mstore\n        /* \"#utility.yul\":349:533   */\n      pop\n        /* \"#utility.yul\":287:533   */\n      pop\n      pop\n      pop\n      jump\t// out\n        /* \"#utility.yul\":539:641   */\n    tag_311:\n        /* \"#utility.yul\":580:586   */\n      0x00\n        /* \"#utility.yul\":631:633   */\n      0x1f\n        /* \"#utility.yul\":627:634   */\n      not\n        /* \"#utility.yul\":622:624   */\n      0x1f\n        /* \"#utility.yul\":615:620   */\n      dup4\n        /* \"#utility.yul\":611:625   */\n      add\n        /* \"#utility.yul\":607:635   */\n      and\n        /* \"#utility.yul\":597:635   */\n      swap1\n      pop\n        /* \"#utility.yul\":539:641   */\n      swap2\n      swap1\n      pop\n      jump\t// out\n        /* \"#utility.yul\":647:1024   */\n    tag_312:\n        /* \"#utility.yul\":735:738   */\n      0x00\n        /* \"#utility.yul\":763:802   */\n      tag_358\n        /* \"#utility.yul\":796:801   */\n      dup3\n        /* \"#utility.yul\":763:802   */\n      tag_308\n      jump\t// in\n    tag_358:\n        /* \"#utility.yul\":818:889   */\n      tag_359\n        /* \"#utility.yul\":882:888   */\n      dup2\n        /* \"#utility.yul\":877:880   */\n      dup6\n        /* \"#utility.yul\":818:889   */\n      tag_309\n      jump\t// in\n    tag_359:\n        /* \"#utility.yul\":811:889   */\n      swap4\n      pop\n        /* \"#utility.yul\":898:963   */\n      tag_360\n        /* \"#utility.yul\":956:962   */\n      dup2\n        /* \"#utility.yul\":951:954   */\n      dup6\n        /* \"#utility.yul\":944:948   */\n      0x20\n        /* \"#utility.yul\":937:942   */\n      dup7\n        /* \"#utility.yul\":933:949   */\n      add\n        /* \"#utility.yul\":898:963   */\n      tag_310\n      jump\t// in\n    tag_360:\n        /* \"#utility.yul\":988:1017   */\n      tag_361\n        /* \"#utility.yul\":1010:1016   */\n      dup2\n        /* \"#utility.yul\":988:1017   */\n      tag_311\n      jump\t// in\n    tag_361:\n        /* \"#utility.yul\":983:986   */\n      dup5\n        /* \"#utility.yul\":979:1018   */\n      add\n        /* \"#utility.yul\":972:1018   */\n      swap2\n      pop\n        /* \"#utility.yul\":739:1024   */\n      pop\n        /* \"#utility.yul\":647:1024   */\n      swap3\n      swap2\n      pop\n      pop\n      jump\t// out\n        /* \"#utility.yul\":1030:1343   */\n    tag_27:\n        /* \"#utility.yul\":1143:1147   */\n      0x00\n        /* \"#utility.yul\":1181:1183   */\n      0x20\n        /* \"#utility.yul\":1170:1179   */\n      dup3\n        /* \"#utility.yul\":1166:1184   */\n      add\n        /* \"#utility.yul\":1158:1184   */\n      swap1\n      pop\n        /* \"#utility.yul\":1230:1239   */\n      dup2\n        /* \"#utility.yul\":1224:1228   */\n      dup2\n        /* \"#utility.yul\":1220:1240   */\n      sub\n        /* \"#utility.yul\":1216:1217   */\n      0x00\n        /* \"#utility.yul\":1205:1214   */\n      dup4\n        /* \"#utility.yul\":1201:1218   */\n      add\n        /* \"#utility.yul\":1194:1241   */\n      mstore\n        /* \"#utility.yul\":1258:1336   */\n      tag_363\n        /* \"#utility.yul\":1331:1335   */\n      dup2\n        /* \"#utility.yul\":1322:1328   */\n      dup5\n        /* \"#utility.yul\":1258:1336   */\n      tag_312\n      jump\t// in\n    tag_363:\n        /* \"#utility.yul\":1250:1336   */\n      swap1\n      pop\n        /* \"#utility.yul\":1030:1343   */\n      swap3\n      swap2\n      pop\n      pop\n      jump\t// out\n        /* \"#utility.yul\":1430:1547   */\n    tag_314:\n        /* \"#utility.yul\":1539:1540   */\n      0x00\n        /* \"#utility.yul\":1536:1537   */\n      dup1\n        /* \"#utility.yul\":1529:1541   */\n      revert\n        /* \"#utility.yul\":1676:1802   */\n    tag_316:\n        /* \"#utility.yul\":1713:1720   */\n      0x00\n        /* \"#utility.yul\":1753:1795   */\n      0xffffffffffffffffffffffffffffffffffffffff\n        /* \"#utility.yul\":1746:1751   */\n      dup3\n        /* \"#utility.yul\":1742:1796   */\n      and\n        /* \"#utility.yul\":1731:1796   */\n      swap1\n      pop\n        /* \"#utility.yul\":1676:1802   */\n      swap2\n      swap1\n      pop\n      jump\t// out\n        /* \"#utility.yul\":1808:1904   */\n    tag_317:\n        /* \"#utility.yul\":1845:1852   */\n      0x00\n        /* \"#utility.yul\":1874:1898   */\n      tag_369\n        /* \"#utility.yul\":1892:1897   */\n      dup3\n        /* \"#utility.yul\":1874:1898   */\n      tag_316\n      jump\t// in\n    tag_369:\n        /* \"#utility.yul\":1863:1898   */\n      swap1\n      pop\n        /* \"#utility.yul\":1808:1904   */\n      swap2\n      swap1\n      pop\n      jump\t// out\n        /* \"#utility.yul\":1910:2032   */\n    tag_318:\n        /* \"#utility.yul\":1983:2007   */\n      tag_371\n        /* \"#utility.yul\":2001:2006   */\n      dup2\n        /* \"#utility.yul\":1983:2007   */\n      tag_317\n      jump\t// in\n    tag_371:\n        /* \"#utility.yul\":1976:1981   */\n      dup2\n        /* \"#utility.yul\":1973:2008   */\n      eq\n        /* \"#utility.yul\":1963:2026   */\n      tag_372\n      jumpi\n        /* \"#utility.yul\":2022:2023   */\n      0x00\n        /* \"#utility.yul\":2019:2020   */\n      dup1\n        /* \"#utility.yul\":2012:2024   */\n      revert\n        /* \"#utility.yul\":1963:2026   */\n    tag_372:\n        /* \"#utility.yul\":1910:2032   */\n      pop\n      jump\t// out\n        /* \"#utility.yul\":2038:2177   */\n    tag_319:\n        /* \"#utility.yul\":2084:2089   */\n      0x00\n        /* \"#utility.yul\":2122:2128   */\n      dup2\n        /* \"#utility.yul\":2109:2129   */\n      calldataload\n        /* \"#utility.yul\":2100:2129   */\n      swap1\n      pop\n        /* \"#utility.yul\":2138:2171   */\n      tag_374\n        /* \"#utility.yul\":2165:2170   */\n      dup2\n        /* \"#utility.yul\":2138:2171   */\n      tag_318\n      jump\t// in\n    tag_374:\n        /* \"#utility.yul\":2038:2177   */\n      swap3\n      swap2\n      pop\n      pop\n      jump\t// out\n        /* \"#utility.yul\":2183:2260   */\n    tag_320:\n        /* \"#utility.yul\":2220:2227   */\n      0x00\n        /* \"#utility.yul\":2249:2254   */\n      dup2\n        /* \"#utility.yul\":2238:2254   */\n      swap1\n      pop\n        /* \"#utility.yul\":2183:2260   */\n      swap2\n      swap1\n      pop\n      jump\t// out\n        /* \"#utility.yul\":2266:2388   */\n    tag_321:\n        /* \"#utility.yul\":2339:2363   */\n      tag_377\n        /* \"#utility.yul\":2357:2362   */\n      dup2\n        /* \"#utility.yul\":2339:2363   */\n      tag_320\n      jump\t// in\n    tag_377:\n        /* \"#utility.yul\":2332:2337   */\n      dup2\n        /* \"#utility.yul\":2329:2364   */\n      eq\n        /* \"#utility.yul\":2319:2382   */\n      tag_378\n      jumpi\n        /* \"#utility.yul\":2378:2379   */\n      0x00\n        /* \"#utility.yul\":2375:2376   */\n      dup1\n        /* \"#utility.yul\":2368:2380   */\n      revert\n        /* \"#utility.yul\":2319:2382   */\n    tag_378:\n        /* \"#utility.yul\":2266:2388   */\n      pop\n      jump\t// out\n        /* \"#utility.yul\":2394:2533   */\n    tag_322:\n        /* \"#utility.yul\":2440:2445   */\n      0x00\n        /* \"#utility.yul\":2478:2484   */\n      dup2\n        /* \"#utility.yul\":2465:2485   */\n      calldataload\n        /* \"#utility.yul\":2456:2485   */\n      swap1\n      pop\n        /* \"#utility.yul\":2494:2527   */\n      tag_380\n        /* \"#utility.yul\":2521:2526   */\n      dup2\n        /* \"#utility.yul\":2494:2527   */\n      tag_321\n      jump\t// in\n    tag_380:\n        /* \"#utility.yul\":2394:2533   */\n      swap3\n      swap2\n      pop\n      pop\n      jump\t// out\n        /* \"#utility.yul\":2539:3013   */\n    tag_30:\n        /* \"#utility.yul\":2607:2613   */\n      0x00\n        /* \"#utility.yul\":2615:2621   */\n      dup1\n        /* \"#utility.yul\":2664:2666   */\n      0x40\n        /* \"#utility.yul\":2652:2661   */\n      dup4\n        /* \"#utility.yul\":2643:2650   */\n      dup6\n        /* \"#utility.yul\":2639:2662   */\n      sub\n        /* \"#utility.yul\":2635:2667   */\n      slt\n        /* \"#utility.yul\":2632:2751   */\n      iszero\n      tag_382\n      jumpi\n        /* \"#utility.yul\":2670:2749   */\n      tag_383\n      tag_314\n      jump\t// in\n    tag_383:\n        /* \"#utility.yul\":2632:2751   */\n    tag_382:\n        /* \"#utility.yul\":2790:2791   */\n      0x00\n        /* \"#utility.yul\":2815:2868   */\n      tag_384\n        /* \"#utility.yul\":2860:2867   */\n      dup6\n        /* \"#utility.yul\":2851:2857   */\n      dup3\n        /* \"#utility.yul\":2840:2849   */\n      dup7\n        /* \"#utility.yul\":2836:2858   */\n      add\n        /* \"#utility.yul\":2815:2868   */\n      tag_319\n      jump\t// in\n    tag_384:\n        /* \"#utility.yul\":2805:2868   */\n      swap3\n      pop\n        /* \"#utility.yul\":2761:2878   */\n      pop\n        /* \"#utility.yul\":2917:2919   */\n      0x20\n        /* \"#utility.yul\":2943:2996   */\n      tag_385\n        /* \"#utility.yul\":2988:2995   */\n      dup6\n        /* \"#utility.yul\":2979:2985   */\n      dup3\n        /* \"#utility.yul\":2968:2977   */\n      dup7\n        /* \"#utility.yul\":2964:2986   */\n      add\n        /* \"#utility.yul\":2943:2996   */\n      tag_322\n      jump\t// in\n    tag_385:\n        /* \"#utility.yul\":2933:2996   */\n      swap2\n      pop\n        /* \"#utility.yul\":2888:3006   */\n      pop\n        /* \"#utility.yul\":2539:3013   */\n      swap3\n      pop\n      swap3\n      swap1\n      pop\n      jump\t// out\n        /* \"#utility.yul\":3019:3109   */\n    tag_323:\n        /* \"#utility.yul\":3053:3060   */\n      0x00\n        /* \"#utility.yul\":3096:3101   */\n      dup2\n        /* \"#utility.yul\":3089:3102   */\n      iszero\n        /* \"#utility.yul\":3082:3103   */\n      iszero\n        /* \"#utility.yul\":3071:3103   */\n      swap1\n      pop\n        /* \"#utility.yul\":3019:3109   */\n      swap2\n      swap1\n      pop\n      jump\t// out\n        /* \"#utility.yul\":3115:3224   */\n    tag_324:\n        /* \"#utility.yul\":3196:3217   */\n      tag_388\n        /* \"#utility.yul\":3211:3216   */\n      dup2\n        /* \"#utility.yul\":3196:3217   */\n      tag_323\n      jump\t// in\n    tag_388:\n        /* \"#utility.yul\":3191:3194   */\n      dup3\n        /* \"#utility.yul\":3184:3218   */\n      mstore\n        /* \"#utility.yul\":3115:3224   */\n      pop\n      pop\n      jump\t// out\n        /* \"#utility.yul\":3230:3440   */\n    tag_33:\n        /* \"#utility.yul\":3317:3321   */\n      0x00\n        /* \"#utility.yul\":3355:3357   */\n      0x20\n        /* \"#utility.yul\":3344:3353   */\n      dup3\n        /* \"#utility.yul\":3340:3358   */\n      add\n        /* \"#utility.yul\":3332:3358   */\n      swap1\n      pop\n        /* \"#utility.yul\":3368:3433   */\n      tag_390\n        /* \"#utility.yul\":3430:3431   */\n      0x00\n        /* \"#utility.yul\":3419:3428   */\n      dup4\n        /* \"#utility.yul\":3415:3432   */\n      add\n        /* \"#utility.yul\":3406:3412   */\n      dup5\n        /* \"#utility.yul\":3368:3433   */\n      tag_324\n      jump\t// in\n    tag_390:\n        /* \"#utility.yul\":3230:3440   */\n      swap3\n      swap2\n      pop\n      pop\n      jump\t// out\n        /* \"#utility.yul\":3446:3564   */\n    tag_325:\n        /* \"#utility.yul\":3533:3557   */\n      tag_392\n        /* \"#utility.yul\":3551:3556   */\n      dup2\n        /* \"#utility.yul\":3533:3557   */\n      tag_320\n      jump\t// in\n    tag_392:\n        /* \"#utility.yul\":3528:3531   */\n      dup3\n        /* \"#utility.yul\":3521:3558   */\n      mstore\n        /* \"#utility.yul\":3446:3564   */\n      pop\n      pop\n      jump\t// out\n        /* \"#utility.yul\":3570:3792   */\n    tag_37:\n        /* \"#utility.yul\":3663:3667   */\n      0x00\n        /* \"#utility.yul\":3701:3703   */\n      0x20\n        /* \"#utility.yul\":3690:3699   */\n      dup3\n        /* \"#utility.yul\":3686:3704   */\n      add\n        /* \"#utility.yul\":3678:3704   */\n      swap1\n      pop\n        /* \"#utility.yul\":3714:3785   */\n      tag_394\n        /* \"#utility.yul\":3782:3783   */\n      0x00\n        /* \"#utility.yul\":3771:3780   */\n      dup4\n        /* \"#utility.yul\":3767:3784   */\n      add\n        /* \"#utility.yul\":3758:3764   */\n      dup5\n        /* \"#utility.yul\":3714:3785   */\n      tag_325\n      jump\t// in\n    tag_394:\n        /* \"#utility.yul\":3570:3792   */\n      swap3\n      swap2\n      pop\n      pop\n      jump\t// out\n        /* \"#utility.yul\":3798:4417   */\n    tag_40:\n        /* \"#utility.yul\":3875:3881   */\n      0x00\n        /* \"#utility.yul\":3883:3889   */\n      dup1\n        /* \"#utility.yul\":3891:3897   */\n      0x00\n        /* \"#utility.yul\":3940:3942   */\n      0x60\n        /* \"#utility.yul\":3928:3937   */\n      dup5\n        /* \"#utility.yul\":3919:3926   */\n      dup7\n        /* \"#utility.yul\":3915:3938   */\n      sub\n        /* \"#utility.yul\":3911:3943   */\n      slt\n        /* \"#utility.yul\":3908:4027   */\n      iszero\n      tag_396\n      jumpi\n        /* \"#utility.yul\":3946:4025   */\n      tag_397\n      tag_314\n      jump\t// in\n    tag_397:\n        /* \"#utility.yul\":3908:4027   */\n    tag_396:\n        /* \"#utility.yul\":4066:4067   */\n      0x00\n        /* \"#utility.yul\":4091:4144   */\n      tag_398\n        /* \"#utility.yul\":4136:4143   */\n      dup7\n        /* \"#utility.yul\":4127:4133   */\n      dup3\n        /* \"#utility.yul\":4116:4125   */\n      dup8\n        /* \"#utility.yul\":4112:4134   */\n      add\n        /* \"#utility.yul\":4091:4144   */\n      tag_319\n      jump\t// in\n    tag_398:\n        /* \"#utility.yul\":4081:4144   */\n      swap4\n      pop\n        /* \"#utility.yul\":4037:4154   */\n      pop\n        /* \"#utility.yul\":4193:4195   */\n      0x20\n        /* \"#utility.yul\":4219:4272   */\n      tag_399\n        /* \"#utility.yul\":4264:4271   */\n      dup7\n        /* \"#utility.yul\":4255:4261   */\n      dup3\n        /* \"#utility.yul\":4244:4253   */\n      dup8\n        /* \"#utility.yul\":4240:4262   */\n      add\n        /* \"#utility.yul\":4219:4272   */\n      tag_319\n      jump\t// in\n    tag_399:\n        /* \"#utility.yul\":4209:4272   */\n      swap3\n      pop\n        /* \"#utility.yul\":4164:4282   */\n      pop\n        /* \"#utility.yul\":4321:4323   */\n      0x40\n        /* \"#utility.yul\":4347:4400   */\n      tag_400\n        /* \"#utility.yul\":4392:4399   */\n      dup7\n        /* \"#utility.yul\":4383:4389   */\n      dup3\n        /* \"#utility.yul\":4372:4381   */\n      dup8\n        /* \"#utility.yul\":4368:4390   */\n      add\n        /* \"#utility.yul\":4347:4400   */\n      tag_322\n      jump\t// in\n    tag_400:\n        /* \"#utility.yul\":4337:4400   */\n      swap2\n      pop\n        /* \"#utility.yul\":4292:4410   */\n      pop\n        /* \"#utility.yul\":3798:4417   */\n      swap3\n      pop\n      swap3\n      pop\n      swap3\n      jump\t// out\n        /* \"#utility.yul\":4423:4509   */\n    tag_326:\n        /* \"#utility.yul\":4458:4465   */\n      0x00\n        /* \"#utility.yul\":4498:4502   */\n      0xff\n        /* \"#utility.yul\":4491:4496   */\n      dup3\n        /* \"#utility.yul\":4487:4503   */\n      and\n        /* \"#utility.yul\":4476:4503   */\n      swap1\n      pop\n        /* \"#utility.yul\":4423:4509   */\n      swap2\n      swap1\n      pop\n      jump\t// out\n        /* \"#utility.yul\":4515:4627   */\n    tag_327:\n        /* \"#utility.yul\":4598:4620   */\n      tag_403\n        /* \"#utility.yul\":4614:4619   */\n      dup2\n        /* \"#utility.yul\":4598:4620   */\n      tag_326\n      jump\t// in\n    tag_403:\n        /* \"#utility.yul\":4593:4596   */\n      dup3\n        /* \"#utility.yul\":4586:4621   */\n      mstore\n        /* \"#utility.yul\":4515:4627   */\n      pop\n      pop\n      jump\t// out\n        /* \"#utility.yul\":4633:4847   */\n    tag_46:\n        /* \"#utility.yul\":4722:4726   */\n      0x00\n        /* \"#utility.yul\":4760:4762   */\n      0x20\n        /* \"#utility.yul\":4749:4758   */\n      dup3\n        /* \"#utility.yul\":4745:4763   */\n      add\n        /* \"#utility.yul\":4737:4763   */\n      swap1\n      pop\n        /* \"#utility.yul\":4773:4840   */\n      tag_405\n        /* \"#utility.yul\":4837:4838   */\n      0x00\n        /* \"#utility.yul\":4826:4835   */\n      dup4\n        /* \"#utility.yul\":4822:4839   */\n      add\n        /* \"#utility.yul\":4813:4819   */\n      dup5\n        /* \"#utility.yul\":4773:4840   */\n      tag_327\n      jump\t// in\n    tag_405:\n        /* \"#utility.yul\":4633:4847   */\n      swap3\n      swap2\n      pop\n      pop\n      jump\t// out\n        /* \"#utility.yul\":4853:4930   */\n    tag_328:\n        /* \"#utility.yul\":4890:4897   */\n      0x00\n        /* \"#utility.yul\":4919:4924   */\n      dup2\n        /* \"#utility.yul\":4908:4924   */\n      swap1\n      pop\n        /* \"#utility.yul\":4853:4930   */\n      swap2\n      swap1\n      pop\n      jump\t// out\n        /* \"#utility.yul\":4936:5054   */\n    tag_329:\n        /* \"#utility.yul\":5023:5047   */\n      tag_408\n        /* \"#utility.yul\":5041:5046   */\n      dup2\n        /* \"#utility.yul\":5023:5047   */\n      tag_328\n      jump\t// in\n    tag_408:\n        /* \"#utility.yul\":5018:5021   */\n      dup3\n        /* \"#utility.yul\":5011:5048   */\n      mstore\n        /* \"#utility.yul\":4936:5054   */\n      pop\n      pop\n      jump\t// out\n        /* \"#utility.yul\":5060:5282   */\n    tag_50:\n        /* \"#utility.yul\":5153:5157   */\n      0x00\n        /* \"#utility.yul\":5191:5193   */\n      0x20\n        /* \"#utility.yul\":5180:5189   */\n      dup3\n        /* \"#utility.yul\":5176:5194   */\n      add\n        /* \"#utility.yul\":5168:5194   */\n      swap1\n      pop\n        /* \"#utility.yul\":5204:5275   */\n      tag_410\n        /* \"#utility.yul\":5272:5273   */\n      0x00\n        /* \"#utility.yul\":5261:5270   */\n      dup4\n        /* \"#utility.yul\":5257:5274   */\n      add\n        /* \"#utility.yul\":5248:5254   */\n      dup5\n        /* \"#utility.yul\":5204:5275   */\n      tag_329\n      jump\t// in\n    tag_410:\n        /* \"#utility.yul\":5060:5282   */\n      swap3\n      swap2\n      pop\n      pop\n      jump\t// out\n        /* \"#utility.yul\":5288:5617   */\n    tag_56:\n        /* \"#utility.yul\":5347:5353   */\n      0x00\n        /* \"#utility.yul\":5396:5398   */\n      0x20\n        /* \"#utility.yul\":5384:5393   */\n      dup3\n        /* \"#utility.yul\":5375:5382   */\n      dup5\n        /* \"#utility.yul\":5371:5394   */\n      sub\n        /* \"#utility.yul\":5367:5399   */\n      slt\n        /* \"#utility.yul\":5364:5483   */\n      iszero\n      tag_412\n      jumpi\n        /* \"#utility.yul\":5402:5481   */\n      tag_413\n      tag_314\n      jump\t// in\n    tag_413:\n        /* \"#utility.yul\":5364:5483   */\n    tag_412:\n        /* \"#utility.yul\":5522:5523   */\n      0x00\n        /* \"#utility.yul\":5547:5600   */\n      tag_414\n        /* \"#utility.yul\":5592:5599   */\n      dup5\n        /* \"#utility.yul\":5583:5589   */\n      dup3\n        /* \"#utility.yul\":5572:5581   */\n      dup6\n        /* \"#utility.yul\":5568:5590   */\n      add\n        /* \"#utility.yul\":5547:5600   */\n      tag_319\n      jump\t// in\n    tag_414:\n        /* \"#utility.yul\":5537:5600   */\n      swap2\n      pop\n        /* \"#utility.yul\":5493:5610   */\n      pop\n        /* \"#utility.yul\":5288:5617   */\n      swap3\n      swap2\n      pop\n      pop\n      jump\t// out\n        /* \"#utility.yul\":5623:5772   */\n    tag_330:\n        /* \"#utility.yul\":5659:5666   */\n      0x00\n        /* \"#utility.yul\":5699:5765   */\n      0xff00000000000000000000000000000000000000000000000000000000000000\n        /* \"#utility.yul\":5692:5697   */\n      dup3\n        /* \"#utility.yul\":5688:5766   */\n      and\n        /* \"#utility.yul\":5677:5766   */\n      swap1\n      pop\n        /* \"#utility.yul\":5623:5772   */\n      swap2\n      swap1\n      pop\n      jump\t// out\n        /* \"#utility.yul\":5778:5893   */\n    tag_331:\n        /* \"#utility.yul\":5863:5886   */\n      tag_417\n        /* \"#utility.yul\":5880:5885   */\n      dup2\n        /* \"#utility.yul\":5863:5886   */\n      tag_330\n      jump\t// in\n    tag_417:\n        /* \"#utility.yul\":5858:5861   */\n      dup3\n        /* \"#utility.yul\":5851:5887   */\n      mstore\n        /* \"#utility.yul\":5778:5893   */\n      pop\n      pop\n      jump\t// out\n        /* \"#utility.yul\":5899:6017   */\n    tag_332:\n        /* \"#utility.yul\":5986:6010   */\n      tag_419\n        /* \"#utility.yul\":6004:6009   */\n      dup2\n        /* \"#utility.yul\":5986:6010   */\n      tag_317\n      jump\t// in\n    tag_419:\n        /* \"#utility.yul\":5981:5984   */\n      dup3\n        /* \"#utility.yul\":5974:6011   */\n      mstore\n        /* \"#utility.yul\":5899:6017   */\n      pop\n      pop\n      jump\t// out\n        /* \"#utility.yul\":6023:6137   */\n    tag_333:\n        /* \"#utility.yul\":6090:6096   */\n      0x00\n        /* \"#utility.yul\":6124:6129   */\n      dup2\n        /* \"#utility.yul\":6118:6130   */\n      mload\n        /* \"#utility.yul\":6108:6130   */\n      swap1\n      pop\n        /* \"#utility.yul\":6023:6137   */\n      swap2\n      swap1\n      pop\n      jump\t// out\n        /* \"#utility.yul\":6143:6327   */\n    tag_334:\n        /* \"#utility.yul\":6242:6253   */\n      0x00\n        /* \"#utility.yul\":6276:6282   */\n      dup3\n        /* \"#utility.yul\":6271:6274   */\n      dup3\n        /* \"#utility.yul\":6264:6283   */\n      mstore\n        /* \"#utility.yul\":6316:6320   */\n      0x20\n        /* \"#utility.yul\":6311:6314   */\n      dup3\n        /* \"#utility.yul\":6307:6321   */\n      add\n        /* \"#utility.yul\":6292:6321   */\n      swap1\n      pop\n        /* \"#utility.yul\":6143:6327   */\n      swap3\n      swap2\n      pop\n      pop\n      jump\t// out\n        /* \"#utility.yul\":6333:6465   */\n    tag_335:\n        /* \"#utility.yul\":6400:6404   */\n      0x00\n        /* \"#utility.yul\":6423:6426   */\n      dup2\n        /* \"#utility.yul\":6415:6426   */\n      swap1\n      pop\n        /* \"#utility.yul\":6453:6457   */\n      0x20\n        /* \"#utility.yul\":6448:6451   */\n      dup3\n        /* \"#utility.yul\":6444:6458   */\n      add\n        /* \"#utility.yul\":6436:6458   */\n      swap1\n      pop\n        /* \"#utility.yul\":6333:6465   */\n      swap2\n      swap1\n      pop\n      jump\t// out\n        /* \"#utility.yul\":6471:6579   */\n    tag_336:\n        /* \"#utility.yul\":6548:6572   */\n      tag_424\n        /* \"#utility.yul\":6566:6571   */\n      dup2\n        /* \"#utility.yul\":6548:6572   */\n      tag_320\n      jump\t// in\n    tag_424:\n        /* \"#utility.yul\":6543:6546   */\n      dup3\n        /* \"#utility.yul\":6536:6573   */\n      mstore\n        /* \"#utility.yul\":6471:6579   */\n      pop\n      pop\n      jump\t// out\n        /* \"#utility.yul\":6585:6764   */\n    tag_337:\n        /* \"#utility.yul\":6654:6664   */\n      0x00\n        /* \"#utility.yul\":6675:6721   */\n      tag_426\n        /* \"#utility.yul\":6717:6720   */\n      dup4\n        /* \"#utility.yul\":6709:6715   */\n      dup4\n        /* \"#utility.yul\":6675:6721   */\n      tag_336\n      jump\t// in\n    tag_426:\n        /* \"#utility.yul\":6753:6757   */\n      0x20\n        /* \"#utility.yul\":6748:6751   */\n      dup4\n        /* \"#utility.yul\":6744:6758   */\n      add\n        /* \"#utility.yul\":6730:6758   */\n      swap1\n      pop\n        /* \"#utility.yul\":6585:6764   */\n      swap3\n      swap2\n      pop\n      pop\n      jump\t// out\n        /* \"#utility.yul\":6770:6883   */\n    tag_338:\n        /* \"#utility.yul\":6840:6844   */\n      0x00\n        /* \"#utility.yul\":6872:6876   */\n      0x20\n        /* \"#utility.yul\":6867:6870   */\n      dup3\n        /* \"#utility.yul\":6863:6877   */\n      add\n        /* \"#utility.yul\":6855:6877   */\n      swap1\n      pop\n        /* \"#utility.yul\":6770:6883   */\n      swap2\n      swap1\n      pop\n      jump\t// out\n        /* \"#utility.yul\":6919:7651   */\n    tag_339:\n        /* \"#utility.yul\":7038:7041   */\n      0x00\n        /* \"#utility.yul\":7067:7121   */\n      tag_429\n        /* \"#utility.yul\":7115:7120   */\n      dup3\n        /* \"#utility.yul\":7067:7121   */\n      tag_333\n      jump\t// in\n    tag_429:\n        /* \"#utility.yul\":7137:7223   */\n      tag_430\n        /* \"#utility.yul\":7216:7222   */\n      dup2\n        /* \"#utility.yul\":7211:7214   */\n      dup6\n        /* \"#utility.yul\":7137:7223   */\n      tag_334\n      jump\t// in\n    tag_430:\n        /* \"#utility.yul\":7130:7223   */\n      swap4\n      pop\n        /* \"#utility.yul\":7247:7303   */\n      tag_431\n        /* \"#utility.yul\":7297:7302   */\n      dup4\n        /* \"#utility.yul\":7247:7303   */\n      tag_335\n      jump\t// in\n    tag_431:\n        /* \"#utility.yul\":7326:7333   */\n      dup1\n        /* \"#utility.yul\":7357:7358   */\n      0x00\n        /* \"#utility.yul\":7342:7626   */\n    tag_432:\n        /* \"#utility.yul\":7367:7373   */\n      dup4\n        /* \"#utility.yul\":7364:7365   */\n      dup2\n        /* \"#utility.yul\":7361:7374   */\n      lt\n        /* \"#utility.yul\":7342:7626   */\n      iszero\n      tag_434\n      jumpi\n        /* \"#utility.yul\":7443:7449   */\n      dup2\n        /* \"#utility.yul\":7437:7450   */\n      mload\n        /* \"#utility.yul\":7470:7533   */\n      tag_435\n        /* \"#utility.yul\":7529:7532   */\n      dup9\n        /* \"#utility.yul\":7514:7527   */\n      dup3\n        /* \"#utility.yul\":7470:7533   */\n      tag_337\n      jump\t// in\n    tag_435:\n        /* \"#utility.yul\":7463:7533   */\n      swap8\n      pop\n        /* \"#utility.yul\":7556:7616   */\n      tag_436\n        /* \"#utility.yul\":7609:7615   */\n      dup4\n        /* \"#utility.yul\":7556:7616   */\n      tag_338\n      jump\t// in\n    tag_436:\n        /* \"#utility.yul\":7546:7616   */\n      swap3\n      pop\n        /* \"#utility.yul\":7402:7626   */\n      pop\n        /* \"#utility.yul\":7389:7390   */\n      0x01\n        /* \"#utility.yul\":7386:7387   */\n      dup2\n        /* \"#utility.yul\":7382:7391   */\n      add\n        /* \"#utility.yul\":7377:7391   */\n      swap1\n      pop\n        /* \"#utility.yul\":7342:7626   */\n      jump(tag_432)\n    tag_434:\n        /* \"#utility.yul\":7346:7360   */\n      pop\n        /* \"#utility.yul\":7642:7645   */\n      dup6\n        /* \"#utility.yul\":7635:7645   */\n      swap4\n      pop\n        /* \"#utility.yul\":7043:7651   */\n      pop\n      pop\n      pop\n        /* \"#utility.yul\":6919:7651   */\n      swap3\n      swap2\n      pop\n      pop\n      jump\t// out\n        /* \"#utility.yul\":7657:8872   */\n    tag_68:\n        /* \"#utility.yul\":8006:8010   */\n      0x00\n        /* \"#utility.yul\":8044:8047   */\n      0xe0\n        /* \"#utility.yul\":8033:8042   */\n      dup3\n        /* \"#utility.yul\":8029:8048   */\n      add\n        /* \"#utility.yul\":8021:8048   */\n      swap1\n      pop\n        /* \"#utility.yul\":8058:8127   */\n      tag_438\n        /* \"#utility.yul\":8124:8125   */\n      0x00\n        /* \"#utility.yul\":8113:8122   */\n      dup4\n        /* \"#utility.yul\":8109:8126   */\n      add\n        /* \"#utility.yul\":8100:8106   */\n      dup11\n        /* \"#utility.yul\":8058:8127   */\n      tag_331\n      jump\t// in\n    tag_438:\n        /* \"#utility.yul\":8174:8183   */\n      dup2\n        /* \"#utility.yul\":8168:8172   */\n      dup2\n        /* \"#utility.yul\":8164:8184   */\n      sub\n        /* \"#utility.yul\":8159:8161   */\n      0x20\n        /* \"#utility.yul\":8148:8157   */\n      dup4\n        /* \"#utility.yul\":8144:8162   */\n      add\n        /* \"#utility.yul\":8137:8185   */\n      mstore\n        /* \"#utility.yul\":8202:8280   */\n      tag_439\n        /* \"#utility.yul\":8275:8279   */\n      dup2\n        /* \"#utility.yul\":8266:8272   */\n      dup10\n        /* \"#utility.yul\":8202:8280   */\n      tag_312\n      jump\t// in\n    tag_439:\n        /* \"#utility.yul\":8194:8280   */\n      swap1\n      pop\n        /* \"#utility.yul\":8327:8336   */\n      dup2\n        /* \"#utility.yul\":8321:8325   */\n      dup2\n        /* \"#utility.yul\":8317:8337   */\n      sub\n        /* \"#utility.yul\":8312:8314   */\n      0x40\n        /* \"#utility.yul\":8301:8310   */\n      dup4\n        /* \"#utility.yul\":8297:8315   */\n      add\n        /* \"#utility.yul\":8290:8338   */\n      mstore\n        /* \"#utility.yul\":8355:8433   */\n      tag_440\n        /* \"#utility.yul\":8428:8432   */\n      dup2\n        /* \"#utility.yul\":8419:8425   */\n      dup9\n        /* \"#utility.yul\":8355:8433   */\n      tag_312\n      jump\t// in\n    tag_440:\n        /* \"#utility.yul\":8347:8433   */\n      swap1\n      pop\n        /* \"#utility.yul\":8443:8515   */\n      tag_441\n        /* \"#utility.yul\":8511:8513   */\n      0x60\n        /* \"#utility.yul\":8500:8509   */\n      dup4\n        /* \"#utility.yul\":8496:8514   */\n      add\n        /* \"#utility.yul\":8487:8493   */\n      dup8\n        /* \"#utility.yul\":8443:8515   */\n      tag_325\n      jump\t// in\n    tag_441:\n        /* \"#utility.yul\":8525:8598   */\n      tag_442\n        /* \"#utility.yul\":8593:8596   */\n      0x80\n        /* \"#utility.yul\":8582:8591   */\n      dup4\n        /* \"#utility.yul\":8578:8597   */\n      add\n        /* \"#utility.yul\":8569:8575   */\n      dup7\n        /* \"#utility.yul\":8525:8598   */\n      tag_332\n      jump\t// in\n    tag_442:\n        /* \"#utility.yul\":8608:8681   */\n      tag_443\n        /* \"#utility.yul\":8676:8679   */\n      0xa0\n        /* \"#utility.yul\":8665:8674   */\n      dup4\n        /* \"#utility.yul\":8661:8680   */\n      add\n        /* \"#utility.yul\":8652:8658   */\n      dup6\n        /* \"#utility.yul\":8608:8681   */\n      tag_329\n      jump\t// in\n    tag_443:\n        /* \"#utility.yul\":8729:8738   */\n      dup2\n        /* \"#utility.yul\":8723:8727   */\n      dup2\n        /* \"#utility.yul\":8719:8739   */\n      sub\n        /* \"#utility.yul\":8713:8716   */\n      0xc0\n        /* \"#utility.yul\":8702:8711   */\n      dup4\n        /* \"#utility.yul\":8698:8717   */\n      add\n        /* \"#utility.yul\":8691:8740   */\n      mstore\n        /* \"#utility.yul\":8757:8865   */\n      tag_444\n        /* \"#utility.yul\":8860:8864   */\n      dup2\n        /* \"#utility.yul\":8851:8857   */\n      dup5\n        /* \"#utility.yul\":8757:8865   */\n      tag_339\n      jump\t// in\n    tag_444:\n        /* \"#utility.yul\":8749:8865   */\n      swap1\n      pop\n        /* \"#utility.yul\":7657:8872   */\n      swap9\n      swap8\n      pop\n      pop\n      pop\n      pop\n      pop\n      pop\n      pop\n      pop\n      jump\t// out\n        /* \"#utility.yul\":8878:9100   */\n    tag_72:\n        /* \"#utility.yul\":8971:8975   */\n      0x00\n        /* \"#utility.yul\":9009:9011   */\n      0x20\n        /* \"#utility.yul\":8998:9007   */\n      dup3\n        /* \"#utility.yul\":8994:9012   */\n      add\n        /* \"#utility.yul\":8986:9012   */\n      swap1\n      pop\n        /* \"#utility.yul\":9022:9093   */\n      tag_446\n        /* \"#utility.yul\":9090:9091   */\n      0x00\n        /* \"#utility.yul\":9079:9088   */\n      dup4\n        /* \"#utility.yul\":9075:9092   */\n      add\n        /* \"#utility.yul\":9066:9072   */\n      dup5\n        /* \"#utility.yul\":9022:9093   */\n      tag_332\n      jump\t// in\n    tag_446:\n        /* \"#utility.yul\":8878:9100   */\n      swap3\n      swap2\n      pop\n      pop\n      jump\t// out\n        /* \"#utility.yul\":9106:9871   */\n    tag_82:\n        /* \"#utility.yul\":9192:9198   */\n      0x00\n        /* \"#utility.yul\":9200:9206   */\n      dup1\n        /* \"#utility.yul\":9208:9214   */\n      0x00\n        /* \"#utility.yul\":9216:9222   */\n      dup1\n        /* \"#utility.yul\":9265:9268   */\n      0x80\n        /* \"#utility.yul\":9253:9262   */\n      dup6\n        /* \"#utility.yul\":9244:9251   */\n      dup8\n        /* \"#utility.yul\":9240:9263   */\n      sub\n        /* \"#utility.yul\":9236:9269   */\n      slt\n        /* \"#utility.yul\":9233:9353   */\n      iszero\n      tag_448\n      jumpi\n        /* \"#utility.yul\":9272:9351   */\n      tag_449\n      tag_314\n      jump\t// in\n    tag_449:\n        /* \"#utility.yul\":9233:9353   */\n    tag_448:\n        /* \"#utility.yul\":9392:9393   */\n      0x00\n        /* \"#utility.yul\":9417:9470   */\n      tag_450\n        /* \"#utility.yul\":9462:9469   */\n      dup8\n        /* \"#utility.yul\":9453:9459   */\n      dup3\n        /* \"#utility.yul\":9442:9451   */\n      dup9\n        /* \"#utility.yul\":9438:9460   */\n      add\n        /* \"#utility.yul\":9417:9470   */\n      tag_319\n      jump\t// in\n    tag_450:\n        /* \"#utility.yul\":9407:9470   */\n      swap5\n      pop\n        /* \"#utility.yul\":9363:9480   */\n      pop\n        /* \"#utility.yul\":9519:9521   */\n      0x20\n        /* \"#utility.yul\":9545:9598   */\n      tag_451\n        /* \"#utility.yul\":9590:9597   */\n      dup8\n        /* \"#utility.yul\":9581:9587   */\n      dup3\n        /* \"#utility.yul\":9570:9579   */\n      dup9\n        /* \"#utility.yul\":9566:9588   */\n      add\n        /* \"#utility.yul\":9545:9598   */\n      tag_319\n      jump\t// in\n    tag_451:\n        /* \"#utility.yul\":9535:9598   */\n      swap4\n      pop\n        /* \"#utility.yul\":9490:9608   */\n      pop\n        /* \"#utility.yul\":9647:9649   */\n      0x40\n        /* \"#utility.yul\":9673:9726   */\n      tag_452\n        /* \"#utility.yul\":9718:9725   */\n      dup8\n        /* \"#utility.yul\":9709:9715   */\n      dup3\n        /* \"#utility.yul\":9698:9707   */\n      dup9\n        /* \"#utility.yul\":9694:9716   */\n      add\n        /* \"#utility.yul\":9673:9726   */\n      tag_322\n      jump\t// in\n    tag_452:\n        /* \"#utility.yul\":9663:9726   */\n      swap3\n      pop\n        /* \"#utility.yul\":9618:9736   */\n      pop\n        /* \"#utility.yul\":9775:9777   */\n      0x60\n        /* \"#utility.yul\":9801:9854   */\n      tag_453\n        /* \"#utility.yul\":9846:9853   */\n      dup8\n        /* \"#utility.yul\":9837:9843   */\n      dup3\n        /* \"#utility.yul\":9826:9835   */\n      dup9\n        /* \"#utility.yul\":9822:9844   */\n      add\n        /* \"#utility.yul\":9801:9854   */\n      tag_319\n      jump\t// in\n    tag_453:\n        /* \"#utility.yul\":9791:9854   */\n      swap2\n      pop\n        /* \"#utility.yul\":9746:9864   */\n      pop\n        /* \"#utility.yul\":9106:9871   */\n      swap3\n      swap6\n      swap2\n      swap5\n      pop\n      swap3\n      pop\n      jump\t// out\n        /* \"#utility.yul\":9877:9995   */\n    tag_340:\n        /* \"#utility.yul\":9948:9970   */\n      tag_455\n        /* \"#utility.yul\":9964:9969   */\n      dup2\n        /* \"#utility.yul\":9948:9970   */\n      tag_326\n      jump\t// in\n    tag_455:\n        /* \"#utility.yul\":9941:9946   */\n      dup2\n        /* \"#utility.yul\":9938:9971   */\n      eq\n        /* \"#utility.yul\":9928:9989   */\n      tag_456\n      jumpi\n        /* \"#utility.yul\":9985:9986   */\n      0x00\n        /* \"#utility.yul\":9982:9983   */\n      dup1\n        /* \"#utility.yul\":9975:9987   */\n      revert\n        /* \"#utility.yul\":9928:9989   */\n    tag_456:\n        /* \"#utility.yul\":9877:9995   */\n      pop\n      jump\t// out\n        /* \"#utility.yul\":10001:10136   */\n    tag_341:\n        /* \"#utility.yul\":10045:10050   */\n      0x00\n        /* \"#utility.yul\":10083:10089   */\n      dup2\n        /* \"#utility.yul\":10070:10090   */\n      calldataload\n        /* \"#utility.yul\":10061:10090   */\n      swap1\n      pop\n        /* \"#utility.yul\":10099:10130   */\n      tag_458\n        /* \"#utility.yul\":10124:10129   */\n      dup2\n        /* \"#utility.yul\":10099:10130   */\n      tag_340\n      jump\t// in\n    tag_458:\n        /* \"#utility.yul\":10001:10136   */\n      swap3\n      swap2\n      pop\n      pop\n      jump\t// out\n        /* \"#utility.yul\":10142:10264   */\n    tag_342:\n        /* \"#utility.yul\":10215:10239   */\n      tag_460\n        /* \"#utility.yul\":10233:10238   */\n      dup2\n        /* \"#utility.yul\":10215:10239   */\n      tag_328\n      jump\t// in\n    tag_460:\n        /* \"#utility.yul\":10208:10213   */\n      dup2\n        /* \"#utility.yul\":10205:10240   */\n      eq\n        /* \"#utility.yul\":10195:10258   */\n      tag_461\n      jumpi\n        /* \"#utility.yul\":10254:10255   */\n      0x00\n        /* \"#utility.yul\":10251:10252   */\n      dup1\n        /* \"#utility.yul\":10244:10256   */\n      revert\n        /* \"#utility.yul\":10195:10258   */\n    tag_461:\n        /* \"#utility.yul\":10142:10264   */\n      pop\n      jump\t// out\n        /* \"#utility.yul\":10270:10409   */\n    tag_343:\n        /* \"#utility.yul\":10316:10321   */\n      0x00\n        /* \"#utility.yul\":10354:10360   */\n      dup2\n        /* \"#utility.yul\":10341:10361   */\n      calldataload\n        /* \"#utility.yul\":10332:10361   */\n      swap1\n      pop\n        /* \"#utility.yul\":10370:10403   */\n      tag_463\n        /* \"#utility.yul\":10397:10402   */\n      dup2\n        /* \"#utility.yul\":10370:10403   */\n      tag_342\n      jump\t// in\n    tag_463:\n        /* \"#utility.yul\":10270:10409   */\n      swap3\n      swap2\n      pop\n      pop\n      jump\t// out\n        /* \"#utility.yul\":10415:11614   */\n    tag_87:\n        /* \"#utility.yul\":10526:10532   */\n      0x00\n        /* \"#utility.yul\":10534:10540   */\n      dup1\n        /* \"#utility.yul\":10542:10548   */\n      0x00\n        /* \"#utility.yul\":10550:10556   */\n      dup1\n        /* \"#utility.yul\":10558:10564   */\n      0x00\n        /* \"#utility.yul\":10566:10572   */\n      dup1\n        /* \"#utility.yul\":10574:10580   */\n      0x00\n        /* \"#utility.yul\":10623:10626   */\n      0xe0\n        /* \"#utility.yul\":10611:10620   */\n      dup9\n        /* \"#utility.yul\":10602:10609   */\n      dup11\n        /* \"#utility.yul\":10598:10621   */\n      sub\n        /* \"#utility.yul\":10594:10627   */\n      slt\n        /* \"#utility.yul\":10591:10711   */\n      iszero\n      tag_465\n      jumpi\n        /* \"#utility.yul\":10630:10709   */\n      tag_466\n      tag_314\n      jump\t// in\n    tag_466:\n        /* \"#utility.yul\":10591:10711   */\n    tag_465:\n        /* \"#utility.yul\":10750:10751   */\n      0x00\n        /* \"#utility.yul\":10775:10828   */\n      tag_467\n        /* \"#utility.yul\":10820:10827   */\n      dup11\n        /* \"#utility.yul\":10811:10817   */\n      dup3\n        /* \"#utility.yul\":10800:10809   */\n      dup12\n        /* \"#utility.yul\":10796:10818   */\n      add\n        /* \"#utility.yul\":10775:10828   */\n      tag_319\n      jump\t// in\n    tag_467:\n        /* \"#utility.yul\":10765:10828   */\n      swap8\n      pop\n        /* \"#utility.yul\":10721:10838   */\n      pop\n        /* \"#utility.yul\":10877:10879   */\n      0x20\n        /* \"#utility.yul\":10903:10956   */\n      tag_468\n        /* \"#utility.yul\":10948:10955   */\n      dup11\n        /* \"#utility.yul\":10939:10945   */\n      dup3\n        /* \"#utility.yul\":10928:10937   */\n      dup12\n        /* \"#utility.yul\":10924:10946   */\n      add\n        /* \"#utility.yul\":10903:10956   */\n      tag_319\n      jump\t// in\n    tag_468:\n        /* \"#utility.yul\":10893:10956   */\n      swap7\n      pop\n        /* \"#utility.yul\":10848:10966   */\n      pop\n        /* \"#utility.yul\":11005:11007   */\n      0x40\n        /* \"#utility.yul\":11031:11084   */\n      tag_469\n        /* \"#utility.yul\":11076:11083   */\n      dup11\n        /* \"#utility.yul\":11067:11073   */\n      dup3\n        /* \"#utility.yul\":11056:11065   */\n      dup12\n        /* \"#utility.yul\":11052:11074   */\n      add\n        /* \"#utility.yul\":11031:11084   */\n      tag_322\n      jump\t// in\n    tag_469:\n        /* \"#utility.yul\":11021:11084   */\n      swap6\n      pop\n        /* \"#utility.yul\":10976:11094   */\n      pop\n        /* \"#utility.yul\":11133:11135   */\n      0x60\n        /* \"#utility.yul\":11159:11212   */\n      tag_470\n        /* \"#utility.yul\":11204:11211   */\n      dup11\n        /* \"#utility.yul\":11195:11201   */\n      dup3\n        /* \"#utility.yul\":11184:11193   */\n      dup12\n        /* \"#utility.yul\":11180:11202   */\n      add\n        /* \"#utility.yul\":11159:11212   */\n      tag_322\n      jump\t// in\n    tag_470:\n        /* \"#utility.yul\":11149:11212   */\n      swap5\n      pop\n        /* \"#utility.yul\":11104:11222   */\n      pop\n        /* \"#utility.yul\":11261:11264   */\n      0x80\n        /* \"#utility.yul\":11288:11339   */\n      tag_471\n        /* \"#utility.yul\":11331:11338   */\n      dup11\n        /* \"#utility.yul\":11322:11328   */\n      dup3\n        /* \"#utility.yul\":11311:11320   */\n      dup12\n        /* \"#utility.yul\":11307:11329   */\n      add\n        /* \"#utility.yul\":11288:11339   */\n      tag_341\n      jump\t// in\n    tag_471:\n        /* \"#utility.yul\":11278:11339   */\n      swap4\n      pop\n        /* \"#utility.yul\":11232:11349   */\n      pop\n        /* \"#utility.yul\":11388:11391   */\n      0xa0\n        /* \"#utility.yul\":11415:11468   */\n      tag_472\n        /* \"#utility.yul\":11460:11467   */\n      dup11\n        /* \"#utility.yul\":11451:11457   */\n      dup3\n        /* \"#utility.yul\":11440:11449   */\n      dup12\n        /* \"#utility.yul\":11436:11458   */\n      add\n        /* \"#utility.yul\":11415:11468   */\n      tag_343\n      jump\t// in\n    tag_472:\n        /* \"#utility.yul\":11405:11468   */\n      swap3\n      pop\n        /* \"#utility.yul\":11359:11478   */\n      pop\n        /* \"#utility.yul\":11517:11520   */\n      0xc0\n        /* \"#utility.yul\":11544:11597   */\n      tag_473\n        /* \"#utility.yul\":11589:11596   */\n      dup11\n        /* \"#utility.yul\":11580:11586   */\n      dup3\n        /* \"#utility.yul\":11569:11578   */\n      dup12\n        /* \"#utility.yul\":11565:11587   */\n      add\n        /* \"#utility.yul\":11544:11597   */\n      tag_343\n      jump\t// in\n    tag_473:\n        /* \"#utility.yul\":11534:11597   */\n      swap2\n      pop\n        /* \"#utility.yul\":11488:11607   */\n      pop\n        /* \"#utility.yul\":10415:11614   */\n      swap3\n      swap6\n      swap9\n      swap2\n      swap5\n      swap8\n      pop\n      swap3\n      swap6\n      pop\n      jump\t// out\n        /* \"#utility.yul\":11620:12094   */\n    tag_91:\n        /* \"#utility.yul\":11688:11694   */\n      0x00\n        /* \"#utility.yul\":11696:11702   */\n      dup1\n        /* \"#utility.yul\":11745:11747   */\n      0x40\n        /* \"#utility.yul\":11733:11742   */\n      dup4\n        /* \"#utility.yul\":11724:11731   */\n      dup6\n        /* \"#utility.yul\":11720:11743   */\n      sub\n        /* \"#utility.yul\":11716:11748   */\n      slt\n        /* \"#utility.yul\":11713:11832   */\n      iszero\n      tag_475\n      jumpi\n        /* \"#utility.yul\":11751:11830   */\n      tag_476\n      tag_314\n      jump\t// in\n    tag_476:\n        /* \"#utility.yul\":11713:11832   */\n    tag_475:\n        /* \"#utility.yul\":11871:11872   */\n      0x00\n        /* \"#utility.yul\":11896:11949   */\n      tag_477\n        /* \"#utility.yul\":11941:11948   */\n      dup6\n        /* \"#utility.yul\":11932:11938   */\n      dup3\n        /* \"#utility.yul\":11921:11930   */\n      dup7\n        /* \"#utility.yul\":11917:11939   */\n      add\n        /* \"#utility.yul\":11896:11949   */\n      tag_319\n      jump\t// in\n    tag_477:\n        /* \"#utility.yul\":11886:11949   */\n      swap3\n      pop\n        /* \"#utility.yul\":11842:11959   */\n      pop\n        /* \"#utility.yul\":11998:12000   */\n      0x20\n        /* \"#utility.yul\":12024:12077   */\n      tag_478\n        /* \"#utility.yul\":12069:12076   */\n      dup6\n        /* \"#utility.yul\":12060:12066   */\n      dup3\n        /* \"#utility.yul\":12049:12058   */\n      dup7\n        /* \"#utility.yul\":12045:12067   */\n      add\n        /* \"#utility.yul\":12024:12077   */\n      tag_319\n      jump\t// in\n    tag_478:\n        /* \"#utility.yul\":12014:12077   */\n      swap2\n      pop\n        /* \"#utility.yul\":11969:12087   */\n      pop\n        /* \"#utility.yul\":11620:12094   */\n      swap3\n      pop\n      swap3\n      swap1\n      pop\n      jump\t// out\n        /* \"#utility.yul\":12100:12280   */\n    tag_344:\n        /* \"#utility.yul\":12148:12225   */\n      0x4e487b7100000000000000000000000000000000000000000000000000000000\n        /* \"#utility.yul\":12145:12146   */\n      0x00\n        /* \"#utility.yul\":12138:12226   */\n      mstore\n        /* \"#utility.yul\":12245:12249   */\n      0x22\n        /* \"#utility.yul\":12242:12243   */\n      0x04\n        /* \"#utility.yul\":12235:12250   */\n      mstore\n        /* \"#utility.yul\":12269:12273   */\n      0x24\n        /* \"#utility.yul\":12266:12267   */\n      0x00\n        /* \"#utility.yul\":12259:12274   */\n      revert\n        /* \"#utility.yul\":12286:12606   */\n    tag_99:\n        /* \"#utility.yul\":12330:12336   */\n      0x00\n        /* \"#utility.yul\":12367:12368   */\n      0x02\n        /* \"#utility.yul\":12361:12365   */\n      dup3\n        /* \"#utility.yul\":12357:12369   */\n      div\n        /* \"#utility.yul\":12347:12369   */\n      swap1\n      pop\n        /* \"#utility.yul\":12414:12415   */\n      0x01\n        /* \"#utility.yul\":12408:12412   */\n      dup3\n        /* \"#utility.yul\":12404:12416   */\n      and\n        /* \"#utility.yul\":12435:12453   */\n      dup1\n        /* \"#utility.yul\":12425:12506   */\n      tag_481\n      jumpi\n        /* \"#utility.yul\":12491:12495   */\n      0x7f\n        /* \"#utility.yul\":12483:12489   */\n      dup3\n        /* \"#utility.yul\":12479:12496   */\n      and\n        /* \"#utility.yul\":12469:12496   */\n      swap2\n      pop\n        /* \"#utility.yul\":12425:12506   */\n    tag_481:\n        /* \"#utility.yul\":12553:12555   */\n      0x20\n        /* \"#utility.yul\":12545:12551   */\n      dup3\n        /* \"#utility.yul\":12542:12556   */\n      lt\n        /* \"#utility.yul\":12522:12540   */\n      dup2\n        /* \"#utility.yul\":12519:12557   */\n      sub\n        /* \"#utility.yul\":12516:12600   */\n      tag_482\n      jumpi\n        /* \"#utility.yul\":12572:12590   */\n      tag_483\n      tag_344\n      jump\t// in\n    tag_483:\n        /* \"#utility.yul\":12516:12600   */\n    tag_482:\n        /* \"#utility.yul\":12337:12606   */\n      pop\n        /* \"#utility.yul\":12286:12606   */\n      swap2\n      swap1\n      pop\n      jump\t// out\n        /* \"#utility.yul\":12612:12792   */\n    tag_345:\n        /* \"#utility.yul\":12660:12737   */\n      0x4e487b7100000000000000000000000000000000000000000000000000000000\n        /* \"#utility.yul\":12657:12658   */\n      0x00\n        /* \"#utility.yul\":12650:12738   */\n      mstore\n        /* \"#utility.yul\":12757:12761   */\n      0x11\n        /* \"#utility.yul\":12754:12755   */\n      0x04\n        /* \"#utility.yul\":12747:12762   */\n      mstore\n        /* \"#utility.yul\":12781:12785   */\n      0x24\n        /* \"#utility.yul\":12778:12779   */\n      0x00\n        /* \"#utility.yul\":12771:12786   */\n      revert\n        /* \"#utility.yul\":12798:12900   */\n    tag_346:\n        /* \"#utility.yul\":12840:12848   */\n      0x00\n        /* \"#utility.yul\":12887:12892   */\n      dup2\n        /* \"#utility.yul\":12884:12885   */\n      0x01\n        /* \"#utility.yul\":12880:12893   */\n      shr\n        /* \"#utility.yul\":12859:12893   */\n      swap1\n      pop\n        /* \"#utility.yul\":12798:12900   */\n      swap2\n      swap1\n      pop\n      jump\t// out\n        /* \"#utility.yul\":12906:13754   */\n    tag_347:\n        /* \"#utility.yul\":12967:12972   */\n      0x00\n        /* \"#utility.yul\":12974:12978   */\n      dup1\n        /* \"#utility.yul\":12998:13004   */\n      dup3\n        /* \"#utility.yul\":12989:13004   */\n      swap2\n      pop\n        /* \"#utility.yul\":13022:13027   */\n      dup4\n        /* \"#utility.yul\":13013:13027   */\n      swap1\n      pop\n        /* \"#utility.yul\":13036:13748   */\n    tag_487:\n        /* \"#utility.yul\":13057:13058   */\n      0x01\n        /* \"#utility.yul\":13047:13055   */\n      dup6\n        /* \"#utility.yul\":13044:13059   */\n      gt\n        /* \"#utility.yul\":13036:13748   */\n      iszero\n      tag_489\n      jumpi\n        /* \"#utility.yul\":13152:13156   */\n      dup1\n        /* \"#utility.yul\":13147:13150   */\n      dup7\n        /* \"#utility.yul\":13143:13157   */\n      div\n        /* \"#utility.yul\":13137:13141   */\n      dup2\n        /* \"#utility.yul\":13134:13158   */\n      gt\n        /* \"#utility.yul\":13131:13181   */\n      iszero\n      tag_490\n      jumpi\n        /* \"#utility.yul\":13161:13179   */\n      tag_491\n      tag_345\n      jump\t// in\n    tag_491:\n        /* \"#utility.yul\":13131:13181   */\n    tag_490:\n        /* \"#utility.yul\":13211:13212   */\n      0x01\n        /* \"#utility.yul\":13201:13209   */\n      dup6\n        /* \"#utility.yul\":13197:13213   */\n      and\n        /* \"#utility.yul\":13194:13645   */\n      iszero\n      tag_492\n      jumpi\n        /* \"#utility.yul\":13626:13630   */\n      dup1\n        /* \"#utility.yul\":13619:13624   */\n      dup3\n        /* \"#utility.yul\":13615:13631   */\n      mul\n        /* \"#utility.yul\":13606:13631   */\n      swap2\n      pop\n        /* \"#utility.yul\":13194:13645   */\n    tag_492:\n        /* \"#utility.yul\":13676:13680   */\n      dup1\n        /* \"#utility.yul\":13670:13674   */\n      dup2\n        /* \"#utility.yul\":13666:13681   */\n      mul\n        /* \"#utility.yul\":13658:13681   */\n      swap1\n      pop\n        /* \"#utility.yul\":13706:13738   */\n      tag_493\n        /* \"#utility.yul\":13729:13737   */\n      dup6\n        /* \"#utility.yul\":13706:13738   */\n      tag_346\n      jump\t// in\n    tag_493:\n        /* \"#utility.yul\":13694:13738   */\n      swap5\n      pop\n        /* \"#utility.yul\":13036:13748   */\n      jump(tag_487)\n    tag_489:\n        /* \"#utility.yul\":12906:13754   */\n      swap5\n      pop\n      swap5\n      swap3\n      pop\n      pop\n      pop\n      jump\t// out\n        /* \"#utility.yul\":13760:14833   */\n    tag_348:\n        /* \"#utility.yul\":13814:13819   */\n      0x00\n        /* \"#utility.yul\":14005:14013   */\n      dup3\n        /* \"#utility.yul\":13995:14035   */\n      tag_495\n      jumpi\n        /* \"#utility.yul\":14026:14027   */\n      0x01\n        /* \"#utility.yul\":14017:14027   */\n      swap1\n      pop\n        /* \"#utility.yul\":14028:14033   */\n      jump(tag_494)\n        /* \"#utility.yul\":13995:14035   */\n    tag_495:\n        /* \"#utility.yul\":14054:14058   */\n      dup2\n        /* \"#utility.yul\":14044:14080   */\n      tag_496\n      jumpi\n        /* \"#utility.yul\":14071:14072   */\n      0x00\n        /* \"#utility.yul\":14062:14072   */\n      swap1\n      pop\n        /* \"#utility.yul\":14073:14078   */\n      jump(tag_494)\n        /* \"#utility.yul\":14044:14080   */\n    tag_496:\n        /* \"#utility.yul\":14140:14144   */\n      dup2\n        /* \"#utility.yul\":14188:14189   */\n      0x01\n        /* \"#utility.yul\":14183:14210   */\n      dup2\n      eq\n      tag_498\n      jumpi\n        /* \"#utility.yul\":14224:14225   */\n      0x02\n        /* \"#utility.yul\":14219:14410   */\n      dup2\n      eq\n      tag_499\n      jumpi\n        /* \"#utility.yul\":14133:14410   */\n      jump(tag_497)\n        /* \"#utility.yul\":14183:14210   */\n    tag_498:\n        /* \"#utility.yul\":14201:14202   */\n      0x01\n        /* \"#utility.yul\":14192:14202   */\n      swap2\n      pop\n        /* \"#utility.yul\":14203:14208   */\n      pop\n      jump(tag_494)\n        /* \"#utility.yul\":14219:14410   */\n    tag_499:\n        /* \"#utility.yul\":14264:14267   */\n      0xff\n        /* \"#utility.yul\":14254:14262   */\n      dup5\n        /* \"#utility.yul\":14251:14268   */\n      gt\n        /* \"#utility.yul\":14248:14291   */\n      iszero\n      tag_500\n      jumpi\n        /* \"#utility.yul\":14271:14289   */\n      tag_501\n      tag_345\n      jump\t// in\n    tag_501:\n        /* \"#utility.yul\":14248:14291   */\n    tag_500:\n        /* \"#utility.yul\":14320:14328   */\n      dup4\n        /* \"#utility.yul\":14317:14318   */\n      0x02\n        /* \"#utility.yul\":14313:14329   */\n      exp\n        /* \"#utility.yul\":14304:14329   */\n      swap2\n      pop\n        /* \"#utility.yul\":14355:14358   */\n      dup5\n        /* \"#utility.yul\":14348:14353   */\n      dup3\n        /* \"#utility.yul\":14345:14359   */\n      gt\n        /* \"#utility.yul\":14342:14382   */\n      iszero\n      tag_502\n      jumpi\n        /* \"#utility.yul\":14362:14380   */\n      tag_503\n      tag_345\n      jump\t// in\n    tag_503:\n        /* \"#utility.yul\":14342:14382   */\n    tag_502:\n        /* \"#utility.yul\":14395:14400   */\n      pop\n      jump(tag_494)\n        /* \"#utility.yul\":14133:14410   */\n    tag_497:\n      pop\n        /* \"#utility.yul\":14519:14521   */\n      0x20\n        /* \"#utility.yul\":14509:14517   */\n      dup4\n        /* \"#utility.yul\":14506:14522   */\n      lt\n        /* \"#utility.yul\":14500:14503   */\n      0x0133\n        /* \"#utility.yul\":14494:14498   */\n      dup4\n        /* \"#utility.yul\":14491:14504   */\n      lt\n        /* \"#utility.yul\":14487:14523   */\n      and\n        /* \"#utility.yul\":14469:14471   */\n      0x4e\n        /* \"#utility.yul\":14459:14467   */\n      dup5\n        /* \"#utility.yul\":14456:14472   */\n      lt\n        /* \"#utility.yul\":14451:14453   */\n      0x0b\n        /* \"#utility.yul\":14445:14449   */\n      dup5\n        /* \"#utility.yul\":14442:14454   */\n      lt\n        /* \"#utility.yul\":14438:14473   */\n      and\n        /* \"#utility.yul\":14422:14533   */\n      or\n        /* \"#utility.yul\":14419:14665   */\n      iszero\n      tag_504\n      jumpi\n        /* \"#utility.yul\":14575:14583   */\n      dup3\n        /* \"#utility.yul\":14569:14573   */\n      dup3\n        /* \"#utility.yul\":14565:14584   */\n      exp\n        /* \"#utility.yul\":14556:14584   */\n      swap1\n      pop\n        /* \"#utility.yul\":14610:14613   */\n      dup4\n        /* \"#utility.yul\":14603:14608   */\n      dup2\n        /* \"#utility.yul\":14600:14614   */\n      gt\n        /* \"#utility.yul\":14597:14637   */\n      iszero\n      tag_505\n      jumpi\n        /* \"#utility.yul\":14617:14635   */\n      tag_506\n      tag_345\n      jump\t// in\n    tag_506:\n        /* \"#utility.yul\":14597:14637   */\n    tag_505:\n        /* \"#utility.yul\":14650:14655   */\n      jump(tag_494)\n        /* \"#utility.yul\":14419:14665   */\n    tag_504:\n        /* \"#utility.yul\":14690:14732   */\n      tag_507\n        /* \"#utility.yul\":14728:14731   */\n      dup5\n        /* \"#utility.yul\":14718:14726   */\n      dup5\n        /* \"#utility.yul\":14712:14716   */\n      dup5\n        /* \"#utility.yul\":14709:14710   */\n      0x01\n        /* \"#utility.yul\":14690:14732   */\n      tag_347\n      jump\t// in\n    tag_507:\n        /* \"#utility.yul\":14675:14732   */\n      swap3\n      pop\n      swap1\n      pop\n        /* \"#utility.yul\":14764:14768   */\n      dup2\n        /* \"#utility.yul\":14759:14762   */\n      dup5\n        /* \"#utility.yul\":14755:14769   */\n      div\n        /* \"#utility.yul\":14748:14753   */\n      dup2\n        /* \"#utility.yul\":14745:14770   */\n      gt\n        /* \"#utility.yul\":14742:14793   */\n      iszero\n      tag_508\n      jumpi\n        /* \"#utility.yul\":14773:14791   */\n      tag_509\n      tag_345\n      jump\t// in\n    tag_509:\n        /* \"#utility.yul\":14742:14793   */\n    tag_508:\n        /* \"#utility.yul\":14822:14826   */\n      dup2\n        /* \"#utility.yul\":14815:14820   */\n      dup2\n        /* \"#utility.yul\":14811:14827   */\n      mul\n        /* \"#utility.yul\":14802:14827   */\n      swap1\n      pop\n        /* \"#utility.yul\":13760:14833   */\n    tag_494:\n      swap4\n      swap3\n      pop\n      pop\n      pop\n      jump\t// out\n        /* \"#utility.yul\":14839:15124   */\n    tag_127:\n        /* \"#utility.yul\":14899:14904   */\n      0x00\n        /* \"#utility.yul\":14923:14946   */\n      tag_511\n        /* \"#utility.yul\":14941:14945   */\n      dup3\n        /* \"#utility.yul\":14923:14946   */\n      tag_320\n      jump\t// in\n    tag_511:\n        /* \"#utility.yul\":14915:14946   */\n      swap2\n      pop\n        /* \"#utility.yul\":14967:14994   */\n      tag_512\n        /* \"#utility.yul\":14985:14993   */\n      dup4\n        /* \"#utility.yul\":14967:14994   */\n      tag_320\n      jump\t// in\n    tag_512:\n        /* \"#utility.yul\":14955:14994   */\n      swap3\n      pop\n        /* \"#utility.yul\":15013:15117   */\n      tag_513\n        /* \"#utility.yul\":15050:15116   */\n      0xffffffffffffffffffffffffffffffffffffffffffffffffffffffffffffffff\n        /* \"#utility.yul\":15040:15048   */\n      dup5\n        /* \"#utility.yul\":15034:15038   */\n      dup5\n        /* \"#utility.yul\":15013:15117   */\n      tag_348\n      jump\t// in\n    tag_513:\n        /* \"#utility.yul\":15004:15117   */\n      swap1\n      pop\n        /* \"#utility.yul\":14839:15124   */\n      swap3\n      swap2\n      pop\n      pop\n      jump\t// out\n        /* \"#utility.yul\":15130:15540   */\n    tag_129:\n        /* \"#utility.yul\":15170:15177   */\n      0x00\n        /* \"#utility.yul\":15193:15213   */\n      tag_515\n        /* \"#utility.yul\":15211:15212   */\n      dup3\n        /* \"#utility.yul\":15193:15213   */\n      tag_320\n      jump\t// in\n    tag_515:\n        /* \"#utility.yul\":15188:15213   */\n      swap2\n      pop\n        /* \"#utility.yul\":15227:15247   */\n      tag_516\n        /* \"#utility.yul\":15245:15246   */\n      dup4\n        /* \"#utility.yul\":15227:15247   */\n      tag_320\n      jump\t// in\n    tag_516:\n        /* \"#utility.yul\":15222:15247   */\n      swap3\n      pop\n        /* \"#utility.yul\":15282:15283   */\n      dup3\n        /* \"#utility.yul\":15279:15280   */\n      dup3\n        /* \"#utility.yul\":15275:15284   */\n      mul\n        /* \"#utility.yul\":15304:15334   */\n      tag_517\n        /* \"#utility.yul\":15322:15333   */\n      dup2\n        /* \"#utility.yul\":15304:15334   */\n      tag_320\n      jump\t// in\n    tag_517:\n        /* \"#utility.yul\":15293:15334   */\n      swap2\n      pop\n        /* \"#utility.yul\":15483:15484   */\n      dup3\n        /* \"#utility.yul\":15474:15481   */\n      dup3\n        /* \"#utility.yul\":15470:15485   */\n      div\n        /* \"#utility.yul\":15467:15468   */\n      dup5\n        /* \"#utility.yul\":15464:15486   */\n      eq\n        /* \"#utility.yul\":15444:15445   */\n      dup4\n        /* \"#utility.yul\":15437:15446   */\n      iszero\n        /* \"#utility.yul\":15417:15500   */\n      or\n        /* \"#utility.yul\":15394:15533   */\n      tag_518\n      jumpi\n        /* \"#utility.yul\":15513:15531   */\n      tag_519\n      tag_345\n      jump\t// in\n    tag_519:\n        /* \"#utility.yul\":15394:15533   */\n    tag_518:\n        /* \"#utility.yul\":15178:15540   */\n      pop\n        /* \"#utility.yul\":15130:15540   */\n      swap3\n      swap2\n      pop\n      pop\n      jump\t// out\n        /* \"#utility.yul\":15546:15726   */\n    tag_147:\n        /* \"#utility.yul\":15594:15671   */\n      0x4e487b7100000000000000000000000000000000000000000000000000000000\n        /* \"#utility.yul\":15591:15592   */\n      0x00\n        /* \"#utility.yul\":15584:15672   */\n      mstore\n        /* \"#utility.yul\":15691:15695   */\n      0x41\n        /* \"#utility.yul\":15688:15689   */\n      0x04\n        /* \"#utility.yul\":15681:15696   */\n      mstore\n        /* \"#utility.yul\":15715:15719   */\n      0x24\n        /* \"#utility.yul\":15712:15713   */\n      0x00\n        /* \"#utility.yul\":15705:15720   */\n      revert\n        /* \"#utility.yul\":15732:16507   */\n    tag_168:\n        /* \"#utility.yul\":15965:15969   */\n      0x00\n        /* \"#utility.yul\":16003:16006   */\n      0xc0\n        /* \"#utility.yul\":15992:16001   */\n      dup3\n        /* \"#utility.yul\":15988:16007   */\n      add\n        /* \"#utility.yul\":15980:16007   */\n      swap1\n      pop\n        /* \"#utility.yul\":16017:16088   */\n      tag_522\n        /* \"#utility.yul\":16085:16086   */\n      0x00\n        /* \"#utility.yul\":16074:16083   */\n      dup4\n        /* \"#utility.yul\":16070:16087   */\n      add\n        /* \"#utility.yul\":16061:16067   */\n      dup10\n        /* \"#utility.yul\":16017:16088   */\n      tag_329\n      jump\t// in\n    tag_522:\n        /* \"#utility.yul\":16098:16170   */\n      tag_523\n        /* \"#utility.yul\":16166:16168   */\n      0x20\n        /* \"#utility.yul\":16155:16164   */\n      dup4\n        /* \"#utility.yul\":16151:16169   */\n      add\n        /* \"#utility.yul\":16142:16148   */\n      dup9\n        /* \"#utility.yul\":16098:16170   */\n      tag_332\n      jump\t// in\n    tag_523:\n        /* \"#utility.yul\":16180:16252   */\n      tag_524\n        /* \"#utility.yul\":16248:16250   */\n      0x40\n        /* \"#utility.yul\":16237:16246   */\n      dup4\n        /* \"#utility.yul\":16233:16251   */\n      add\n        /* \"#utility.yul\":16224:16230   */\n      dup8\n        /* \"#utility.yul\":16180:16252   */\n      tag_332\n      jump\t// in\n    tag_524:\n        /* \"#utility.yul\":16262:16334   */\n      tag_525\n        /* \"#utility.yul\":16330:16332   */\n      0x60\n        /* \"#utility.yul\":16319:16328   */\n      dup4\n        /* \"#utility.yul\":16315:16333   */\n      add\n        /* \"#utility.yul\":16306:16312   */\n      dup7\n        /* \"#utility.yul\":16262:16334   */\n      tag_325\n      jump\t// in\n    tag_525:\n        /* \"#utility.yul\":16344:16417   */\n      tag_526\n        /* \"#utility.yul\":16412:16415   */\n      0x80\n        /* \"#utility.yul\":16401:16410   */\n      dup4\n        /* \"#utility.yul\":16397:16416   */\n      add\n        /* \"#utility.yul\":16388:16394   */\n      dup6\n        /* \"#utility.yul\":16344:16417   */\n      tag_325\n      jump\t// in\n    tag_526:\n        /* \"#utility.yul\":16427:16500   */\n      tag_527\n        /* \"#utility.yul\":16495:16498   */\n      0xa0\n        /* \"#utility.yul\":16484:16493   */\n      dup4\n        /* \"#utility.yul\":16480:16499   */\n      add\n        /* \"#utility.yul\":16471:16477   */\n      dup5\n        /* \"#utility.yul\":16427:16500   */\n      tag_325\n      jump\t// in\n    tag_527:\n        /* \"#utility.yul\":15732:16507   */\n      swap8\n      swap7\n      pop\n      pop\n      pop\n      pop\n      pop\n      pop\n      pop\n      jump\t// out\n        /* \"#utility.yul\":16513:16845   */\n    tag_175:\n        /* \"#utility.yul\":16634:16638   */\n      0x00\n        /* \"#utility.yul\":16672:16674   */\n      0x40\n        /* \"#utility.yul\":16661:16670   */\n      dup3\n        /* \"#utility.yul\":16657:16675   */\n      add\n        /* \"#utility.yul\":16649:16675   */\n      swap1\n      pop\n        /* \"#utility.yul\":16685:16756   */\n      tag_529\n        /* \"#utility.yul\":16753:16754   */\n      0x00\n        /* \"#utility.yul\":16742:16751   */\n      dup4\n        /* \"#utility.yul\":16738:16755   */\n      add\n        /* \"#utility.yul\":16729:16735   */\n      dup6\n        /* \"#utility.yul\":16685:16756   */\n      tag_332\n      jump\t// in\n    tag_529:\n        /* \"#utility.yul\":16766:16838   */\n      tag_530\n        /* \"#utility.yul\":16834:16836   */\n      0x20\n        /* \"#utility.yul\":16823:16832   */\n      dup4\n        /* \"#utility.yul\":16819:16837   */\n      add\n        /* \"#utility.yul\":16810:16816   */\n      dup5\n        /* \"#utility.yul\":16766:16838   */\n      tag_332\n      jump\t// in\n    tag_530:\n        /* \"#utility.yul\":16513:16845   */\n      swap4\n      swap3\n      pop\n      pop\n      pop\n      jump\t// out\n        /* \"#utility.yul\":16851:17293   */\n    tag_193:\n        /* \"#utility.yul\":17000:17004   */\n      0x00\n        /* \"#utility.yul\":17038:17040   */\n      0x60\n        /* \"#utility.yul\":17027:17036   */\n      dup3\n        /* \"#utility.yul\":17023:17041   */\n      add\n        /* \"#utility.yul\":17015:17041   */\n      swap1\n      pop\n        /* \"#utility.yul\":17051:17122   */\n      tag_532\n        /* \"#utility.yul\":17119:17120   */\n      0x00\n        /* \"#utility.yul\":17108:17117   */\n      dup4\n        /* \"#utility.yul\":17104:17121   */\n      add\n        /* \"#utility.yul\":17095:17101   */\n      dup7\n        /* \"#utility.yul\":17051:17122   */\n      tag_332\n      jump\t// in\n    tag_532:\n        /* \"#utility.yul\":17132:17204   */\n      tag_533\n        /* \"#utility.yul\":17200:17202   */\n      0x20\n        /* \"#utility.yul\":17189:17198   */\n      dup4\n        /* \"#utility.yul\":17185:17203   */\n      add\n        /* \"#utility.yul\":17176:17182   */\n      dup6\n        /* \"#utility.yul\":17132:17204   */\n      tag_325\n      jump\t// in\n    tag_533:\n        /* \"#utility.yul\":17214:17286   */\n      tag_534\n        /* \"#utility.yul\":17282:17284   */\n      0x40\n        /* \"#utility.yul\":17271:17280   */\n      dup4\n        /* \"#utility.yul\":17267:17285   */\n      add\n        /* \"#utility.yul\":17258:17264   */\n      dup5\n        /* \"#utility.yul\":17214:17286   */\n      tag_325\n      jump\t// in\n    tag_534:\n        /* \"#utility.yul\":16851:17293   */\n      swap5\n      swap4\n      pop\n      pop\n      pop\n      pop\n      jump\t// out\n        /* \"#utility.yul\":17299:17490   */\n    tag_245:\n        /* \"#utility.yul\":17339:17342   */\n      0x00\n        /* \"#utility.yul\":17358:17378   */\n      tag_536\n        /* \"#utility.yul\":17376:17377   */\n      dup3\n        /* \"#utility.yul\":17358:17378   */\n      tag_320\n      jump\t// in\n    tag_536:\n        /* \"#utility.yul\":17353:17378   */\n      swap2\n      pop\n        /* \"#utility.yul\":17392:17412   */\n      tag_537\n        /* \"#utility.yul\":17410:17411   */\n      dup4\n        /* \"#utility.yul\":17392:17412   */\n      tag_320\n      jump\t// in\n    tag_537:\n        /* \"#utility.yul\":17387:17412   */\n      swap3\n      pop\n        /* \"#utility.yul\":17435:17436   */\n      dup3\n        /* \"#utility.yul\":17432:17433   */\n      dup3\n        /* \"#utility.yul\":17428:17437   */\n      add\n        /* \"#utility.yul\":17421:17437   */\n      swap1\n      pop\n        /* \"#utility.yul\":17456:17459   */\n      dup1\n        /* \"#utility.yul\":17453:17454   */\n      dup3\n        /* \"#utility.yul\":17450:17460   */\n      gt\n        /* \"#utility.yul\":17447:17483   */\n      iszero\n      tag_538\n      jumpi\n        /* \"#utility.yul\":17463:17481   */\n      tag_539\n      tag_345\n      jump\t// in\n    tag_539:\n        /* \"#utility.yul\":17447:17483   */\n    tag_538:\n        /* \"#utility.yul\":17299:17490   */\n      swap3\n      swap2\n      pop\n      pop\n      jump\t// out\n        /* \"#utility.yul\":17496:18160   */\n    tag_254:\n        /* \"#utility.yul\":17701:17705   */\n      0x00\n        /* \"#utility.yul\":17739:17742   */\n      0xa0\n        /* \"#utility.yul\":17728:17737   */\n      dup3\n        /* \"#utility.yul\":17724:17743   */\n      add\n        /* \"#utility.yul\":17716:17743   */\n      swap1\n      pop\n        /* \"#utility.yul\":17753:17824   */\n      tag_541\n        /* \"#utility.yul\":17821:17822   */\n      0x00\n        /* \"#utility.yul\":17810:17819   */\n      dup4\n        /* \"#utility.yul\":17806:17823   */\n      add\n        /* \"#utility.yul\":17797:17803   */\n      dup9\n        /* \"#utility.yul\":17753:17824   */\n      tag_329\n      jump\t// in\n    tag_541:\n        /* \"#utility.yul\":17834:17906   */\n      tag_542\n        /* \"#utility.yul\":17902:17904   */\n      0x20\n        /* \"#utility.yul\":17891:17900   */\n      dup4\n        /* \"#utility.yul\":17887:17905   */\n      add\n        /* \"#utility.yul\":17878:17884   */\n      dup8\n        /* \"#utility.yul\":17834:17906   */\n      tag_329\n      jump\t// in\n    tag_542:\n        /* \"#utility.yul\":17916:17988   */\n      tag_543\n        /* \"#utility.yul\":17984:17986   */\n      0x40\n        /* \"#utility.yul\":17973:17982   */\n      dup4\n        /* \"#utility.yul\":17969:17987   */\n      add\n        /* \"#utility.yul\":17960:17966   */\n      dup7\n        /* \"#utility.yul\":17916:17988   */\n      tag_329\n      jump\t// in\n    tag_543:\n        /* \"#utility.yul\":17998:18070   */\n      tag_544\n        /* \"#utility.yul\":18066:18068   */\n      0x60\n        /* \"#utility.yul\":18055:18064   */\n      dup4\n        /* \"#utility.yul\":18051:18069   */\n      add\n        /* \"#utility.yul\":18042:18048   */\n      dup6\n        /* \"#utility.yul\":17998:18070   */\n      tag_325\n      jump\t// in\n    tag_544:\n        /* \"#utility.yul\":18080:18153   */\n      tag_545\n        /* \"#utility.yul\":18148:18151   */\n      0x80\n        /* \"#utility.yul\":18137:18146   */\n      dup4\n        /* \"#utility.yul\":18133:18152   */\n      add\n        /* \"#utility.yul\":18124:18130   */\n      dup5\n        /* \"#utility.yul\":18080:18153   */\n      tag_332\n      jump\t// in\n    tag_545:\n        /* \"#utility.yul\":17496:18160   */\n      swap7\n      swap6\n      pop\n      pop\n      pop\n      pop\n      pop\n      pop\n      jump\t// out\n        /* \"#utility.yul\":18166:18711   */\n    tag_269:\n        /* \"#utility.yul\":18339:18343   */\n      0x00\n        /* \"#utility.yul\":18377:18380   */\n      0x80\n        /* \"#utility.yul\":18366:18375   */\n      dup3\n        /* \"#utility.yul\":18362:18381   */\n      add\n        /* \"#utility.yul\":18354:18381   */\n      swap1\n      pop\n        /* \"#utility.yul\":18391:18462   */\n      tag_547\n        /* \"#utility.yul\":18459:18460   */\n      0x00\n        /* \"#utility.yul\":18448:18457   */\n      dup4\n        /* \"#utility.yul\":18444:18461   */\n      add\n        /* \"#utility.yul\":18435:18441   */\n      dup8\n        /* \"#utility.yul\":18391:18462   */\n      tag_329\n      jump\t// in\n    tag_547:\n        /* \"#utility.yul\":18472:18540   */\n      tag_548\n        /* \"#utility.yul\":18536:18538   */\n      0x20\n        /* \"#utility.yul\":18525:18534   */\n      dup4\n        /* \"#utility.yul\":18521:18539   */\n      add\n        /* \"#utility.yul\":18512:18518   */\n      dup7\n        /* \"#utility.yul\":18472:18540   */\n      tag_327\n      jump\t// in\n    tag_548:\n        /* \"#utility.yul\":18550:18622   */\n      tag_549\n        /* \"#utility.yul\":18618:18620   */\n      0x40\n        /* \"#utility.yul\":18607:18616   */\n      dup4\n        /* \"#utility.yul\":18603:18621   */\n      add\n        /* \"#utility.yul\":18594:18600   */\n      dup6\n        /* \"#utility.yul\":18550:18622   */\n      tag_329\n      jump\t// in\n    tag_549:\n        /* \"#utility.yul\":18632:18704   */\n      tag_550\n        /* \"#utility.yul\":18700:18702   */\n      0x60\n        /* \"#utility.yul\":18689:18698   */\n      dup4\n        /* \"#utility.yul\":18685:18703   */\n      add\n        /* \"#utility.yul\":18676:18682   */\n      dup5\n        /* \"#utility.yul\":18632:18704   */\n      tag_329\n      jump\t// in\n    tag_550:\n        /* \"#utility.yul\":18166:18711   */\n      swap6\n      swap5\n      pop\n      pop\n      pop\n      pop\n      pop\n      jump\t// out\n        /* \"#utility.yul\":18717:18897   */\n    tag_276:\n        /* \"#utility.yul\":18765:18842   */\n      0x4e487b7100000000000000000000000000000000000000000000000000000000\n        /* \"#utility.yul\":18762:18763   */\n      0x00\n        /* \"#utility.yul\":18755:18843   */\n      mstore\n        /* \"#utility.yul\":18862:18866   */\n      0x21\n        /* \"#utility.yul\":18859:18860   */\n      0x04\n        /* \"#utility.yul\":18852:18867   */\n      mstore\n        /* \"#utility.yul\":18886:18890   */\n      0x24\n        /* \"#utility.yul\":18883:18884   */\n      0x00\n        /* \"#utility.yul\":18876:18891   */\n      revert\n\n    auxdata: 0xa2646970667358221220b9301a5280b0b70b75deb7ba233d4f94f4a53d116a7bb2a5e5ee206da860693b64736f6c63430008180033\n}\n",
				"bytecode": {
					"linkReferences": {},
					"object": "61016060405234801562000011575f80fd5b5060405162002bcb38038062002bcb8339818101604052810190620000379190620004c0565b6040518060400160405280600981526020017f4c616e64546f6b656e0000000000000000000000000000000000000000000000815250806040518060400160405280600181526020017f3100000000000000000000000000000000000000000000000000000000000000815250836040518060400160405280600981526020017f4c616e64546f6b656e00000000000000000000000000000000000000000000008152506040518060400160405280600381526020017f4c4e440000000000000000000000000000000000000000000000000000000000815250816003908162000122919062000754565b50806004908162000134919062000754565b5050505f73ffffffffffffffffffffffffffffffffffffffff168173ffffffffffffffffffffffffffffffffffffffff1603620001aa575f6040517f1e4fbdf7000000000000000000000000000000000000000000000000000000008152600401620001a1919062000849565b60405180910390fd5b620001bb816200027460201b60201c565b50620001d26006836200033760201b90919060201c565b6101208181525050620001f06007826200033760201b90919060201c565b6101408181525050818051906020012060e08181525050808051906020012061010081815250504660a081815250506200022f6200038c60201b60201c565b608081815250503073ffffffffffffffffffffffffffffffffffffffff1660c08173ffffffffffffffffffffffffffffffffffffffff16815250505050505062000a34565b5f60055f9054906101000a900473ffffffffffffffffffffffffffffffffffffffff1690508160055f6101000a81548173ffffffffffffffffffffffffffffffffffffffff021916908373ffffffffffffffffffffffffffffffffffffffff1602179055508173ffffffffffffffffffffffffffffffffffffffff168173ffffffffffffffffffffffffffffffffffffffff167f8be0079c531659141344cd1fd0a4f28419497f9722a3daafe3b4186f6b6457e060405160405180910390a35050565b5f6020835110156200035c576200035483620003e860201b60201c565b905062000386565b826200036e836200045260201b60201c565b5f0190816200037e919062000754565b5060ff5f1b90505b92915050565b5f7f8b73c3c69bb8fe3d512ecc4cf759cc79239f7b179b0ffacaa9a75d522b39400f60e051610100514630604051602001620003cd9594939291906200088f565b60405160208183030381529060405280519060200120905090565b5f80829050601f815111156200043757826040517f305a27a90000000000000000000000000000000000000000000000000000000081526004016200042e919062000974565b60405180910390fd5b8051816200044590620009c5565b5f1c175f1b915050919050565b5f819050919050565b5f80fd5b5f73ffffffffffffffffffffffffffffffffffffffff82169050919050565b5f6200048a826200045f565b9050919050565b6200049c816200047e565b8114620004a7575f80fd5b50565b5f81519050620004ba8162000491565b92915050565b5f60208284031215620004d857620004d76200045b565b5b5f620004e784828501620004aa565b91505092915050565b5f81519050919050565b7f4e487b71000000000000000000000000000000000000000000000000000000005f52604160045260245ffd5b7f4e487b71000000000000000000000000000000000000000000000000000000005f52602260045260245ffd5b5f60028204905060018216806200056c57607f821691505b60208210810362000582576200058162000527565b5b50919050565b5f819050815f5260205f209050919050565b5f6020601f8301049050919050565b5f82821b905092915050565b5f60088302620005e67fffffffffffffffffffffffffffffffffffffffffffffffffffffffffffffffff82620005a9565b620005f28683620005a9565b95508019841693508086168417925050509392505050565b5f819050919050565b5f819050919050565b5f6200063c6200063662000630846200060a565b62000613565b6200060a565b9050919050565b5f819050919050565b62000657836200061c565b6200066f620006668262000643565b848454620005b5565b825550505050565b5f90565b6200068562000677565b620006928184846200064c565b505050565b5b81811015620006b957620006ad5f826200067b565b60018101905062000698565b5050565b601f8211156200070857620006d28162000588565b620006dd846200059a565b81016020851015620006ed578190505b62000705620006fc856200059a565b83018262000697565b50505b505050565b5f82821c905092915050565b5f6200072a5f19846008026200070d565b1980831691505092915050565b5f62000744838362000719565b9150826002028217905092915050565b6200075f82620004f0565b67ffffffffffffffff8111156200077b576200077a620004fa565b5b62000787825462000554565b62000794828285620006bd565b5f60209050601f831160018114620007ca575f8415620007b5578287015190505b620007c1858262000737565b86555062000830565b601f198416620007da8662000588565b5f5b828110156200080357848901518255600182019150602085019450602081019050620007dc565b868310156200082357848901516200081f601f89168262000719565b8355505b6001600288020188555050505b505050505050565b62000843816200047e565b82525050565b5f6020820190506200085e5f83018462000838565b92915050565b5f819050919050565b620008788162000864565b82525050565b62000889816200060a565b82525050565b5f60a082019050620008a45f8301886200086d565b620008b360208301876200086d565b620008c260408301866200086d565b620008d160608301856200087e565b620008e0608083018462000838565b9695505050505050565b5f82825260208201905092915050565b5f5b8381101562000919578082015181840152602081019050620008fc565b5f8484015250505050565b5f601f19601f8301169050919050565b5f6200094082620004f0565b6200094c8185620008ea565b93506200095e818560208601620008fa565b620009698162000924565b840191505092915050565b5f6020820190508181035f8301526200098e818462000934565b905092915050565b5f81519050919050565b5f819050602082019050919050565b5f620009bc825162000864565b80915050919050565b5f620009d18262000996565b82620009dd84620009a0565b9050620009ea81620009af565b9250602082101562000a2d5762000a287fffffffffffffffffffffffffffffffffffffffffffffffffffffffffffffffff83602003600802620005a9565b831692505b5050919050565b60805160a05160c05160e05161010051610120516101405161214562000a865f395f610dce01525f610d9301525f6112c701525f6112a601525f610ac801525f610b1e01525f610b4701526121455ff3fe608060405234801561000f575f80fd5b5060043610610114575f3560e01c80637ecebe00116100a0578063a9059cbb1161006f578063a9059cbb146102d6578063ad24b8d014610306578063d505accf14610336578063dd62ed3e14610352578063f2fde38b1461038257610114565b80637ecebe001461024657806384b0196e146102765780638da5cb5b1461029a57806395d89b41146102b857610114565b8063313ce567116100e7578063313ce567146101b45780633644e515146101d257806340c10f19146101f057806370a082311461020c578063715018a61461023c57610114565b806306fdde0314610118578063095ea7b31461013657806318160ddd1461016657806323b872dd14610184575b5f80fd5b61012061039e565b60405161012d9190611797565b60405180910390f35b610150600480360381019061014b9190611848565b61042e565b60405161015d91906118a0565b60405180910390f35b61016e610450565b60405161017b91906118c8565b60405180910390f35b61019e600480360381019061019991906118e1565b610459565b6040516101ab91906118a0565b60405180910390f35b6101bc610487565b6040516101c9919061194c565b60405180910390f35b6101da61048f565b6040516101e7919061197d565b60405180910390f35b61020a60048036038101906102059190611848565b61049d565b005b61022660048036038101906102219190611996565b6104d4565b60405161023391906118c8565b60405180910390f35b610244610519565b005b610260600480360381019061025b9190611996565b61052c565b60405161026d91906118c8565b60405180910390f35b61027e61053d565b6040516102919796959493929190611ac1565b60405180910390f35b6102a26105e2565b6040516102af9190611b43565b60405180910390f35b6102c061060a565b6040516102cd9190611797565b60405180910390f35b6102f060048036038101906102eb9190611848565b61069a565b6040516102fd91906118a0565b60405180910390f35b610320600480360381019061031b9190611b5c565b6106bc565b60405161032d91906118a0565b60405180910390f35b610350600480360381019061034b9190611c14565b6106df565b005b61036c60048036038101906103679190611cb1565b610824565b60405161037991906118c8565b60405180910390f35b61039c60048036038101906103979190611996565b6108a6565b005b6060600380546103ad90611d1c565b80601f01602080910402602001604051908101604052809291908181526020018280546103d990611d1c565b80156104245780601f106103fb57610100808354040283529160200191610424565b820191905f5260205f20905b81548152906001019060200180831161040757829003601f168201915b5050505050905090565b5f8061043861092a565b9050610445818585610931565b600191505092915050565b5f600254905090565b5f8061046361092a565b9050610470858285610943565b61047b8585856109d5565b60019150509392505050565b5f6012905090565b5f610498610ac5565b905090565b6104a5610b7b565b6104d0826104b1610487565b60ff16600a6104c09190611ea8565b836104cb9190611ef2565b610c02565b5050565b5f805f8373ffffffffffffffffffffffffffffffffffffffff1673ffffffffffffffffffffffffffffffffffffffff1681526020019081526020015f20549050919050565b610521610b7b565b61052a5f610c81565b565b5f61053682610d44565b9050919050565b5f6060805f805f606061054e610d8a565b610556610dc5565b46305f801b5f67ffffffffffffffff81111561057557610574611f33565b5b6040519080825280602002602001820160405280156105a35781602001602082028036833780820191505090505b507f0f00000000000000000000000000000000000000000000000000000000000000959493929190965096509650965096509650965090919293949596565b5f60055f9054906101000a900473ffffffffffffffffffffffffffffffffffffffff16905090565b60606004805461061990611d1c565b80601f016020809104026020016040519081016040528092919081815260200182805461064590611d1c565b80156106905780601f1061066757610100808354040283529160200191610690565b820191905f5260205f20905b81548152906001019060200180831161067357829003601f168201915b5050505050905090565b5f806106a461092a565b90506106b18185856109d5565b600191505092915050565b5f6106c8828685610943565b6106d38585856109d5565b60019050949350505050565b8342111561072457836040517f6279130200000000000000000000000000000000000000000000000000000000815260040161071b91906118c8565b60405180910390fd5b5f7f6e71edae12b1b97f4d1f60370fef10105fa2faae0126114a169c64845d6126c98888886107528c610e00565b8960405160200161076896959493929190611f60565b6040516020818303038152906040528051906020012090505f61078a82610e53565b90505f61079982878787610e6c565b90508973ffffffffffffffffffffffffffffffffffffffff168173ffffffffffffffffffffffffffffffffffffffff161461080d57808a6040517f4b800e46000000000000000000000000000000000000000000000000000000008152600401610804929190611fbf565b60405180910390fd5b6108188a8a8a610931565b50505050505050505050565b5f60015f8473ffffffffffffffffffffffffffffffffffffffff1673ffffffffffffffffffffffffffffffffffffffff1681526020019081526020015f205f8373ffffffffffffffffffffffffffffffffffffffff1673ffffffffffffffffffffffffffffffffffffffff1681526020019081526020015f2054905092915050565b6108ae610b7b565b5f73ffffffffffffffffffffffffffffffffffffffff168173ffffffffffffffffffffffffffffffffffffffff160361091e575f6040517f1e4fbdf70000000000000000000000000000000000000000000000000000000081526004016109159190611b43565b60405180910390fd5b61092781610c81565b50565b5f33905090565b61093e8383836001610e9a565b505050565b5f61094e8484610824565b90507fffffffffffffffffffffffffffffffffffffffffffffffffffffffffffffffff81146109cf57818110156109c0578281836040517ffb8f41b20000000000000000000000000000000000000000000000000000000081526004016109b793929190611fe6565b60405180910390fd5b6109ce84848484035f610e9a565b5b50505050565b5f73ffffffffffffffffffffffffffffffffffffffff168373ffffffffffffffffffffffffffffffffffffffff1603610a45575f6040517f96c6fd1e000000000000000000000000000000000000000000000000000000008152600401610a3c9190611b43565b60405180910390fd5b5f73ffffffffffffffffffffffffffffffffffffffff168273ffffffffffffffffffffffffffffffffffffffff1603610ab5575f6040517fec442f05000000000000000000000000000000000000000000000000000000008152600401610aac9190611b43565b60405180910390fd5b610ac0838383611069565b505050565b5f7f000000000000000000000000000000000000000000000000000000000000000073ffffffffffffffffffffffffffffffffffffffff163073ffffffffffffffffffffffffffffffffffffffff16148015610b4057507f000000000000000000000000000000000000000000000000000000000000000046145b15610b6d577f00000000000000000000000000000000000000000000000000000000000000009050610b78565b610b75611282565b90505b90565b610b8361092a565b73ffffffffffffffffffffffffffffffffffffffff16610ba16105e2565b73ffffffffffffffffffffffffffffffffffffffff1614610c0057610bc461092a565b6040517f118cdaa7000000000000000000000000000000000000000000000000000000008152600401610bf79190611b43565b60405180910390fd5b565b5f73ffffffffffffffffffffffffffffffffffffffff168273ffffffffffffffffffffffffffffffffffffffff1603610c72575f6040517fec442f05000000000000000000000000000000000000000000000000000000008152600401610c699190611b43565b60405180910390fd5b610c7d5f8383611069565b5050565b5f60055f9054906101000a900473ffffffffffffffffffffffffffffffffffffffff1690508160055f6101000a81548173ffffffffffffffffffffffffffffffffffffffff021916908373ffffffffffffffffffffffffffffffffffffffff1602179055508173ffffffffffffffffffffffffffffffffffffffff168173ffffffffffffffffffffffffffffffffffffffff167f8be0079c531659141344cd1fd0a4f28419497f9722a3daafe3b4186f6b6457e060405160405180910390a35050565b5f60085f8373ffffffffffffffffffffffffffffffffffffffff1673ffffffffffffffffffffffffffffffffffffffff1681526020019081526020015f20549050919050565b6060610dc060067f000000000000000000000000000000000000000000000000000000000000000061131790919063ffffffff16565b905090565b6060610dfb60077f000000000000000000000000000000000000000000000000000000000000000061131790919063ffffffff16565b905090565b5f60085f8373ffffffffffffffffffffffffffffffffffffffff1673ffffffffffffffffffffffffffffffffffffffff1681526020019081526020015f205f815480929190600101919050559050919050565b5f610e65610e5f610ac5565b836113c4565b9050919050565b5f805f80610e7c88888888611404565b925092509250610e8c82826114eb565b829350505050949350505050565b5f73ffffffffffffffffffffffffffffffffffffffff168473ffffffffffffffffffffffffffffffffffffffff1603610f0a575f6040517fe602df05000000000000000000000000000000000000000000000000000000008152600401610f019190611b43565b60405180910390fd5b5f73ffffffffffffffffffffffffffffffffffffffff168373ffffffffffffffffffffffffffffffffffffffff1603610f7a575f6040517f94280d62000000000000000000000000000000000000000000000000000000008152600401610f719190611b43565b60405180910390fd5b8160015f8673ffffffffffffffffffffffffffffffffffffffff1673ffffffffffffffffffffffffffffffffffffffff1681526020019081526020015f205f8573ffffffffffffffffffffffffffffffffffffffff1673ffffffffffffffffffffffffffffffffffffffff1681526020019081526020015f20819055508015611063578273ffffffffffffffffffffffffffffffffffffffff168473ffffffffffffffffffffffffffffffffffffffff167f8c5be1e5ebec7d5bd14f71427d1e84f3dd0314c0f7b2291e5b200ac8c7c3b9258460405161105a91906118c8565b60405180910390a35b50505050565b5f73ffffffffffffffffffffffffffffffffffffffff168373ffffffffffffffffffffffffffffffffffffffff16036110b9578060025f8282546110ad919061201b565b92505081905550611187565b5f805f8573ffffffffffffffffffffffffffffffffffffffff1673ffffffffffffffffffffffffffffffffffffffff1681526020019081526020015f2054905081811015611142578381836040517fe450d38c00000000000000000000000000000000000000000000000000000000815260040161113993929190611fe6565b60405180910390fd5b8181035f808673ffffffffffffffffffffffffffffffffffffffff1673ffffffffffffffffffffffffffffffffffffffff1681526020019081526020015f2081905550505b5f73ffffffffffffffffffffffffffffffffffffffff168273ffffffffffffffffffffffffffffffffffffffff16036111ce578060025f8282540392505081905550611218565b805f808473ffffffffffffffffffffffffffffffffffffffff1673ffffffffffffffffffffffffffffffffffffffff1681526020019081526020015f205f82825401925050819055505b8173ffffffffffffffffffffffffffffffffffffffff168373ffffffffffffffffffffffffffffffffffffffff167fddf252ad1be2c89b69c2b068fc378daa952ba7f163c4a11628f55a4df523b3ef8360405161127591906118c8565b60405180910390a3505050565b5f7f8b73c3c69bb8fe3d512ecc4cf759cc79239f7b179b0ffacaa9a75d522b39400f7f00000000000000000000000000000000000000000000000000000000000000007f000000000000000000000000000000000000000000000000000000000000000046306040516020016112fc95949392919061204e565b60405160208183030381529060405280519060200120905090565b606060ff5f1b83146113335761132c8361164d565b90506113be565b81805461133f90611d1c565b80601f016020809104026020016040519081016040528092919081815260200182805461136b90611d1c565b80156113b65780601f1061138d576101008083540402835291602001916113b6565b820191905f5260205f20905b81548152906001019060200180831161139957829003601f168201915b505050505090505b92915050565b5f6040517f190100000000000000000000000000000000000000000000000000000000000081528360028201528260228201526042812091505092915050565b5f805f7f7fffffffffffffffffffffffffffffff5d576e7357a4501ddfe92f46681b20a0845f1c1115611440575f6003859250925092506114e1565b5f6001888888886040515f8152602001604052604051611463949392919061209f565b6020604051602081039080840390855afa158015611483573d5f803e3d5ffd5b5050506020604051035190505f73ffffffffffffffffffffffffffffffffffffffff168173ffffffffffffffffffffffffffffffffffffffff16036114d4575f60015f801b935093509350506114e1565b805f805f1b935093509350505b9450945094915050565b5f60038111156114fe576114fd6120e2565b5b826003811115611511576115106120e2565b5b0315611649576001600381111561152b5761152a6120e2565b5b82600381111561153e5761153d6120e2565b5b03611575576040517ff645eedf00000000000000000000000000000000000000000000000000000000815260040160405180910390fd5b60026003811115611589576115886120e2565b5b82600381111561159c5761159b6120e2565b5b036115e057805f1c6040517ffce698f70000000000000000000000000000000000000000000000000000000081526004016115d791906118c8565b60405180910390fd5b6003808111156115f3576115f26120e2565b5b826003811115611606576116056120e2565b5b0361164857806040517fd78bce0c00000000000000000000000000000000000000000000000000000000815260040161163f919061197d565b60405180910390fd5b5b5050565b60605f611659836116bf565b90505f602067ffffffffffffffff81111561167757611676611f33565b5b6040519080825280601f01601f1916602001820160405280156116a95781602001600182028036833780820191505090505b5090508181528360208201528092505050919050565b5f8060ff835f1c169050601f811115611704576040517fb3512b0c00000000000000000000000000000000000000000000000000000000815260040160405180910390fd5b80915050919050565b5f81519050919050565b5f82825260208201905092915050565b5f5b83811015611744578082015181840152602081019050611729565b5f8484015250505050565b5f601f19601f8301169050919050565b5f6117698261170d565b6117738185611717565b9350611783818560208601611727565b61178c8161174f565b840191505092915050565b5f6020820190508181035f8301526117af818461175f565b905092915050565b5f80fd5b5f73ffffffffffffffffffffffffffffffffffffffff82169050919050565b5f6117e4826117bb565b9050919050565b6117f4816117da565b81146117fe575f80fd5b50565b5f8135905061180f816117eb565b92915050565b5f819050919050565b61182781611815565b8114611831575f80fd5b50565b5f813590506118428161181e565b92915050565b5f806040838503121561185e5761185d6117b7565b5b5f61186b85828601611801565b925050602061187c85828601611834565b9150509250929050565b5f8115159050919050565b61189a81611886565b82525050565b5f6020820190506118b35f830184611891565b92915050565b6118c281611815565b82525050565b5f6020820190506118db5f8301846118b9565b92915050565b5f805f606084860312156118f8576118f76117b7565b5b5f61190586828701611801565b935050602061191686828701611801565b925050604061192786828701611834565b9150509250925092565b5f60ff82169050919050565b61194681611931565b82525050565b5f60208201905061195f5f83018461193d565b92915050565b5f819050919050565b61197781611965565b82525050565b5f6020820190506119905f83018461196e565b92915050565b5f602082840312156119ab576119aa6117b7565b5b5f6119b884828501611801565b91505092915050565b5f7fff0000000000000000000000000000000000000000000000000000000000000082169050919050565b6119f5816119c1565b82525050565b611a04816117da565b82525050565b5f81519050919050565b5f82825260208201905092915050565b5f819050602082019050919050565b611a3c81611815565b82525050565b5f611a4d8383611a33565b60208301905092915050565b5f602082019050919050565b5f611a6f82611a0a565b611a798185611a14565b9350611a8483611a24565b805f5b83811015611ab4578151611a9b8882611a42565b9750611aa683611a59565b925050600181019050611a87565b5085935050505092915050565b5f60e082019050611ad45f83018a6119ec565b8181036020830152611ae6818961175f565b90508181036040830152611afa818861175f565b9050611b0960608301876118b9565b611b1660808301866119fb565b611b2360a083018561196e565b81810360c0830152611b358184611a65565b905098975050505050505050565b5f602082019050611b565f8301846119fb565b92915050565b5f805f8060808587031215611b7457611b736117b7565b5b5f611b8187828801611801565b9450506020611b9287828801611801565b9350506040611ba387828801611834565b9250506060611bb487828801611801565b91505092959194509250565b611bc981611931565b8114611bd3575f80fd5b50565b5f81359050611be481611bc0565b92915050565b611bf381611965565b8114611bfd575f80fd5b50565b5f81359050611c0e81611bea565b92915050565b5f805f805f805f60e0888a031215611c2f57611c2e6117b7565b5b5f611c3c8a828b01611801565b9750506020611c4d8a828b01611801565b9650506040611c5e8a828b01611834565b9550506060611c6f8a828b01611834565b9450506080611c808a828b01611bd6565b93505060a0611c918a828b01611c00565b92505060c0611ca28a828b01611c00565b91505092959891949750929550565b5f8060408385031215611cc757611cc66117b7565b5b5f611cd485828601611801565b9250506020611ce585828601611801565b9150509250929050565b7f4e487b71000000000000000000000000000000000000000000000000000000005f52602260045260245ffd5b5f6002820490506001821680611d3357607f821691505b602082108103611d4657611d45611cef565b5b50919050565b7f4e487b71000000000000000000000000000000000000000000000000000000005f52601160045260245ffd5b5f8160011c9050919050565b5f808291508390505b6001851115611dce57808604811115611daa57611da9611d4c565b5b6001851615611db95780820291505b8081029050611dc785611d79565b9450611d8e565b94509492505050565b5f82611de65760019050611ea1565b81611df3575f9050611ea1565b8160018114611e095760028114611e1357611e42565b6001915050611ea1565b60ff841115611e2557611e24611d4c565b5b8360020a915084821115611e3c57611e3b611d4c565b5b50611ea1565b5060208310610133831016604e8410600b8410161715611e775782820a905083811115611e7257611e71611d4c565b5b611ea1565b611e848484846001611d85565b92509050818404811115611e9b57611e9a611d4c565b5b81810290505b9392505050565b5f611eb282611815565b9150611ebd83611815565b9250611eea7fffffffffffffffffffffffffffffffffffffffffffffffffffffffffffffffff8484611dd7565b905092915050565b5f611efc82611815565b9150611f0783611815565b9250828202611f1581611815565b91508282048414831517611f2c57611f2b611d4c565b5b5092915050565b7f4e487b71000000000000000000000000000000000000000000000000000000005f52604160045260245ffd5b5f60c082019050611f735f83018961196e565b611f8060208301886119fb565b611f8d60408301876119fb565b611f9a60608301866118b9565b611fa760808301856118b9565b611fb460a08301846118b9565b979650505050505050565b5f604082019050611fd25f8301856119fb565b611fdf60208301846119fb565b9392505050565b5f606082019050611ff95f8301866119fb565b61200660208301856118b9565b61201360408301846118b9565b949350505050565b5f61202582611815565b915061203083611815565b925082820190508082111561204857612047611d4c565b5b92915050565b5f60a0820190506120615f83018861196e565b61206e602083018761196e565b61207b604083018661196e565b61208860608301856118b9565b61209560808301846119fb565b9695505050505050565b5f6080820190506120b25f83018761196e565b6120bf602083018661193d565b6120cc604083018561196e565b6120d9606083018461196e565b95945050505050565b7f4e487b71000000000000000000000000000000000000000000000000000000005f52602160045260245ffdfea2646970667358221220b9301a5280b0b70b75deb7ba233d4f94f4a53d116a7bb2a5e5ee206da860693b64736f6c63430008180033",
					"opcodes": "PUSH2 0x160 PUSH1 0x40 MSTORE CALLVALUE DUP1 ISZERO PUSH3 0x11 JUMPI PUSH0 DUP1 REVERT JUMPDEST POP PUSH1 0x40 MLOAD PUSH3 0x2BCB CODESIZE SUB DUP1 PUSH3 0x2BCB DUP4 CODECOPY DUP2 DUP2 ADD PUSH1 0x40 MSTORE DUP2 ADD SWAP1 PUSH3 0x37 SWAP2 SWAP1 PUSH3 0x4C0 JUMP JUMPDEST PUSH1 0x40 MLOAD DUP1 PUSH1 0x40 ADD PUSH1 0x40 MSTORE DUP1 PUSH1 0x9 DUP2 MSTORE PUSH1 0x20 ADD PUSH32 0x4C616E64546F6B656E0000000000000000000000000000000000000000000000 DUP2 MSTORE POP DUP1 PUSH1 0x40 MLOAD DUP1 PUSH1 0x40 ADD PUSH1 0x40 MSTORE DUP1 PUSH1 0x1 DUP2 MSTORE PUSH1 0x20 ADD PUSH32 0x3100000000000000000000000000000000000000000000000000000000000000 DUP2 MSTORE POP DUP4 PUSH1 0x40 MLOAD DUP1 PUSH1 0x40 ADD PUSH1 0x40 MSTORE DUP1 PUSH1 0x9 DUP2 MSTORE PUSH1 0x20 ADD PUSH32 0x4C616E64546F6B656E0000000000000000000000000000000000000000000000 DUP2 MSTORE POP PUSH1 0x40 MLOAD DUP1 PUSH1 0x40 ADD PUSH1 0x40 MSTORE DUP1 PUSH1 0x3 DUP2 MSTORE PUSH1 0x20 ADD PUSH32 0x4C4E440000000000000000000000000000000000000000000000000000000000 DUP2 MSTORE POP DUP2 PUSH1 0x3 SWAP1 DUP2 PUSH3 0x122 SWAP2 SWAP1 PUSH3 0x754 JUMP JUMPDEST POP DUP1 PUSH1 0x4 SWAP1 DUP2 PUSH3 0x134 SWAP2 SWAP1 PUSH3 0x754 JUMP JUMPDEST POP POP POP PUSH0 PUSH20 0xFFFFFFFFFFFFFFFFFFFFFFFFFFFFFFFFFFFFFFFF AND DUP2 PUSH20 0xFFFFFFFFFFFFFFFFFFFFFFFFFFFFFFFFFFFFFFFF AND SUB PUSH3 0x1AA JUMPI PUSH0 PUSH1 0x40 MLOAD PUSH32 0x1E4FBDF700000000000000000000000000000000000000000000000000000000 DUP2 MSTORE PUSH1 0x4 ADD PUSH3 0x1A1 SWAP2 SWAP1 PUSH3 0x849 JUMP JUMPDEST PUSH1 0x40 MLOAD DUP1 SWAP2 SUB SWAP1 REVERT JUMPDEST PUSH3 0x1BB DUP2 PUSH3 0x274 PUSH1 0x20 SHL PUSH1 0x20 SHR JUMP JUMPDEST POP PUSH3 0x1D2 PUSH1 0x6 DUP4 PUSH3 0x337 PUSH1 0x20 SHL SWAP1 SWAP2 SWAP1 PUSH1 0x20 SHR JUMP JUMPDEST PUSH2 0x120 DUP2 DUP2 MSTORE POP POP PUSH3 0x1F0 PUSH1 0x7 DUP3 PUSH3 0x337 PUSH1 0x20 SHL SWAP1 SWAP2 SWAP1 PUSH1 0x20 SHR JUMP JUMPDEST PUSH2 0x140 DUP2 DUP2 MSTORE POP POP DUP2 DUP1 MLOAD SWAP1 PUSH1 0x20 ADD KECCAK256 PUSH1 0xE0 DUP2 DUP2 MSTORE POP POP DUP1 DUP1 MLOAD SWAP1 PUSH1 0x20 ADD KECCAK256 PUSH2 0x100 DUP2 DUP2 MSTORE POP POP CHAINID PUSH1 0xA0 DUP2 DUP2 MSTORE POP POP PUSH3 0x22F PUSH3 0x38C PUSH1 0x20 SHL PUSH1 0x20 SHR JUMP JUMPDEST PUSH1 0x80 DUP2 DUP2 MSTORE POP POP ADDRESS PUSH20 0xFFFFFFFFFFFFFFFFFFFFFFFFFFFFFFFFFFFFFFFF AND PUSH1 0xC0 DUP2 PUSH20 0xFFFFFFFFFFFFFFFFFFFFFFFFFFFFFFFFFFFFFFFF AND DUP2 MSTORE POP POP POP POP POP POP PUSH3 0xA34 JUMP JUMPDEST PUSH0 PUSH1 0x5 PUSH0 SWAP1 SLOAD SWAP1 PUSH2 0x100 EXP SWAP1 DIV PUSH20 0xFFFFFFFFFFFFFFFFFFFFFFFFFFFFFFFFFFFFFFFF AND SWAP1 POP DUP2 PUSH1 0x5 PUSH0 PUSH2 0x100 EXP DUP2 SLOAD DUP2 PUSH20 0xFFFFFFFFFFFFFFFFFFFFFFFFFFFFFFFFFFFFFFFF MUL NOT AND SWAP1 DUP4 PUSH20 0xFFFFFFFFFFFFFFFFFFFFFFFFFFFFFFFFFFFFFFFF AND MUL OR SWAP1 SSTORE POP DUP2 PUSH20 0xFFFFFFFFFFFFFFFFFFFFFFFFFFFFFFFFFFFFFFFF AND DUP2 PUSH20 0xFFFFFFFFFFFFFFFFFFFFFFFFFFFFFFFFFFFFFFFF AND PUSH32 0x8BE0079C531659141344CD1FD0A4F28419497F9722A3DAAFE3B4186F6B6457E0 PUSH1 0x40 MLOAD PUSH1 0x40 MLOAD DUP1 SWAP2 SUB SWAP1 LOG3 POP POP JUMP JUMPDEST PUSH0 PUSH1 0x20 DUP4 MLOAD LT ISZERO PUSH3 0x35C JUMPI PUSH3 0x354 DUP4 PUSH3 0x3E8 PUSH1 0x20 SHL PUSH1 0x20 SHR JUMP JUMPDEST SWAP1 POP PUSH3 0x386 JUMP JUMPDEST DUP3 PUSH3 0x36E DUP4 PUSH3 0x452 PUSH1 0x20 SHL PUSH1 0x20 SHR JUMP JUMPDEST PUSH0 ADD SWAP1 DUP2 PUSH3 0x37E SWAP2 SWAP1 PUSH3 0x754 JUMP JUMPDEST POP PUSH1 0xFF PUSH0 SHL SWAP1 POP JUMPDEST SWAP3 SWAP2 POP POP JUMP JUMPDEST PUSH0 PUSH32 0x8B73C3C69BB8FE3D512ECC4CF759CC79239F7B179B0FFACAA9A75D522B39400F PUSH1 0xE0 MLOAD PUSH2 0x100 MLOAD CHAINID ADDRESS PUSH1 0x40 MLOAD PUSH1 0x20 ADD PUSH3 0x3CD SWAP6 SWAP5 SWAP4 SWAP3 SWAP2 SWAP1 PUSH3 0x88F JUMP JUMPDEST PUSH1 0x40 MLOAD PUSH1 0x20 DUP2 DUP4 SUB SUB DUP2 MSTORE SWAP1 PUSH1 0x40 MSTORE DUP1 MLOAD SWAP1 PUSH1 0x20 ADD KECCAK256 SWAP1 POP SWAP1 JUMP JUMPDEST PUSH0 DUP1 DUP3 SWAP1 POP PUSH1 0x1F DUP2 MLOAD GT ISZERO PUSH3 0x437 JUMPI DUP3 PUSH1 0x40 MLOAD PUSH32 0x305A27A900000000000000000000000000000000000000000000000000000000 DUP2 MSTORE PUSH1 0x4 ADD PUSH3 0x42E SWAP2 SWAP1 PUSH3 0x974 JUMP JUMPDEST PUSH1 0x40 MLOAD DUP1 SWAP2 SUB SWAP1 REVERT JUMPDEST DUP1 MLOAD DUP2 PUSH3 0x445 SWAP1 PUSH3 0x9C5 JUMP JUMPDEST PUSH0 SHR OR PUSH0 SHL SWAP2 POP POP SWAP2 SWAP1 POP JUMP JUMPDEST PUSH0 DUP2 SWAP1 POP SWAP2 SWAP1 POP JUMP JUMPDEST PUSH0 DUP1 REVERT JUMPDEST PUSH0 PUSH20 0xFFFFFFFFFFFFFFFFFFFFFFFFFFFFFFFFFFFFFFFF DUP3 AND SWAP1 POP SWAP2 SWAP1 POP JUMP JUMPDEST PUSH0 PUSH3 0x48A DUP3 PUSH3 0x45F JUMP JUMPDEST SWAP1 POP SWAP2 SWAP1 POP JUMP JUMPDEST PUSH3 0x49C DUP2 PUSH3 0x47E JUMP JUMPDEST DUP2 EQ PUSH3 0x4A7 JUMPI PUSH0 DUP1 REVERT JUMPDEST POP JUMP JUMPDEST PUSH0 DUP2 MLOAD SWAP1 POP PUSH3 0x4BA DUP2 PUSH3 0x491 JUMP JUMPDEST SWAP3 SWAP2 POP POP JUMP JUMPDEST PUSH0 PUSH1 0x20 DUP3 DUP5 SUB SLT ISZERO PUSH3 0x4D8 JUMPI PUSH3 0x4D7 PUSH3 0x45B JUMP JUMPDEST JUMPDEST PUSH0 PUSH3 0x4E7 DUP5 DUP3 DUP6 ADD PUSH3 0x4AA JUMP JUMPDEST SWAP2 POP POP SWAP3 SWAP2 POP POP JUMP JUMPDEST PUSH0 DUP2 MLOAD SWAP1 POP SWAP2 SWAP1 POP JUMP JUMPDEST PUSH32 0x4E487B7100000000000000000000000000000000000000000000000000000000 PUSH0 MSTORE PUSH1 0x41 PUSH1 0x4 MSTORE PUSH1 0x24 PUSH0 REVERT JUMPDEST PUSH32 0x4E487B7100000000000000000000000000000000000000000000000000000000 PUSH0 MSTORE PUSH1 0x22 PUSH1 0x4 MSTORE PUSH1 0x24 PUSH0 REVERT JUMPDEST PUSH0 PUSH1 0x2 DUP3 DIV SWAP1 POP PUSH1 0x1 DUP3 AND DUP1 PUSH3 0x56C JUMPI PUSH1 0x7F DUP3 AND SWAP2 POP JUMPDEST PUSH1 0x20 DUP3 LT DUP2 SUB PUSH3 0x582 JUMPI PUSH3 0x581 PUSH3 0x527 JUMP JUMPDEST JUMPDEST POP SWAP2 SWAP1 POP JUMP JUMPDEST PUSH0 DUP2 SWAP1 POP DUP2 PUSH0 MSTORE PUSH1 0x20 PUSH0 KECCAK256 SWAP1 POP SWAP2 SWAP1 POP JUMP JUMPDEST PUSH0 PUSH1 0x20 PUSH1 0x1F DUP4 ADD DIV SWAP1 POP SWAP2 SWAP1 POP JUMP JUMPDEST PUSH0 DUP3 DUP3 SHL SWAP1 POP SWAP3 SWAP2 POP POP JUMP JUMPDEST PUSH0 PUSH1 0x8 DUP4 MUL PUSH3 0x5E6 PUSH32 0xFFFFFFFFFFFFFFFFFFFFFFFFFFFFFFFFFFFFFFFFFFFFFFFFFFFFFFFFFFFFFFFF DUP3 PUSH3 0x5A9 JUMP JUMPDEST PUSH3 0x5F2 DUP7 DUP4 PUSH3 0x5A9 JUMP JUMPDEST SWAP6 POP DUP1 NOT DUP5 AND SWAP4 POP DUP1 DUP7 AND DUP5 OR SWAP3 POP POP POP SWAP4 SWAP3 POP POP POP JUMP JUMPDEST PUSH0 DUP2 SWAP1 POP SWAP2 SWAP1 POP JUMP JUMPDEST PUSH0 DUP2 SWAP1 POP SWAP2 SWAP1 POP JUMP JUMPDEST PUSH0 PUSH3 0x63C PUSH3 0x636 PUSH3 0x630 DUP5 PUSH3 0x60A JUMP JUMPDEST PUSH3 0x613 JUMP JUMPDEST PUSH3 0x60A JUMP JUMPDEST SWAP1 POP SWAP2 SWAP1 POP JUMP JUMPDEST PUSH0 DUP2 SWAP1 POP SWAP2 SWAP1 POP JUMP JUMPDEST PUSH3 0x657 DUP4 PUSH3 0x61C JUMP JUMPDEST PUSH3 0x66F PUSH3 0x666 DUP3 PUSH3 0x643 JUMP JUMPDEST DUP5 DUP5 SLOAD PUSH3 0x5B5 JUMP JUMPDEST DUP3 SSTORE POP POP POP POP JUMP JUMPDEST PUSH0 SWAP1 JUMP JUMPDEST PUSH3 0x685 PUSH3 0x677 JUMP JUMPDEST PUSH3 0x692 DUP2 DUP5 DUP5 PUSH3 0x64C JUMP JUMPDEST POP POP POP JUMP JUMPDEST JUMPDEST DUP2 DUP2 LT ISZERO PUSH3 0x6B9 JUMPI PUSH3 0x6AD PUSH0 DUP3 PUSH3 0x67B JUMP JUMPDEST PUSH1 0x1 DUP2 ADD SWAP1 POP PUSH3 0x698 JUMP JUMPDEST POP POP JUMP JUMPDEST PUSH1 0x1F DUP3 GT ISZERO PUSH3 0x708 JUMPI PUSH3 0x6D2 DUP2 PUSH3 0x588 JUMP JUMPDEST PUSH3 0x6DD DUP5 PUSH3 0x59A JUMP JUMPDEST DUP2 ADD PUSH1 0x20 DUP6 LT ISZERO PUSH3 0x6ED JUMPI DUP2 SWAP1 POP JUMPDEST PUSH3 0x705 PUSH3 0x6FC DUP6 PUSH3 0x59A JUMP JUMPDEST DUP4 ADD DUP3 PUSH3 0x697 JUMP JUMPDEST POP POP JUMPDEST POP POP POP JUMP JUMPDEST PUSH0 DUP3 DUP3 SHR SWAP1 POP SWAP3 SWAP2 POP POP JUMP JUMPDEST PUSH0 PUSH3 0x72A PUSH0 NOT DUP5 PUSH1 0x8 MUL PUSH3 0x70D JUMP JUMPDEST NOT DUP1 DUP4 AND SWAP2 POP POP SWAP3 SWAP2 POP POP JUMP JUMPDEST PUSH0 PUSH3 0x744 DUP4 DUP4 PUSH3 0x719 JUMP JUMPDEST SWAP2 POP DUP3 PUSH1 0x2 MUL DUP3 OR SWAP1 POP SWAP3 SWAP2 POP POP JUMP JUMPDEST PUSH3 0x75F DUP3 PUSH3 0x4F0 JUMP JUMPDEST PUSH8 0xFFFFFFFFFFFFFFFF DUP2 GT ISZERO PUSH3 0x77B JUMPI PUSH3 0x77A PUSH3 0x4FA JUMP JUMPDEST JUMPDEST PUSH3 0x787 DUP3 SLOAD PUSH3 0x554 JUMP JUMPDEST PUSH3 0x794 DUP3 DUP3 DUP6 PUSH3 0x6BD JUMP JUMPDEST PUSH0 PUSH1 0x20 SWAP1 POP PUSH1 0x1F DUP4 GT PUSH1 0x1 DUP2 EQ PUSH3 0x7CA JUMPI PUSH0 DUP5 ISZERO PUSH3 0x7B5 JUMPI DUP3 DUP8 ADD MLOAD SWAP1 POP JUMPDEST PUSH3 0x7C1 DUP6 DUP3 PUSH3 0x737 JUMP JUMPDEST DUP7 SSTORE POP PUSH3 0x830 JUMP JUMPDEST PUSH1 0x1F NOT DUP5 AND PUSH3 0x7DA DUP7 PUSH3 0x588 JUMP JUMPDEST PUSH0 JUMPDEST DUP3 DUP2 LT ISZERO PUSH3 0x803 JUMPI DUP5 DUP10 ADD MLOAD DUP3 SSTORE PUSH1 0x1 DUP3 ADD SWAP2 POP PUSH1 0x20 DUP6 ADD SWAP5 POP PUSH1 0x20 DUP2 ADD SWAP1 POP PUSH3 0x7DC JUMP JUMPDEST DUP7 DUP4 LT ISZERO PUSH3 0x823 JUMPI DUP5 DUP10 ADD MLOAD PUSH3 0x81F PUSH1 0x1F DUP10 AND DUP3 PUSH3 0x719 JUMP JUMPDEST DUP4 SSTORE POP JUMPDEST PUSH1 0x1 PUSH1 0x2 DUP9 MUL ADD DUP9 SSTORE POP POP POP JUMPDEST POP POP POP POP POP POP JUMP JUMPDEST PUSH3 0x843 DUP2 PUSH3 0x47E JUMP JUMPDEST DUP3 MSTORE POP POP JUMP JUMPDEST PUSH0 PUSH1 0x20 DUP3 ADD SWAP1 POP PUSH3 0x85E PUSH0 DUP4 ADD DUP5 PUSH3 0x838 JUMP JUMPDEST SWAP3 SWAP2 POP POP JUMP JUMPDEST PUSH0 DUP2 SWAP1 POP SWAP2 SWAP1 POP JUMP JUMPDEST PUSH3 0x878 DUP2 PUSH3 0x864 JUMP JUMPDEST DUP3 MSTORE POP POP JUMP JUMPDEST PUSH3 0x889 DUP2 PUSH3 0x60A JUMP JUMPDEST DUP3 MSTORE POP POP JUMP JUMPDEST PUSH0 PUSH1 0xA0 DUP3 ADD SWAP1 POP PUSH3 0x8A4 PUSH0 DUP4 ADD DUP9 PUSH3 0x86D JUMP JUMPDEST PUSH3 0x8B3 PUSH1 0x20 DUP4 ADD DUP8 PUSH3 0x86D JUMP JUMPDEST PUSH3 0x8C2 PUSH1 0x40 DUP4 ADD DUP7 PUSH3 0x86D JUMP JUMPDEST PUSH3 0x8D1 PUSH1 0x60 DUP4 ADD DUP6 PUSH3 0x87E JUMP JUMPDEST PUSH3 0x8E0 PUSH1 0x80 DUP4 ADD DUP5 PUSH3 0x838 JUMP JUMPDEST SWAP7 SWAP6 POP POP POP POP POP POP JUMP JUMPDEST PUSH0 DUP3 DUP3 MSTORE PUSH1 0x20 DUP3 ADD SWAP1 POP SWAP3 SWAP2 POP POP JUMP JUMPDEST PUSH0 JUMPDEST DUP4 DUP2 LT ISZERO PUSH3 0x919 JUMPI DUP1 DUP3 ADD MLOAD DUP2 DUP5 ADD MSTORE PUSH1 0x20 DUP2 ADD SWAP1 POP PUSH3 0x8FC JUMP JUMPDEST PUSH0 DUP5 DUP5 ADD MSTORE POP POP POP POP JUMP JUMPDEST PUSH0 PUSH1 0x1F NOT PUSH1 0x1F DUP4 ADD AND SWAP1 POP SWAP2 SWAP1 POP JUMP JUMPDEST PUSH0 PUSH3 0x940 DUP3 PUSH3 0x4F0 JUMP JUMPDEST PUSH3 0x94C DUP2 DUP6 PUSH3 0x8EA JUMP JUMPDEST SWAP4 POP PUSH3 0x95E DUP2 DUP6 PUSH1 0x20 DUP7 ADD PUSH3 0x8FA JUMP JUMPDEST PUSH3 0x969 DUP2 PUSH3 0x924 JUMP JUMPDEST DUP5 ADD SWAP2 POP POP SWAP3 SWAP2 POP POP JUMP JUMPDEST PUSH0 PUSH1 0x20 DUP3 ADD SWAP1 POP DUP2 DUP2 SUB PUSH0 DUP4 ADD MSTORE PUSH3 0x98E DUP2 DUP5 PUSH3 0x934 JUMP JUMPDEST SWAP1 POP SWAP3 SWAP2 POP POP JUMP JUMPDEST PUSH0 DUP2 MLOAD SWAP1 POP SWAP2 SWAP1 POP JUMP JUMPDEST PUSH0 DUP2 SWAP1 POP PUSH1 0x20 DUP3 ADD SWAP1 POP SWAP2 SWAP1 POP JUMP JUMPDEST PUSH0 PUSH3 0x9BC DUP3 MLOAD PUSH3 0x864 JUMP JUMPDEST DUP1 SWAP2 POP POP SWAP2 SWAP1 POP JUMP JUMPDEST PUSH0 PUSH3 0x9D1 DUP3 PUSH3 0x996 JUMP JUMPDEST DUP3 PUSH3 0x9DD DUP5 PUSH3 0x9A0 JUMP JUMPDEST SWAP1 POP PUSH3 0x9EA DUP2 PUSH3 0x9AF JUMP JUMPDEST SWAP3 POP PUSH1 0x20 DUP3 LT ISZERO PUSH3 0xA2D JUMPI PUSH3 0xA28 PUSH32 0xFFFFFFFFFFFFFFFFFFFFFFFFFFFFFFFFFFFFFFFFFFFFFFFFFFFFFFFFFFFFFFFF DUP4 PUSH1 0x20 SUB PUSH1 0x8 MUL PUSH3 0x5A9 JUMP JUMPDEST DUP4 AND SWAP3 POP JUMPDEST POP POP SWAP2 SWAP1 POP JUMP JUMPDEST PUSH1 0x80 MLOAD PUSH1 0xA0 MLOAD PUSH1 0xC0 MLOAD PUSH1 0xE0 MLOAD PUSH2 0x100 MLOAD PUSH2 0x120 MLOAD PUSH2 0x140 MLOAD PUSH2 0x2145 PUSH3 0xA86 PUSH0 CODECOPY PUSH0 PUSH2 0xDCE ADD MSTORE PUSH0 PUSH2 0xD93 ADD MSTORE PUSH0 PUSH2 0x12C7 ADD MSTORE PUSH0 PUSH2 0x12A6 ADD MSTORE PUSH0 PUSH2 0xAC8 ADD MSTORE PUSH0 PUSH2 0xB1E ADD MSTORE PUSH0 PUSH2 0xB47 ADD MSTORE PUSH2 0x2145 PUSH0 RETURN INVALID PUSH1 0x80 PUSH1 0x40 MSTORE CALLVALUE DUP1 ISZERO PUSH2 0xF JUMPI PUSH0 DUP1 REVERT JUMPDEST POP PUSH1 0x4 CALLDATASIZE LT PUSH2 0x114 JUMPI PUSH0 CALLDATALOAD PUSH1 0xE0 SHR DUP1 PUSH4 0x7ECEBE00 GT PUSH2 0xA0 JUMPI DUP1 PUSH4 0xA9059CBB GT PUSH2 0x6F JUMPI DUP1 PUSH4 0xA9059CBB EQ PUSH2 0x2D6 JUMPI DUP1 PUSH4 0xAD24B8D0 EQ PUSH2 0x306 JUMPI DUP1 PUSH4 0xD505ACCF EQ PUSH2 0x336 JUMPI DUP1 PUSH4 0xDD62ED3E EQ PUSH2 0x352 JUMPI DUP1 PUSH4 0xF2FDE38B EQ PUSH2 0x382 JUMPI PUSH2 0x114 JUMP JUMPDEST DUP1 PUSH4 0x7ECEBE00 EQ PUSH2 0x246 JUMPI DUP1 PUSH4 0x84B0196E EQ PUSH2 0x276 JUMPI DUP1 PUSH4 0x8DA5CB5B EQ PUSH2 0x29A JUMPI DUP1 PUSH4 0x95D89B41 EQ PUSH2 0x2B8 JUMPI PUSH2 0x114 JUMP JUMPDEST DUP1 PUSH4 0x313CE567 GT PUSH2 0xE7 JUMPI DUP1 PUSH4 0x313CE567 EQ PUSH2 0x1B4 JUMPI DUP1 PUSH4 0x3644E515 EQ PUSH2 0x1D2 JUMPI DUP1 PUSH4 0x40C10F19 EQ PUSH2 0x1F0 JUMPI DUP1 PUSH4 0x70A08231 EQ PUSH2 0x20C JUMPI DUP1 PUSH4 0x715018A6 EQ PUSH2 0x23C JUMPI PUSH2 0x114 JUMP JUMPDEST DUP1 PUSH4 0x6FDDE03 EQ PUSH2 0x118 JUMPI DUP1 PUSH4 0x95EA7B3 EQ PUSH2 0x136 JUMPI DUP1 PUSH4 0x18160DDD EQ PUSH2 0x166 JUMPI DUP1 PUSH4 0x23B872DD EQ PUSH2 0x184 JUMPI JUMPDEST PUSH0 DUP1 REVERT JUMPDEST PUSH2 0x120 PUSH2 0x39E JUMP JUMPDEST PUSH1 0x40 MLOAD PUSH2 0x12D SWAP2 SWAP1 PUSH2 0x1797 JUMP JUMPDEST PUSH1 0x40 MLOAD DUP1 SWAP2 SUB SWAP1 RETURN JUMPDEST PUSH2 0x150 PUSH1 0x4 DUP1 CALLDATASIZE SUB DUP2 ADD SWAP1 PUSH2 0x14B SWAP2 SWAP1 PUSH2 0x1848 JUMP JUMPDEST PUSH2 0x42E JUMP JUMPDEST PUSH1 0x40 MLOAD PUSH2 0x15D SWAP2 SWAP1 PUSH2 0x18A0 JUMP JUMPDEST PUSH1 0x40 MLOAD DUP1 SWAP2 SUB SWAP1 RETURN JUMPDEST PUSH2 0x16E PUSH2 0x450 JUMP JUMPDEST PUSH1 0x40 MLOAD PUSH2 0x17B SWAP2 SWAP1 PUSH2 0x18C8 JUMP JUMPDEST PUSH1 0x40 MLOAD DUP1 SWAP2 SUB SWAP1 RETURN JUMPDEST PUSH2 0x19E PUSH1 0x4 DUP1 CALLDATASIZE SUB DUP2 ADD SWAP1 PUSH2 0x199 SWAP2 SWAP1 PUSH2 0x18E1 JUMP JUMPDEST PUSH2 0x459 JUMP JUMPDEST PUSH1 0x40 MLOAD PUSH2 0x1AB SWAP2 SWAP1 PUSH2 0x18A0 JUMP JUMPDEST PUSH1 0x40 MLOAD DUP1 SWAP2 SUB SWAP1 RETURN JUMPDEST PUSH2 0x1BC PUSH2 0x487 JUMP JUMPDEST PUSH1 0x40 MLOAD PUSH2 0x1C9 SWAP2 SWAP1 PUSH2 0x194C JUMP JUMPDEST PUSH1 0x40 MLOAD DUP1 SWAP2 SUB SWAP1 RETURN JUMPDEST PUSH2 0x1DA PUSH2 0x48F JUMP JUMPDEST PUSH1 0x40 MLOAD PUSH2 0x1E7 SWAP2 SWAP1 PUSH2 0x197D JUMP JUMPDEST PUSH1 0x40 MLOAD DUP1 SWAP2 SUB SWAP1 RETURN JUMPDEST PUSH2 0x20A PUSH1 0x4 DUP1 CALLDATASIZE SUB DUP2 ADD SWAP1 PUSH2 0x205 SWAP2 SWAP1 PUSH2 0x1848 JUMP JUMPDEST PUSH2 0x49D JUMP JUMPDEST STOP JUMPDEST PUSH2 0x226 PUSH1 0x4 DUP1 CALLDATASIZE SUB DUP2 ADD SWAP1 PUSH2 0x221 SWAP2 SWAP1 PUSH2 0x1996 JUMP JUMPDEST PUSH2 0x4D4 JUMP JUMPDEST PUSH1 0x40 MLOAD PUSH2 0x233 SWAP2 SWAP1 PUSH2 0x18C8 JUMP JUMPDEST PUSH1 0x40 MLOAD DUP1 SWAP2 SUB SWAP1 RETURN JUMPDEST PUSH2 0x244 PUSH2 0x519 JUMP JUMPDEST STOP JUMPDEST PUSH2 0x260 PUSH1 0x4 DUP1 CALLDATASIZE SUB DUP2 ADD SWAP1 PUSH2 0x25B SWAP2 SWAP1 PUSH2 0x1996 JUMP JUMPDEST PUSH2 0x52C JUMP JUMPDEST PUSH1 0x40 MLOAD PUSH2 0x26D SWAP2 SWAP1 PUSH2 0x18C8 JUMP JUMPDEST PUSH1 0x40 MLOAD DUP1 SWAP2 SUB SWAP1 RETURN JUMPDEST PUSH2 0x27E PUSH2 0x53D JUMP JUMPDEST PUSH1 0x40 MLOAD PUSH2 0x291 SWAP8 SWAP7 SWAP6 SWAP5 SWAP4 SWAP3 SWAP2 SWAP1 PUSH2 0x1AC1 JUMP JUMPDEST PUSH1 0x40 MLOAD DUP1 SWAP2 SUB SWAP1 RETURN JUMPDEST PUSH2 0x2A2 PUSH2 0x5E2 JUMP JUMPDEST PUSH1 0x40 MLOAD PUSH2 0x2AF SWAP2 SWAP1 PUSH2 0x1B43 JUMP JUMPDEST PUSH1 0x40 MLOAD DUP1 SWAP2 SUB SWAP1 RETURN JUMPDEST PUSH2 0x2C0 PUSH2 0x60A JUMP JUMPDEST PUSH1 0x40 MLOAD PUSH2 0x2CD SWAP2 SWAP1 PUSH2 0x1797 JUMP JUMPDEST PUSH1 0x40 MLOAD DUP1 SWAP2 SUB SWAP1 RETURN JUMPDEST PUSH2 0x2F0 PUSH1 0x4 DUP1 CALLDATASIZE SUB DUP2 ADD SWAP1 PUSH2 0x2EB SWAP2 SWAP1 PUSH2 0x1848 JUMP JUMPDEST PUSH2 0x69A JUMP JUMPDEST PUSH1 0x40 MLOAD PUSH2 0x2FD SWAP2 SWAP1 PUSH2 0x18A0 JUMP JUMPDEST PUSH1 0x40 MLOAD DUP1 SWAP2 SUB SWAP1 RETURN JUMPDEST PUSH2 0x320 PUSH1 0x4 DUP1 CALLDATASIZE SUB DUP2 ADD SWAP1 PUSH2 0x31B SWAP2 SWAP1 PUSH2 0x1B5C JUMP JUMPDEST PUSH2 0x6BC JUMP JUMPDEST PUSH1 0x40 MLOAD PUSH2 0x32D SWAP2 SWAP1 PUSH2 0x18A0 JUMP JUMPDEST PUSH1 0x40 MLOAD DUP1 SWAP2 SUB SWAP1 RETURN JUMPDEST PUSH2 0x350 PUSH1 0x4 DUP1 CALLDATASIZE SUB DUP2 ADD SWAP1 PUSH2 0x34B SWAP2 SWAP1 PUSH2 0x1C14 JUMP JUMPDEST PUSH2 0x6DF JUMP JUMPDEST STOP JUMPDEST PUSH2 0x36C PUSH1 0x4 DUP1 CALLDATASIZE SUB DUP2 ADD SWAP1 PUSH2 0x367 SWAP2 SWAP1 PUSH2 0x1CB1 JUMP JUMPDEST PUSH2 0x824 JUMP JUMPDEST PUSH1 0x40 MLOAD PUSH2 0x379 SWAP2 SWAP1 PUSH2 0x18C8 JUMP JUMPDEST PUSH1 0x40 MLOAD DUP1 SWAP2 SUB SWAP1 RETURN JUMPDEST PUSH2 0x39C PUSH1 0x4 DUP1 CALLDATASIZE SUB DUP2 ADD SWAP1 PUSH2 0x397 SWAP2 SWAP1 PUSH2 0x1996 JUMP JUMPDEST PUSH2 0x8A6 JUMP JUMPDEST STOP JUMPDEST PUSH1 0x60 PUSH1 0x3 DUP1 SLOAD PUSH2 0x3AD SWAP1 PUSH2 0x1D1C JUMP JUMPDEST DUP1 PUSH1 0x1F ADD PUSH1 0x20 DUP1 SWAP2 DIV MUL PUSH1 0x20 ADD PUSH1 0x40 MLOAD SWAP1 DUP2 ADD PUSH1 0x40 MSTORE DUP1 SWAP3 SWAP2 SWAP1 DUP2 DUP2 MSTORE PUSH1 0x20 ADD DUP3 DUP1 SLOAD PUSH2 0x3D9 SWAP1 PUSH2 0x1D1C JUMP JUMPDEST DUP1 ISZERO PUSH2 0x424 JUMPI DUP1 PUSH1 0x1F LT PUSH2 0x3FB JUMPI PUSH2 0x100 DUP1 DUP4 SLOAD DIV MUL DUP4 MSTORE SWAP2 PUSH1 0x20 ADD SWAP2 PUSH2 0x424 JUMP JUMPDEST DUP3 ADD SWAP2 SWAP1 PUSH0 MSTORE PUSH1 0x20 PUSH0 KECCAK256 SWAP1 JUMPDEST DUP2 SLOAD DUP2 MSTORE SWAP1 PUSH1 0x1 ADD SWAP1 PUSH1 0x20 ADD DUP1 DUP4 GT PUSH2 0x407 JUMPI DUP3 SWAP1 SUB PUSH1 0x1F AND DUP3 ADD SWAP2 JUMPDEST POP POP POP POP POP SWAP1 POP SWAP1 JUMP JUMPDEST PUSH0 DUP1 PUSH2 0x438 PUSH2 0x92A JUMP JUMPDEST SWAP1 POP PUSH2 0x445 DUP2 DUP6 DUP6 PUSH2 0x931 JUMP JUMPDEST PUSH1 0x1 SWAP2 POP POP SWAP3 SWAP2 POP POP JUMP JUMPDEST PUSH0 PUSH1 0x2 SLOAD SWAP1 POP SWAP1 JUMP JUMPDEST PUSH0 DUP1 PUSH2 0x463 PUSH2 0x92A JUMP JUMPDEST SWAP1 POP PUSH2 0x470 DUP6 DUP3 DUP6 PUSH2 0x943 JUMP JUMPDEST PUSH2 0x47B DUP6 DUP6 DUP6 PUSH2 0x9D5 JUMP JUMPDEST PUSH1 0x1 SWAP2 POP POP SWAP4 SWAP3 POP POP POP JUMP JUMPDEST PUSH0 PUSH1 0x12 SWAP1 POP SWAP1 JUMP JUMPDEST PUSH0 PUSH2 0x498 PUSH2 0xAC5 JUMP JUMPDEST SWAP1 POP SWAP1 JUMP JUMPDEST PUSH2 0x4A5 PUSH2 0xB7B JUMP JUMPDEST PUSH2 0x4D0 DUP3 PUSH2 0x4B1 PUSH2 0x487 JUMP JUMPDEST PUSH1 0xFF AND PUSH1 0xA PUSH2 0x4C0 SWAP2 SWAP1 PUSH2 0x1EA8 JUMP JUMPDEST DUP4 PUSH2 0x4CB SWAP2 SWAP1 PUSH2 0x1EF2 JUMP JUMPDEST PUSH2 0xC02 JUMP JUMPDEST POP POP JUMP JUMPDEST PUSH0 DUP1 PUSH0 DUP4 PUSH20 0xFFFFFFFFFFFFFFFFFFFFFFFFFFFFFFFFFFFFFFFF AND PUSH20 0xFFFFFFFFFFFFFFFFFFFFFFFFFFFFFFFFFFFFFFFF AND DUP2 MSTORE PUSH1 0x20 ADD SWAP1 DUP2 MSTORE PUSH1 0x20 ADD PUSH0 KECCAK256 SLOAD SWAP1 POP SWAP2 SWAP1 POP JUMP JUMPDEST PUSH2 0x521 PUSH2 0xB7B JUMP JUMPDEST PUSH2 0x52A PUSH0 PUSH2 0xC81 JUMP JUMPDEST JUMP JUMPDEST PUSH0 PUSH2 0x536 DUP3 PUSH2 0xD44 JUMP JUMPDEST SWAP1 POP SWAP2 SWAP1 POP JUMP JUMPDEST PUSH0 PUSH1 0x60 DUP1 PUSH0 DUP1 PUSH0 PUSH1 0x60 PUSH2 0x54E PUSH2 0xD8A JUMP JUMPDEST PUSH2 0x556 PUSH2 0xDC5 JUMP JUMPDEST CHAINID ADDRESS PUSH0 DUP1 SHL PUSH0 PUSH8 0xFFFFFFFFFFFFFFFF DUP2 GT ISZERO PUSH2 0x575 JUMPI PUSH2 0x574 PUSH2 0x1F33 JUMP JUMPDEST JUMPDEST PUSH1 0x40 MLOAD SWAP1 DUP1 DUP3 MSTORE DUP1 PUSH1 0x20 MUL PUSH1 0x20 ADD DUP3 ADD PUSH1 0x40 MSTORE DUP1 ISZERO PUSH2 0x5A3 JUMPI DUP2 PUSH1 0x20 ADD PUSH1 0x20 DUP3 MUL DUP1 CALLDATASIZE DUP4 CALLDATACOPY DUP1 DUP3 ADD SWAP2 POP POP SWAP1 POP JUMPDEST POP PUSH32 0xF00000000000000000000000000000000000000000000000000000000000000 SWAP6 SWAP5 SWAP4 SWAP3 SWAP2 SWAP1 SWAP7 POP SWAP7 POP SWAP7 POP SWAP7 POP SWAP7 POP SWAP7 POP SWAP7 POP SWAP1 SWAP2 SWAP3 SWAP4 SWAP5 SWAP6 SWAP7 JUMP JUMPDEST PUSH0 PUSH1 0x5 PUSH0 SWAP1 SLOAD SWAP1 PUSH2 0x100 EXP SWAP1 DIV PUSH20 0xFFFFFFFFFFFFFFFFFFFFFFFFFFFFFFFFFFFFFFFF AND SWAP1 POP SWAP1 JUMP JUMPDEST PUSH1 0x60 PUSH1 0x4 DUP1 SLOAD PUSH2 0x619 SWAP1 PUSH2 0x1D1C JUMP JUMPDEST DUP1 PUSH1 0x1F ADD PUSH1 0x20 DUP1 SWAP2 DIV MUL PUSH1 0x20 ADD PUSH1 0x40 MLOAD SWAP1 DUP2 ADD PUSH1 0x40 MSTORE DUP1 SWAP3 SWAP2 SWAP1 DUP2 DUP2 MSTORE PUSH1 0x20 ADD DUP3 DUP1 SLOAD PUSH2 0x645 SWAP1 PUSH2 0x1D1C JUMP JUMPDEST DUP1 ISZERO PUSH2 0x690 JUMPI DUP1 PUSH1 0x1F LT PUSH2 0x667 JUMPI PUSH2 0x100 DUP1 DUP4 SLOAD DIV MUL DUP4 MSTORE SWAP2 PUSH1 0x20 ADD SWAP2 PUSH2 0x690 JUMP JUMPDEST DUP3 ADD SWAP2 SWAP1 PUSH0 MSTORE PUSH1 0x20 PUSH0 KECCAK256 SWAP1 JUMPDEST DUP2 SLOAD DUP2 MSTORE SWAP1 PUSH1 0x1 ADD SWAP1 PUSH1 0x20 ADD DUP1 DUP4 GT PUSH2 0x673 JUMPI DUP3 SWAP1 SUB PUSH1 0x1F AND DUP3 ADD SWAP2 JUMPDEST POP POP POP POP POP SWAP1 POP SWAP1 JUMP JUMPDEST PUSH0 DUP1 PUSH2 0x6A4 PUSH2 0x92A JUMP JUMPDEST SWAP1 POP PUSH2 0x6B1 DUP2 DUP6 DUP6 PUSH2 0x9D5 JUMP JUMPDEST PUSH1 0x1 SWAP2 POP POP SWAP3 SWAP2 POP POP JUMP JUMPDEST PUSH0 PUSH2 0x6C8 DUP3 DUP7 DUP6 PUSH2 0x943 JUMP JUMPDEST PUSH2 0x6D3 DUP6 DUP6 DUP6 PUSH2 0x9D5 JUMP JUMPDEST PUSH1 0x1 SWAP1 POP SWAP5 SWAP4 POP POP POP POP JUMP JUMPDEST DUP4 TIMESTAMP GT ISZERO PUSH2 0x724 JUMPI DUP4 PUSH1 0x40 MLOAD PUSH32 0x6279130200000000000000000000000000000000000000000000000000000000 DUP2 MSTORE PUSH1 0x4 ADD PUSH2 0x71B SWAP2 SWAP1 PUSH2 0x18C8 JUMP JUMPDEST PUSH1 0x40 MLOAD DUP1 SWAP2 SUB SWAP1 REVERT JUMPDEST PUSH0 PUSH32 0x6E71EDAE12B1B97F4D1F60370FEF10105FA2FAAE0126114A169C64845D6126C9 DUP9 DUP9 DUP9 PUSH2 0x752 DUP13 PUSH2 0xE00 JUMP JUMPDEST DUP10 PUSH1 0x40 MLOAD PUSH1 0x20 ADD PUSH2 0x768 SWAP7 SWAP6 SWAP5 SWAP4 SWAP3 SWAP2 SWAP1 PUSH2 0x1F60 JUMP JUMPDEST PUSH1 0x40 MLOAD PUSH1 0x20 DUP2 DUP4 SUB SUB DUP2 MSTORE SWAP1 PUSH1 0x40 MSTORE DUP1 MLOAD SWAP1 PUSH1 0x20 ADD KECCAK256 SWAP1 POP PUSH0 PUSH2 0x78A DUP3 PUSH2 0xE53 JUMP JUMPDEST SWAP1 POP PUSH0 PUSH2 0x799 DUP3 DUP8 DUP8 DUP8 PUSH2 0xE6C JUMP JUMPDEST SWAP1 POP DUP10 PUSH20 0xFFFFFFFFFFFFFFFFFFFFFFFFFFFFFFFFFFFFFFFF AND DUP2 PUSH20 0xFFFFFFFFFFFFFFFFFFFFFFFFFFFFFFFFFFFFFFFF AND EQ PUSH2 0x80D JUMPI DUP1 DUP11 PUSH1 0x40 MLOAD PUSH32 0x4B800E4600000000000000000000000000000000000000000000000000000000 DUP2 MSTORE PUSH1 0x4 ADD PUSH2 0x804 SWAP3 SWAP2 SWAP1 PUSH2 0x1FBF JUMP JUMPDEST PUSH1 0x40 MLOAD DUP1 SWAP2 SUB SWAP1 REVERT JUMPDEST PUSH2 0x818 DUP11 DUP11 DUP11 PUSH2 0x931 JUMP JUMPDEST POP POP POP POP POP POP POP POP POP POP JUMP JUMPDEST PUSH0 PUSH1 0x1 PUSH0 DUP5 PUSH20 0xFFFFFFFFFFFFFFFFFFFFFFFFFFFFFFFFFFFFFFFF AND PUSH20 0xFFFFFFFFFFFFFFFFFFFFFFFFFFFFFFFFFFFFFFFF AND DUP2 MSTORE PUSH1 0x20 ADD SWAP1 DUP2 MSTORE PUSH1 0x20 ADD PUSH0 KECCAK256 PUSH0 DUP4 PUSH20 0xFFFFFFFFFFFFFFFFFFFFFFFFFFFFFFFFFFFFFFFF AND PUSH20 0xFFFFFFFFFFFFFFFFFFFFFFFFFFFFFFFFFFFFFFFF AND DUP2 MSTORE PUSH1 0x20 ADD SWAP1 DUP2 MSTORE PUSH1 0x20 ADD PUSH0 KECCAK256 SLOAD SWAP1 POP SWAP3 SWAP2 POP POP JUMP JUMPDEST PUSH2 0x8AE PUSH2 0xB7B JUMP JUMPDEST PUSH0 PUSH20 0xFFFFFFFFFFFFFFFFFFFFFFFFFFFFFFFFFFFFFFFF AND DUP2 PUSH20 0xFFFFFFFFFFFFFFFFFFFFFFFFFFFFFFFFFFFFFFFF AND SUB PUSH2 0x91E JUMPI PUSH0 PUSH1 0x40 MLOAD PUSH32 0x1E4FBDF700000000000000000000000000000000000000000000000000000000 DUP2 MSTORE PUSH1 0x4 ADD PUSH2 0x915 SWAP2 SWAP1 PUSH2 0x1B43 JUMP JUMPDEST PUSH1 0x40 MLOAD DUP1 SWAP2 SUB SWAP1 REVERT JUMPDEST PUSH2 0x927 DUP2 PUSH2 0xC81 JUMP JUMPDEST POP JUMP JUMPDEST PUSH0 CALLER SWAP1 POP SWAP1 JUMP JUMPDEST PUSH2 0x93E DUP4 DUP4 DUP4 PUSH1 0x1 PUSH2 0xE9A JUMP JUMPDEST POP POP POP JUMP JUMPDEST PUSH0 PUSH2 0x94E DUP5 DUP5 PUSH2 0x824 JUMP JUMPDEST SWAP1 POP PUSH32 0xFFFFFFFFFFFFFFFFFFFFFFFFFFFFFFFFFFFFFFFFFFFFFFFFFFFFFFFFFFFFFFFF DUP2 EQ PUSH2 0x9CF JUMPI DUP2 DUP2 LT ISZERO PUSH2 0x9C0 JUMPI DUP3 DUP2 DUP4 PUSH1 0x40 MLOAD PUSH32 0xFB8F41B200000000000000000000000000000000000000000000000000000000 DUP2 MSTORE PUSH1 0x4 ADD PUSH2 0x9B7 SWAP4 SWAP3 SWAP2 SWAP1 PUSH2 0x1FE6 JUMP JUMPDEST PUSH1 0x40 MLOAD DUP1 SWAP2 SUB SWAP1 REVERT JUMPDEST PUSH2 0x9CE DUP5 DUP5 DUP5 DUP5 SUB PUSH0 PUSH2 0xE9A JUMP JUMPDEST JUMPDEST POP POP POP POP JUMP JUMPDEST PUSH0 PUSH20 0xFFFFFFFFFFFFFFFFFFFFFFFFFFFFFFFFFFFFFFFF AND DUP4 PUSH20 0xFFFFFFFFFFFFFFFFFFFFFFFFFFFFFFFFFFFFFFFF AND SUB PUSH2 0xA45 JUMPI PUSH0 PUSH1 0x40 MLOAD PUSH32 0x96C6FD1E00000000000000000000000000000000000000000000000000000000 DUP2 MSTORE PUSH1 0x4 ADD PUSH2 0xA3C SWAP2 SWAP1 PUSH2 0x1B43 JUMP JUMPDEST PUSH1 0x40 MLOAD DUP1 SWAP2 SUB SWAP1 REVERT JUMPDEST PUSH0 PUSH20 0xFFFFFFFFFFFFFFFFFFFFFFFFFFFFFFFFFFFFFFFF AND DUP3 PUSH20 0xFFFFFFFFFFFFFFFFFFFFFFFFFFFFFFFFFFFFFFFF AND SUB PUSH2 0xAB5 JUMPI PUSH0 PUSH1 0x40 MLOAD PUSH32 0xEC442F0500000000000000000000000000000000000000000000000000000000 DUP2 MSTORE PUSH1 0x4 ADD PUSH2 0xAAC SWAP2 SWAP1 PUSH2 0x1B43 JUMP JUMPDEST PUSH1 0x40 MLOAD DUP1 SWAP2 SUB SWAP1 REVERT JUMPDEST PUSH2 0xAC0 DUP4 DUP4 DUP4 PUSH2 0x1069 JUMP JUMPDEST POP POP POP JUMP JUMPDEST PUSH0 PUSH32 0x0 PUSH20 0xFFFFFFFFFFFFFFFFFFFFFFFFFFFFFFFFFFFFFFFF AND ADDRESS PUSH20 0xFFFFFFFFFFFFFFFFFFFFFFFFFFFFFFFFFFFFFFFF AND EQ DUP1 ISZERO PUSH2 0xB40 JUMPI POP PUSH32 0x0 CHAINID EQ JUMPDEST ISZERO PUSH2 0xB6D JUMPI PUSH32 0x0 SWAP1 POP PUSH2 0xB78 JUMP JUMPDEST PUSH2 0xB75 PUSH2 0x1282 JUMP JUMPDEST SWAP1 POP JUMPDEST SWAP1 JUMP JUMPDEST PUSH2 0xB83 PUSH2 0x92A JUMP JUMPDEST PUSH20 0xFFFFFFFFFFFFFFFFFFFFFFFFFFFFFFFFFFFFFFFF AND PUSH2 0xBA1 PUSH2 0x5E2 JUMP JUMPDEST PUSH20 0xFFFFFFFFFFFFFFFFFFFFFFFFFFFFFFFFFFFFFFFF AND EQ PUSH2 0xC00 JUMPI PUSH2 0xBC4 PUSH2 0x92A JUMP JUMPDEST PUSH1 0x40 MLOAD PUSH32 0x118CDAA700000000000000000000000000000000000000000000000000000000 DUP2 MSTORE PUSH1 0x4 ADD PUSH2 0xBF7 SWAP2 SWAP1 PUSH2 0x1B43 JUMP JUMPDEST PUSH1 0x40 MLOAD DUP1 SWAP2 SUB SWAP1 REVERT JUMPDEST JUMP JUMPDEST PUSH0 PUSH20 0xFFFFFFFFFFFFFFFFFFFFFFFFFFFFFFFFFFFFFFFF AND DUP3 PUSH20 0xFFFFFFFFFFFFFFFFFFFFFFFFFFFFFFFFFFFFFFFF AND SUB PUSH2 0xC72 JUMPI PUSH0 PUSH1 0x40 MLOAD PUSH32 0xEC442F0500000000000000000000000000000000000000000000000000000000 DUP2 MSTORE PUSH1 0x4 ADD PUSH2 0xC69 SWAP2 SWAP1 PUSH2 0x1B43 JUMP JUMPDEST PUSH1 0x40 MLOAD DUP1 SWAP2 SUB SWAP1 REVERT JUMPDEST PUSH2 0xC7D PUSH0 DUP4 DUP4 PUSH2 0x1069 JUMP JUMPDEST POP POP JUMP JUMPDEST PUSH0 PUSH1 0x5 PUSH0 SWAP1 SLOAD SWAP1 PUSH2 0x100 EXP SWAP1 DIV PUSH20 0xFFFFFFFFFFFFFFFFFFFFFFFFFFFFFFFFFFFFFFFF AND SWAP1 POP DUP2 PUSH1 0x5 PUSH0 PUSH2 0x100 EXP DUP2 SLOAD DUP2 PUSH20 0xFFFFFFFFFFFFFFFFFFFFFFFFFFFFFFFFFFFFFFFF MUL NOT AND SWAP1 DUP4 PUSH20 0xFFFFFFFFFFFFFFFFFFFFFFFFFFFFFFFFFFFFFFFF AND MUL OR SWAP1 SSTORE POP DUP2 PUSH20 0xFFFFFFFFFFFFFFFFFFFFFFFFFFFFFFFFFFFFFFFF AND DUP2 PUSH20 0xFFFFFFFFFFFFFFFFFFFFFFFFFFFFFFFFFFFFFFFF AND PUSH32 0x8BE0079C531659141344CD1FD0A4F28419497F9722A3DAAFE3B4186F6B6457E0 PUSH1 0x40 MLOAD PUSH1 0x40 MLOAD DUP1 SWAP2 SUB SWAP1 LOG3 POP POP JUMP JUMPDEST PUSH0 PUSH1 0x8 PUSH0 DUP4 PUSH20 0xFFFFFFFFFFFFFFFFFFFFFFFFFFFFFFFFFFFFFFFF AND PUSH20 0xFFFFFFFFFFFFFFFFFFFFFFFFFFFFFFFFFFFFFFFF AND DUP2 MSTORE PUSH1 0x20 ADD SWAP1 DUP2 MSTORE PUSH1 0x20 ADD PUSH0 KECCAK256 SLOAD SWAP1 POP SWAP2 SWAP1 POP JUMP JUMPDEST PUSH1 0x60 PUSH2 0xDC0 PUSH1 0x6 PUSH32 0x0 PUSH2 0x1317 SWAP1 SWAP2 SWAP1 PUSH4 0xFFFFFFFF AND JUMP JUMPDEST SWAP1 POP SWAP1 JUMP JUMPDEST PUSH1 0x60 PUSH2 0xDFB PUSH1 0x7 PUSH32 0x0 PUSH2 0x1317 SWAP1 SWAP2 SWAP1 PUSH4 0xFFFFFFFF AND JUMP JUMPDEST SWAP1 POP SWAP1 JUMP JUMPDEST PUSH0 PUSH1 0x8 PUSH0 DUP4 PUSH20 0xFFFFFFFFFFFFFFFFFFFFFFFFFFFFFFFFFFFFFFFF AND PUSH20 0xFFFFFFFFFFFFFFFFFFFFFFFFFFFFFFFFFFFFFFFF AND DUP2 MSTORE PUSH1 0x20 ADD SWAP1 DUP2 MSTORE PUSH1 0x20 ADD PUSH0 KECCAK256 PUSH0 DUP2 SLOAD DUP1 SWAP3 SWAP2 SWAP1 PUSH1 0x1 ADD SWAP2 SWAP1 POP SSTORE SWAP1 POP SWAP2 SWAP1 POP JUMP JUMPDEST PUSH0 PUSH2 0xE65 PUSH2 0xE5F PUSH2 0xAC5 JUMP JUMPDEST DUP4 PUSH2 0x13C4 JUMP JUMPDEST SWAP1 POP SWAP2 SWAP1 POP JUMP JUMPDEST PUSH0 DUP1 PUSH0 DUP1 PUSH2 0xE7C DUP9 DUP9 DUP9 DUP9 PUSH2 0x1404 JUMP JUMPDEST SWAP3 POP SWAP3 POP SWAP3 POP PUSH2 0xE8C DUP3 DUP3 PUSH2 0x14EB JUMP JUMPDEST DUP3 SWAP4 POP POP POP POP SWAP5 SWAP4 POP POP POP POP JUMP JUMPDEST PUSH0 PUSH20 0xFFFFFFFFFFFFFFFFFFFFFFFFFFFFFFFFFFFFFFFF AND DUP5 PUSH20 0xFFFFFFFFFFFFFFFFFFFFFFFFFFFFFFFFFFFFFFFF AND SUB PUSH2 0xF0A JUMPI PUSH0 PUSH1 0x40 MLOAD PUSH32 0xE602DF0500000000000000000000000000000000000000000000000000000000 DUP2 MSTORE PUSH1 0x4 ADD PUSH2 0xF01 SWAP2 SWAP1 PUSH2 0x1B43 JUMP JUMPDEST PUSH1 0x40 MLOAD DUP1 SWAP2 SUB SWAP1 REVERT JUMPDEST PUSH0 PUSH20 0xFFFFFFFFFFFFFFFFFFFFFFFFFFFFFFFFFFFFFFFF AND DUP4 PUSH20 0xFFFFFFFFFFFFFFFFFFFFFFFFFFFFFFFFFFFFFFFF AND SUB PUSH2 0xF7A JUMPI PUSH0 PUSH1 0x40 MLOAD PUSH32 0x94280D6200000000000000000000000000000000000000000000000000000000 DUP2 MSTORE PUSH1 0x4 ADD PUSH2 0xF71 SWAP2 SWAP1 PUSH2 0x1B43 JUMP JUMPDEST PUSH1 0x40 MLOAD DUP1 SWAP2 SUB SWAP1 REVERT JUMPDEST DUP2 PUSH1 0x1 PUSH0 DUP7 PUSH20 0xFFFFFFFFFFFFFFFFFFFFFFFFFFFFFFFFFFFFFFFF AND PUSH20 0xFFFFFFFFFFFFFFFFFFFFFFFFFFFFFFFFFFFFFFFF AND DUP2 MSTORE PUSH1 0x20 ADD SWAP1 DUP2 MSTORE PUSH1 0x20 ADD PUSH0 KECCAK256 PUSH0 DUP6 PUSH20 0xFFFFFFFFFFFFFFFFFFFFFFFFFFFFFFFFFFFFFFFF AND PUSH20 0xFFFFFFFFFFFFFFFFFFFFFFFFFFFFFFFFFFFFFFFF AND DUP2 MSTORE PUSH1 0x20 ADD SWAP1 DUP2 MSTORE PUSH1 0x20 ADD PUSH0 KECCAK256 DUP2 SWAP1 SSTORE POP DUP1 ISZERO PUSH2 0x1063 JUMPI DUP3 PUSH20 0xFFFFFFFFFFFFFFFFFFFFFFFFFFFFFFFFFFFFFFFF AND DUP5 PUSH20 0xFFFFFFFFFFFFFFFFFFFFFFFFFFFFFFFFFFFFFFFF AND PUSH32 0x8C5BE1E5EBEC7D5BD14F71427D1E84F3DD0314C0F7B2291E5B200AC8C7C3B925 DUP5 PUSH1 0x40 MLOAD PUSH2 0x105A SWAP2 SWAP1 PUSH2 0x18C8 JUMP JUMPDEST PUSH1 0x40 MLOAD DUP1 SWAP2 SUB SWAP1 LOG3 JUMPDEST POP POP POP POP JUMP JUMPDEST PUSH0 PUSH20 0xFFFFFFFFFFFFFFFFFFFFFFFFFFFFFFFFFFFFFFFF AND DUP4 PUSH20 0xFFFFFFFFFFFFFFFFFFFFFFFFFFFFFFFFFFFFFFFF AND SUB PUSH2 0x10B9 JUMPI DUP1 PUSH1 0x2 PUSH0 DUP3 DUP3 SLOAD PUSH2 0x10AD SWAP2 SWAP1 PUSH2 0x201B JUMP JUMPDEST SWAP3 POP POP DUP2 SWAP1 SSTORE POP PUSH2 0x1187 JUMP JUMPDEST PUSH0 DUP1 PUSH0 DUP6 PUSH20 0xFFFFFFFFFFFFFFFFFFFFFFFFFFFFFFFFFFFFFFFF AND PUSH20 0xFFFFFFFFFFFFFFFFFFFFFFFFFFFFFFFFFFFFFFFF AND DUP2 MSTORE PUSH1 0x20 ADD SWAP1 DUP2 MSTORE PUSH1 0x20 ADD PUSH0 KECCAK256 SLOAD SWAP1 POP DUP2 DUP2 LT ISZERO PUSH2 0x1142 JUMPI DUP4 DUP2 DUP4 PUSH1 0x40 MLOAD PUSH32 0xE450D38C00000000000000000000000000000000000000000000000000000000 DUP2 MSTORE PUSH1 0x4 ADD PUSH2 0x1139 SWAP4 SWAP3 SWAP2 SWAP1 PUSH2 0x1FE6 JUMP JUMPDEST PUSH1 0x40 MLOAD DUP1 SWAP2 SUB SWAP1 REVERT JUMPDEST DUP2 DUP2 SUB PUSH0 DUP1 DUP7 PUSH20 0xFFFFFFFFFFFFFFFFFFFFFFFFFFFFFFFFFFFFFFFF AND PUSH20 0xFFFFFFFFFFFFFFFFFFFFFFFFFFFFFFFFFFFFFFFF AND DUP2 MSTORE PUSH1 0x20 ADD SWAP1 DUP2 MSTORE PUSH1 0x20 ADD PUSH0 KECCAK256 DUP2 SWAP1 SSTORE POP POP JUMPDEST PUSH0 PUSH20 0xFFFFFFFFFFFFFFFFFFFFFFFFFFFFFFFFFFFFFFFF AND DUP3 PUSH20 0xFFFFFFFFFFFFFFFFFFFFFFFFFFFFFFFFFFFFFFFF AND SUB PUSH2 0x11CE JUMPI DUP1 PUSH1 0x2 PUSH0 DUP3 DUP3 SLOAD SUB SWAP3 POP POP DUP2 SWAP1 SSTORE POP PUSH2 0x1218 JUMP JUMPDEST DUP1 PUSH0 DUP1 DUP5 PUSH20 0xFFFFFFFFFFFFFFFFFFFFFFFFFFFFFFFFFFFFFFFF AND PUSH20 0xFFFFFFFFFFFFFFFFFFFFFFFFFFFFFFFFFFFFFFFF AND DUP2 MSTORE PUSH1 0x20 ADD SWAP1 DUP2 MSTORE PUSH1 0x20 ADD PUSH0 KECCAK256 PUSH0 DUP3 DUP3 SLOAD ADD SWAP3 POP POP DUP2 SWAP1 SSTORE POP JUMPDEST DUP2 PUSH20 0xFFFFFFFFFFFFFFFFFFFFFFFFFFFFFFFFFFFFFFFF AND DUP4 PUSH20 0xFFFFFFFFFFFFFFFFFFFFFFFFFFFFFFFFFFFFFFFF AND PUSH32 0xDDF252AD1BE2C89B69C2B068FC378DAA952BA7F163C4A11628F55A4DF523B3EF DUP4 PUSH1 0x40 MLOAD PUSH2 0x1275 SWAP2 SWAP1 PUSH2 0x18C8 JUMP JUMPDEST PUSH1 0x40 MLOAD DUP1 SWAP2 SUB SWAP1 LOG3 POP POP POP JUMP JUMPDEST PUSH0 PUSH32 0x8B73C3C69BB8FE3D512ECC4CF759CC79239F7B179B0FFACAA9A75D522B39400F PUSH32 0x0 PUSH32 0x0 CHAINID ADDRESS PUSH1 0x40 MLOAD PUSH1 0x20 ADD PUSH2 0x12FC SWAP6 SWAP5 SWAP4 SWAP3 SWAP2 SWAP1 PUSH2 0x204E JUMP JUMPDEST PUSH1 0x40 MLOAD PUSH1 0x20 DUP2 DUP4 SUB SUB DUP2 MSTORE SWAP1 PUSH1 0x40 MSTORE DUP1 MLOAD SWAP1 PUSH1 0x20 ADD KECCAK256 SWAP1 POP SWAP1 JUMP JUMPDEST PUSH1 0x60 PUSH1 0xFF PUSH0 SHL DUP4 EQ PUSH2 0x1333 JUMPI PUSH2 0x132C DUP4 PUSH2 0x164D JUMP JUMPDEST SWAP1 POP PUSH2 0x13BE JUMP JUMPDEST DUP2 DUP1 SLOAD PUSH2 0x133F SWAP1 PUSH2 0x1D1C JUMP JUMPDEST DUP1 PUSH1 0x1F ADD PUSH1 0x20 DUP1 SWAP2 DIV MUL PUSH1 0x20 ADD PUSH1 0x40 MLOAD SWAP1 DUP2 ADD PUSH1 0x40 MSTORE DUP1 SWAP3 SWAP2 SWAP1 DUP2 DUP2 MSTORE PUSH1 0x20 ADD DUP3 DUP1 SLOAD PUSH2 0x136B SWAP1 PUSH2 0x1D1C JUMP JUMPDEST DUP1 ISZERO PUSH2 0x13B6 JUMPI DUP1 PUSH1 0x1F LT PUSH2 0x138D JUMPI PUSH2 0x100 DUP1 DUP4 SLOAD DIV MUL DUP4 MSTORE SWAP2 PUSH1 0x20 ADD SWAP2 PUSH2 0x13B6 JUMP JUMPDEST DUP3 ADD SWAP2 SWAP1 PUSH0 MSTORE PUSH1 0x20 PUSH0 KECCAK256 SWAP1 JUMPDEST DUP2 SLOAD DUP2 MSTORE SWAP1 PUSH1 0x1 ADD SWAP1 PUSH1 0x20 ADD DUP1 DUP4 GT PUSH2 0x1399 JUMPI DUP3 SWAP1 SUB PUSH1 0x1F AND DUP3 ADD SWAP2 JUMPDEST POP POP POP POP POP SWAP1 POP JUMPDEST SWAP3 SWAP2 POP POP JUMP JUMPDEST PUSH0 PUSH1 0x40 MLOAD PUSH32 0x1901000000000000000000000000000000000000000000000000000000000000 DUP2 MSTORE DUP4 PUSH1 0x2 DUP3 ADD MSTORE DUP3 PUSH1 0x22 DUP3 ADD MSTORE PUSH1 0x42 DUP2 KECCAK256 SWAP2 POP POP SWAP3 SWAP2 POP POP JUMP JUMPDEST PUSH0 DUP1 PUSH0 PUSH32 0x7FFFFFFFFFFFFFFFFFFFFFFFFFFFFFFF5D576E7357A4501DDFE92F46681B20A0 DUP5 PUSH0 SHR GT ISZERO PUSH2 0x1440 JUMPI PUSH0 PUSH1 0x3 DUP6 SWAP3 POP SWAP3 POP SWAP3 POP PUSH2 0x14E1 JUMP JUMPDEST PUSH0 PUSH1 0x1 DUP9 DUP9 DUP9 DUP9 PUSH1 0x40 MLOAD PUSH0 DUP2 MSTORE PUSH1 0x20 ADD PUSH1 0x40 MSTORE PUSH1 0x40 MLOAD PUSH2 0x1463 SWAP5 SWAP4 SWAP3 SWAP2 SWAP1 PUSH2 0x209F JUMP JUMPDEST PUSH1 0x20 PUSH1 0x40 MLOAD PUSH1 0x20 DUP2 SUB SWAP1 DUP1 DUP5 SUB SWAP1 DUP6 GAS STATICCALL ISZERO DUP1 ISZERO PUSH2 0x1483 JUMPI RETURNDATASIZE PUSH0 DUP1 RETURNDATACOPY RETURNDATASIZE PUSH0 REVERT JUMPDEST POP POP POP PUSH1 0x20 PUSH1 0x40 MLOAD SUB MLOAD SWAP1 POP PUSH0 PUSH20 0xFFFFFFFFFFFFFFFFFFFFFFFFFFFFFFFFFFFFFFFF AND DUP2 PUSH20 0xFFFFFFFFFFFFFFFFFFFFFFFFFFFFFFFFFFFFFFFF AND SUB PUSH2 0x14D4 JUMPI PUSH0 PUSH1 0x1 PUSH0 DUP1 SHL SWAP4 POP SWAP4 POP SWAP4 POP POP PUSH2 0x14E1 JUMP JUMPDEST DUP1 PUSH0 DUP1 PUSH0 SHL SWAP4 POP SWAP4 POP SWAP4 POP POP JUMPDEST SWAP5 POP SWAP5 POP SWAP5 SWAP2 POP POP JUMP JUMPDEST PUSH0 PUSH1 0x3 DUP2 GT ISZERO PUSH2 0x14FE JUMPI PUSH2 0x14FD PUSH2 0x20E2 JUMP JUMPDEST JUMPDEST DUP3 PUSH1 0x3 DUP2 GT ISZERO PUSH2 0x1511 JUMPI PUSH2 0x1510 PUSH2 0x20E2 JUMP JUMPDEST JUMPDEST SUB ISZERO PUSH2 0x1649 JUMPI PUSH1 0x1 PUSH1 0x3 DUP2 GT ISZERO PUSH2 0x152B JUMPI PUSH2 0x152A PUSH2 0x20E2 JUMP JUMPDEST JUMPDEST DUP3 PUSH1 0x3 DUP2 GT ISZERO PUSH2 0x153E JUMPI PUSH2 0x153D PUSH2 0x20E2 JUMP JUMPDEST JUMPDEST SUB PUSH2 0x1575 JUMPI PUSH1 0x40 MLOAD PUSH32 0xF645EEDF00000000000000000000000000000000000000000000000000000000 DUP2 MSTORE PUSH1 0x4 ADD PUSH1 0x40 MLOAD DUP1 SWAP2 SUB SWAP1 REVERT JUMPDEST PUSH1 0x2 PUSH1 0x3 DUP2 GT ISZERO PUSH2 0x1589 JUMPI PUSH2 0x1588 PUSH2 0x20E2 JUMP JUMPDEST JUMPDEST DUP3 PUSH1 0x3 DUP2 GT ISZERO PUSH2 0x159C JUMPI PUSH2 0x159B PUSH2 0x20E2 JUMP JUMPDEST JUMPDEST SUB PUSH2 0x15E0 JUMPI DUP1 PUSH0 SHR PUSH1 0x40 MLOAD PUSH32 0xFCE698F700000000000000000000000000000000000000000000000000000000 DUP2 MSTORE PUSH1 0x4 ADD PUSH2 0x15D7 SWAP2 SWAP1 PUSH2 0x18C8 JUMP JUMPDEST PUSH1 0x40 MLOAD DUP1 SWAP2 SUB SWAP1 REVERT JUMPDEST PUSH1 0x3 DUP1 DUP2 GT ISZERO PUSH2 0x15F3 JUMPI PUSH2 0x15F2 PUSH2 0x20E2 JUMP JUMPDEST JUMPDEST DUP3 PUSH1 0x3 DUP2 GT ISZERO PUSH2 0x1606 JUMPI PUSH2 0x1605 PUSH2 0x20E2 JUMP JUMPDEST JUMPDEST SUB PUSH2 0x1648 JUMPI DUP1 PUSH1 0x40 MLOAD PUSH32 0xD78BCE0C00000000000000000000000000000000000000000000000000000000 DUP2 MSTORE PUSH1 0x4 ADD PUSH2 0x163F SWAP2 SWAP1 PUSH2 0x197D JUMP JUMPDEST PUSH1 0x40 MLOAD DUP1 SWAP2 SUB SWAP1 REVERT JUMPDEST JUMPDEST POP POP JUMP JUMPDEST PUSH1 0x60 PUSH0 PUSH2 0x1659 DUP4 PUSH2 0x16BF JUMP JUMPDEST SWAP1 POP PUSH0 PUSH1 0x20 PUSH8 0xFFFFFFFFFFFFFFFF DUP2 GT ISZERO PUSH2 0x1677 JUMPI PUSH2 0x1676 PUSH2 0x1F33 JUMP JUMPDEST JUMPDEST PUSH1 0x40 MLOAD SWAP1 DUP1 DUP3 MSTORE DUP1 PUSH1 0x1F ADD PUSH1 0x1F NOT AND PUSH1 0x20 ADD DUP3 ADD PUSH1 0x40 MSTORE DUP1 ISZERO PUSH2 0x16A9 JUMPI DUP2 PUSH1 0x20 ADD PUSH1 0x1 DUP3 MUL DUP1 CALLDATASIZE DUP4 CALLDATACOPY DUP1 DUP3 ADD SWAP2 POP POP SWAP1 POP JUMPDEST POP SWAP1 POP DUP2 DUP2 MSTORE DUP4 PUSH1 0x20 DUP3 ADD MSTORE DUP1 SWAP3 POP POP POP SWAP2 SWAP1 POP JUMP JUMPDEST PUSH0 DUP1 PUSH1 0xFF DUP4 PUSH0 SHR AND SWAP1 POP PUSH1 0x1F DUP2 GT ISZERO PUSH2 0x1704 JUMPI PUSH1 0x40 MLOAD PUSH32 0xB3512B0C00000000000000000000000000000000000000000000000000000000 DUP2 MSTORE PUSH1 0x4 ADD PUSH1 0x40 MLOAD DUP1 SWAP2 SUB SWAP1 REVERT JUMPDEST DUP1 SWAP2 POP POP SWAP2 SWAP1 POP JUMP JUMPDEST PUSH0 DUP2 MLOAD SWAP1 POP SWAP2 SWAP1 POP JUMP JUMPDEST PUSH0 DUP3 DUP3 MSTORE PUSH1 0x20 DUP3 ADD SWAP1 POP SWAP3 SWAP2 POP POP JUMP JUMPDEST PUSH0 JUMPDEST DUP4 DUP2 LT ISZERO PUSH2 0x1744 JUMPI DUP1 DUP3 ADD MLOAD DUP2 DUP5 ADD MSTORE PUSH1 0x20 DUP2 ADD SWAP1 POP PUSH2 0x1729 JUMP JUMPDEST PUSH0 DUP5 DUP5 ADD MSTORE POP POP POP POP JUMP JUMPDEST PUSH0 PUSH1 0x1F NOT PUSH1 0x1F DUP4 ADD AND SWAP1 POP SWAP2 SWAP1 POP JUMP JUMPDEST PUSH0 PUSH2 0x1769 DUP3 PUSH2 0x170D JUMP JUMPDEST PUSH2 0x1773 DUP2 DUP6 PUSH2 0x1717 JUMP JUMPDEST SWAP4 POP PUSH2 0x1783 DUP2 DUP6 PUSH1 0x20 DUP7 ADD PUSH2 0x1727 JUMP JUMPDEST PUSH2 0x178C DUP2 PUSH2 0x174F JUMP JUMPDEST DUP5 ADD SWAP2 POP POP SWAP3 SWAP2 POP POP JUMP JUMPDEST PUSH0 PUSH1 0x20 DUP3 ADD SWAP1 POP DUP2 DUP2 SUB PUSH0 DUP4 ADD MSTORE PUSH2 0x17AF DUP2 DUP5 PUSH2 0x175F JUMP JUMPDEST SWAP1 POP SWAP3 SWAP2 POP POP JUMP JUMPDEST PUSH0 DUP1 REVERT JUMPDEST PUSH0 PUSH20 0xFFFFFFFFFFFFFFFFFFFFFFFFFFFFFFFFFFFFFFFF DUP3 AND SWAP1 POP SWAP2 SWAP1 POP JUMP JUMPDEST PUSH0 PUSH2 0x17E4 DUP3 PUSH2 0x17BB JUMP JUMPDEST SWAP1 POP SWAP2 SWAP1 POP JUMP JUMPDEST PUSH2 0x17F4 DUP2 PUSH2 0x17DA JUMP JUMPDEST DUP2 EQ PUSH2 0x17FE JUMPI PUSH0 DUP1 REVERT JUMPDEST POP JUMP JUMPDEST PUSH0 DUP2 CALLDATALOAD SWAP1 POP PUSH2 0x180F DUP2 PUSH2 0x17EB JUMP JUMPDEST SWAP3 SWAP2 POP POP JUMP JUMPDEST PUSH0 DUP2 SWAP1 POP SWAP2 SWAP1 POP JUMP JUMPDEST PUSH2 0x1827 DUP2 PUSH2 0x1815 JUMP JUMPDEST DUP2 EQ PUSH2 0x1831 JUMPI PUSH0 DUP1 REVERT JUMPDEST POP JUMP JUMPDEST PUSH0 DUP2 CALLDATALOAD SWAP1 POP PUSH2 0x1842 DUP2 PUSH2 0x181E JUMP JUMPDEST SWAP3 SWAP2 POP POP JUMP JUMPDEST PUSH0 DUP1 PUSH1 0x40 DUP4 DUP6 SUB SLT ISZERO PUSH2 0x185E JUMPI PUSH2 0x185D PUSH2 0x17B7 JUMP JUMPDEST JUMPDEST PUSH0 PUSH2 0x186B DUP6 DUP3 DUP7 ADD PUSH2 0x1801 JUMP JUMPDEST SWAP3 POP POP PUSH1 0x20 PUSH2 0x187C DUP6 DUP3 DUP7 ADD PUSH2 0x1834 JUMP JUMPDEST SWAP2 POP POP SWAP3 POP SWAP3 SWAP1 POP JUMP JUMPDEST PUSH0 DUP2 ISZERO ISZERO SWAP1 POP SWAP2 SWAP1 POP JUMP JUMPDEST PUSH2 0x189A DUP2 PUSH2 0x1886 JUMP JUMPDEST DUP3 MSTORE POP POP JUMP JUMPDEST PUSH0 PUSH1 0x20 DUP3 ADD SWAP1 POP PUSH2 0x18B3 PUSH0 DUP4 ADD DUP5 PUSH2 0x1891 JUMP JUMPDEST SWAP3 SWAP2 POP POP JUMP JUMPDEST PUSH2 0x18C2 DUP2 PUSH2 0x1815 JUMP JUMPDEST DUP3 MSTORE POP POP JUMP JUMPDEST PUSH0 PUSH1 0x20 DUP3 ADD SWAP1 POP PUSH2 0x18DB PUSH0 DUP4 ADD DUP5 PUSH2 0x18B9 JUMP JUMPDEST SWAP3 SWAP2 POP POP JUMP JUMPDEST PUSH0 DUP1 PUSH0 PUSH1 0x60 DUP5 DUP7 SUB SLT ISZERO PUSH2 0x18F8 JUMPI PUSH2 0x18F7 PUSH2 0x17B7 JUMP JUMPDEST JUMPDEST PUSH0 PUSH2 0x1905 DUP7 DUP3 DUP8 ADD PUSH2 0x1801 JUMP JUMPDEST SWAP4 POP POP PUSH1 0x20 PUSH2 0x1916 DUP7 DUP3 DUP8 ADD PUSH2 0x1801 JUMP JUMPDEST SWAP3 POP POP PUSH1 0x40 PUSH2 0x1927 DUP7 DUP3 DUP8 ADD PUSH2 0x1834 JUMP JUMPDEST SWAP2 POP POP SWAP3 POP SWAP3 POP SWAP3 JUMP JUMPDEST PUSH0 PUSH1 0xFF DUP3 AND SWAP1 POP SWAP2 SWAP1 POP JUMP JUMPDEST PUSH2 0x1946 DUP2 PUSH2 0x1931 JUMP JUMPDEST DUP3 MSTORE POP POP JUMP JUMPDEST PUSH0 PUSH1 0x20 DUP3 ADD SWAP1 POP PUSH2 0x195F PUSH0 DUP4 ADD DUP5 PUSH2 0x193D JUMP JUMPDEST SWAP3 SWAP2 POP POP JUMP JUMPDEST PUSH0 DUP2 SWAP1 POP SWAP2 SWAP1 POP JUMP JUMPDEST PUSH2 0x1977 DUP2 PUSH2 0x1965 JUMP JUMPDEST DUP3 MSTORE POP POP JUMP JUMPDEST PUSH0 PUSH1 0x20 DUP3 ADD SWAP1 POP PUSH2 0x1990 PUSH0 DUP4 ADD DUP5 PUSH2 0x196E JUMP JUMPDEST SWAP3 SWAP2 POP POP JUMP JUMPDEST PUSH0 PUSH1 0x20 DUP3 DUP5 SUB SLT ISZERO PUSH2 0x19AB JUMPI PUSH2 0x19AA PUSH2 0x17B7 JUMP JUMPDEST JUMPDEST PUSH0 PUSH2 0x19B8 DUP5 DUP3 DUP6 ADD PUSH2 0x1801 JUMP JUMPDEST SWAP2 POP POP SWAP3 SWAP2 POP POP JUMP JUMPDEST PUSH0 PUSH32 0xFF00000000000000000000000000000000000000000000000000000000000000 DUP3 AND SWAP1 POP SWAP2 SWAP1 POP JUMP JUMPDEST PUSH2 0x19F5 DUP2 PUSH2 0x19C1 JUMP JUMPDEST DUP3 MSTORE POP POP JUMP JUMPDEST PUSH2 0x1A04 DUP2 PUSH2 0x17DA JUMP JUMPDEST DUP3 MSTORE POP POP JUMP JUMPDEST PUSH0 DUP2 MLOAD SWAP1 POP SWAP2 SWAP1 POP JUMP JUMPDEST PUSH0 DUP3 DUP3 MSTORE PUSH1 0x20 DUP3 ADD SWAP1 POP SWAP3 SWAP2 POP POP JUMP JUMPDEST PUSH0 DUP2 SWAP1 POP PUSH1 0x20 DUP3 ADD SWAP1 POP SWAP2 SWAP1 POP JUMP JUMPDEST PUSH2 0x1A3C DUP2 PUSH2 0x1815 JUMP JUMPDEST DUP3 MSTORE POP POP JUMP JUMPDEST PUSH0 PUSH2 0x1A4D DUP4 DUP4 PUSH2 0x1A33 JUMP JUMPDEST PUSH1 0x20 DUP4 ADD SWAP1 POP SWAP3 SWAP2 POP POP JUMP JUMPDEST PUSH0 PUSH1 0x20 DUP3 ADD SWAP1 POP SWAP2 SWAP1 POP JUMP JUMPDEST PUSH0 PUSH2 0x1A6F DUP3 PUSH2 0x1A0A JUMP JUMPDEST PUSH2 0x1A79 DUP2 DUP6 PUSH2 0x1A14 JUMP JUMPDEST SWAP4 POP PUSH2 0x1A84 DUP4 PUSH2 0x1A24 JUMP JUMPDEST DUP1 PUSH0 JUMPDEST DUP4 DUP2 LT ISZERO PUSH2 0x1AB4 JUMPI DUP2 MLOAD PUSH2 0x1A9B DUP9 DUP3 PUSH2 0x1A42 JUMP JUMPDEST SWAP8 POP PUSH2 0x1AA6 DUP4 PUSH2 0x1A59 JUMP JUMPDEST SWAP3 POP POP PUSH1 0x1 DUP2 ADD SWAP1 POP PUSH2 0x1A87 JUMP JUMPDEST POP DUP6 SWAP4 POP POP POP POP SWAP3 SWAP2 POP POP JUMP JUMPDEST PUSH0 PUSH1 0xE0 DUP3 ADD SWAP1 POP PUSH2 0x1AD4 PUSH0 DUP4 ADD DUP11 PUSH2 0x19EC JUMP JUMPDEST DUP2 DUP2 SUB PUSH1 0x20 DUP4 ADD MSTORE PUSH2 0x1AE6 DUP2 DUP10 PUSH2 0x175F JUMP JUMPDEST SWAP1 POP DUP2 DUP2 SUB PUSH1 0x40 DUP4 ADD MSTORE PUSH2 0x1AFA DUP2 DUP9 PUSH2 0x175F JUMP JUMPDEST SWAP1 POP PUSH2 0x1B09 PUSH1 0x60 DUP4 ADD DUP8 PUSH2 0x18B9 JUMP JUMPDEST PUSH2 0x1B16 PUSH1 0x80 DUP4 ADD DUP7 PUSH2 0x19FB JUMP JUMPDEST PUSH2 0x1B23 PUSH1 0xA0 DUP4 ADD DUP6 PUSH2 0x196E JUMP JUMPDEST DUP2 DUP2 SUB PUSH1 0xC0 DUP4 ADD MSTORE PUSH2 0x1B35 DUP2 DUP5 PUSH2 0x1A65 JUMP JUMPDEST SWAP1 POP SWAP9 SWAP8 POP POP POP POP POP POP POP POP JUMP JUMPDEST PUSH0 PUSH1 0x20 DUP3 ADD SWAP1 POP PUSH2 0x1B56 PUSH0 DUP4 ADD DUP5 PUSH2 0x19FB JUMP JUMPDEST SWAP3 SWAP2 POP POP JUMP JUMPDEST PUSH0 DUP1 PUSH0 DUP1 PUSH1 0x80 DUP6 DUP8 SUB SLT ISZERO PUSH2 0x1B74 JUMPI PUSH2 0x1B73 PUSH2 0x17B7 JUMP JUMPDEST JUMPDEST PUSH0 PUSH2 0x1B81 DUP8 DUP3 DUP9 ADD PUSH2 0x1801 JUMP JUMPDEST SWAP5 POP POP PUSH1 0x20 PUSH2 0x1B92 DUP8 DUP3 DUP9 ADD PUSH2 0x1801 JUMP JUMPDEST SWAP4 POP POP PUSH1 0x40 PUSH2 0x1BA3 DUP8 DUP3 DUP9 ADD PUSH2 0x1834 JUMP JUMPDEST SWAP3 POP POP PUSH1 0x60 PUSH2 0x1BB4 DUP8 DUP3 DUP9 ADD PUSH2 0x1801 JUMP JUMPDEST SWAP2 POP POP SWAP3 SWAP6 SWAP2 SWAP5 POP SWAP3 POP JUMP JUMPDEST PUSH2 0x1BC9 DUP2 PUSH2 0x1931 JUMP JUMPDEST DUP2 EQ PUSH2 0x1BD3 JUMPI PUSH0 DUP1 REVERT JUMPDEST POP JUMP JUMPDEST PUSH0 DUP2 CALLDATALOAD SWAP1 POP PUSH2 0x1BE4 DUP2 PUSH2 0x1BC0 JUMP JUMPDEST SWAP3 SWAP2 POP POP JUMP JUMPDEST PUSH2 0x1BF3 DUP2 PUSH2 0x1965 JUMP JUMPDEST DUP2 EQ PUSH2 0x1BFD JUMPI PUSH0 DUP1 REVERT JUMPDEST POP JUMP JUMPDEST PUSH0 DUP2 CALLDATALOAD SWAP1 POP PUSH2 0x1C0E DUP2 PUSH2 0x1BEA JUMP JUMPDEST SWAP3 SWAP2 POP POP JUMP JUMPDEST PUSH0 DUP1 PUSH0 DUP1 PUSH0 DUP1 PUSH0 PUSH1 0xE0 DUP9 DUP11 SUB SLT ISZERO PUSH2 0x1C2F JUMPI PUSH2 0x1C2E PUSH2 0x17B7 JUMP JUMPDEST JUMPDEST PUSH0 PUSH2 0x1C3C DUP11 DUP3 DUP12 ADD PUSH2 0x1801 JUMP JUMPDEST SWAP8 POP POP PUSH1 0x20 PUSH2 0x1C4D DUP11 DUP3 DUP12 ADD PUSH2 0x1801 JUMP JUMPDEST SWAP7 POP POP PUSH1 0x40 PUSH2 0x1C5E DUP11 DUP3 DUP12 ADD PUSH2 0x1834 JUMP JUMPDEST SWAP6 POP POP PUSH1 0x60 PUSH2 0x1C6F DUP11 DUP3 DUP12 ADD PUSH2 0x1834 JUMP JUMPDEST SWAP5 POP POP PUSH1 0x80 PUSH2 0x1C80 DUP11 DUP3 DUP12 ADD PUSH2 0x1BD6 JUMP JUMPDEST SWAP4 POP POP PUSH1 0xA0 PUSH2 0x1C91 DUP11 DUP3 DUP12 ADD PUSH2 0x1C00 JUMP JUMPDEST SWAP3 POP POP PUSH1 0xC0 PUSH2 0x1CA2 DUP11 DUP3 DUP12 ADD PUSH2 0x1C00 JUMP JUMPDEST SWAP2 POP POP SWAP3 SWAP6 SWAP9 SWAP2 SWAP5 SWAP8 POP SWAP3 SWAP6 POP JUMP JUMPDEST PUSH0 DUP1 PUSH1 0x40 DUP4 DUP6 SUB SLT ISZERO PUSH2 0x1CC7 JUMPI PUSH2 0x1CC6 PUSH2 0x17B7 JUMP JUMPDEST JUMPDEST PUSH0 PUSH2 0x1CD4 DUP6 DUP3 DUP7 ADD PUSH2 0x1801 JUMP JUMPDEST SWAP3 POP POP PUSH1 0x20 PUSH2 0x1CE5 DUP6 DUP3 DUP7 ADD PUSH2 0x1801 JUMP JUMPDEST SWAP2 POP POP SWAP3 POP SWAP3 SWAP1 POP JUMP JUMPDEST PUSH32 0x4E487B7100000000000000000000000000000000000000000000000000000000 PUSH0 MSTORE PUSH1 0x22 PUSH1 0x4 MSTORE PUSH1 0x24 PUSH0 REVERT JUMPDEST PUSH0 PUSH1 0x2 DUP3 DIV SWAP1 POP PUSH1 0x1 DUP3 AND DUP1 PUSH2 0x1D33 JUMPI PUSH1 0x7F DUP3 AND SWAP2 POP JUMPDEST PUSH1 0x20 DUP3 LT DUP2 SUB PUSH2 0x1D46 JUMPI PUSH2 0x1D45 PUSH2 0x1CEF JUMP JUMPDEST JUMPDEST POP SWAP2 SWAP1 POP JUMP JUMPDEST PUSH32 0x4E487B7100000000000000000000000000000000000000000000000000000000 PUSH0 MSTORE PUSH1 0x11 PUSH1 0x4 MSTORE PUSH1 0x24 PUSH0 REVERT JUMPDEST PUSH0 DUP2 PUSH1 0x1 SHR SWAP1 POP SWAP2 SWAP1 POP JUMP JUMPDEST PUSH0 DUP1 DUP3 SWAP2 POP DUP4 SWAP1 POP JUMPDEST PUSH1 0x1 DUP6 GT ISZERO PUSH2 0x1DCE JUMPI DUP1 DUP7 DIV DUP2 GT ISZERO PUSH2 0x1DAA JUMPI PUSH2 0x1DA9 PUSH2 0x1D4C JUMP JUMPDEST JUMPDEST PUSH1 0x1 DUP6 AND ISZERO PUSH2 0x1DB9 JUMPI DUP1 DUP3 MUL SWAP2 POP JUMPDEST DUP1 DUP2 MUL SWAP1 POP PUSH2 0x1DC7 DUP6 PUSH2 0x1D79 JUMP JUMPDEST SWAP5 POP PUSH2 0x1D8E JUMP JUMPDEST SWAP5 POP SWAP5 SWAP3 POP POP POP JUMP JUMPDEST PUSH0 DUP3 PUSH2 0x1DE6 JUMPI PUSH1 0x1 SWAP1 POP PUSH2 0x1EA1 JUMP JUMPDEST DUP2 PUSH2 0x1DF3 JUMPI PUSH0 SWAP1 POP PUSH2 0x1EA1 JUMP JUMPDEST DUP2 PUSH1 0x1 DUP2 EQ PUSH2 0x1E09 JUMPI PUSH1 0x2 DUP2 EQ PUSH2 0x1E13 JUMPI PUSH2 0x1E42 JUMP JUMPDEST PUSH1 0x1 SWAP2 POP POP PUSH2 0x1EA1 JUMP JUMPDEST PUSH1 0xFF DUP5 GT ISZERO PUSH2 0x1E25 JUMPI PUSH2 0x1E24 PUSH2 0x1D4C JUMP JUMPDEST JUMPDEST DUP4 PUSH1 0x2 EXP SWAP2 POP DUP5 DUP3 GT ISZERO PUSH2 0x1E3C JUMPI PUSH2 0x1E3B PUSH2 0x1D4C JUMP JUMPDEST JUMPDEST POP PUSH2 0x1EA1 JUMP JUMPDEST POP PUSH1 0x20 DUP4 LT PUSH2 0x133 DUP4 LT AND PUSH1 0x4E DUP5 LT PUSH1 0xB DUP5 LT AND OR ISZERO PUSH2 0x1E77 JUMPI DUP3 DUP3 EXP SWAP1 POP DUP4 DUP2 GT ISZERO PUSH2 0x1E72 JUMPI PUSH2 0x1E71 PUSH2 0x1D4C JUMP JUMPDEST JUMPDEST PUSH2 0x1EA1 JUMP JUMPDEST PUSH2 0x1E84 DUP5 DUP5 DUP5 PUSH1 0x1 PUSH2 0x1D85 JUMP JUMPDEST SWAP3 POP SWAP1 POP DUP2 DUP5 DIV DUP2 GT ISZERO PUSH2 0x1E9B JUMPI PUSH2 0x1E9A PUSH2 0x1D4C JUMP JUMPDEST JUMPDEST DUP2 DUP2 MUL SWAP1 POP JUMPDEST SWAP4 SWAP3 POP POP POP JUMP JUMPDEST PUSH0 PUSH2 0x1EB2 DUP3 PUSH2 0x1815 JUMP JUMPDEST SWAP2 POP PUSH2 0x1EBD DUP4 PUSH2 0x1815 JUMP JUMPDEST SWAP3 POP PUSH2 0x1EEA PUSH32 0xFFFFFFFFFFFFFFFFFFFFFFFFFFFFFFFFFFFFFFFFFFFFFFFFFFFFFFFFFFFFFFFF DUP5 DUP5 PUSH2 0x1DD7 JUMP JUMPDEST SWAP1 POP SWAP3 SWAP2 POP POP JUMP JUMPDEST PUSH0 PUSH2 0x1EFC DUP3 PUSH2 0x1815 JUMP JUMPDEST SWAP2 POP PUSH2 0x1F07 DUP4 PUSH2 0x1815 JUMP JUMPDEST SWAP3 POP DUP3 DUP3 MUL PUSH2 0x1F15 DUP2 PUSH2 0x1815 JUMP JUMPDEST SWAP2 POP DUP3 DUP3 DIV DUP5 EQ DUP4 ISZERO OR PUSH2 0x1F2C JUMPI PUSH2 0x1F2B PUSH2 0x1D4C JUMP JUMPDEST JUMPDEST POP SWAP3 SWAP2 POP POP JUMP JUMPDEST PUSH32 0x4E487B7100000000000000000000000000000000000000000000000000000000 PUSH0 MSTORE PUSH1 0x41 PUSH1 0x4 MSTORE PUSH1 0x24 PUSH0 REVERT JUMPDEST PUSH0 PUSH1 0xC0 DUP3 ADD SWAP1 POP PUSH2 0x1F73 PUSH0 DUP4 ADD DUP10 PUSH2 0x196E JUMP JUMPDEST PUSH2 0x1F80 PUSH1 0x20 DUP4 ADD DUP9 PUSH2 0x19FB JUMP JUMPDEST PUSH2 0x1F8D PUSH1 0x40 DUP4 ADD DUP8 PUSH2 0x19FB JUMP JUMPDEST PUSH2 0x1F9A PUSH1 0x60 DUP4 ADD DUP7 PUSH2 0x18B9 JUMP JUMPDEST PUSH2 0x1FA7 PUSH1 0x80 DUP4 ADD DUP6 PUSH2 0x18B9 JUMP JUMPDEST PUSH2 0x1FB4 PUSH1 0xA0 DUP4 ADD DUP5 PUSH2 0x18B9 JUMP JUMPDEST SWAP8 SWAP7 POP POP POP POP POP POP POP JUMP JUMPDEST PUSH0 PUSH1 0x40 DUP3 ADD SWAP1 POP PUSH2 0x1FD2 PUSH0 DUP4 ADD DUP6 PUSH2 0x19FB JUMP JUMPDEST PUSH2 0x1FDF PUSH1 0x20 DUP4 ADD DUP5 PUSH2 0x19FB JUMP JUMPDEST SWAP4 SWAP3 POP POP POP JUMP JUMPDEST PUSH0 PUSH1 0x60 DUP3 ADD SWAP1 POP PUSH2 0x1FF9 PUSH0 DUP4 ADD DUP7 PUSH2 0x19FB JUMP JUMPDEST PUSH2 0x2006 PUSH1 0x20 DUP4 ADD DUP6 PUSH2 0x18B9 JUMP JUMPDEST PUSH2 0x2013 PUSH1 0x40 DUP4 ADD DUP5 PUSH2 0x18B9 JUMP JUMPDEST SWAP5 SWAP4 POP POP POP POP JUMP JUMPDEST PUSH0 PUSH2 0x2025 DUP3 PUSH2 0x1815 JUMP JUMPDEST SWAP2 POP PUSH2 0x2030 DUP4 PUSH2 0x1815 JUMP JUMPDEST SWAP3 POP DUP3 DUP3 ADD SWAP1 POP DUP1 DUP3 GT ISZERO PUSH2 0x2048 JUMPI PUSH2 0x2047 PUSH2 0x1D4C JUMP JUMPDEST JUMPDEST SWAP3 SWAP2 POP POP JUMP JUMPDEST PUSH0 PUSH1 0xA0 DUP3 ADD SWAP1 POP PUSH2 0x2061 PUSH0 DUP4 ADD DUP9 PUSH2 0x196E JUMP JUMPDEST PUSH2 0x206E PUSH1 0x20 DUP4 ADD DUP8 PUSH2 0x196E JUMP JUMPDEST PUSH2 0x207B PUSH1 0x40 DUP4 ADD DUP7 PUSH2 0x196E JUMP JUMPDEST PUSH2 0x2088 PUSH1 0x60 DUP4 ADD DUP6 PUSH2 0x18B9 JUMP JUMPDEST PUSH2 0x2095 PUSH1 0x80 DUP4 ADD DUP5 PUSH2 0x19FB JUMP JUMPDEST SWAP7 SWAP6 POP POP POP POP POP POP JUMP JUMPDEST PUSH0 PUSH1 0x80 DUP3 ADD SWAP1 POP PUSH2 0x20B2 PUSH0 DUP4 ADD DUP8 PUSH2 0x196E JUMP JUMPDEST PUSH2 0x20BF PUSH1 0x20 DUP4 ADD DUP7 PUSH2 0x193D JUMP JUMPDEST PUSH2 0x20CC PUSH1 0x40 DUP4 ADD DUP6 PUSH2 0x196E JUMP JUMPDEST PUSH2 0x20D9 PUSH1 0x60 DUP4 ADD DUP5 PUSH2 0x196E JUMP JUMPDEST SWAP6 SWAP5 POP POP POP POP POP JUMP JUMPDEST PUSH32 0x4E487B7100000000000000000000000000000000000000000000000000000000 PUSH0 MSTORE PUSH1 0x21 PUSH1 0x4 MSTORE PUSH1 0x24 PUSH0 REVERT INVALID LOG2 PUSH5 0x6970667358 0x22 SLT KECCAK256 0xB9 ADDRESS BYTE MSTORE DUP1 0xB0 0xB7 SIGNEXTEND PUSH22 0xDEB7BA233D4F94F4A53D116A7BB2A5E5EE206DA86069 EXTCODESIZE PUSH5 0x736F6C6343 STOP ADDMOD XOR STOP CALLER "
				},
				"gasEstimates": {
					"creation": {
						"codeDepositCost": "1703400",
						"executionCost": "infinite",
						"totalCost": "infinite"
					},
					"external": {
						"DOMAIN_SEPARATOR()": "infinite",
						"allowance(address,address)": "infinite",
						"approve(address,uint256)": "infinite",
						"balanceOf(address)": "2918",
						"decimals()": "361",
						"eip712Domain()": "infinite",
						"mint(address,uint256)": "infinite",
						"name()": "infinite",
						"nonces(address)": "2894",
						"owner()": "2582",
						"permit(address,address,uint256,uint256,uint8,bytes32,bytes32)": "infinite",
						"renounceOwnership()": "infinite",
						"symbol()": "infinite",
						"totalSupply()": "2500",
						"transfer(address,uint256)": "infinite",
						"transferFrom(address,address,uint256)": "infinite",
						"transferFromCustom(address,address,uint256,address)": "infinite",
						"transferOwnership(address)": "infinite"
					}
				},
				"methodIdentifiers": {
					"DOMAIN_SEPARATOR()": "3644e515",
					"allowance(address,address)": "dd62ed3e",
					"approve(address,uint256)": "095ea7b3",
					"balanceOf(address)": "70a08231",
					"decimals()": "313ce567",
					"eip712Domain()": "84b0196e",
					"mint(address,uint256)": "40c10f19",
					"name()": "06fdde03",
					"nonces(address)": "7ecebe00",
					"owner()": "8da5cb5b",
					"permit(address,address,uint256,uint256,uint8,bytes32,bytes32)": "d505accf",
					"renounceOwnership()": "715018a6",
					"symbol()": "95d89b41",
					"totalSupply()": "18160ddd",
					"transfer(address,uint256)": "a9059cbb",
					"transferFrom(address,address,uint256)": "23b872dd",
					"transferFromCustom(address,address,uint256,address)": "ad24b8d0",
					"transferOwnership(address)": "f2fde38b"
				}
			},
			"storageLayout": {
				"storage": [
					{
						"astId": 332,
						"contract": "Project/LandToken.sol:LandToken",
						"label": "_balances",
						"offset": 0,
						"slot": "0",
						"type": "t_mapping(t_address,t_uint256)"
					},
					{
						"astId": 338,
						"contract": "Project/LandToken.sol:LandToken",
						"label": "_allowances",
						"offset": 0,
						"slot": "1",
						"type": "t_mapping(t_address,t_mapping(t_address,t_uint256))"
					},
					{
						"astId": 340,
						"contract": "Project/LandToken.sol:LandToken",
						"label": "_totalSupply",
						"offset": 0,
						"slot": "2",
						"type": "t_uint256"
					},
					{
						"astId": 342,
						"contract": "Project/LandToken.sol:LandToken",
						"label": "_name",
						"offset": 0,
						"slot": "3",
						"type": "t_string_storage"
					},
					{
						"astId": 344,
						"contract": "Project/LandToken.sol:LandToken",
						"label": "_symbol",
						"offset": 0,
						"slot": "4",
						"type": "t_string_storage"
					},
					{
						"astId": 8,
						"contract": "Project/LandToken.sol:LandToken",
						"label": "_owner",
						"offset": 0,
						"slot": "5",
						"type": "t_address"
					},
					{
						"astId": 2211,
						"contract": "Project/LandToken.sol:LandToken",
						"label": "_nameFallback",
						"offset": 0,
						"slot": "6",
						"type": "t_string_storage"
					},
					{
						"astId": 2213,
						"contract": "Project/LandToken.sol:LandToken",
						"label": "_versionFallback",
						"offset": 0,
						"slot": "7",
						"type": "t_string_storage"
					},
					{
						"astId": 1190,
						"contract": "Project/LandToken.sol:LandToken",
						"label": "_nonces",
						"offset": 0,
						"slot": "8",
						"type": "t_mapping(t_address,t_uint256)"
					}
				],
				"types": {
					"t_address": {
						"encoding": "inplace",
						"label": "address",
						"numberOfBytes": "20"
					},
					"t_mapping(t_address,t_mapping(t_address,t_uint256))": {
						"encoding": "mapping",
						"key": "t_address",
						"label": "mapping(address => mapping(address => uint256))",
						"numberOfBytes": "32",
						"value": "t_mapping(t_address,t_uint256)"
					},
					"t_mapping(t_address,t_uint256)": {
						"encoding": "mapping",
						"key": "t_address",
						"label": "mapping(address => uint256)",
						"numberOfBytes": "32",
						"value": "t_uint256"
					},
					"t_string_storage": {
						"encoding": "bytes",
						"label": "string",
						"numberOfBytes": "32"
					},
					"t_uint256": {
						"encoding": "inplace",
						"label": "uint256",
						"numberOfBytes": "32"
					}
				}
			},
			"userdoc": {
				"kind": "user",
				"methods": {},
				"version": 1
			}
		}
	}
}